:040000006F005049F4
:100004000000000000000000A00000200A080020FA
:10001400A9BDF9F3A00000200000000000000000CA
:10002400A0000020A000002000000000000000004C
:10003400A000002000000000A0000020000000003C
:10004400A0000020A0000020A0000020A0000020AC
:10005400A0000020A0000020A0000020000000005C
:10006400A0000020A0000020A0000020A00000208C
:10007400A0000020A0000020A0000020A00000207C
:10008400A0000020A0000020A0000020A00000206C
:10009400A0000020A0000020A0000020A00000205C
:1000A40001A0B7170040984B41111367070198CB83
:1000B400982B1377E70F98AB1307800873370780E3
:1000C400137787083AC60F100000130770052380C2
:1000D400E704130780FA2380E7040F100000B847F1
:1000E400B70600069506558FB8C703C7B70413773C
:1000F400F70DA385E704B82713672701B8A71307EB
:1001040050149AA7372700408346578093F6F60E7B
:10011400A302D7808946A303D78003C7E7041377D4
:10012400C70F136717002387E70403C7F702136792
:100134002700A387E702982B1367170098AB238047
:100144000704B247F3A707800F1000004101828023
:10015400EFF03FF513050020970500009385450A4D
:1001640017160000130606B363FAC50083220500C0
:1001740023A0550011059105E3EAC5FE171500E01B
:100184001305C5C9971500009385C5B01386418032
:1001940063FAC5008322050023A0550011059105CB
:1001A400E3EAC5FE17150000130505AF938581BD6D
:1001B4006377B500232005001105E36DB5FE9302B6
:1001C4005002739002BC8D427390428085427390BA
:1001D40012BC896293828288739002309702000075
:1001E400938242E293E2320073905230971200E01D
:0C01F4009382A2AE73901234730020308E
:10020000B7170040984B41111367070198CB982B03
:100210001377E70F98AB13078008733707801377BE
:1002200087083AC60F100000130770052380E70403
:10023000130780FA2380E7040F100000B827136724
:100240002700B8A701000100B82713670701B8A766
:1002500001000100372700408346578093F6F60ED1
:10026000A302D7808946A303D78001001307501C3F
:100270009AA7130750149AA70100982B1367170029
:1002800098AB23800704B247F3A707800F10000044
:1002900041018280797126D2B7C42D0022D44AD080
:1002A0004ECE52CC56CA5AC85EC606D60144994BA9
:1002B000971900009389899E9384046CB78A004043
:1002C000114B37190040056A0504334404086314D0
:1002D0007401ED2A01445145552B83A70900850778
:1002E00023A0F900E3F2F4FE23806A018357A901F9
:1002F0002945B3C7070893F7F7F3B3C70708231DCA
:10030000F9004523029AC9B7938781A10947238041
:10031000A704A3800704B78700402384E70203C72C
:10032000A7021377C70F2385E702828081476313F3
:10033000F60082803387F50014233307F500850724
:1003400014A3F5B7797122D417140000130444964E
:100350001C2006D626D24AD04ECE13072008638D25
:10036000E712636DF700130700086385E7041307BE
:100370001008638BE70E1305E00FA9A013073008E0
:10038000E39BE7FEB7870040114798A3371700406B
:100390003E2F2945B3C7070893F7F7F3B3C70708FC
:1003A0003EAF01232254B25092540259F24985675C
:1003B0004561828704301384C180B1E01E2091EB37
:1003C000814426852254B25092540259F249456123
:1003D00025BF1E20171600001306869109458D07BC
:1003E000F19BB3C707081EA09715000083A5458B96
:1003F000162069239374F50F23960180D9B70A203C
:10040000171900001309C98E2686971500009385D9
:10041000458A4A95213F1E20BE94B3C4040806A015
:100420001A209307F00FE3FDE7F89719000093896E
:10043000298783A509004A869306001009453D2BAC
:1004400083A709009374F50F93858195938707100F
:1004500023A0F9001E204A85938707F0B3C7070839
:100460001EA01220E135B1BF3E2042201305E00F4F
:1004700042045D8C8567E317F4F4B7F60600014685
:1004800085650545E529239601801375F50F9717B6
:10049000000023A787803DB714309715000093858F
:1004A0008581171500001305A584368636C6BD3D27
:1004B0005E202E20B246C2071716000013064683A0
:1004C000DD8D0D4565291375F50FEDBD011122CCAC
:1004D00006CE26CA4AC84EC652C456C25AC037842F
:1004E000004078209377F70F098B630B072E1707CF
:1004F00000002325077A9397476063C407027C3086
:100500001307000293F7F703638FE70A6361F706A7
:10051000638D07100947638DE706B78700400947D9
:10052000F8A3378700407C339397476063D707165B
:10053000930720FC2301F702938781B1FA239433B8
:1005400083C90700138441811AA0238BD18093FAB9
:100550000906639E0A122946636BD612171600E03D
:1005600013064684B3C6C6209442B2968286130709
:1005700010026381E70413072002E390E7FA834740
:10058000A40293F7C70F93E727002305F40271B77E
:100590007C3093F70704D1D30024938581A11705FC
:1005A00000001305E5701374F40F22864133228591
:1005B000513BA5B78347640293F7C70F93E7270022
:1005C0002303F40299BF83C7618115476388E70459
:1005D0001947639EE704938A4181138A018183D975
:1005E0000A0003290A0093040004B3D4990ACA85B7
:1005F0002686138581B1B38999402699053B13FB63
:10060000F40F23903A0123202A0123006403834737
:10061000240293C707042301F40201B73C3003C747
:10062000418193F70708D98F3CB08947EDB7230084
:100630000402E5BFBE2309461389018193D68700D2
:10064000638BC6068D456382B60885476397F608B7
:10065000970700E09387877B2320F9008144C947EF
:1006600063F3E7001EA0032A0900035B040093075D
:100670000004D285335BFB0A138581B15A867D3134
:100680005A9A232049019307F00F6395F40AB7871C
:1006900000401307F0FC2381E702B78700400947B9
:1006A000F8A3F2406244D2444249B249224A924AF3
:1006B000024B05618280970700E093872773232010
:1006C000F90081449307000261BF93F7F70F854655
:1006D0006389D7006380C7029DC781479304F00FE9
:1006E00041B7970700E09387676F2320F9008144A3
:1006F000B947BDB7970700E09387876D2320F900BE
:100700008144B147B1BF970700009387E758232082
:10071000F90081449147A9B7BC231EA021A883C634
:10072000718194A3854763F7E7008547FDB7BE2332
:10073000A38BF1809399496063DB09001E201307A6
:10074000000433D7E70A998F937AF70F1EA0B78773
:10075000004023805703130700FC35BF13F7F9014E
:100760008946E316D7F2DC2393061008638FD7027D
:1007700063EEF60085466385D704E39AE7F0378792
:1007800000408347A70293F7370729A813072008DB
:10079000E39FE7EE378700408347A70293F7C70B35
:1007A00093E727002305F70271B737870040834797
:1007B000670293F7C70B93E727002303F7029DBF58
:1007C000378700408347670293F73707FDB7238CCD
:1007D00001B089BF239C01B08947E3FDE7F435BF31
:1007E00013F7170005C3A301040089472301F4028E
:1007F000C9472303F4022305F4022307F4028547C3
:100800007CA045B513F7470065DF9147D5BF41117F
:100810008146014681451145952213078008F3372B
:10082000078093F787083EC40F100000B7170040F9
:10083000130670052380C704930680FA2380D7042B
:100840000F100000FD55CEB723800704A245F3A585
:1008500005800F10000073370780137787083AC6AA
:100860000F1000002380C7042380D7040F1000005E
:1008700003C76704136717002383E7042380070473
:10088000B247F3A707800F10000001A09307E00410
:100890003305F50295473355F50201007D1575FDC9
:1008A0008280411122C406C62A841305803E7D142D
:1008B000F13F3344040875F8B2402244410182807C
:1008C0002303048015472303E48001002302A4804E
:1008D000828083076480E3CE07FE23030480828046
:1008E00083076480E3CE07FE03454480828083074C
:1008F0006480E3CE07FE2302A4808280411126C4D7
:100900004AC24EC006C61377F50BAD47AA892E8999
:1009100095446306F70019456537653F8D444E855C
:100920004537FD59FD1463983401B240A244124981
:10093000824941018280135509011375F50F453F26
:100940002209CDB7011126CC06CEB70408005137D5
:100950001545BD37713769372AC6A53F32459377AC
:10096000150089EB136515001375F50FF240E2448D
:1009700005618280FD14E9FC0145CDBF3971B7F7EF
:10098000070006DE26DC4ADA4ED852D656D45AD2B2
:100990005ED062CE03AB47027D57B7E700E083AA83
:1009A000070022C603AA470023A0E71823A2E718DE
:1009B000B71B0040930770052380FB04930780FA60
:1009C0002380FB0483C74B041147AA8993E7070ED2
:1009D0002382FB04372400401305F00F2303E48037
:1009E0002E8C3289B684E93DED35938779FF93F7F4
:1009F000F70F0947137BFB006362F712A147370724
:100A000008006307FB00B70707003E9C3787070015
:100A10007955637EEC02B3878401636AF702A947C4
:100A20006398F90689E481446D3526850DA0E28539
:100A30000945E93505090345F9FFFD14050C453D58
:100A400081C49377FC0FFDF7F53D69FD7D55B71720
:100A50000040130770052380E704130780FA238002
:100A6000E70403C74704418B2382E704F250B7E74A
:100A700000E023A0571123A24711E25432445259F7
:100A8000C259325AA25A125B825B724C2161828037
:100A9000A547639AF906A1478569631DFB02938701
:100AA000F9FFB3869700B374FC00B69493C7F7FFC1
:100AB000FD8C33FC8701416B856B9387F9FFB3F79E
:100AC000870199E363FF340193D94900C147E3E605
:100AD00037FF91BF9307F00FE9B78567C169FD172D
:100AE000C9B71305800D638869011305000263848B
:100AF000790113051008E2851135A93521D94E9CDD
:100B0000B3843441C1B7E2852D45CD3BCA94E30C93
:100B100099F00509F133A30FA9FED5BF9387F9FF1B
:100B200093F7F70F636FF70AA1476319FB06B7073F
:100B300008003E9C83C75B043707070093F7070252
:100B400099E337870700B70708003E977955E370A8
:100B5000ECF0B3079C00E36CF7EE8947639AF90465
:100B60008980D549E38104ECE2850945413B1109BF
:100B70000327C9FF91472320E48003076480E34EE5
:100B800007FE23033481FD17EDFBFD14110C81C416
:100B90009377FC0FE9FF7D3371F54DBD83C75B048F
:100BA0003707070093F70702D5F33787070079BFA8
:100BB0008547E384F9F2E2852D4589339389F4FF73
:100BC000E38304E6313B93F7390091EB83260480FD
:100BD0000327090093074900E398E6E43E89CE84A1
:100BE000F1BFB5476396F9001305900BD13925BDC8
:100BF000B1471305B00AE38BF9FE99476394F904F2
:100C0000A1476315FB00B70708003E9CE2852D4510
:100C1000F53181440D4BA149E1316396640183278D
:100C200004802320F9008504E39834FF832704809F
:100C300013172C01635507002312F900EDB323228B
:100C4000F900D5B39D476399F90281451305B004B6
:100C50007531BD442320090023220900FD59493183
:100C600093F77400CA9703C70700FD14398D2380DA
:100C7000A700E39634FF45BB91476399F90013053C
:100C800060063D39B931130590098DB7E38D09D858
:040C9000F15459BB07
:100C9400970100209381C17F17F101201301413690
:100CA4001305400097F5FF1F9385853517F6FF1F41
:100CB4001306C65463FAC5008322050023A0550019
:100CC40011059105E3EAC5FE17F5FF1F1305454815
:100CD4000285411106C622C497F0FF1FE780005227
:100CE400371400401307440D1C432945BD9B1CC306
:100CF4001307040D1C4393E707011CC31307040CDB
:100D04001C431304440CBD9B1CC397000020E780C4
:100D140000B91C40C18B99CB154597000020E78092
:100D240000B81C40C18B99C385678297B787004080
:100D3400238007001307C0FCD8A7D8B7138781B155
:100D440098CB138781A9D8CB138781A198CF138718
:100D54008199D8CF89462381D70249472383E70263
:100D64002385E7022387E7022389D702A3810700AB
:100D74001307900298A3B7160040BA2E1367070C06
:100D8400BAAE7D57F8A3130710F898B32381070070
:100D940097F0FF1FE780C04F34FAFF1FBCF9FF1F15
:100DA400EEF8FF1FEEF8FF1FEEF8FF1F78F9FF1FA4
:100DB40094F8FF1FEEF8FF1F7EF9FF1F8EF9FF1F47
:100DC4002EFAFF1F0C034300480035003900780059
:100DD4000E037700630068002E0063006E000000BD
:100DE4000902200001010080320904000002FF8092
:100DF400550007058202400000070502024000007A
:100E040012011001FF8055404843E05500010000E5
:040E140000010000D9
:040E180004030904C2
:00000001FF
