:040000006F30105EEF
:100004000000000000000000A000002036040020D2
:10001400A9BDF9F3FC01002000000000000000006D
:10002400FC010020A00000200000000000000000EF
:10003400A000002000000000A0000020000000003C
:10004400A0000020A0000020A0000020A0000020AC
:10005400A0000020B4040020A00000200000000044
:10006400A0000020A0000020A0000020A00000208C
:1000740060050020A0000020A0000020A0000020B7
:10008400A0000020A0000020A0000020A00000206C
:10009400A0000020A0000020A0000020A00000205C
:1000A40001A0B7170040984B41111367070198CB83
:1000B400982B1377E70F98AB1307800873370780E3
:1000C400137787083AC60F100000130770052380C2
:1000D400E704130780FA2380E7040F100000B847F1
:1000E400B70600069506558FB8C703C7B70413773C
:1000F400F70DA385E704B82713672701B8A71307EB
:1001040050149AA7372700408346578093F6F60E7B
:10011400A302D7808946A303D78003C7E7041377D4
:10012400C70F136717002387E70403C7F702136792
:100134002700A387E702982B1367170098AB238047
:100144000704B247F3A707800F1000004101828023
:10015400EFF03FF513050020970500009385450A4D
:10016400174600001306C6C763FAC50083220500BC
:1001740023A0550011059105E3EAC5FE176502E0C9
:100184001305C5AD97450000938585C51386C194B5
:1001940063FAC5008322050023A0550011059105CB
:1001A400E3EAC5FE13850195976500009385852ACA
:1001B4006377B500232005001105E36DB5FE9302B6
:1001C4005002739002BC8D427390428085427390BA
:1001D40012BC93028008739002309702000093824D
:1001E40062E293E2320073905230976200E09382AD
:0C01F40082D073901234730020300000A1
:100200009305000273A04580824573901534924097
:100210002242B2424243D2436244F24402559255D2
:100220002256B2564257D2576258F258064996495A
:10023000264AB64A464BD64B664CF64C065D965D52
:10024000265EB65E465FD65F0961730020304111BD
:10025000B7170040985F3AC6945F3247E39CE6FECA
:10026000324541018280B7F70700DC53411123A8D2
:10027000F194B7170040984B1367070198CB982B60
:100280001377E70F98AB130780087337078013774E
:1002900087083AC60F100000130770052380E70493
:1002A000130780FA2380E7040F1000001307000CE7
:1002B0006315E5029A271367070C9AA7B717004042
:1002C000982B1367170098AB23800704B247F3A756
:1002D00007800F10000041018280B8279376052027
:1002E000ADCA118B29E303C7E70403C6E7041377FC
:1002F000F70F136636002387C704B027136646003E
:10030000B0A792278E273346060893E5050C8EA7E3
:10031000A5470100FD1793F7F70FE5FFB71700405A
:1003200092A72387E70493770510DDC337170040B2
:100330003C2793E707013CA79377F50199EFB7278F
:10034000004003C7578013670701A382E7801D475A
:100350000DA013672700B8A7F9B725476366F70410
:10036000B727004003C757801377F70EA382E780B3
:100370000547A383E78033450508B7170040136797
:10038000050C9AA78AA7B5CE03C7570483C657049E
:10039000418B858A558F1DF3B82B418B05D3B82728
:1003A0001377D70FB8A719BF9377050199EBB72734
:1003B000004003C757801377F70EA382E7800947F1
:1003C0004DBFB727004003C757801377F70EB5BF5F
:1003D0009377850181EFB727004003C757801377D4
:1003E000F70EA382E7801307100561B7B727004017
:1003F00003C757801377F70EA382E78013077005B2
:100400008DBFB8271377B70F71BF37E700E01C43E4
:100410005443A183E206D58F1CC1FD572320F71852
:100420002322F718828013178500B7E700E023A086
:10043000E710618123A2A710828041118146014605
:1004400081451145F52A13078008F337078093F794
:1004500087083EC40F100000B71700401306700550
:100460002380C704930680FA2380D7040F1000006E
:10047000FD55CEB723800704A245F3A505800F10D4
:10048000000073370780137787083AC60F10000003
:100490002380C7042380D7040F10000003C767041C
:1004A000136717002383E70423800704B247F3A7E9
:1004B00007800F10000001A0197106C212C416C6F1
:1004C0001AC81ECA22CC26CE2AD02ED232D436D674
:1004D0003AD83EDA42DC46DECAC0CEC2D2C4D6C664
:1004E000DAC8DECAE2CCE6CEEAD0EED2F2D4F6D654
:1004F000FAD8FEDA9385419A8841E70005009240D8
:100500002242B2424243D2436244F24402559255DF
:100510002256B2564257D2576258F2580649964967
:10052000264AB64A464BD64B664CF64C065D965D5F
:10053000265EB65E465FD65F0961730020304111CA
:10054000B7170040985F3AC6945F3247E39CE6FED7
:10055000324541018280B7E700E03707001023A051
:10056000E7208280B7170040130700032388E702C3
:10057000854723A6F19A73002030411106C6EF008B
:10058000701CF5BF2303048015472303E48001009A
:100590002302A480828083076480E3CE07FE2303C6
:1005A0000480828083076480E3CE07FE0345448095
:1005B000828083076480E3CE07FE2302A4808280CA
:1005C000411126C44AC24EC006C61377F50BAD478B
:1005D000AA892E8995446306F70019456537653F5A
:1005E0008D444E854537FD59FD1463983401B24062
:1005F000A2441249824941018280135509011375B1
:10060000F50F453F2209CDB7011126CC06CEB70420
:10061000080051371545BD37713769372AC6A53FE0
:1006200032459377150089EB136515001375F50FA7
:10063000F240E24405618280FD14E9FC0145CDBF32
:100640003971B7F7070006DE26DC4ADA4ED852D6F3
:1006500056D45AD25ED062CE03AB47027D57B7E77D
:1006600000E083AA070022C603AA470023A0E718D8
:1006700023A2E718B71B0040930770052380FB04F3
:10068000930780FA2380FB0483C74B041147AA8990
:1006900093E7070E2382FB04372400401305F00F75
:1006A0002303E4802E8C3289B684E93DED359387AF
:1006B00079FF93F7F70F0947137BFB006362F7128B
:1006C000A147370708006307FB00B70707003E9CF8
:1006D000378707007955637EEC02B3878401636A2C
:1006E000F702A9476398F90689E481446D352685A8
:1006F0000DA0E2850945E93505090345F9FFFD141B
:10070000050C453D81C49377FC0FFDF7F53D69FD70
:100710007D55B7170040130770052380E7041307C2
:1007200080FA2380E70403C74704418B2382E70450
:10073000F250B7E700E023A0571123A24711E2547B
:1007400032445259C259325AA25A125B825B724CDD
:1007500021618280A547639AF906A1478569631DD7
:10076000FB029387F9FFB3869700B374FC00B6943D
:1007700093C7F7FFFD8C33FC8701416B856B938733
:10078000F9FFB3F7870199E363FF340193D9490077
:10079000C147E3E637FF91BF9307F00FE9B78567DD
:1007A000C169FD17C9B71305800D63886901130579
:1007B00000026384790113051008E2851135A9351B
:1007C00021D94E9CB3843441C1B7E2852D45CD3B40
:1007D000CA94E30C99F00509F133A30FA9FED5BF24
:1007E0009387F9FF93F7F70F636FF70AA147631930
:1007F000FB06B70708003E9C83C75B04370707006A
:1008000093F7070299E337870700B70708003E9779
:100810007955E370ECF0B3079C00E36CF7EE894781
:10082000639AF9048980D549E38104ECE28509459E
:10083000413B11090327C9FF91472320E4800307A7
:100840006480E34E07FE23033481FD17EDFBFD14A6
:10085000110C81C49377FC0FE9FF7D3371F54DBD19
:1008600083C75B043707070093F70702D5F3378781
:10087000070079BF8547E384F9F2E2852D45893386
:100880009389F4FFE38304E6313B93F7390091EB5E
:10089000832604800327090093074900E398E6E4D0
:1008A0003E89CE84F1BFB5476396F9001305900BDE
:1008B000D13925BDB1471305B00AE38BF9FE99473D
:1008C0006394F904A1476315FB00B70708003E9C39
:1008D000E2852D45F53181440D4BA149E131639607
:1008E0006401832704802320F9008504E39834FF02
:1008F0008327048013172C01635507002312F90086
:10090000EDB32322F900D5B39D476399F9028145E0
:100910001305B0047531BD442320090023220900CA
:10092000FD59493193F77400CA9703C70700FD14B6
:10093000398D2380A700E39634FF45BB9147639927
:10094000F900130560063D39B931130590098DB7DB
:10095000E38D09D8F15459BB23AC05FE1C4199E342
:100960000CC182803E8783A787FFEDFF232CB7FE53
:100970008280411126C2B7E400E04AC003A9040006
:10098000B707200006C622C43379F90023A0F41863
:100990000F10000009E523A02411014535A095653D
:1009A000938505D0C98D2A842105B3C50508334533
:1009B0000508EF10702165D1FD572320050042A1E5
:1009C0007CA123A024112105B24022449244024973
:1009D000410182804111B7E700E04AC003A9070046
:1009E00026C23707200006C622C4AA843379E9004C
:1009F00023A0E7180F10000083A7019B01440146C4
:100A000085E301C8A2851385019B975000E0E7802C
:100A1000A054A1652685976000E0E78040A50DA061
:100A200003C7E7FF6319970205CCA2851385019BD5
:100A3000975000E0E7804052A1652685EF206008CE
:100A4000B24022852244B7E700E023A02711924458
:100A500002494101828011E03E8683A787FF4DB79E
:100A60003E84E5BF37E700E01C43B70620002320A3
:100A7000D718F58F0F10000019C191C111E637E7A3
:100A800000E02320F71082802E960F70B650D5BF5D
:100A900037E700E01C43B70620002320D718F58F66
:100AA0000F10000019C1014785E137E700E023205E
:100AB000F7108280B386E50003A80600B306E500C0
:100AC0007D1623A00601110775F6C5B737E700E0CC
:100AD0001C43B70620002320D718F58F0F10000005
:100AE00001C53307C50011E637E700E02320F71002
:100AF00082800505A30FB5FEE31DE5FEF5B7B7E659
:100B000000E09C42370620002A87F18F23A0C618F8
:100B10000F1000000145B306A7008386060091E68A
:100B200037E700E02320F71082800505EDB70111BB
:100B3000B7E700E026CA84434AC83707200006CE3C
:100B400022CC2A892E86F98C23A0E7180F100000EA
:100B50009305F00432C633450608EF10F0062A84E8
:100B600001C53246CA85FD3DF24022856244B7E7A1
:100B700000E023A097104249D2440561828037E704
:100B800000E01C43B70620002320D718F58F0F1074
:100B9000000001C599C1014711EA37E700E02320B1
:100BA000F710054582800507E309E6FE3308E500F6
:100BB000B386E500034808009422E306D8FE37E731
:100BC00000E02320F7100145828037E700E01C4356
:100BD000B70620002320D718F58F0F100000130749
:100BE000F6FFBA952A966317C50037E700E0232081
:100BF000F71082809821FD150505A30FE5FEE5B7E6
:100C000037E700E01C43B70620002320D718F58FF4
:100C10000F10000001C53307C50019E637E700E0F3
:100C20002320F7100145828014210505E398B6FEC4
:100C3000E31CE5FE37E700E02320F710054582803E
:100C4000797126D29384819C22D4804006D64AD0E2
:100C50004ECE52CC56CA5AC85EC662C44DC437C9BD
:100C6000C901814B138B019C1309F937175A0000F6
:100C7000130A0A1B975A0000938A0A189759000012
:100C80009389091F3E2099EF5C44639A0B009CC036
:100C9000032CC4002285EF10807F628489A823A6DC
:100CA000FB00FDB783270B0082971C443307F540F8
:100CB0006376F50003A789001D8F2A976368E9060C
:100CC0002E200820EF10F05F5C405844A9CB0C4464
:100CD000175600000326461AAE97BE8663E4B70097
:100CE00063E4C700B386C74014C4A28B3A8459F8A2
:100CF0001757000003274711894763E6E700975716
:100D0000000023A30710B250225492540259F24912
:100D1000624AD24A424BB24B224C45618280639474
:100D20000B0098C0B5B723A6EB009DB703274A0276
:100D30001DCB63EDA7023385A7401C2099EF034725
:100D40009A0183A689006117B307A7003E8563E473
:100D5000E70063E4D7003385D74083A70A016374B3
:100D6000F50023A8AA00A28B404451B703A789002D
:100D7000BA97D1B7011126CA06CE975400009384C2
:100D8000240F22CC4AC84EC652C49C288844D9CFCE
:100D9000B7E700E003A907003707200023A0E71802
:100DA0003379E9000F10000003C7819B19CB23A002
:100DB0002711F2406244D2444249B249224A0561B5
:100DC0008280175700001307273C8357C70AA1CB1F
:100DD0009C440324870A6304F40497590000938910
:100DE000A90103A709012285630BF702138A019C5D
:100DF00083270A0082976368A40C83270A00098C62
:100E0000829783A7090198443354F40AB307A400D6
:100E10003E8563E4870063E4E7003385E740B7E796
:100E200000E023A027119C44639BA70217540000F5
:100E3000130484FC184883A7019C6319A7088297B0
:100E40009444374736FE130707C83697B307A70001
:100E50003E8563E4E70063E4D7003385D740175449
:100E60000000130464555C5C89CB83A601AE9C46EC
:100E70003707CDFF7D17F98F9CC611E18844854760
:100E80005CD09757000083A7E7FB829715E15C5C75
:100E900099CF5C5089CF97B001E0E780E07497B0BC
:100EA00001E0E78080F89757000023A90752493BEB
:100EB0005C5CE38007F003A701AE1C47B706330074
:100EC000D58F1CC7FDB59C443E9405BF829714483E
:100ED0009844B387A6003E8563E4D700E3E1E7F8D2
:100EE0003385E740ADBF23AAA19A01C58547238C6E
:100EF000F19A8280AA8799E517570000034747F8BF
:100F000009C7D5B711476369B70017570000130722
:100F1000E7F4B3C5E5209CC1828083A7419B81CFC4
:100F2000411106C6829783C7819B99E323AA019A40
:100F3000B2404101828083C7819B81E723AA019A45
:100F400082808280411122C426C206C64AC09754BC
:100F500000009384644683C73402175400001304CE
:100F6000E4EFB9C317540000130404E91389C19CCA
:100F7000032709001C2014300146B3A5E7208E2169
:100F8000B5C911C21CA00820636DD5069757000093
:100F9000238407E683A7019CD5E7B240224492440C
:100FA00002494101828082971C40F5FF975700005B
:100FB00083C707ED85E3DC48858B89CFD84C9947FB
:100FC000631EF7009757000023A20740EF10E002CE
:100FD0005C4482971C44D9D7829769B7D84C9D4707
:100FE000E31AF7FE9757000023A2073EEF10E00038
:100FF0001C48C5B7850793F7F70F0546E3EFD7F60B
:1010000051B73327E5200E2323100700239D019AB3
:1010100083A7419CB347F5209C4382971C208326DD
:10102000090003D7A19B3377E540B3A6D7209222CE
:10103000518F9AA299C385071CA018201C30E36E1B
:10104000F7F4A9B79757000083A707E31CC8CD3E64
:1010500083C73402B9F383C7140299CBDC4C89EB04
:1010600097570000A38A073697B001E0E78040F861
:101070009757000083A707DD8DD31C4899DF1830F0
:1010800083260900814763C7E702D84C9147E3E60E
:10109000E7F09757000083C7A70D918BE39F07EEFA
:1010A00083C7819BE39B07EE2244B24092440249EE
:1010B0004101C9B133A6D7201222E31006EE8507FD
:1010C000D9B7B7C700401387C720144313962649E2
:1010D00010C30100010093878726175500000325E0
:1010E00065D39C436A0514C393C7F7FF99835D8D4D
:1010F000828023AAA19C8280411122C4175400003F
:101100001304842B1C4426C206C6858B975400000A
:1011100083A4C40D91EBEF20B0372244B240268562
:10112000924441016F10703398289757000023A90B
:1011300007288947E301F7FE014693055002014560
:10114000EF10E01B8145174501E01305C50B5D332A
:10115000014681450545EF1020015C44858BC5DFC4
:10116000B24022449244410182809757000083A7F5
:10117000A70B639B0716011122CC2A84094506CED2
:1011800026CA4AC84EC6EF205038938901AD03A63F
:10119000090093078007138901AC7CD2238C019A44
:1011A00083270900938401AEB7053300D857228501
:1011B000719B13671700D8D798431377F7CF98C35D
:1011C00098431377F7CF1367072098C398401447C5
:1011D000CD8E14C7B70603009386862534CA5457AC
:1011E000F59A54D798433424137707F893F6F60703
:1011F000558F98C3EF10903D83A6090037050082F4
:101200007D15DC4293E71700DCC2032609000307C3
:1012100084065C569375F703E605E98FCD8F5CD69F
:101220009305A0039C4063D5E508F84FB705000778
:101230004D8FF8CFB7C7898E938767ED1CC6B75718
:101240005500938757555CC28347A40683444406E0
:10125000DD8C894717570000232EF716975700009B
:1012600023A207167C44BCDE9757000083C747C102
:1012700099C7FC52FDFF9757000023A307141828B5
:101280009D478145172500001305C5F36306F70048
:1012900017050000130585E6B13910386244F240A5
:1012A0004249B249A685D244014505616F00D06B21
:1012B0009305200263DAE500F84FB70500F9FD1544
:1012C0006D8FB7050005ADB7B70500F96945FD1588
:1012D0006357E500F84F6D8FB705000391BFF84FD6
:1012E0006D8F13178729B1B78280975700009387B6
:1012F000A7E9E853054754256390E60203C747076B
:101300009147631AF700011106CE2AC6EF10F010BC
:101310003245F240056191BD828083278511E5CB7E
:10132000411122C406C658258345E5049437D227C7
:101330002A841377C70F1395466063F7C506635178
:101340000506882793F6F60794B7054693662700A7
:101350006314C5009366170054A4D8430907D8C383
:10136000032504114CB82E86CC430905EFF08FEF0E
:10137000832784115438D8433697D8C3DA27158F7A
:10138000DAA789473CBC034764039757000083C72B
:1013900047AA6369F706B2402244014541018280B1
:1013A0001367170058A46DBF9376F60F63550502B7
:1013B00088278545136627006314B5001366170058
:1013C00050A454B8A384070085473CBC83278411EC
:1013D0009C43D5FBC9B71367170058A454B8A3841E
:1013E000070003250411CC430905EFF0AFE783277D
:1013F00084115438D8433697D8C3DA27158FDAA723
:101400008D47E1B75C2493E707015CA469B7054504
:101410008280411183A781AA22C406C6858B2A84B3
:10142000CDEB78298357051D63E5E70A4165130570
:1014300025F5976001E0E780C0A641CD3C253EA59B
:1014400083270412ADE32320A4122322A41285478C
:101450002311F404232005007C2854415EA5583450
:1014600018A5054718B5138517021757000003275D
:1014700067F815811C437D151375F50F9CC25C43FD
:10148000DCC21C479CC65C47DCC61C4B9CCA5C4B40
:10149000DCCA1C4F9CCE5C4FDCCE0DC1938606028D
:1014A00013070702C1BF8327441288C3835724044C
:1014B0002322A4128507B3C7070859BF1757000096
:1014C000130787CC1E2785071EA7B240224441017F
:1014D00082805C2423090400054593C747005CA46F
:1014E000EDB7142D854763ECD70A1C3D2A870145CB
:1014F000CDEB5C2713F507013C2B99CB83466703A3
:101500009757000083C7F79263ECF60001E58280ED
:1015100049E582808357271E0357671EBA9721A08B
:101520008357271E75F90145ADCF9387C71217550D
:1015300000000355A594B3B5A70237460F0041112B
:1015400013060624814622C426C206C67D5433856E
:10155000A702972002E0E780001B9754000083C495
:10156000B48DAA949757000083A747CB03A7070918
:101570009C433354E40AFDFB83A7019C8297814777
:101580006364A400B307A440B240224433B597007B
:10159000134515009244410182808147B5BF014542
:1015A0008280828003A701AD3C5BFDFF010001004A
:1015B000828039C901116C0022CC06CE2A84EF202A
:1015C000003B15C9FD57630DF502B2479755000062
:1015D00083C5958663EBB700034594026244F240ED
:1015E000B385B74005616F102052175700000327DD
:1015F000A788BA97D5B76244F24005616F10B07BF7
:10160000F2406244056182808280797152CC175A1F
:101610000000130A6AB726D283244A0906D622D4C8
:101620004AD04ECEC5C8975700009387E7D8D44F0D
:1016300015476384E604DC532A8989CF97B001E01B
:10164000E78080FA97A001E0E780207E97570000AE
:1016500023A607D8FD596C002685EF2040311DE5F3
:1016600017250000130565F5EFF0FF8783A701AD8F
:101670003707100098C70547B8DB0D45B250225414
:1016800092540259F249624A45618280637435017D
:101690003244AA898440E1F0FD571305F00FE38F2F
:1016A000F9FC914763F187029307B4FF2320F90007
:1016B0002324FA0A99E79747000083A7E77B2320B2
:1016C000F900014565BF9747000083A7E77AED174A
:1016D000A297E9BF09455DB7797126D206D622D413
:1016E0004AD04ECE52CC56CA5AC85EC6834755031E
:1016F00003447513AA843E941374F40F93074002B5
:1017000063F687001304B4FD1374F40F03A9841364
:1017100083A9C413A38B841222864A85CE85972081
:1017200002E0E780E0BB058915E503CBD412014A4E
:10173000814A337B6403930B500252864A85CE85DF
:10174000972002E0E780C0B905890DC563916A035F
:101750001374FA0F238B8412B250225492540259FC
:10176000F249624AD24A424BB24B45618280850AB5
:10177000939A4A60050AE3127AFDE9BF8327850937
:1017800003560504797193D60701BD8EB3C60608CA
:10179000358E93575640898B135776485D8F9357F4
:1017A0003640918B5D8F93571640A18B5D8F9317B9
:1017B0001600C18B5D8F9317360093F707025D8F7C
:1017C0009317560093F707045D8F9317760093F7EE
:1017D000F70F22D45D8F2A849357D6001355B60095
:1017E0001189898B93558600C98F1355F600258280
:1017F000C98F218AD18F13961500418AD18F1396F4
:10180000350013760602D18F139655001376060421
:10181000D18F139675001376F60FD18FA207C545A9
:101820005D8F3307B70226D24AD04ECE03298413E8
:101830008329C4135AC806D652CC56CA36973347A2
:10184000070813565740098A93577748D18F135684
:101850003740118AD18F13561740218AD18F131622
:101860001700418AD18F1316370013760602D18FE5
:101870001316570013760604D18F131677001376CC
:10188000F60FD18F1358B7001356D70013784800BE
:10189000098A13558700336606011358F70025831C
:1018A00033660601218B518F13161500418A518F23
:1018B0001316350013760602518F13165500137652
:1018C0000604518F131675001376F60F518F2207F9
:1018D000D98FB387B7025EC6B697B3C7070813D5CB
:1018E0005740098913D77748498F13D53740118955
:1018F000498F13D517402189498F139517004189C6
:10190000498F1395370013750502498F13955700BA
:1019100013750504498F139577001375F50F598DCD
:1019200013D8B70013D7D70013784800098B13D604
:1019300087003367070113D8F700A58333670701D2
:10194000A18BD98F13171600418BD98F131736002F
:1019500013770702D98F13175600137707041E0653
:10196000D98F1376F60FD18FA2073367F5003307AF
:10197000B702130650024A85CE853697B98EB3C496
:10198000060833F6C402137BF60F972002E0E780C7
:101990002095058905E9834AD412014A930B500228
:1019A000B38A9A02814493DA0A0126864A85CE8553
:1019B000972002E0E780C09205890DC563914A0334
:1019C00013FBF40F230B6413B250225492540259A8
:1019D000F249624AD24A424BB24B45618280050AC3
:1019E000137AFA0F8504E39274FDE9BF8327C508D3
:1019F00003568508797193D60701BD8EB3C60608D4
:101A0000358E93575640898B135776485D8F935781
:101A10003640918B5D8F93571640A18B5D8F931746
:101A20001600C18B5D8F9317360093F707025D8F09
:101A30009317560093F707045D8F9317760093F77B
:101A4000F70F22D45D8F2A849357D6001355B60022
:101A50001189898B93558600C98F1355F60025820D
:101A6000C98F218AD18F13961500418AD18F139681
:101A7000350013760602D18F1396550013760604AF
:101A8000D18F139675001376F60FD18FA207C54537
:101A90005D8F3307B70226D24AD04ECE0329040AFF
:101AA0008329440A5AC806D652CC56CA36973347B9
:101AB000070813565740098A93577748D18F135612
:101AC0003740118AD18F13561740218AD18F1316B0
:101AD0001700418AD18F1316370013760602D18F73
:101AE0001316570013760604D18F1316770013765A
:101AF000F60FD18F1358B7001356D700137848004C
:101B0000098A13558700336606011358F7002583A9
:101B100033660601218B518F13161500418A518FB0
:101B20001316350013760602518F131655001376DF
:101B30000604518F131675001376F60F518F220786
:101B4000D98FB387B7025EC6B697B3C7070813D558
:101B50005740098913D77748498F13D537401189E2
:101B6000498F13D517402189498F13951700418953
:101B7000498F1395370013750502498F1395570048
:101B800013750504498F139577001375F50F598D5B
:101B900013D8B70013D7D70013784800098B13D692
:101BA00087003367070113D8F700A5833367070160
:101BB000A18BD98F13171600418BD98F13173600BD
:101BC00013770702D98F13175600137707041E06E1
:101BD000D98F1376F60FD18FA2073367F50033073D
:101BE000B702130650024A85CE853697B98EB3C424
:101BF000060833F6C402137BF60F971002E0E78065
:101C0000206E058905E9834A1408014A930B5002A6
:101C1000B38A9A02814493DA0A0126864A85CE85E0
:101C2000971002E0E780C06B05890DC563914A03F8
:101C300013FBF40F230F6407B2502254925402593D
:101C4000F249624AD24A424BB24B45618280050A50
:101C5000137AFA0F8504E39274FDE9BF797122D4F7
:101C600026D22E84AA844146973502E09385C51D6D
:101C70000A8506D6972000E0E780201B414697356D
:101C800002E09385651C0808972000E0E780E019D2
:101C90003C3010088A85DC875C2026855C875C30B8
:101CA000DC8697A001E0E780A0F00347F1011C204B
:101CB0000145631EF7000347E1011C30014563182D
:101CC000F7000345D1013C201D8D13351500B2509E
:101CD0002254925445618280011122CC26CA4AC8FE
:101CE0004EC606CEAA8417440000032424561309C6
:101CF0002500854905C09C303830858B6304F7008A
:101D0000405CCDBF1946930544004A85EFE03FE7AC
:101D1000E31835FFF24022856244D2444249B24979
:101D200005618280411122C426C24AC006C61744FA
:101D300000000324A45193042500054901E8B240A2
:101D4000228522449244024941018280A6851305DE
:101D5000A4022937E30525FF405CCDB7011122CC51
:101D600026CA06CE2AC42EC6174400000324844D7A
:101D7000854419E001450DA09C841830858B6304CF
:101D8000F7000044FDB719469305A1001305240090
:101D9000EFE0FFDEE31795FEF2406244D2440561B6
:101DA00082800000EFF06F977300000000000000D9
:101DB0009382819B0383020023800200630F030050
:101DC000F32510342EC0970500009385E5FD739030
:101DD0001534EF00405B7300203086DCEF00A05A22
:101DE000E6508280000041114AC0138901AC0327EC
:101DF000090026C206C61C5F22C49384C1AB93D7D8
:101E00006748B5CF930700061CDF17440000130492
:101E1000A45A184C930700086317F7009C409C4392
:101E200093F707041CCC1C4093F7070489CB83A7C6
:101E3000019C829748D81C4093F7F7FB1CC01C40BC
:101E400093F7070289CF1C4003A701ADB70608002E
:101E500093F7F7FD1CC05C5414C786077CD71C4859
:101E600093F7070489EF85475CC83707020083A70B
:101E700001AD98C71307000C18C81854F8D383276E
:101E80000900985F1357474811CF985F1367070100
:101E900098DF83A701AD23A20706854717470000F7
:101EA0002324F7529C40D8431357174819C7D843E7
:101EB000759BD8C3D843799BD8C3B240224492447F
:101EC00002494101828005377300203097470000A6
:101ED0009387874E3707040088DB698F01CF03A7FC
:101EE00001ADFD5634D7974600009386E6F0D84EF4
:101EF0000507D8CE1377850019CF984783A601AC84
:101F00001367170098C71307000898CBD856719B22
:101F100013671700D8D61377150001CFD84383A6CF
:101F200001AC13671700D8C3D856719B136717000D
:101F3000D8D61377650019CF1377450059C3984356
:101F40001367170098C383A601ACD856719B13671B
:101F50001700D8D64167698F0DC39746000083C626
:101F6000E629C18A1747000013070722A5C2834646
:101F7000470793E60602230AD70637070200698F50
:101F800001CF984B1377070819C3054798CB83A750
:101F900001AD3707020098C7B70708007D8D0DC156
:101FA0001747000003479725058B97470000938745
:101FB000A71D1DCB03C7570713672700A38AE70692
:101FC0008280D84713671700D8C7B5BF8346470735
:101FD0000946BD8A6388C600834647070D46BD8A09
:101FE000E39DC6F8914641BF03C75707118B69DBD4
:101FF00003C7570713678700D1B783A601AD1747FB
:1020000000001307673B1C43858B91E75C43858B7E
:1020100099E3FC52EDFB9747000023A9073A828021
:10202000938601AC2A8788421C5D93D75748D1E735
:1020300081C51C59BD839CA115C69C42945BC606F4
:1020400093D7660163D6060093E707C0B3C70708B6
:102050008316060093975760B9C6BE968947B3C6E4
:10206000F60216A283A701ADBC4B083393D757489D
:102070008DCF29C59746000083A6863593F60604C2
:102080009307950009459DCABA979C2305471945B2
:1020900093F6F7066394E60201459397476063DF82
:1020A0000700394582801EA275BF2A9748331375F1
:1020B000F5077D153335A00082800545828083A712
:1020C00081AC99CB944BD04B9842518F98C294439A
:1020D0009C479842D98F9CC2138601AD054818428F
:1020E00083A601AC974700009387072D631205056F
:1020F00003A806001368080823A0060183C6270268
:10210000B3C5D52054479385A50C139816492326AB
:1021100007010F100000184237060200860510C79D
:102120001306000890CB6CD354C72382A1AC8280E5
:1021300088421375F5F788C283C62702B3E5D52018
:1021400054479385E50E1395164948C70F100000B4
:10215000184237060200860510C71306000890CB08
:102160006CD354C70945D1B7411122C4AA8706C60A
:1021700026C22E85138401ADB285DDE71C40F853DD
:102180007DFF3707020098C79747000023AA072260
:10219000974400009384C4C8DC5085C7B7E700E0CB
:1021A0003707200023A0E728B7F700E0938707D080
:1021B000984B6D9B98CB984B1367870398CB730014
:1021C0005010F53D83A701AC98431317772998C3A6
:1021D000D857719BD8D79747000023A9071E974768
:1021E000000023AD071C1C40094798C3DC5099CB65
:1021F00037F700E0832707D193E787002328F7D03C
:10220000730050101440174700001307E71A1C47CB
:10221000858B91E75C47858B99E3FC52EDFBB240DF
:1022200022449244410182800D47639EE704974710
:10223000000023A707189747000023A50718974415
:1022400000009384E4BDDC5085C7B7E700E03707A2
:10225000200023A0E728B7F700E0938707D0984B2A
:102260006D9B98CB984B1367870398CB73005010E6
:10227000B93583A701AC98431317772998C3D8576A
:10228000719BD8D7A5B70547E39EE7F697460000B0
:10229000938606B9DC5285C7B7E700E03707200010
:1022A00023A0E728B7F700E0938707D0984B6D9BF2
:1022B00098CB984B1367870398CB730050101C4042
:1022C000D04713171649D8C70F1000001C40370716
:1022D000020098C7130700089745000023A6E50EE3
:1022E00003A701AC18431357774819C71307E01821
:1022F000F8D3D0C7DC52E5BD1307E01AD5BF83A7DA
:1023000081AC89CFD44303A8870098423367070183
:1023100098C2D447DC4B9842D98F9CC2054783A70B
:1023200001AC9505631EE50298431367070898C33F
:10233000984F137707C01367A71398CF1307800729
:10234000B8BB939735009387C7031747000013075F
:10235000A7061CD72382A1AC19C2060610D782801B
:10236000984309451377F7F798C3984F137707C039
:102370001367271398CF1307F007B8BB939745004F
:102380009387C703D9B783A701AD8847D847798D0D
:1023900011C588C783A7C1AC91C382878280896732
:1023A00003A701AD938707F47CD383A601AE83A76F
:1023B000060993D7A74991C783A7060993D79749D9
:1023C00099E37C53EDF782804111B7E700E022C426
:1023D00080433707200006C6798C23A0E7180F102A
:1023E000000011C199E5B7E700E023A0871001457F
:1023F00049A80D0533450508130740037199B347F4
:1024000005086362A70203A501B783A681B6639F8F
:10241000A600174700000327A7A371D7C207DD8DC9
:1024200005450297C9B703A5C1B6C5B77A2131EFF3
:102430005A21636CF704B306F740214817460000A1
:102440001306869B6375D80283280500035866002F
:10245000938687001D8FAA966117DAA223A0160122
:102460002393060014C15EA1130788FF7AA27A2283
:102470006EA12105B307F7407EA2B7E700E023A0D5
:102480008710B240224441018280084149B7B7E732
:1024900000E08C433707200023A0E718F98D0F10C8
:1024A000000001E523A0B710828003A301B783A831
:1024B00081B69A87814663F8170903A80700636706
:1024C000F5086365A80813878700636EE506F223A5
:1024D000216705076317E600138671A81822050710
:1024E00018A21745000013052591D2237A212393C2
:1024F00007003297334707087AA16383670203A373
:10250000C1B6630FF30003D36600631B0300DE2232
:1025100023A0060121073E962106D2A27AA1B68702
:1025200098436302170383A6C1B6630ED7007623D0
:1025300099EAD62352231843A106B296D6A398C38C
:102540007E21A1077EA1B7E700E0A9BFBE86C287B2
:102550009DB7AA8703A701B703A681B6B305B54007
:102560006314E6003E8529A8930687001843E3E933
:10257000D7FEE3F7E7FE2E85E3E4D5FEE3F2E5FEC2
:102580008280411126C206C622C44AC09744000078
:1025900083A404C56383041003A4C40AAA86054562
:1025A00035C03C241307700A6390E70858301C3488
:1025B000174900001309C98B03268900B387E70276
:1025C0000357C900B387E70213070032938707193F
:1025D000B3D7E70203A744093E97BA846364F700C0
:1025E0006364C700B304C74083A7019C84C2829779
:1025F000B387A44063F5A40003278900BA9789EB49
:102600001305F00FB24022449244024941018280F6
:1026100058309306204E3307D702E3F3E7FE9307C3
:1026200080FA3CA40145F9BF1307800AE39AE7FC4E
:1026300083A7019C82972A893545EF10006DAD472D
:10264000174700002328F7D858301C3417460000DD
:1026500013060682B387E7025A261046B387E702BD
:102660001307003293870719B3D7E70203A744097A
:102670003E97BA866364F7006364C700B306C74039
:10268000E310D9F8170502E0130545B4EFE0BF8564
:1026900083A701AD0947F8D7A5B70545A5B7397197
:1026A00056D2974A0000938A2AD183A70A03370794
:1026B000080026DA06DE22DC4AD84ED652D45AD09A
:1026C0005ECE62CC66CA6AC86EC6F98F97440000B7
:1026D00083A404B16384071C83A9C40A83C7990037
:1026E00003A4C90092073E942820B147050533058D
:1026F000F5025E203E9533450508EFE08FA7AA8CD2
:102700006305051A130DC5002324A50134203146A5
:10271000370B0300B386C602231304000149138A52
:1027200001AD938B01AC938D01AE130B8B15054C52
:10273000EA9654C483C679009307D00783250A001C
:10274000B386F602C1679CC5370833008606B4D14C
:1027500083A60B0090421376F6CF90C29042137678
:10276000F6CF1366062090C203A50D001045336610
:10277000060110C503A6090023A8650593055002AC
:1027800090C672205444B2962324DD0014300146D2
:10279000CA96A301DD0003C504089746000023AFD5
:1027A00006C0B13E83260A00CC4613961549D0C612
:1027B0000F10000083260A003706020090C6130699
:1027C000000823A8CA0003A60B001042135676483F
:1027D000631F860B1306E018F0D2CCC61746000024
:1027E000232606BE17460000232A06BC23A0860126
:1027F000EFF0BF80EF10C04983A64A00858AD9CA8E
:10280000EA852685971002E0E78060A20DE903467D
:102810005D0049C276204E20B29663DDB606B4282C
:10282000AC4803258D00918E8906B695EFE08FA305
:1028300023020D0003465D007620B29676A00326A3
:102840000A00310D3452FDFE342005091379F90FC9
:10285000E362D9EE9C246685A381FC001C20A38240
:102860000C002383DC002382FC006254F250D2541B
:102870004259B259225A925A025BF24B624CD24CE4
:10288000424DB24D2161170301E067008318130622
:10289000E01A99B7FD562302DD0055B783A701ADB5
:1028A000FC5781C78547238CF19AF2506254D25469
:1028B0004259B259225A925A025BF24B624CD24CA4
:1028C000424DB24D21618280411122C406C626C20A
:1028D0004AC02E848DCD13F915008147414763020C
:1028E0000904131745003E97B1463307D70283A466
:1028F000019DB317F02833C90708BA949C40C8401B
:10290000829723A0040023A2040033448900B2402C
:10291000228522449244024941018280B356F44800
:10292000E9F28507E39CE7FECDB7011126CA06CE82
:1029300022CC4AC84EC6AE84A1C593F71500014407
:102940004147B1CB93174500A2973147B387E702C0
:102950009389019D03A909003E998327090081C736
:1029600003254900829731473307E40283A7090012
:10297000BA979C478DC733148028B3470408BD8C91
:10298000F24062444249B2492685D24405618280C0
:10299000B3D68448C5FA0504E31CE4FECDB7232072
:1029A000090023220900C1BFAA8703A5819C11E168
:1029B00082803A216315B7001821E30BF7FE4845E2
:1029C000FDB77971B7E700E022D4804352CC06D638
:1029D00026D24AD04ECE56CA5AC85EC662C43A8A79
:1029E00037072000798C23A0E7180F10000005E1BD
:1029F00023A087100945B250225492540259F2493B
:102A0000624AD24A424BB24B224C4561828083A734
:102A1000019CB6892A89AE8A328B938B019D82975D
:102A200003A70B008144B146C147338CD40233065F
:102A30008701104235EEC165938505F04145EFF001
:102A4000BF9819ED9737000083A7874081C781455C
:102A500011458297B7E700E023A087102D4561BF9D
:102A60001387819C1C43A1E308C323000500B3170F
:102A700090283EA183A70B0023260500232465018F
:102A800023224501E29723A0270123A2570123A473
:102A900047016384090023809900B7E700E023A081
:102AA0008710014589BF3E87DC47F5FF48C775BFE2
:102AB0008504E39CF4F6B7E700E023A087102145E6
:102AC0001DBFB7E700E09843B706200023A0D71842
:102AD000758F0F1000009736000083C6F6316371C2
:102AE000D50283A6C19C3325D5201621D58D0EA1F4
:102AF0009736000023AA063023A0E7100145828004
:102B000023A0E7100D4582800111B7E700E022CC39
:102B100080433707200006CE26CA4AC8798C23A0F6
:102B2000E7180F100000BD4763E7A70431473307DC
:102B3000E50283A7019DBA979C4395CF3315A02842
:102B40002E89B345050801452EC6B93DAA8409C999
:102B5000B2450145973000E0E780605723A4240187
:102B6000B7E700E023A087100145F2406244D24459
:102B7000424905618280B7E700E023A0871009453C
:102B8000EDB79737000083C7B75BAA86850703A513
:102B900081A5014712216307D60005071905E36BDC
:102BA000F7FE014582802A8703A501A611E18280F4
:102BB0001C45B227636BC70003584500B306C80025
:102BC0006355D7008146639406010841C5B703D316
:102BD000A700938807016316E30091C192A13E8587
:102BE00082808506C687B3C60608F1BF9736000007
:102BF00083C6065583A7C1A801476394E600014533
:102C00008280AE231386C7036394A5003E8582802D
:102C100005071377F70FB287CDB7411122C406C657
:102C200097370000238C075C03A4C1A905C06C3949
:102C30000145B315B028B3C50508974000E0E7800B
:102C4000E093930710273305F50202942244B24023
:102C50008145014541016FE0EFA9411106C6383DAC
:102C600019C73425631ED702B24041017DB73C2D00
:102C7000E5DF3825E30AF7FE3CA5814517E5FFFFB0
:102C80001305E566EFE00FA79737000083C7471FDE
:102C900089C783A701AD5147F8D3B2404101828073
:102CA0003C2D89C7E39AF6FC38A5C1BFD5FEEDBF20
:102CB00041114AC0173900001309097083278900A0
:102CC00022C426C206C6973400009384E44B858B49
:102CD000E0509DCB9737000023A4076E83C74407BD
:102CE000C18B85CFEF00D07A83C7440793F70702E3
:102CF000E5DF83C74407228593F7F70C238AF406A0
:102D0000971001E0E7808070EF00907822852244E0
:102D1000B24092440249410109B783C75407858BE9
:102D200091CBEF00F0768D47230EF406BC58228538
:102D30008297D9BF83C744071547BD8B6395E704C6
:102D40008347B406034534060146930550025D8D62
:102D5000EFF0EFDA014681450545EFF0EFC083273C
:102D6000C900858BD5D322859737000023AC076433
:102D7000971001E0E780405141F9B240224492446B
:102D800002494101828083C744071947BD8BE39DF7
:102D9000E7F68347B406034534060146930550021F
:102DA0005D8DEFF0CFD5014681450545EFF0CFBBF6
:102DB0008327C900858BA9DB22859737000023A3D1
:102DC0000760971001E0E780A0257DB7411122C47C
:102DD00026C206C67C2578452A84BD8B1CA91CA367
:102DE0001D4764456395E7340547B8A08347F5055B
:102DF0008D466393D7185E2DCDE37C491147B18B87
:102E0000638DE70831476398E7000347150683475A
:102E1000F5076304F7088547BCB0194693056403BA
:102E200013854400EFD01FC4BC20990793F7F70F18
:102E3000BCA0034704061377070401CFB83013671B
:102E40000704B8B07844BA975838B8B3BC2085079F
:102E5000BCA0973700002383073ABC2013F7F70381
:102E6000050718B80347E4051A07D98FBCA08347A4
:102E70005403858B91E70347440389476317F700A1
:102E800078441C2393E707041CA37C44183898B3A8
:102E9000B2402244924441018280A147BCB0835792
:102EA000C406973500009385252E138601ADDCA05E
:102EB0008357C406034714067444A1831207BD8BCD
:102EC000D98FDCB2B4208547890693F6F60FB4A0FB
:102ED0001737000003478732631EF706183C9387B5
:102EE000E6008E07231AF4069387C708B387E70224
:102EF000794510420948238A0507C1650CC69387A6
:102F000007FBB3C7070893877716B3C7A70233C772
:102F10000708B387A70286073CD2BC3093E70701B6
:102F2000BCB07C44B6978346240693E60604B4B34B
:102F3000B4207C44B697D8A3B4207C4421837D8BF5
:102F4000B697834634069606558FD8B3BC208D07B6
:102F5000BCA021B71042F947385205833357F70216
:102F60003C5268528583FD8BAA977CD28D47238A79
:102F7000F5063347070855B71946639BC7125E2D00
:102F8000C1E393056503B8B013854400EFD09FAD4E
:102F9000BC201385A4009907BCA0BC3093E7270090
:102FA000BCB083475403898B95CF0C58BC299DCB6B
:102FB0001946D105EFD01FAB78441C2393E707F8DF
:102FC0001CA3BC20990793F7F70FBCA00347040686
:102FD00013770704E30F07E6B430784493E606045A
:102FE000B4B095B58347D40391C778441C2393E7C5
:102FF00007F81CA319469305E403EFD0BFA6D1B789
:10300000A147BCB08357C506DCA08357C50603465D
:1030100015066C45A1831206BD8BD18FDCB1B020A3
:103020001735000013054516938501AD0906137683
:10303000F60FB0A09737000083C7471C6398E704DA
:10304000183C9307E6008E07231AF4069387C708F7
:10305000B387E70279488946230AD5069441C165BA
:103060008CC6938707FBB3C7070893877716B3C748
:10307000070333C70708B38707038607BCD2BC30F2
:1030800093E70701BCB07C44B29771BD8C41B85145
:10309000F94705833357F702BC5103A845068583DA
:1030A000FD8BC297FCD1230AD50633470708C1BF61
:1030B000A147BCB08357C506DCA08357C5060346AD
:1030C00015066C45A1831206BD8BD18FDCB1B020F3
:1030D000173500001305450B09061376F60FB0A04F
:1030E0009737000083C7871183A501ADE391E7FA05
:1030F000183C9307E6008E07231AF4069387C70847
:10310000B387E702F9460948230A0507416588C5E0
:10311000938707FBB3C7070893877716B3C7D70210
:1031200033C70708B387D7028607BCD189BF0547D5
:10313000639EE706B1471CB983475503898BA1CB32
:103140000C59BC29A9C71946D10513858400EFD0B5
:103150007F9178441C2393E707F81CA36844194621
:10316000930564030905EFD0FF8F116797370000BF
:1031700083A7870EF98FE38C07CE7C24B98BE39865
:1031800007CE78441C2393E707021CA3CDB18347E5
:10319000D40389C79C2093E707F89CA0684419468C
:1031A0009305E4032105EFD0FF8B4DBF522D0C5545
:1031B0009307660093F7F7031CB913858400E5B7FE
:1031C000011126CA973400009384041F9C4422CC2A
:1031D00006CE17340000130424FB858B6850C9C346
:1031E0002AC69737000023AD071CEF00702A03475B
:1031F0004407894732456307F700034744078D4773
:10320000631CF70283A601ADBC52035745078583B3
:103210001307C71263F2E702BC528583B1C391471B
:1032200003474407E31EF7FE6244F240D2440561BF
:10323000171301E06700A345382D3C3D09CF342525
:103240006309D7026388F60238A56244F240D2448B
:1032500005616FD09FF199CF382509EF3CA5F5B7EF
:103260002AC6EF00F02262443245F240D2440561A2
:103270006DB2EDF7DC4CEDF7034744078947630770
:10328000F700034744078D47E31CF7FC91470347CA
:103290004407E31EF7FE49BF630E0530011122CC3F
:1032A00006CE26CA4AC84EC652C456C258258547BD
:1032B0002A846316F72C973700009387E70FD44FC3
:1032C0001547638AE600D44F0D476386E600D84F62
:1032D000AD476312F7026C386244F240D24442496F
:1032E000B249224A924A01450561B315B028B3C5D7
:1032F00005086FF00FFD16311307006497340000C6
:10330000938484E83347D7029C20E8D0850793F75D
:10331000F70F9CA063CAE700973000E0E780A06940
:1033200097370000238207E678249D47631FF70440
:1033300083479406B1C38356040763ECF6020C245A
:10334000930730041CAC1305300493F6F60F0146C6
:1033500097C001E0E78060AC22856244F240D2442D
:103360004249B249224A924A0561172301E06700A7
:1033700083E085062318D40693053002054597306F
:1033800000E0E780205C2301A4060549238A240786
:10339000183C8D47631CF70E973000E0E780C0CCE7
:1033A0000D89630F051463162517930760023CA46B
:1033B000930750023CAC9307700278243CBC8547CD
:1033C0006302F70889659385F57013051027173A8E
:1033D0000000130AEAA983497401973000E0E780EE
:1033E000E0580E30835ACA002A8913060064B38558
:1033F0005503814613850532B335B500970002E0C9
:10340000E7806030AA84B335590337460F001306AE
:103410000624814633055903970002E0E780A02E79
:1034200083270A00AA948297B307950003278A008E
:10343000BE8563E4A70063E4E700B385E7404E85FB
:10344000EFF08FEC83475403898BE9CB8347C403A8
:10345000F1C70C58E1C5BC25F1C38947230AF40222
:103460001946B10513056403EFD0CFDF0347C40746
:10347000894763E9E70A22856244F240D24442491F
:10348000B249224A924A05616FD03FCE89467C34C8
:103490006315D70213F7170019CB898B1307500256
:1034A00091EB9307700238A43CAC814739B71307FE
:1034B0006002C5BF93076002FDB799CF93F617006E
:1034C0001307500291E6898B13B7170013076702A1
:1034D00038A4230D0400D1BF3C2C130740026368BD
:1034E000F700930750023CAC3C2C3CA47DBF850701
:1034F00093F7F70F3CAC13077002E364F7FEEDB7E8
:1035000013077002930750023CAC38A49307600283
:103510006DB51307500293077002FDB78547230A64
:10352000F402A9B70327C40A83A6019C3C27ADC3B4
:103530001C37583397340000938484939044B387A6
:10354000E702DA24B387E7021307003293870719EB
:10355000B3D7E702032744093E973A896364F7002B
:103560006364C7003309C7408296B307A9406374F8
:10357000A9009844BA9703576407E3FEE7EEF240C8
:103580006244D2444249B249224A924A0561828049
:1035900083248409829663E9A400835764073385F2
:1035A000A440E37AF5ECE1BF9737000083A7C78C0E
:1035B000BE94E5B7828001114EC697390000938909
:1035C000A9BC22CC03A4C9094AC8173900001309B1
:1035D000298A0357C90026CA83546408832704092B
:1035E00006CEB384E40237470F009306F723130790
:1035F000072452C456C25AC0B694B3D4E40263EE50
:103600009702138A019CB384974083270A0082970C
:1036100063E9A4023385A440634905028357040487
:10362000A30F040085072310F40483470414639E4A
:1036300007102285EFE04F8A21AA03278900BA9755
:10364000C9B783278900BE94F1B783270A00829700
:10365000032784086366E50A198D7E3C0357C90079
:103660008E07B387E7021307003293870719B3D792
:10367000E70263ECA708B74A0F00138BFA23938A7B
:103680000A248357040485072310F4048347041491
:1036900081E72285EFE04F842285973001E0E780C3
:1036A000809363130524032604090327C408832693
:1036B00089003297BA876364C7006364D700B30791
:1036C000D740783C0356C9002328F408050778BC86
:1036D000035764083307C7025A9733575703B38415
:1036E000E74063F5E700998EB384F60083270A006C
:1036F000829763E6A4043385A440E34405F839BF08
:1037000083278900998F3E9589BFA14522859730EF
:1037100001E0E7806084A305A4029727000083A747
:1037200027736383071C6244F240D2444249B24982
:10373000224A924A024B89451545056182878327B3
:103740008900A6973385A7404DBF2285EFE00F8300
:103750002285973001E0E78000886317051803553C
:10376000C90083576408B7460F001386F623B38752
:10377000A7029386062403270409230B0402832A45
:103780008900B297B3D7D702636AF716B307F74039
:103790008326C4082324F408014BB387E600BE84C3
:1037A00063E4D70063E45701B38457411E302328F4
:1037B0009408A1CB835604045A3037460F0056B004
:1037C0003387E640B387E7023A3013060624814682
:1037D0008145BA97B3C707083385A7023EB0970063
:1037E00002E0E78040F211CD2695B3349500A6950E
:1037F000AA876314BB0063645501B30755412328AE
:10380000F40883270A008297AA8483270A008297F4
:10381000E30D95FE83270A0083248408829763E4DE
:10382000A40E3385A440630B050E035AC9008357C9
:103830006408B7440F001387F423B38747039384C6
:103840000424BA97B3D79702172700000347D75E1F
:10385000BA9763E5A70CB3359502835A24025286C2
:10386000814633059502970002E0E780C0E933897D
:10387000AA0033854A0337460F0013060624814603
:103880008145970002E0E78000E815C1B337950253
:1038900052868146B385B4023385A402BE95970053
:1038A00002E0E78040E6B38AAA402311540335457D
:1038B000A92923AE890838348547631AF70493078A
:1038C00000FD7CA4814503A541ABEFD0AFE2954755
:1038D000173700002320F7B03707100083A701AD8A
:1038E00098C7060923A82707F2406244D2444249F8
:1038F000B249224A924A024B05618280B3065701BF
:10390000B387F64071B583278900BE9419BF93072A
:1039100010FC7CA4814503A5C1AA45BF97370000D0
:1039200023A20790834709018DC303A501AAEFD005
:103930004FFC624483274900F240D2444249B249D5
:10394000224A924A024B056182878345940262446F
:10395000F240D2444249B249224A924A024B0145BE
:103960000561B315B028B3C505086FF08F95011137
:1039700022CC26CA4EC606CE4AC852C456C25AC027
:1039800038358547832405092A84AE896314F70CEA
:1039900083570508835AC503172A0000130A4A4DA6
:1039A000035BCA0063FC571914296399E6180327BF
:1039B0008511631507180327450A63110718743525
:1039C0001D47639DE6162A3DB38AFA409307204EB1
:1039D000330555030329440937460F00130606240F
:1039E00081463305F5029727000083C7E744335922
:1039F0002503B335AB023E99334909082313240943
:103A00003305AB02970002E0E780E0CFB3079500F3
:103A100033B5A7002E9503278A00BE8419E163E41D
:103A2000E700B384E740B307690337470F00930605
:103A3000F7231307072423A09900B697B3D7E7020B
:103A4000D69763E4F4009D8C31A003278A00B30766
:103A5000F740BE941389019C8327090023A0990095
:103A6000829763E2A4103385A440635D050A83272F
:103A70000900172B0000130BAB3F829703A7090027
:103A80006369E50E198D7E3C0357CB008E07B38723
:103A9000E7021307003293870719B3D7E70263EFF2
:103AA000A70C374A0F00930AFA23130A0A248357F4
:103AB000040485072310F4048347041481E7228556
:103AC000EFD09FC12285972001E0E780C05061E5DB
:103AD000832604098327C40803278B00B697BE8476
:103AE00063E4D70063E4E700B384E7407C3C83569B
:103AF000CB002328940885077CBC83576408B387D0
:103B0000D702D697B3D7470363E6F40A9D8C832781
:103B1000090023A09900829763E1A40A3385A44099
:103B2000E34705F89727000083C7173163E6A70628
:103B30009727000023A8876E0145B9A8835764081A
:103B400037470F009306F723B3876703130707244C
:103B5000B697B3D7E702E3F8F4EE03278A00269777
:103B6000B304F740C5BD9727000083A7E730BE9494
:103B7000DDBD83278B00998F3E9531B7A145228506
:103B8000972001E0E780403DA305A40297270000AD
:103B900083A7072C81EF7D55F2406244D24442490D
:103BA000B249224A924A024B0561828089451545F5
:103BB0008297D5B71D8FBA9499BF83278B00BE9487
:103BC000B1BF83A701AC98433706CEFF7D161377AC
:103BD000F7CF1367071098C303A701AE1447370840
:103BE00003001375F51FF18E14C783A601AD23A83A
:103BF000060523A40700904B93F5F50713088815D5
:103C00001366F60390CB90431366060890C3F04FFB
:103C1000137606E0498EF0CF23AC070423A00706F5
:103C20005057759A50D79043137606F84D8E90C32F
:103C30001306401FF0D21726000023290678172606
:103C40000000232D0676054690C29043B705330049
:103C50001376F6CF90C390431376F6CF1366062003
:103C600090C310474D8E10C723A80605D8531317CD
:103C7000F728D8D32547F05201C6B04FE37DC7FEE1
:103C8000D8531317F748D8D3A8531335450082806B
:103C9000138701AD1443BC4ABD9BBCCA010001009F
:103CA000010001001C43B44B93F6F68FB4CB944350
:103CB00093E6860094C3010001000100010083A681
:103CC00001AC9C4293F7F7CF93E707109CC203A681
:103CD00001AE1C46B706CEFFFD16F58F1CC61C4371
:103CE00037070300B8CB83A781AC99CBD443904767
:103CF0009842518F98C2944BDC4B9842D98F9CC20A
:103D00009727000023A8076C828083A701AD9C43FE
:103D10008D8BE9C74111B7E700E04AC003A907004E
:103D200026C23707200006C622C4AA843379E900D8
:103D300023A0E7180F100000172400001304C46725
:103D4000584C8D47631AF7009727000083A78740D8
:103D5000014681454545829719476391E4048347AD
:103D6000140289CB834704026396970097270000CB
:103D7000A3840766584CA1476315F700930780108A
:103D80001EB0238C019A2937B2402244B7E700E0E5
:103D900023A0271192440249410182809D47639BE1
:103DA000F40083471402F9D7034704028D47E31355
:103DB000F7FC6DBF544C6389E600584C6306F7006E
:103DC000584CA147E31FF7FA83471402DDFB5C4C14
:103DD0002300F4028547A300F40265B78280000047
:103DE00097110020938101C317C101201301812184
:103DF0001305400097C5FF1F9385C52017C6FF1FF9
:103E00001306064063FAC5008322050023A055006F
:103E100011059105E3EAC5FE17C5FF1F130585339C
:103E200002852A8309CA83830500230073007D1657
:103E3000050385056DFA82802A8311C62300B3002D
:103E40007D16050365FE8280B717004003C777051E
:103E50001377E70FA38BE704130700F8A38DE7049C
:103E60003D47238CE70413075003A38CE70403C7E3
:103E7000A7051377D70F238DE704828037170040FB
:103E80008347E70412054111BD8BC98F93F7F70FE4
:103E900093068008F3B6068093F6860836C60F10A0
:103EA0000000930670052300D704930680FA2300D0
:103EB000D7040F1000002307F70423000704B247BC
:103EC000F3A707800F10000041018280B717004060
:103ED00003C7E7020D8941111377C70F498F930676
:103EE0008008F3B6068093F6860836C60F100000E9
:103EF000930670052380D704930680FA2380D704A5
:103F00000F1000002387E70223800704B247F3A7BE
:103F100007800F1000004101828041112A8301486F
:103F2000930E407E130F0019930F4006B348030809
:103F300063EF1E0113030019337365028542FD43CD
:103F400063F6B2088D4F214F930E4006A1A07D135A
:103F5000336EE3039308E016630E0E00336EF30333
:103F60009308D01663080E009378330093B81800B6
:103F70009388D816C29833C808084DBF93F8150027
:103F8000138EF5FF637CBF02F908C29833C8080896
:103F9000B3450E08E394F5FF8545630B0300B37842
:103FA000D5038145638608009375350093B51500E8
:103FB000F105C29533C805088945E9BFB3881341A7
:103FC000C29833C80808B3450E089DBF7D163298C5
:103FD00079463307C70213D61700BE0733480808CF
:103FE00032976146B3F6C60213068070B386C602E6
:103FF0003697A166F58F4207D98FB716004003C7E1
:10400000F60213770708D883908303C7F602137765
:104010000708E316E6FE9883B71600404DCF130756
:10402000800873370780137787083AC40F100000A1
:1040300037170040930670052300D704930680FAD3
:104040002300D7040F100000232A07038346170319
:1040500093E60608A308D702230007042247732724
:1040600007800F1000001166371700407D16545B63
:104070004C5FAD8EF18EE5FE93068008F3B60680A8
:1040800093F6860836C60F100000930670052300CD
:10409000D704930680FA2300D7040F1000005CDBDE
:1040A0008347170393E70704A308F70223000704D5
:1040B000B247F3A707800F1000004101828003C7B9
:1040C000F60213770708D883908303C7F6021377A5
:1040D0000708E316E6FE98837DD391B755714EDF4E
:1040E00086C7A2C5A6C3CAC152DD56DB5AD95ED760
:1040F00062D566D36AD16ECFAA8982C0EF00B015AF
:1041000093078008F3B7078093F78708BEC20F10A4
:104110000000B7170040130770052380E70413075A
:1041200080FA2380E7040F10000003C7F70213771B
:10413000770FA387E70203C7F70213678700A387F8
:10414000E702238007049647F3A707800F100000BB
:10415000130B80C1334B65039167938707E8130AFC
:1041600030029546B347F502330A4B033EC8FD873C
:104170003ED2BD67938707A6334AFA021357FA4126
:104180003ACA330740413AD47D873ACC1307A0FBA3
:104190003307EB02B347F7020567130707FA3ECE72
:1041A000FD873ED6938729003319F70063E4360173
:1041B0003319370161671307076A3345E5021307AF
:1041C0000010B317F0288D873EC495473309A90224
:1041D0003349E902130740063309E9021307D00700
:1041E0003349E9021357F9413AD8331730290D877B
:1041F0003AC663EF374993075047B307F7023D6765
:10420000130707A6116C814A814B13048008371DE0
:104210000040930480FA7D1CB3876703B307F04026
:10422000B3C7E7023ED0FD873EDA733704801377C9
:104230008708BAC40F100000130770052300ED04AF
:10424000930D0D0423009D040F10000003473D054E
:104250001377870FA309ED0403473D051367170084
:10426000A309ED0423000D042647732707800F10D0
:104270000000930C70057337048013778708BAC663
:104280000F100000930770052380FD0023809D0020
:104290000F10000003473D0513670702A309ED0453
:1042A00003570D051317E7282318ED0403570D05D1
:1042B0001317F7282318ED0423800D0036477327C2
:1042C00007800F10000003473D05137707026305C1
:1042D000073C03473D05218B6DDF880097C0FF1F1A
:1042E000E780A0127337048013778708BACA0F10CB
:1042F000000023809D0123809D000F1000000347D4
:104300003D051377F70DA309ED0403473D0513673A
:104310000702A309ED0403570D051317E728231817
:10432000ED0403570D051317F7282318ED04238018
:104330000D005647732707800F10000003473D0507
:10434000137707026301073803473D05218B6DFF93
:1043500097C0FF1FE780A0EF2A873ADC97C0FF1FB6
:10436000E780E0EE6257E30AE5FE03570D050645D8
:104370001317E7282318ED0497C0FF1FE780A00A52
:1043800003473D05218B6DDF03570D0583462D0542
:10439000C24733778701B386860313D6F641BA96B0
:1043A000B388F640925733B7E60032971D8FD24755
:1043B000B3B61601158F63C6E700631CF700637A76
:1043C0001A01E2476348F7326395E700A25763E3B7
:1043D000F832894663F2763373370480137787089F
:1043E000BAD00F100000130770052300ED0423005E
:1043F0009D040F10000003473D0593F6F90F137756
:10440000870FA309ED0403473D05558FA309ED046C
:1044100023000D040657732707800F1000001306B2
:10442000700503473D051D8B6310373773370480D4
:1044300013778708BAD40F10000013077005230004
:10444000ED0423009D040F10000003473D05137782
:10445000F70DA309ED0403473D0513670702A30900
:10446000ED0403570D051317E7282318ED04035730
:104470000D051317F7282318ED0423000D04265704
:10448000732707800F1000009306700503473D0552
:10449000137707026304073203473D05218B6DDF65
:1044A000880097C0FF1FE78040F6733704801377BA
:1044B0008708BAD80F100000130770052300ED0419
:1044C00023009D040F10000003473D051377F70DEF
:1044D000A309ED0403473D0513670702A309ED0493
:1044E00003570D051317E7282318ED0403570D058F
:1044F0001317F7282318ED0423000D0446577327DC
:1045000007800F1000009306700503473D051377E1
:1045100007026300072E03473D05218B6DFF97C0FF
:10452000FF1FE780C0D2AA8C97C0FF1FE78020D270
:10453000E30C95FF03570D0506451317E7282318CD
:10454000ED0497C0FF1FE78000EE03473D05218B78
:104550006DDF7337048013778708BADC0F10000013
:10456000130770052300ED0423009D040F100000C5
:1045700003473D051377F70DA309ED0423000D0450
:104580006657732707800F10000003570D058346F9
:104590002D05C25733778701B386860313D6F641BC
:1045A000BA9633B7E600329733882641B3B6060190
:1045B0001D8F158F6346E0006318072663060826E3
:1045C0001305800C3307E5020256D256B3350503B6
:1045D00033050503BA95EFE0F1549306150033B5A2
:1045E000A6002E951357F501BA9633B7E6002A9721
:1045F0001316F70185820587D18E6346E000631F9D
:10460000072C638D062C0356CD021582B305D60008
:1046100033B6C50032976348E000631007361307CE
:10462000F00F637CB73409476371572793078008FD
:10463000F3B7078093F78708BEDE0F100000B717A7
:104640000040130770052380E704130780FA2380D6
:10465000E7040F100000DA3789668116558F33475B
:104660000708DAB723800704F657F3A707800F106F
:104670000000BE402E449E440E49FA596A5ADA5A46
:104680004A5BBA5B2A5C9A5C0A5DFA4D696182807A
:1046900022479307504795B67337048013778708EE
:1046A000BAC80F10000023809D0123809D000F10C9
:1046B000000003473D0513670702A309ED042380AB
:1046C0000D004647EDBE7337048013778708BACCD8
:1046D0000F10000023809D0123809D000F1000001B
:1046E00003473D0513670702A309ED0423800D006E
:1046F000664789B1E3920BCE7246B2569315170006
:1047000013D3F80113951800B365B3003ADE46DC05
:10471000EFE051417257850B93FBFB0F6346E000BE
:1047200031EFE258638C08049306150033B5A600F8
:10473000AA9513D7F501BA9633B7E6002E9785826E
:104740007E07558FF336048093F68608B6CE0F1099
:10475000000023809D0123809D000F1000008356E0
:10476000CD023697334707082316ED0223800D004C
:104770007647732707800F100000F5BC9306F5FFFE
:1047800013351500898D75B7733704801377870843
:10479000BAD20F1000002300CD0423009D040F1097
:1047A000000003473D05558FA309ED0423000D04C8
:1047B0001657732707800F100000A5B173370480C8
:1047C00013778708BAD60F1000002300DD042300FA
:1047D0009D040F10000003473D0513670702A3095E
:1047E000ED0423000D043657732707800F100000D7
:1047F00071B97337048013778708BADA0F10000095
:104800002300DD0423009D040F10000003473D0535
:1048100013670702A309ED0423000D0456577327FD
:1048200007800F100000D5B19305800C3387E50297
:1048300033850503B3B50503BA951547637337058B
:10484000A247130750473387E70233066041330618
:10485000E6023D67130707A63346E6029356F64184
:10486000EFE0512C1306F5FF13351500898D13D792
:10487000F5013A963337E6002E979316F701058235
:104880009DBBB247130750477DBF1307800873379E
:104890000780137787083AC10F100000B716004051
:1048A000130770052380E604130780FA2380E604CB
:1048B0000F100000DA36056601161377F70F518FD7
:1048C00033470708DAB6238006040A4773270780B0
:1048D0000F100000850A93FAFA0F81BA33E6E6005A
:1048E00049CE0356CD02B335D0003307E0400D8FDB
:1048F0003305D04015826345E00041E3637FA6069F
:104900000947637E570393078008F3B7078093F73F
:1049100087083EC30F100000B7170040130770054B
:104920002380E704130780FA2380E7040F100000B8
:10493000DA377D8BDAB7238007049A473DB37337A4
:104940000480137787083AC50F100000130770051D
:104950002300ED0423009D040F1000000357CD0237
:10496000856681161377F70F558F3347070823168F
:10497000ED0223000D042A4791BF93078008F3B787
:10498000078093F787083EC70F100000B717004055
:10499000130770052380E704130780FA2380E704D8
:1049A0000F100000DA379606369733470708DAB754
:1049B00023800704BA4755B9914763ECB7049707BA
:1049C00002009387274AB3C5F52098413E97B71751
:1049D00000409387470B0287944337170040B3F694
:1049E000A64094C39306070B9C42B3F7A74019A8AF
:1049F000944337170040B3F6A64094C39306070BC1
:104A00009C42C98F9CC29307070A98433377A740FB
:104A100098C38280944337170040C98ED9B7984312
:104A20003377A74098C3B71700409387070A984386
:104A3000498FF9BF9843498FF5B719C5371700401B
:104A40001E2FCD8F1EAF8280B71700409A2FB375EF
:104A5000B7408EAF8280B71700409A279306000CAC
:104A60001377070C630AD7049A27137707100DC72B
:104A70009A279E277D8B09EB93F70720B1C3375503
:104A8000E80113050580828037C59812FD8B130558
:104A900005E03345F50282809A279E271377072089
:104AA000FD8B11C73755E80113050580DDB73725A4
:104AB000F40013050540F1BF2165130505D0828080
:104AC0003725F400130505408280B7F700E08847DA
:104AD00082803285814737370040A14663C3A700F3
:104AE00082803037E30FD6FE3386F500102285072B
:104AF00010A7EDB797F6FF1F9386C671AA87884265
:104B00001727002013070795AA9763E9E7000A878C
:104B1000130707FC6364F7009CC282807D55828086
:104B2000411122C406C62A843D372947B307E5024E
:104B3000B2408D83B3D7870222449507B3D7E702EB
:104B400037370040B3C707085EA74101828071650F
:104B500041111305052006C6E137B737004013079A
:104B600070F8B8A30D47B8B31307000498B305470E
:104B7000F8A7B24041018280411106C683A7019681
:104B800091C3829783A7C19591C3829703D78180F0
:104B90009307C01263F4E70483D6A1801306B01212
:104BA0006361D60403A6819511C6B2401305C012F5
:104BB000410102863385D740E5473305F5020507F5
:104BC000158F3347070809839307F7FF3E95334551
:104BD000E5021375F50FB2404101828013054006CE
:104BE000DDBF0145CDBF2D452DE3DC41411122C480
:104BF00026C206C698239C33B6843284A207D98F76
:104C00000D67930697A16393D702BD3793876180A1
:104C100098236373E50088A39C2305479AA01CA0F2
:104C20000145B2402244924441018280130787909B
:104C30002945E398E7FECC4589479EA00946228591
:104C400097C0FF1FE78000E2E1BF8280DC41411195
:104C500022C406C626C203C807009C332944A20703
:104C6000B3E707010D68130828906394070385478D
:104C7000B284EF6090312A8409ED03A7419611CBED
:104C80009C309420A207D58F93B717001385170087
:104C90000297B240228522449244410182805C21E5
:104CA000858BA9CF011122CC2A842A21938581B931
:104CB00006CEEF609028058915CD2A200147814650
:104CC0000546ED45EF60A0602AC60DC597F7FF1FAA
:104CD00083D767147C8485477C8583C761801CA14A
:104CE0002A2001462C00EF70A06A09C5ED45280076
:104CF000EF608075F2406244056182808280416588
:104D00004111938581B97D1506C6EF804048B240B8
:104D100097F6FF1F9386C60C4146954517F5FF1F72
:104D20001305C50C41016F80803C23A2A1968280AF
:104D300085476315F5021C22238AF19403C761801D
:104D40006370F702411117050000130585F506C6CB
:104D5000EFA0C03EB24001454101828009458280FA
:104D60000145828089476302F50263E8A70019E9DB
:104D700083C761809CA1014582808D47630DF5004A
:104D80000945828083C74195F5B797F7FF1F83D701
:104D900087069EA1CDB797F7FF1F83D7E747DEA110
:104DA00097F7FF1F93878704BA37BE3F9AA1BEA12A
:104DB0008547FCA1C9B7411106C67D3B9387618039
:104DC00098236379E50088A317050000130565EDB6
:104DD000EFA0C036B240014541018280C167F9179A
:104DE000630CF502411122C406C685472A84639AE2
:104DF000F50022852244B240938581B941016F803C
:104E0000003989476396F5008545EFA0402D75D19F
:104E1000B24022444101828082803285D0414111DA
:104E200006C60C32034806000D66A205B3E505016F
:104E30009308A6A21398556063C80803130626A218
:104E40006358060375761306C65DB2951946B3C559
:104E500005086363B602170802001308E801B3C52A
:104E60000521904142960286130606A5630DC80EE1
:104E700023900600A94515A01D469D45636FE600D9
:104E80002146198E3356F60A9385819692A2BA95D9
:104E900097C0FF1FE78000BD8145B2402E854101CC
:104EA00082802D469D45E36AE6FE3146198E3356D3
:104EB000F60A970502009385E50492A2C9BF314620
:104EC0009D45E36CE6FC3546198E3356F60A970588
:104ED00002009385250292A25DBF41469D45E36E87
:104EE000E6FA4546198E3356F60A97050200938571
:104EF00025FF92A269BF41469D45E360E6FA45461B
:104F0000198E3356F60A97050200938525FC92A266
:104F1000BDBF41469D45E362E6F84546198E3356CE
:104F2000F60A97050200938525F992A28DB74146AE
:104F30009D45E364E6F64546198E3356F60A970515
:104F40000200938525F692A299B735469D45E36602
:104F5000E6F43946198E3356F60A97050200938512
:104F600065F392A22DB719469D45E368E6F2998D47
:104F700033D6F50A9385C18092A211BF97F6FF1F21
:104F80009386C6EB4146CD4517F5FF1F1305C5EBCC
:104F90006F80E01541654111938581BA7D1506C684
:104FA00022C426C24AC0EF80801E97F6FF1F938658
:104FB000A6FC4146C94517F5FF1F1305A5FCEF8068
:104FC000001397F4FF1F9384E4FBCC4C2A89094516
:104FD000513B138481BB83D701825EA083D7A40C8D
:104FE00003D7C1815AA41EA083D7A40D03D7A41050
:104FF000938581BC3EA00D4585477CA01AA47CA466
:10500000231504008533A2850D456526B240224450
:1050100092444A850249410182808D679387D7A4D3
:10502000631DF6008D472945639AF5008547354590
:105030006396F6001C232388F196014582808D67D4
:105040009387D7A401456319F6008D476396F50051
:1050500083C701971CA305458AA2014582808280EF
:105060002A8783C7019803A5419883C6318299E3B3
:105070000145828012216315E6007021E30BD6FE04
:10508000FD1793F7F70F2105DDB7B2862E86AA85A7
:10509000170502001305C5E96FE011200111930502
:1050A00000030D4506CEEF3020279305000511457E
:1050B000EF3080269305C0030545EF30E025854796
:1050C0001306F100854513055030DC87EFC0210E33
:1050D000F240056182808547631AF5001166130668
:1050E00086A9894503C541996F10400F8947631709
:1050F000F500894503C541996F10E03682808547E8
:105100006398F50019E22386B1982384C1988280C0
:1051100009476398E50011E62386F19803D5A19825
:10512000A9AD8280011122CC06CE83A7C1972E841F
:1051300099C79C4789C76244F240056182876C0029
:1051400013057040EFA0D109324622858145EFA0BA
:10515000B14DF240624405618280011126CA06CE3B
:1051600022CC4AC84EC652C4AE849397556063D5CC
:10517000070803C5419997C0FF1FE780A0852A84CF
:1051800029C918219307000D6312F7043C214547F4
:10519000638BE7046547639BE7021705020013056D
:1051A00065DBEFE0710F130954009309B400170A8F
:1051B0000200130A6ADB8345090052850509EFE006
:1051C000B10DE31A39FF2945EFE0B1102285EF0058
:1051D000105A1395F468F2406244D2444249B249ED
:1051E000224A0561828070216C3117050200130587
:1051F00025D8EFE0710AD9BF93F7150085C317F6DC
:10520000FF1F1306E6EA97F5FF1F9385A5E903C57F
:105210004199EFB0B15013C5140075BF13F52500C7
:105220005DD9513E1166130686A9894503C541998A
:10523000EF00D07A13C5240079BF797122D44AD007
:1052400052CC06D626D24ECE56CA91472A842E89F3
:10525000138A0199631AF502BE252395F1982386D6
:10526000019883A7C19791C7DC4781C7CA8522856A
:10527000829723208A00B250225492540259F24954
:10528000624AD24A4561828003270A00E31BF7FC89
:105290009384A1988A20854591368A208545052BDF
:1052A00083DA0400C167F917639AFA02854493050B
:1052B000E1001305504123860198A38191822307C1
:1052C0000100EFA0E1711C87B1E303C7819891470A
:1052D000E319F7F8E1332384019861B783A9419872
:1052E00083C40198E1D403D5290001CD9305E100E1
:1052F00097E0FF1FE780208B09C54C455685EF706E
:105300001069FD1493F4F40FA109E9BF83A78197F5
:10531000DC23898BDDDB9305000A0D45EF20D07F70
:105320009305000A1145EF20307F81450545EF20A8
:10533000B07E1306E1008545130550304487EFB079
:10534000116761B7011117050000130545E106CE8D
:1053500022CCEF10603C1384419985471306F1007D
:10536000854508A013054041DC87EFA091524D45CB
:10537000EF50F0154D45EF70705E0931EFF03F983A
:10538000E12617050000130545D545321705000035
:10539000130525CDC52608206244F24085450561E8
:1053A00017D3FF1F6700E37123AEB19623ACA1961C
:1053B000828023A2B1982380A1988280797106D639
:1053C00022D426D24AD04ECE52CC83A7019911477F
:1053D000639CE70A83C7C19899EB4144B250228588
:1053E000225492540259F249624A45618280B28441
:1053F000B68903A4419883C7019803C7318295C336
:1054000054206392A6025430639FB6007420639CBC
:10541000E6002A209305610097D0FF1FE780A0785F
:1054200001E9554465BFFD1793F7F70F2104C1BF8C
:105430001389A1984C4503550900EF600030058998
:105440006DD103550900014781462686ED45035A73
:105450000400EF50D0672AC64D4449D12686CE8538
:1054600023144101648597B0FF1FE780A05F0355B7
:10547000090001462C00EF60B0712A8425D1ED456A
:105480002800EF50707C99BF0947E388E7F42C00AF
:105490001305504123040100EFA081541C8485CBE7
:1054A000930500020D45EF20306793050003114579
:1054B000EF20906695450545EF2010668547300042
:1054C0008545130550305C84EFB0714E39B7F9361D
:1054D00029B741114AC03689D44126C206C622C422
:1054E0008032B284902222040D68518C01CF1308BF
:1054F000B8A42D4563040407B240224492440249F3
:10550000410182809306D8A4630FD400930628A299
:10551000630BD400F5789388E85CA2988546B3C8FD
:10552000080863E91603AA25253E0DC183A7C19784
:105530002286224403A807004C31B2404821A687A6
:105540004A87924402498546410102882310090096
:1055500001455DB71306B8A46317C40203D8C1821E
:105560001D45E37B07F9CC453308E840B347F80A0B
:10557000BA952310F90033C60708268597B0FF1F98
:10558000E780404EF1B79307A8A46318F400914751
:105590002310F9001146CC45CDB7930788906317C7
:1055A000F40089472310F9000946F5B79307E8A4EA
:1055B0006318F400DC452310D9009C239CA049BF4C
:1055C00013087890E31604F9E9BF011106CE22CC46
:1055D00026CA4AC8748763140710DC412E89B28436
:1055E000803394238D672204558C9386D7A4630659
:1055F000D400938627A3631AD4020355A9008D34DF
:1056000001E90145F2406244D24442490561828089
:1056100083A7C19703A807004C314821A687130729
:10562000E100814622860298F1BF9386C7A46312E7
:10563000D402388785473545E316F7FC1C2213054D
:105640000008E361F7FC03A7C19758433E85029722
:105650004DBF93862790631DD40434878547EF6040
:10566000C0124DF190309C208356A90022065D8E19
:1056700003A7419883C70198C9D72E236395D50204
:1056800083A7C19703A80700854748234C338D465D
:105690006313F60089460D66A6871307E10013061B
:1056A00026900298B9BFFD1793F7F70F2107E9B7C6
:1056B0009387E7A4E317F4F4388785473545E31368
:1056C000F7F41C2213050008E36EF7F2D8453335D2
:1056D000F00009051CA303A7C19758438DBF2D45B2
:1056E00015B70145828031EFDC41AE8803C8070061
:1056F0009C33A207B3E707010D68930EF8A4639AE1
:10570000D70391473548639FF60203A5C80032834B
:10571000411111469A8506C697B0FF1FE780803475
:10572000054583A7019A8297B2400148428541010D
:1057300082809308289029486396170185476F60F7
:10574000C0042D484285828041654111938501BD89
:105750007D1506C6EF70B023B24097F6FF1F938603
:10576000E6954146994517F5FF1F1305E59541015B
:105770006F70F01723A0A19A82800111938501BD5B
:1057800022CC06CE2A84EF50507B05890DCD0147EF
:1057900081460546ED452285EF5070332AC605C582
:1057A00097F7FF1F83D7E7967C8485477C85230086
:1057B000050001462C002285EF60903D09C5ED45AE
:1057C0002800EF507048F240624405618280C16752
:1057D000F917630CF502411122C406C685472A84D5
:1057E000639AF50022852244B240938501BD4101B0
:1057F0006F70F01989476396F5008545EF90300E7C
:1058000075D1B240224441018280828011456FE00F
:10581000FF8C411193962500AA852D4506C697B0A9
:10582000FF1FE780E0E1B2400145410182800111A4
:1058300022CC06CE3714004026CA4AC84EC652C4EF
:1058400083447405034AB4058349840503499405D8
:10585000EFE08FDF8347A40593F4F40F137AFA0F78
:1058600093E71700230DF40493F9F90F1379F90F57
:10587000B717004003C7A705058B6DFF03D5C70504
:10588000A38D4705238C3705A38C2705A38B97048D
:10589000F2406244D2444249B249224A05618280C0
:1058A000411122C406C62E849397556063DF07001A
:1058B00097B0FF1FE780001219C1EF00406B13156E
:1058C000F468B24022444101828093F7150013C569
:1058D0001500E5FB8967ED8F85C3EF6091383D3793
:1058E00037F60200130606E0896503C5819AEF00CA
:1058F000F00E1315D468F1B711656D8D79D117F5D8
:1059000001001305A568EFE0C13A13060064916534
:1059100003C5819AEF00900C1315E4685DB72D71F3
:10592000232A9110FD74E98C232C81102328211146
:10593000232631112A84AE893289930600100A8603
:10594000A6852D45232E111097B0FF1FE78040CF6D
:1059500013154401498113962900CA850A9597B009
:10596000FF1FE7802010A68585660146254597B074
:10597000FF1FE780E0CC0A86A68593060010294524
:1059800097B0FF1FE780C0CB8320C1110324811192
:1059900083244111032901118329C11015618280DB
:1059A000011183A7019506CE22CC26CABD8B2147C3
:1059B0006399E700AD37F2406244D2440145056186
:1059C0008280B7F70700DC532A84B284BD8B93969C
:1059D00025006397E7008567FD17F58F91C301A048
:1059E000A2850146254536C697B0FF1FE78040C512
:1059F000B2462686A285294597B0FF1FE78040C49E
:105A00005DBF1D71494697F50100938565581705DF
:105A10000200130525D786CEA2CC97B0FF1FE780E2
:105A2000001601E917F501001305C557EFE06128DD
:105A300001A0B7F700E023A40700795798CB3D47B2
:105A400098C30564B7E700E023A087180F10000093
:105A500017C7FF1F1307C73523A2E19A130700F8E2
:105A6000A38AE7401306C0038145480897B0FF1F8B
:105A7000E780C00597F7FF1F9387C7B73ECA8967BE
:105A800093870780FC849D673ECEB7070105938707
:105A900007103ED0ED472312F10285472303F102A0
:105AA00097070000938727D7BEC497070000938706
:105AB00067EFBEC6930754D12314F10297F7FFFF97
:105AC0009387E7003EDAB7F5070097070000938752
:105AD00047D63EDE814697070000938767D3700064
