:040000006F20801BD2
:100004000000000000000000A00000208007002085
:10001400A9BDF9F3FC01002000000000000000006D
:10002400FC010020A00000200000000000000000EF
:10003400A000002000000000A0000020000000003C
:10004400A0000020A0000020A0000020A0000020AC
:10005400A000002000080020A000002000000000F4
:10006400A0000020A0000020A0000020A00000208C
:10007400AC080020A0000020A0000020A000002068
:10008400A0000020A0000020A0000020A00000206C
:10009400A0000020A0000020A0000020A00000205C
:1000A40001A0B7170040984B41111367070198CB83
:1000B400982B1377E70F98AB1307800873370780E3
:1000C400137787083AC60F100000130770052380C2
:1000D400E704130780FA2380E7040F100000B847F1
:1000E400B70600069506558FB8C703C7B70413773C
:1000F400F70DA385E704B82713672701B8A71307EB
:1001040050149AA7372700408346578093F6F60E7B
:10011400A302D7808946A303D78003C7E7041377D4
:10012400C70F136717002387E70403C7F702136792
:100134002700A387E702982B1367170098AB238047
:100144000704B247F3A707800F1000004101828023
:10015400EFF03FF513050020970500009385450A4D
:10016400172600001306460563FAC500832205001E
:1001740023A0550011059105E3EAC5FE17D501E05A
:10018400130585D89725000093854503138681843C
:1001940063FAC5008322050023A0550011059105CB
:1001A400E3EAC5FE13858184974500009385057EA7
:1001B4006377B500232005001105E36DB5FE9302B6
:1001C4005002739002BC8D427390428085427390BA
:1001D40012BC93028008739002309702000093824D
:1001E40062E293E2320073905230974200E09382CD
:0C01F40062E773901234730020300000AA
:100200009305000273A04580824573901534924097
:100210002242B2424243D2436244F24402559255D2
:100220002256B2564257D2576258F258064996495A
:10023000264AB64A464BD64B664CF64C065D965D52
:10024000265EB65E465FD65F096173002030BD66EC
:10025000014717460000130626ED938606A685453E
:100260008347060093F7F70F91C382800507E3F9F0
:10027000E6FE974700002389B7EADDB77D166206E0
:10028000618693178601E18763D407000145828068
:10029000931726003307F500AE9718439C4363E796
:1002A000E7007D16E37FF7FC7D558280054582805F
:1002B000FD15E205E18513978501618793F7F50F39
:1002C00063480700FD15139725002A97584365D703
:1002D000138517006205618582803308B5021C42D0
:1002E00083A80600B335B502C29733B50701AE98AF
:1002F000469585486367B5006394A50063E30701ED
:1003000081480C43C6950CC388C21CC282808147B9
:100310001397870161876343B70082801397270093
:100320002A97232007008507E5B781470147939661
:100330008701E18663C5B600133517008280939666
:100340002700AA9694428507558FD5B793D7554075
:100350008A07AA979C4305453315B5007D8D828099
:10036000172300E0E702E3EC2A84993705C59317C9
:1003700025003E940327C4FF814711EB7D15160528
:100380003E9542054185172300E06700C3EC0583D5
:100390008507E5B70145C5BF814713978701618789
:1003A0006343C700828013972700B386E500944219
:1003B0002A97850714C3D5B77D1662066186014763
:1003C00093178601E18763D50700133517008280F4
:1003D00093172600B306F500AE9794429C437D1612
:1003E000B58F5D8FF1BF8A05AA9501476363B5009C
:1003F000828083A6C5FFF11593D71600D98F9CC1C3
:100400001397F601E5B72A83014801470145634385
:10041000D7008280B387050183A80700B3070601D0
:100420009C43C697AA976384F80033B51701050764
:10043000B3080301620723A0F80061871108C1BF58
:100440002A8301478147014563C3D70082803388EF
:10045000E50083280800330EE600032E0E003388E3
:10046000A8403308C8416384080133B508018507F3
:10047000B308E300E20723A00801E1871107E9B709
:10048000172300E0E702E3DA0111B286B2842E8678
:10049000AA850A8575372A84A6850A857935333475
:1004A0008000060413351500018D0561172300E057
:1004B000670063DA172300E0E70223D54111AA8918
:1004C000AE8A328BB68402C202C402C60144131C37
:1004D0008401135C8C4163499C02939B1400FD1BB7
:1004E0000549138CF4FFF15C3304890162046184D3
:1004F000634D740592478E04CE9423AEF4FE410101
:10050000172300E06700E3D313192400B30B2B017A
:10051000014A93172A00D69783A50B0088437800D9
:10052000340050005D3B050A93178A01E187F11BF7
:10053000E351FCFE92474E9905042320F900A2479F
:100540003EC2B24702C63EC459B7131A8901135AB4
:100550008A41131D240093178A01E18763CF970016
:1005600092470A044E941CC0A24705091379F90F5B
:100570003EC2B24702C63EC485BFB3079A031315F5
:100580002A0056950841780034005000050AEA9781
:10059000DA978C439933C1B74111B7170040985F80
:1005A0003AC6945F3247E39CE6FE324541018280C1
:1005B000B7F70700DC53411123A4F184B7170040BB
:1005C000984B1367070198CB982B1377E70F98ABDD
:1005D0001307800873370780137787083AC60F1010
:1005E0000000130770052380E704130780FA2380B7
:1005F000E7040F1000001307000C6315E5029A27AB
:100600001367070C9AA7B7170040982B13671700BA
:1006100098AB23800704B247F3A707800F100000B0
:1006200041018280B82793760520ADCA118B29E35A
:1006300003C7E70403C6E7041377F70F1366360012
:100640002387C704B02713664600B0A792278E27DA
:100650003346060893E5050C8EA7A5470100FD1754
:1006600093F7F70FE5FFB717004092A72387E7043A
:1006700093770510DDC3371700403C2793E7070148
:100680003CA79377F50199EFB727004003C7578040
:1006900013670701A382E7801D470DA0136727009A
:1006A000B8A7F9B725476366F704B727004003C723
:1006B00057801377F70EA382E7800547A383E7806F
:1006C00033450508B71700401367050C9AA78AA79A
:1006D000B5CE03C7570483C65704418B858A558F0F
:1006E0001DF3B82B418B05D3B8271377D70FB8A7C5
:1006F00019BF9377050199EBB727004003C75780CF
:100700001377F70EA382E78009474DBFB727004054
:1007100003C757801377F70EB5BF9377850181EF35
:10072000B727004003C757801377F70EA382E780EF
:100730001307100561B7B727004003C75780137729
:10074000F70EA382E780130770058DBFB8271377D4
:10075000B70F71BF37E700E01C435443A183E206A3
:10076000D58F1CC1FD572320F7182322F71882804C
:1007700013178500B7E700E023A0E710618123A2EB
:10078000A710828041118146014681451145FD2A0D
:1007900013078008F337078093F787083EC40F10CC
:1007A0000000B7170040130670052380C7049306A6
:1007B00080FA2380D7040F100000FD55CEB72380A8
:1007C0000704A245F3A505800F10000073370780CA
:1007D000137787083AC60F1000002380C7042380D0
:1007E000D7040F10000003C76704136717002383A3
:1007F000E70423800704B247F3A707800F10000027
:1008000001A00000197106C212C416C61AC81ECA79
:1008100022CC26CE2AD02ED232D436D63AD83EDAC0
:1008200042DC46DECAC0CEC2D2C4D6C6DAC8DECAF0
:10083000E2CCE6CEEAD0EED2F2D4F6D6FAD8FEDAA0
:10084000938541858841E700050092402242B242EB
:100850004243D2436244F244025592552256B25664
:100860004257D2576258F25806499649264AB64A24
:10087000464BD64B664CF64C065D965D265EB65EE4
:10088000465FD65F0961730020304111B717004001
:10089000985F3AC6945F3247E39CE6FE32454101D9
:1008A0008280B7E700E03707001023A0E7208280AE
:1008B000B7170040130700032388E702854723AEDC
:1008C000F18473002030411106C6EF00B010F5BF6F
:1008D0002303048015472303E48001002302A4803E
:1008E000828083076480E3CE07FE23030480828036
:1008F00083076480E3CE07FE03454480828083073C
:100900006480E3CE07FE2302A4808280411126C4C6
:100910004AC24EC006C61377F50BAD47AA892E8989
:1009200095446306F70019456537653F8D444E854C
:100930004537FD59FD1463983401B240A244124971
:10094000824941018280135509011375F50F453F16
:100950002209CDB7011126CC06CEB70408005137C5
:100960001545BD37713769372AC6A53F324593779C
:10097000150089EB136515001375F50FF240E2447D
:1009800005618280FD14E9FC0145CDBF3971B7F7DF
:10099000070006DE26DC4ADA4ED852D656D45AD2A2
:1009A0005ED062CE03AB47027D57B7E700E083AA73
:1009B000070022C603AA470023A0E71823A2E718CE
:1009C000B71B0040930770052380FB04930780FA50
:1009D0002380FB0483C74B041147AA8993E7070EC2
:1009E0002382FB04372400401305F00F2303E48027
:1009F0002E8C3289B684E93DED35938779FF93F7E4
:100A0000F70F0947137BFB006362F712A147370713
:100A100008006307FB00B70707003E9C3787070005
:100A20007955637EEC02B3878401636AF702A947B4
:100A30006398F90689E481446D3526850DA0E28529
:100A40000945E93505090345F9FFFD14050C453D48
:100A500081C49377FC0FFDF7F53D69FD7D55B71710
:100A60000040130770052380E704130780FA2380F2
:100A7000E70403C74704418B2382E704F250B7E73A
:100A800000E023A0571123A24711E25432445259E7
:100A9000C259325AA25A125B825B724C2161828027
:100AA000A547639AF906A1478569631DFB029387F1
:100AB000F9FFB3869700B374FC00B69493C7F7FFB1
:100AC000FD8C33FC8701416B856B9387F9FFB3F78E
:100AD000870199E363FF340193D94900C147E3E6F5
:100AE00037FF91BF9307F00FE9B78567C169FD171D
:100AF000C9B71305800D638869011305000263847B
:100B0000790113051008E2851135A93521D94E9CCC
:100B1000B3843441C1B7E2852D45CD3BCA94E30C83
:100B200099F00509F133A30FA9FED5BF9387F9FF0B
:100B300093F7F70F636FF70AA1476319FB06B7072F
:100B400008003E9C83C75B043707070093F7070242
:100B500099E337870700B70708003E977955E37098
:100B6000ECF0B3079C00E36CF7EE8947639AF90455
:100B70008980D549E38104ECE2850945413B1109AF
:100B80000327C9FF91472320E48003076480E34ED5
:100B900007FE23033481FD17EDFBFD14110C81C406
:100BA0009377FC0FE9FF7D3371F54DBD83C75B047F
:100BB0003707070093F70702D5F33787070079BF98
:100BC0008547E384F9F2E2852D4589339389F4FF63
:100BD000E38304E6313B93F7390091EB83260480ED
:100BE0000327090093074900E398E6E43E89CE8491
:100BF000F1BFB5476396F9001305900BD13925BDB8
:100C0000B1471305B00AE38BF9FE99476394F904E1
:100C1000A1476315FB00B70708003E9CE2852D4500
:100C2000F53181440D4BA149E1316396640183277D
:100C300004802320F9008504E39834FF832704808F
:100C400013172C01635507002312F900EDB323227B
:100C5000F900D5B39D476399F90281451305B004A6
:100C60007531BD442320090023220900FD59493173
:100C700093F77400CA9703C70700FD14398D2380CA
:100C8000A700E39634FF45BB91476399F90013052C
:100C900060063D39B931130590098DB7E38D09D848
:100CA000F15459BB23AC05FE1C4199E30CC1828071
:100CB0003E8783A787FFEDFF232CB7FE828041117B
:100CC00026C2B7E400E04AC003A90400B707200029
:100CD00006C622C43379F90023A0F4180F100000CF
:100CE00009E523A02411014535A09565938505D01C
:100CF000C98D2A842105B3C5050833450508EF00D1
:100D0000305965D1FD572320050042A17CA123A0C5
:100D100024112105B24022449244024941018280BB
:100D20004111B7E700E04AC003A9070026C2370710
:100D3000200006C622C4AA843379E90023A0E7185C
:100D40000F10000083A741860144014685E301C8D6
:100D5000A28513854186975001E0E7804065A16533
:100D60002685976001E0E78040970DA003C7E7FF65
:100D70006319970205CCA28513854186975001E03F
:100D8000E780E062A1652685EF10A00BB2402285C6
:100D90002244B7E700E023A0271192440249410111
:100DA000828011E03E8683A787FF4DB73E84E5BF72
:100DB00037E700E01C43B70620002320D718F58F43
:100DC0000F10000019C191C111E637E700E02320A0
:100DD000F71082802E960F70B650D5BF37E700E02F
:100DE0001C43B70620002320D718F58F0F100000F2
:100DF00001C53307C50011E637E700E02320F710EF
:100E000082800505A30FB5FEE31DE5FEF5B737E7C4
:100E100000E01C43B70620002320D718F58F0F10E1
:100E2000000001C599C1014711EA37E700E023201E
:100E3000F710054582800507E309E6FE3308E50063
:100E4000B386E500034808009422E306D8FE37E79E
:100E500000E02320F7100145828037E700E01C43C3
:100E6000B70620002320D718F58F0F1000001307B6
:100E7000F6FFBA952A966317C50037E700E02320EE
:100E8000F71082809821FD150505A30FE5FEE5B753
:100E900037E700E01C43B70620002320D718F58F62
:100EA0000F10000001C53307C50019E637E700E061
:100EB0002320F7100145828014210505E398B6FE32
:100EC000E31CE5FE37E700E02320F71005458280AC
:100ED000797126D29384C18722D4804006D64AD025
:100EE0004ECE52CC56CA5AC85EC662C44DC437C92B
:100EF000C901814B138B41871309F937173A000059
:100F0000130ACA70973A0000938ACA6D9739000095
:100F10009389C9743E2099EF5C44639A0B009CC08E
:100F2000032CC4002285EF001043628489A823A605
:100F3000FB00FDB783270B0082971C443307F54065
:100F40006376F50003A789001D8F2A976368E90679
:100F50002E200820EF00F06E5C405844A9CB0C44D2
:100F60001736000003260670AE97BE8663E4B7000E
:100F700063E4C700B386C74014C4A28B3A8459F80F
:100F80001737000003270767894763E6E7009737AD
:100F9000000023A10766B250225492540259F2492C
:100FA000624AD24A424BB24B224C456182806394E2
:100FB0000B0098C0B5B723A6EB009DB703274A02E4
:100FC0001DCB63EDA7023385A7401C2099EF034793
:100FD0009A0183A689006117B307A7003E8563E4E1
:100FE000E70063E4D7003385D74083A70A01637421
:100FF000F50023A8AA00A28B404451B703A789009B
:10100000BA97D1B7011126CA06CE9734000093844F
:10101000E46422CC4AC84EC652C49C288844D9CF26
:10102000B7E700E003A907003707200023A0E7186F
:101030003379E9000F10000003C7C18619CB23A044
:101040002711F2406244D2444249B249224A056122
:101050008280173700001307A76C8357C70AA1CBFC
:101060009C440324870A6304F4049739000093899D
:10107000695703A709012285630BF702138A418789
:1010800083270A0082976368A40C83270A00098CCF
:10109000829783A7090198443354F40AB307A40044
:1010A0003E8563E4870063E4E7003385E740B7E704
:1010B00000E023A027119C44639BA7021734000083
:1010C00013044452184883A741876319A7088297DD
:1010D0009444374736FE130707C83697B307A7006F
:1010E0003E8563E4E70063E4D7003385D7401744C7
:1010F00000001304E4855C5C89CB83A6418D9C468B
:101100003707CDFF7D17F98F9CC611E188448547CD
:101110005CD09737000083A7A751829715E15C5CEC
:1011200099CF5C5089CF978001E0E78000389780A5
:1011300001E0E780000B9747000023AD0782493BA1
:101140005C5CE38007F003A7418D1C47B7063300C2
:10115000D58F1CC7FDB59C443E9405BF82971448AB
:101160009844B387A6003E8563E4D700E3E1E7F83F
:101170003385E740ADBF23A4A18601C585472386FB
:10118000F1868280AA8799E5173700000347074E4A
:1011900009C7D5B711476369B700173700001307B0
:1011A000A74AB3C5E5209CC1828083A7818681CFF1
:1011B000411106C6829783C7C18699E323A401869D
:1011C000B2404101828083C7C18681E723A40186A2
:1011D00082808280411122C426C206C64AC097344A
:1011E00000009384E47683C73402173400001304AC
:1011F000A445B9C3173400001304C43E1389018801
:10120000032709001C2014300146B3A5E7208E21D6
:10121000A5C911C21CA00820636BD5069737000032
:101220002382073C83A74187C5E7B240224492440A
:1012300002494101828082971C40F5FF97370000E8
:1012400083C7C74299EFDC48858B81CFD84C99473B
:10125000631DF7009737000023A607709D215C44AB
:1012600082971C44C1DB829771B7D84C9D47E31A23
:10127000F7FE9737000023A7076EA1211C48CDB7C2
:10128000850793F7F70F0546E3E1D7F861B73327F2
:10129000E5200E23231007002397018683A781876B
:1012A000B347F5209C4382971C208326090003D76F
:1012B000E1863377E540B3A6D7209222518F9AA2D8
:1012C00099C385071CA018201C30E360F7F6B9B756
:1012D0009737000083A707391CC8DD3E83C7340257
:1012E000A9F783C7140299CBDC4C89EB9737000030
:1012F000A3800768978001E0E78080FA97370000B5
:1013000083A707339DD31C488DD31830832609004B
:10131000814763C7E702D84C9147E3E8E7F0973786
:10132000000083C7673E918BE39107F083C7C186B6
:10133000E39D07EE2244B240924402494101D9B1F3
:1013400033A6D7201222E31206EE8507D9B7B7C716
:1013500000401387C72014431396264910C3010089
:1013600001009387872617350000032565299C43D4
:101370006A0514C393C7F7FF99835D8D8280173682
:1013800000001306A6359736000093862637DC3614
:10139000383E4C4ABA97FD8B33D7F5001CB2DCB609
:1013A000058B0DE7943A13050002B3F7D702814687
:1013B00033D8E548630908006394D70018B28280E7
:1013C000850693F6F60F0507E314A7FE8280011148
:1013D00026CA83A7418706CE22CC4AC84EC652C42D
:1013E000829797340000938464319844AA8701451A
:1013F000630DF70463E3E706998F173900001309BB
:10140000E92D93F9F70113D457008347A901636AC3
:10141000F402173A0000130A6A2495370347A9011A
:101420008C4403268A0093175700AE97198CBE860A
:1014300063E4B70063E4C700B386C74094C4E37EA7
:10144000E4FC1315540033653501F2406244D24484
:101450004249B249224A056182809736000083A63C
:1014600066203387E640BA9749BF0000EFF0FFD30C
:1014700073000000000000009382C1860383020015
:1014800023800200630F0300F32510342EC097055C
:1014900000009385E5FD73901534EF00405B730009
:1014A000203086DCEF00A05AE65082800000411117
:1014B0004AC01389418B0327090026C206C61C5F58
:1014C00022C49384018B93D76748B5CF9307000656
:1014D0001CDF173400001304A447184C93070008BE
:1014E0006317F7009C409C4393F707041CCC1C40F7
:1014F00093F7070489CB83A74187829748D81C407C
:1015000093F7F7FB1CC01C4093F7070289CF1C40E0
:1015100003A7418CB706080093F7F7FD1CC05C5485
:1015200014C786077CD71C4893F7070489EF8547C3
:101530005CC83707020083A7418C98C71307000CCB
:1015400018C81854F8D383270900985F13574748E1
:1015500011CF985F1367070198DF83A7418C23A2FF
:101560000706854717370000232CF73E9C40D843D9
:101570001357174819C7D843759BD8C3D843799BCD
:10158000D8C3B240224492440249410182800537C7
:1015900073002030973700009387873B370704009C
:1015A00088DB698F01CF03A7418CFD5634D797366E
:1015B000000093862603D84E0507D8CE1377850002
:1015C00019CF984783A6418B1367170098C7130755
:1015D000000898CBD856719B13671700D8D613779D
:1015E000150001CFD84383A6418B13671700D8C3DA
:1015F000D856719B13671700D8D61377650019CF9B
:101600001377450059C398431367170098C383A6FF
:10161000418BD856719B13671700D8D64167698FE5
:101620000DC39736000083C6E616C18A173700003F
:101630001307070FA5C28346470793E60602230A4E
:10164000D70637070200698F01CF984B1377070839
:1016500019C3054798CB83A7418C3707020098C769
:10166000B70708007D8D0DC117370000034797129B
:10167000058B973700009387A70A1DCB03C7570731
:1016800013672700A38AE7068280D84713671700ED
:10169000D8C7B5BF834647070946BD8A6388C600D9
:1016A000834647070D46BD8AE39DC6F8914641BF74
:1016B00003C75707118B69DB03C7570713678700F9
:1016C000D1B783A6418C17370000130767281C4346
:1016D000858B91E75C43858B99E3FC52EDFB973753
:1016E000000023A1072882809386418B2A878842A5
:1016F0001C5D93D75748D1E781C51C59BD839CA178
:1017000015C69C42945BC60693D7660163D6060055
:1017100093E707C0B3C7070883160600939757607F
:10172000B9C6BE968947B3C6F60216A283A7418CF6
:10173000BC4B083393D757488DCF29C59736000047
:1017400083A6862293F606049307950009459DCA51
:10175000BA979C230547194593F6F7066394E6026A
:1017600001459397476063DF0700394582801EA2D9
:1017700075BF2A9748331375F5077D153335A000DB
:1017800082800545828083A7C18B99CB944BD04B37
:101790009842518F98C294439C479842D98F9CC2DB
:1017A0001386418C0548184283A6418B9737000069
:1017B0009387071A6312050503A806001368080833
:1017C00023A0060183C62702B3C5D52054479385BD
:1017D000A50C13981649232607010F100000184284
:1017E00037060200860510C71306000890CB6CD39D
:1017F00054C7238CA18A828088421375F5F788C26A
:1018000083C62702B3E5D52054479385E50E13958B
:10181000164948C70F100000184237060200860517
:1018200010C71306000890CB6CD354C70945D1B735
:10183000411122C4AA8706C626C22E851384418C74
:10184000B285DDE71C40F8537DFF3707020098C7DB
:101850009737000023A2071097340000938404DB1D
:10186000DC5085C7B7E700E03707200023A0E72852
:10187000B7F700E0938707D0984B6D9B98CB984BB8
:101880001367870398CB73005010F53D83A7418BF6
:1018900098431317772998C3D857719BD8D7973790
:1018A000000023A1070C9737000023A5070A1C405E
:1018B000094798C3DC5099CB37F700E0832707D15D
:1018C00093E787002328F7D0730050101440173790
:1018D00000001307E7071C47858B91E75C47858B62
:1018E00099E3FC52EDFBB2402244924441018280D4
:1018F0000D47639EE7049737000023AF070497372F
:10190000000023AD070497340000938424D0DC50FA
:1019100085C7B7E700E03707200023A0E728B7F71F
:1019200000E0938707D0984B6D9B98CB984B13673B
:10193000870398CB73005010B93583A7418B984328
:101940001317772998C3D857719BD8D7A5B70547E0
:10195000E39EE7F697360000938646CBDC5285C7B8
:10196000B7E700E03707200023A0E728B7F700E03B
:10197000938707D0984B6D9B98CB984B1367870341
:1019800098CB730050101C40D04713171649D8C786
:101990000F1000001C403707020098C7130700080B
:1019A0009735000023AEE5FA03A7418B1843135780
:1019B000774819C71307E018F8D3D0C7DC52E5BD44
:1019C0001307E01AD5BF83A7C18B89CFD44303A8DF
:1019D000870098423367070198C2D447DC4B98428E
:1019E000D98F9CC2054783A7418B9505631EE502ED
:1019F00098431367070898C3984F137707C0136776
:101A0000A71398CF13078007B8BB93973500938728
:101A1000C703173700001307A7F31CD7238CA18A2D
:101A200019C2060610D78280984309451377F7F745
:101A300098C3984F137707C01367271398CF1307DE
:101A4000F007B8BB939745009387C703D9B783A71F
:101A5000418C8847D847798D11C588C783A7018CE9
:101A600091C382878280896703A7418C938707F49B
:101A70007CD383A6418D83A7060993D7A74991C735
:101A800083A7060993D7974999E37C53EDF78280A2
:101A90004111B7E700E022C480433707200006C6A3
:101AA000798C23A0E7180F10000011C199E5B7E762
:101AB00000E023A08710014549A80D05334505081E
:101AC000130740037199B34705086362A70203A592
:101AD000418E83A6C18D639FA600173700000327A0
:101AE000E7B571D7C207DD8D05450297C9B703A5D4
:101AF000018EC5B77A2131EF5A21636CF704B30622
:101B0000F7402148173600001306C6AD6375D802AA
:101B10008328050003586600938687001D8FAA96C8
:101B20006117DAA223A016012393060014C15EA157
:101B3000130788FF7AA27A226EA12105B307F74026
:101B40007EA2B7E700E023A08710B2402244410103
:101B50008280084149B7B7E700E08C43370720008F
:101B600023A0E718F98D0F10000001E523A0B7109E
:101B7000828003A3418E83A8C18D9A87814663F832
:101B8000170903A807006367F5086365A8081387AA
:101B90008700636EE506F223216705076317E600F9
:101BA0001386218A1822050718A21735000013058D
:101BB00065A3D2237A21239307003297334707087E
:101BC0007AA16383670203A3018E630FF30003D33B
:101BD0006600631B0300DE2223A0060121073E9658
:101BE0002106D2A27AA1B68798436302170383A67F
:101BF000018E630ED700762399EAD6235223184329
:101C0000A106B296D6A398C37E21A1077EA1B7E70D
:101C100000E0A9BFBE86C2879DB7AA8703A7418EF1
:101C200003A6C18DB305B5406314E6003E8529A81F
:101C3000930687001843E3E9D7FEE3F7E7FE2E8516
:101C4000E3E4D5FEE3F2E5FE8280411122C406C63C
:101C500026C24AC02E848DCD13F915008147414715
:101C600063020904131745003E97B1463307D702B4
:101C700083A44188B317F02833C90708BA949C405D
:101C8000C840829723A0040023A2040033448900A3
:101C9000B240228522449244024941018280B356D7
:101CA000F448E9F28507E39CE7FECDB7011126CAA7
:101CB00006CE22CC4AC84EC6AE84A1C593F7150005
:101CC00001444147B1CB93174500A2973147B387F1
:101CD000E7029389418803A909003E9983270900F7
:101CE00081C703254900829731473307E40283A760
:101CF0000900BA979C478DC733148028B34704085E
:101D0000BD8CF24062444249B2492685D244056105
:101D10008280B3D68448C5FA0504E31CE4FECDB73F
:101D20002320090023220900C1BFAA8703A5C18778
:101D300011E182803A216315B7001821E30BF7FE09
:101D40004845FDB77971B7E700E022D4804352CC13
:101D500006D626D24AD04ECE56CA5AC85EC662C4ED
:101D60003A8A37072000798C23A0E7180F1000006B
:101D700005E123A087100945B2502254925402591C
:101D8000F249624AD24A424BB24B224C45618280B0
:101D900083A74187B6892A89AE8A328B938B418883
:101DA000829703A70B008144B146C147338CD4020C
:101DB0003306870110422DEEC165938505F041453C
:101DC000C13919ED9737000083A7478781C781453F
:101DD00011458297B7E700E023A087102D4569BF22
:101DE0001387C1871C43A1E308C323000500B31771
:101DF00090283EA183A70B0023260500232465011C
:101E000023224501E29723A0270123A2570123A4FF
:101E100047016384090023809900B7E700E023A00D
:101E20008710014591BF3E87DC47F5FF48C775BF66
:101E30008504E39DF4F6B7E700E023A08710214571
:101E400025BFB7E700E09843B706200023A0D718C6
:101E5000758F0F1000009726000083C6B678637157
:101E6000D50283A601883325D5201621D58D0EA154
:101E70009726000023A0067823A0E7100145828062
:101E800023A0E7100D4582800111B7E700E022CCC6
:101E900080433707200006CE26CA4AC8798C23A083
:101EA000E7180F100000BD4763E7A7043147330769
:101EB000E50283A74188BA979C4395CF3315A028A4
:101EC0002E89B345050801452EC68535AA8409C962
:101ED000B2450145974001E0E780606723A42401F3
:101EE000B7E700E023A087100145F2406244D244E6
:101EF000424905618280B7E700E023A087100945C9
:101F0000EDB79727000083C7377DAA86850703A50D
:101F10004189014712216307D60005071905E36BC4
:101F2000F7FE014582802A8703A5818911E182801D
:101F30001C45B227636BC70003584500B306C800B1
:101F40006355D7008146639406010841C5B703D3A2
:101F5000A700938807016316E30091C192A13E8513
:101F600082808506C687B3C60608F1BF97260000A3
:101F700083C6867683A7818A01476394E60001457C
:101F80008280AE231386C7036394A5003E858280BA
:101F900005071377F70FB287CDB783A7418B984317
:101FA0003706CEFF7D161377F7CF1367071098C358
:101FB00003A7418D1447370803001375F51FF18EF1
:101FC00014C783A6418C23A8060523A40700904BC1
:101FD00093F5F507130888151366F60390CB904325
:101FE0001366060890C3F04F137606E0498EF0CFD3
:101FF00023AC070423A007065057759A50D7904387
:10200000137606F84D8E90C31306401FF0D2173694
:1020100000002329069417360000232D069205465A
:1020200090C29043B70533001376F6CF90C3904328
:102030001376F6CF1366062090C310474D8E10C757
:1020400023A80605D8531317F728D8D32547F052ED
:1020500001C6B04FE37DC7FED8531317F748D8D356
:10206000A8531335450082801387418C1443BC4A22
:10207000BD9BBCCA01000100010001001C43B44B20
:1020800093F6F68FB4CB944393E6860094C3010095
:1020900001000100010083A6418B9C4293F7F7CF1A
:1020A00093E707109CC203A6418D1C46B706CEFFDE
:1020B000FD16F58F1CC61C4337070300B8CB83A75A
:1020C000C18B99CBD44390479842518F98C2944B7F
:1020D000DC4B9842D98F9CC29737000023A8078811
:1020E000828083A7418C9C438D8BE9C74111B7E760
:1020F00000E04AC003A9070026C23707200006C631
:1021000022C4AA843379E90023A0E7180F10000045
:10211000173400001304C483584C8D47631AF7002A
:102120009727000083A7875C014681454545829734
:1021300019476391E4048347140289CB834704025F
:102140006396970097370000A3840782584CA147F5
:102150006315F700930780101EB023860186293788
:10216000B2402244B7E700E023A02711924402497D
:10217000410182809D47639BF40083471402F9D795
:10218000034704028D47E313F7FC6DBF544C63898A
:10219000E600584C6306F700584CA147E31FF7FAD6
:1021A00083471402DDFB5C4C2300F4028547A30047
:0821B000F40265B78280000013
:1021B80097110020938101B717E10120130101E471
:1021C8001305400097E5FF1F938545E317E6FF1FBA
:1021D8001306860263FAC5008322050023A0550072
:1021E80011059105E3EAC5FE17E5FF1F130505F67E
:1021F8000285397101436EC619A0397141536AC805
:1022080066CA62CC5ECE19A0397101535AD056D233
:1022180052D44ED64AD826DA22DC06DE3301614093
:10222800828241114AC026C222C406C68282B24DA9
:102238004101024D924C224CB24B4101024B924A51
:10224800224AB2494101024992442244B240410122
:1022580082802A8309CA83830500230073007D16C0
:10226800050385056DFA82802A8311C62300B30011
:102278007D16050365FE82801021942105058505DC
:102288006313D60075FA3305D6408280B71700402D
:1022980003C777051377E70FA38BE704130700F845
:1022A800A38DE7043D47238CE70413075003A38C51
:1022B800E70403C7A7051377D70F238DE7048280A8
:1022C800371700408347E70412054111BD8BC98FBA
:1022D80093F7F70F93068008F3B6068093F68608FF
:1022E80036C60F100000930670052300D704930626
:1022F80080FA2300D7040F1000002307F7042300F7
:102308000704B247F3A707800F100000410182803D
:10231800B717004003C7E7020D8941111377C70FAC
:10232800498F93068008F3B6068093F6860836C66A
:102338000F100000930670052380D704930680FAD7
:102348002380D7040F1000002387E70223800704A7
:10235800B247F3A707800F100000410182804111A6
:102368002A830148930E407E130F0019930F4006ED
:10237800B348030863EF1E011303001933736502A2
:102388008542FD4363F6B2088D4F214F930E4006F8
:10239800A1A07D13336EE3039308E016630E0E00CD
:1023A800336EF3039308D01663080E009378330056
:1023B80093B818009388D816C29833C808084DBF38
:1023C80093F81500138EF5FF637CBF02F908C298D5
:1023D80033C80808B3450E08E394F5FF8545630B39
:1023E8000300B378D50381456386080093753500EB
:1023F80093B51500F105C29533C805088945E9BFAD
:10240800B3881341C29833C80808B3450E089DBF66
:102418007D16329879463307C70213D61700BE07D0
:102428003348080832976146B3F6C602130680702F
:10243800B386C6023697A166F58F4207D98FB716BD
:10244800004003C7F60213770708D883908303C7B1
:10245800F60213770708E316E6FE9883B7160040DE
:102468004DCF1307800873370780137787083AC45E
:102478000F10000037170040930670052300D7049B
:10248800930680FA2300D7040F100000232A0703BD
:102498008346170393E60608A308D7022300070418
:1024A8002247732707800F10000011663717004076
:1024B8007D16545B4C5FAD8EF18EE5FE9306800869
:1024C800F3B6068093F6860836C60F10000093060A
:1024D80070052300D704930680FA2300D7040F1051
:1024E80000005CDB8347170393E70704A308F702A0
:1024F80023000704B247F3A707800F10000041012B
:10250800828003C7F60213770708D883908303C72E
:10251800F60213770708E316E6FE98837DD391B792
:1025280055714EDF86C7A2C5A6C3CAC152DD56DBA8
:102538005AD95ED762D566D36AD16ECFAA8982C0CE
:10254800EF00D01D93078008F3B7078093F787083B
:10255800BEC20F100000B717004013077005238094
:10256800E704130780FA2380E7040F10000003C76D
:10257800F7021377770FA387E70203C7F7021367FA
:102588008700A387E702238007049647F3A70780FD
:102598000F100000130B80C1334B650391679387BD
:1025A80007E8130A30029546B347F502330A4B038E
:1025B8003EC8FD873ED2BD67938707A6334AFA0215
:1025C8001357FA413ACA330740413AD47D873ACC87
:1025D8001307A0FB3307EB02B347F702056713079E
:1025E80007FA3ECEFD873ED6938729003319F700B8
:1025F80063E436013319370161671307076A334506
:10260800E50213070010B317F0288D873EC49547DD
:102618003309A9023349E902130740063309E902DD
:102628001307D0073349E9021357F9413AD833174A
:1026380030290D873AC663EF374993075047B307E8
:10264800F7023D67130707A6116C814A814B1304F3
:102658008008371D0040930480FA7D1CB387670308
:10266800B307F040B3C7E7023ED0FD873EDA7337C1
:10267800048013778708BAC40F1000001307700589
:102688002300ED04930D0D0423009D040F1000009A
:1026980003473D051377870FA309ED0403473D055D
:1026A80013671700A309ED0423000D0426477327B9
:1026B80007800F100000930C7005733704801377A0
:1026C8008708BAC60F100000930770052380FD0025
:1026D80023809D000F10000003473D051367070284
:1026E800A309ED0403570D051317E7282318ED0474
:1026F80003570D051317F7282318ED0423800D0041
:102708003647732707800F10000003473D051377EE
:1027180007026305073C03473D05218B6DDF8800F1
:1027280097E0FF1FE78080027337048013778708DC
:10273800BACA0F10000023809D0123809D000F104E
:10274800000003473D051377F70DA309ED04034780
:102758003D0513670702A309ED0403570D05131779
:10276800E7282318ED0403570D051317F728231836
:10277800ED0423800D005647732707800F100000D3
:1027880003473D05137707026301073803473D05F3
:10279800218B6DFF97E0FF1FE78080DF2A873ADCF7
:1027A80097E0FF1FE780C0DE6257E30AE5FE0357A4
:1027B8000D0506451317E7282318ED0497E0FF1FBA
:1027C800E78080FA03473D05218B6DDF03570D0530
:1027D80083462D05C24733778701B386860313D610
:1027E800F641BA96B388F640925733B7E600329767
:1027F8001D8FD247B3B61601158F63C6E700631C59
:10280800F700637A1A01E2476348F7326395E700F5
:10281800A25763E3F832894663F27633733704804C
:1028280013778708BAD00F1000001307700523002C
:10283800ED0423009D040F10000003473D0593F6A7
:10284800F90F1377870FA309ED0403473D05558F4B
:10285800A309ED0423000D040657732707800F1002
:1028680000001306700503473D051D8B63103737BD
:102878007337048013778708BAD40F100000130742
:1028880070052300ED0423009D040F10000003478A
:102898003D051377F70DA309ED0403473D051367BD
:1028A8000702A309ED0403570D051317E72823189A
:1028B800ED0403570D051317F7282318ED0423001B
:1028C8000D042657732707800F1000009306700524
:1028D80003473D05137707026304073203473D05A5
:1028E800218B6DDF880097E0FF1FE78020E67337B4
:1028F800048013778708BAD80F10000013077005F3
:102908002300ED0423009D040F10000003473D053C
:102918001377F70DA309ED0403473D051367070275
:10292800A309ED0403570D051317E7282318ED0431
:1029380003570D051317F7282318ED0423000D047A
:102948004657732707800F1000009306700503474A
:102958003D05137707026300072E03473D05218BCA
:102968006DFF97E0FF1FE780A0C2AA8C97E0FF1FCA
:10297800E78000C2E30C95FF03570D0506451317C2
:10298800E7282318ED0497E0FF1FE780E0DD034701
:102998003D05218B6DDF7337048013778708BADC18
:1029A8000F100000130770052300ED0423009D0499
:1029B8000F10000003473D051377F70DA309ED0439
:1029C80023000D046657732707800F100000035774
:1029D8000D0583462D05C25733778701B3868603D5
:1029E80013D6F641BA9633B7E600329733882641B4
:1029F800B3B606011D8F158F6346E00063180726DE
:102A0800630608261305800C3307E5020256D256E2
:102A1800B335050333050503BA95EF7001729306C4
:102A2800150033B5A6002E951357F501BA9633B79E
:102A3800E6002A971316F70185820587D18E63462B
:102A4800E000631F072C638D062C0356CD02158208
:102A5800B305D60033B6C50032976348E00063106B
:102A680007361307F00F637CB7340947637157279C
:102A780093078008F3B7078093F78708BEDE0F1027
:102A88000000B7170040130770052380E7041307F9
:102A980080FA2380E7040F100000DA378966811670
:102AA800558F33470708DAB723800704F657F3A78B
:102AB80007800F100000BE402E449E440E49FA596C
:102AC8006A5ADA5A4A5BBA5B2A5C9A5C0A5DFA4D22
:102AD8006961828022479307504795B6733704800F
:102AE80013778708BAC80F10000023809D01238040
:102AF8009D000F10000003473D0513670702A30957
:102B0800ED0423800D004647EDBE7337048013772C
:102B18008708BACC0F10000023809D0123809D00F8
:102B28000F10000003473D0513670702A309ED04D2
:102B380023800D00664789B1E3920BCE7246B256E8
:102B48009315170013D3F80113951800B365B30054
:102B58003ADE46DCEF70615E7257850B93FBFB0F24
:102B68006346E00031EFE258638C080493061500D1
:102B780033B5A600AA9513D7F501BA9633B7E60080
:102B88002E9785827E07558FF336048093F6860844
:102B9800B6CE0F10000023809D0123809D000F10EA
:102BA80000008356CD023697334707082316ED02F7
:102BB80023800D007647732707800F100000F5BCAF
:102BC8009306F5FF13351500898D75B773370480A3
:102BD80013778708BAD20F1000002300CD04230012
:102BE8009D040F10000003473D05558FA309ED0410
:102BF80023000D041657732707800F100000A5B196
:102C08007337048013778708BAD60F1000002300A3
:102C1800DD0423009D040F10000003473D051367E2
:102C28000702A309ED0423000D0436577327078014
:102C38000F10000071B97337048013778708BADA68
:102C48000F1000002300DD0423009D040F10000076
:102C580003473D0513670702A309ED0423000D048C
:102C68005657732707800F100000D5B19305800CC5
:102C78003387E50233850503B3B50503BA951547D0
:102C880063733705A247130750473387E7023306B4
:102C980060413306E6023D67130707A63346E6029E
:102CA8009356F641EF7061491306F5FF1335150089
:102CB800898D13D7F5013A963337E6002E97931688
:102CC800F70105829DBBB247130750477DBF130725
:102CD800800873370780137787083AC10F10000000
:102CE800B7160040130770052380E604130780FA1F
:102CF8002380E6040F100000DA3605660116137704
:102D0800F70F518F33470708DAB6238006040A47BE
:102D1800732707800F100000850A93FAFA0F81BA0B
:102D280033E6E60049CE0356CD02B335D00033076B
:102D3800E0400D8F3305D04015826345E00041E344
:102D4800637FA6060947637E570393078008F3B796
:102D5800078093F787083EC30F100000B71700409D
:102D6800130770052380E704130780FA2380E7041C
:102D78000F100000DA377D8BDAB7238007049A47F3
:102D88003DB373370480137787083AC50F100000E6
:102D9800130770052300ED0423009D040F100000A5
:102DA8000357CD02856681161377F70F558F334782
:102DB80007082316ED0223000D042A4791BF930745
:102DC8008008F3B7078093F787083EC70F10000005
:102DD800B7170040130770052380E704130780FA2C
:102DE8002380E7040F100000DA379606369733473A
:102DF8000708DAB723800704BA4755B9914763EC47
:102E0800B704979701009387A7EBB3C5F5209841BE
:102E18003E97B71700409387470B028794433717AD
:102E28000040B3F6A64094C39306070B9C42B3F741
:102E3800A74019A8944337170040B3F6A64094C397
:102E48009306070B9C42C98F9CC29307070A9843B5
:102E58003377A74098C38280944337170040C98EC0
:102E6800D9B798433377A74098C3B71700409387DB
:102E7800070A9843498FF9BF9843498FF5B7914797
:102E880063ECB704979701009387C7E4B3C5F520AF
:102E980098413E97B71700409387470D02879443A0
:102EA80037170040B3F6A64094C39306070D9C421B
:102EB800B3F7A74019A8944337170040B3F6A640C4
:102EC80094C39306070D9C42C98F9CC29307070CB5
:102ED80098433377A74098C38280944337170040BC
:102EE800C98ED9B798433377A74098C3B71700401E
:102EF8009387070C9843498FF9BF9843498FF5B7D3
:102F080019C5371700401E2FCD8F1EAF8280B71707
:102F180000409A2FB375B7408EAF8280B717004034
:102F28009A279306000C1377070C630AD7049A278D
:102F3800137707100DC79A279E277D8B09EB93F708
:102F48000720B1C33755E80113050580828037C5CE
:102F58009812FD8B130505E03345F50282809A2708
:102F68009E2713770720FD8B11C73755E8011305F6
:102F78000580DDB73725F40013050540F1BF21654D
:102F8800130505D082803725F4001305054082809B
:102F9800B7F700E08847828032858147373700409D
:102FA800A14663C3A70082803037E30FD6FE33867D
:102FB800F5001022850710A7EDB797F6FF1F938637
:102FC8006656AA878842172700201307A79BAA9747
:102FD80063E9E7000A87130707FC6364F7009CC2EC
:102FE80082807D558280411122C406C62A843D37DD
:102FF8002947B307E502B2408D83B3D7870222443D
:103008009507B3D7E70237370040B3C707085EA76D
:1030180041018280716541111305052006C6E1371B
:10302800B7370040130770F8B8A30D47B8B31307B4
:10303800000498B30547F8A7B2404101828023886D
:10304800018423A60184B71700401387070C144393
:103058009387070D9396664914C3944393966629FC
:1030680094C31443BD9A14C398431367070198C3C4
:10307800828023A6A18413064006894503C581855D
:103088006F30E14F371700401307470C1C43B70652
:103098004000F58F1443138701851023C18A13B5A7
:1030A800170091EA13652500630DA60008A383A7FE
:1030B800C18481CB82876306A60008A399E30545EE
:1030C800FDB7828011456FF0AFC541119396250079
:1030D800AA852D4506C697E0FF1FE780A08AB24063
:1030E800014541018280011122CC06CE37140040EF
:1030F80026CA4AC84EC652C483447405034AB40556
:103108008349840503499405EFF04F988347A40544
:1031180093F4F40F137AFA0F93E71700230DF404CE
:1031280093F9F90F1379F90FB717004003C7A705EB
:10313800058B6DFF03D5C705A38D4705238C370580
:10314800A38C2705A38B9704F2406244D2444249DA
:10315800B249224A05618280411122C406C62E84E2
:103168009397556063DF070097E0FF1FE780C0BAB9
:1031780019C1EF30A1241315F468B240224441016B
:10318800828093F7150013C51500E5FB93F725001A
:1031980081CFCD3D1306000A894503C58185EF30EF
:1031A800013E13452400D1BF8967ED8F85C3EF60C9
:1031B800E116093F37F60200130606E0896503C5E4
:1031C8008185EF30C13B1315D46845BF11656D8DFE
:1031D8004DD517950100130525B1EF703111130670
:1031E8000064916503C58185EF3061391315E46882
:1031F80069B72D71232A9110FD74E98C232C811055
:1032080023282111232631112A84AE893289930675
:1032180000100A86A6852D45232E111097D0FF1F72
:10322800E780407613154401498113962900CA8521
:103238000A9597E0FF1FE78020B7A68585660146B7
:10324800254597D0FF1FE780E0730A86A685930679
:103258000010294597D0FF1FE780C0728320C11155
:103268000324811183244111032901118329C110E9
:1032780015618280011183A7818406CE22CC26CADB
:10328800BD8B21476399E700AD37F2406244D244D1
:10329800014505618280B7F70700DC532A84B284B0
:1032A800BD8B939625006397E7008567FD17F58F1B
:1032B80091C301A0A2850146254536C697D0FF1FB8
:1032C800E780406CB2462686A285294597D0FF1F25
:1032D800E780406B5DBF1D71494697950100938556
:1032E800E5A017A501001305E5A086CEA2CC97E0BE
:1032F800FF1FE78040B101E917950100130545A0BC
:10330800EF70C17E01A0B7F700E023A4070079574A
:1033180098CB3D4798C30564B7E700E023A087181A
:103328000F10000017E7FF1F1307871423AAE18473
:10333800130700F8A38AE7401306C003814548082D
:1033480097E0FF1FE78000A997070020938707B839
:103358003ECA9D673ECEB7070105938707103ED04A
:10336800ED472312F10285472303F1029707000076
:103378009387E7D5BEC4970700009387E7EFBEC6DB
:10338800930754D12314F10297070000938787C04D
:103398003EDAB7F5070097070000938707D53EDEAA
:1033A800814697070000938727D27000E1051945E9
:1033B800BEC0E08497D0FF1FE780C05C19466C0050
:1033C8001305E102EFE0FFE8D24781C7BC8463F34D
:1033D800870001A04808EF308155AA8501C91795D3
:1033E800010013052593EF70C14E01A0F640664415
:1033F80025618280411117050000130525D606C6F0
:1034080022C4EF3021501384818508A0192805397A
:1034180008202244B24013060032896541016F300A
:103428000116397106DE13078008F337078093F712
:1034380087083EC20F100000B717004093057005BB
:103448002380B704130680FA2380C7040F100000F6
:1034580083C6F70293F6A60FA387D7022380070433
:103468009246F3A606800F10000073370780137783
:1034780087083AC40F1000002380B7042380C704CC
:103488000F10000003C7F70213672700A387E7029E
:1034980023800704A247F3A707800F100000054503
:1034A800EFE01FE70531814701478146054685451D
:1034B8001305407EEFE0BFEA68001306400281452D
:1034C80097E0FF1FE7800091B707C0A83ECAB787FB
:1034D800E803938707D03ECC97D7FF1F9387673AB7
:1034E8003EC6680097D7FF1F9387273B3EC8EF303B
:1034F8002161F250216182804111979501009385E5
:10350800A599179501001305E58206C6EF70613C81
:103518001795010013050583EF70A13B2945EF704E
:10352800E13EB24041016F20A0774111979501001B
:1035380093850593178501001305C57F06C6EF70AF
:10354800413913050002EF70613C2945EF70013CD9
:10355800EF2031768567138707773376E502B24027
:103568009387873803C50186854541013E966F30AC
:1035780001014111979501009385058D178501007B
:103588001305457B06C6EF70C13413050002EF70C2
:10359800E1372945EF708137B24003C5018685457B
:1035A80041016F308112411106C617170020130719
:1035B800E79E5C37F99B5CB7EF90807005E1EF20E0
:1035C8004010EF20D049B2403726090003C50186D4
:1035D8001306067C854541016F20717AB24041018E
:1035E8008280411197950100938585881785010090
:1035F8001305457406C6EF70C12D2945EF700131DA
:10360800B24041014DB741119795010093858584DA
:10361800178501001305057206C622C426C24AC0D2
:10362800EF70212B2945EF70612EEF90606919E545
:103638002244B240924402494101B5B797F4FF1FB2
:10364800938444B8BC48757471797D14239027011C
:10365800A2A317F5FF1F1305E5BAEFC0B060FC443D
:1036680017F5FF1F130505BA23900700EFC0F05D9B
:10367800BC5817F5FF1F1305E5BA23902701A2A32D
:10368800EFC0505EFC5417F5FF1F1305A5B9239032
:103698000700EFC0905B17F5FF1F130565C41C49B1
:1036A80023902701A2A3EFC0F05B17F5FF1F1305B6
:1036B80025C35C452244B240924402492390070046
:1036C80041016FC090584111978501009385C57FCE
:1036D800178501001305056606C622C426C2EF70C9
:1036E800411F2945EF708122EF90805D05E997859C
:1036F80001009385657D178501001305A563EF70AB
:10370800411D178501001305E564EF70811C2244F3
:10371800B2409244294541016F70411F13050002D0
:10372800EF0050552A8405E1978501009385C579F6
:103738001785010013050560EF70A11917850100B1
:103748001305C562D9B7A5471CB19307C0125CC160
:10375800FD575CA5EF00305108A0084CB705D40010
:103768009385851A3105EF10A03E084C0C203105D1
:10377800EF20F04B084C930500103105EF20704CFA
:10378800044C0565EF004072B104AA852685EF2038
:10379800104A084C930510123105EF20904A084C46
:1037A800C165FD153105EF20D04922852244B2407C
:1037B800924441016F00105213F5150021C94111BF
:1037C80022C4178501001305E5562E84978501004C
:1037D8009385856606C6EF70C10F2945EF70011302
:1037E800EF90004E01C9C535B2401345140022447C
:1037F80041018280170700201307477A5C37F99B3D
:1038080093E717005CB7EF10506DF9BF82807971AC
:10381800978501009385456A178501001305855131
:1038280006D6EF70010B2945EF70410E61468145C0
:103838002800EFE07FA3EF001043A547DC8493073F
:10384800C01248843EC60565FD57230AF100EF0003
:10385800C079EF90E0461DE5978501009385C56521
:10386800178501001305054DEF70A10617850100A6
:103878001305454EEF70E1052945EF702109B25057
:10388800456182802800EF00B045D5BF411197857A
:10389800010093852561178501001305A54906C612
:1038A80022C4EF7001032945EF704106EF904041B3
:1038B8001DE5978501009385E55E178501001305D1
:1038C8006547EF700101178501001305A548EF70E2
:1038D80041002244B240294541016F70210341450E
:1038E800EF0050392A8405E1978501009385855BAF
:1038F8001785010013050544EF60B17D17850100A8
:103908001305C546E9B7A5471CB19307C0125CC1AA
:10391800938701825CC9FD575CA5EF00D03408A0ED
:10392800084CB705D4009385851A3105EF1040225D
:10393800084C0C203105EF20902F084CBD65A505DB
:103948003105EF201030084C930530023105EF2087
:10395800102E22852244B24041016F00B037411138
:1039680022C497850100938565522A841785010032
:103978001305453C06C6EF60D175A2851785010081
:1039880013054540EF60F1742945EF6031788547AC
:103998006309F4008947630AF400B24022444101F4
:1039A80082802244B24041019DB52244B240410187
:1039B800F1BD01113546978501009385653D179541
:1039C80001001305A59B06CE22CC97D0FF1FE780E8
:1039D80080430DE5978501009385454A17850100C9
:1039E80013054535EF60F16E178501001305453164
:1039F800EF70C10F2945EF60717101A097F7FF1FA4
:103A08009387C7CC3EC434009317B028138601832C
:103A1800978501009385456E178501001305456F4D
:103A28003EC6EF10F0732A840DC99785010093856F
:103A3800E544178501001305E52FEF609169A2851C
:103A4800178501001305C535EF60B1682945EF609A
:103A5800F16BF240624405618280EF80C0011785F6
:103A680001001305254CEF100015EF40D076EFE06C
:103A7800501317F5FF1F1305E585EFE03000178594
:103A880001001305A545EFE090132A84EF10C06EDE
:103A9800EFA0C033EF00D131EF20F003EF109049D1
:103AA800EFC0F017978501009385453D1785010004
:103AB8001305452809C8EF60D161A2851785010063
:103AC8001305453051B7EF60D16017850100130524
:103AD800A531EF6011602945EF605163EFC0807A2E
:103AE800EF90001E29C59785010093852539178514
:103AF800010013052524EF60D15D1785010013052A
:103B08002530EF60115D2945EF6051609785010010
:103B18009385C536178501001305C521EF60715BD4
:103B28001785010013050530EF60B15A05B7A53CAC
:103B3800F1BF411117050000130545C806C6EF205F
:103B4800715C2380A18617E5FF1F13056579EF00D7
:103B5800702A8535EFF0AFCE17050000130565E034
:103B6800EFF02FD1B240814505654101B1A6411161
:103B7800978501009385C548178501001305851BA6
:103B880006C622C4EF60F154138421810E201785E4
:103B980001001305253AEF60D1532945EF6011570D
:103BA8000A20B24022444101828039711C0822DC7B
:103BB8003EC22E84B7072000A16526DA9385E52446
:103BC800AA843EC448001C0806DE3EC6EF005078B2
:103BD8000565713FAA854800EF20B006978501006A
:103BE8009385C53D178501001305C514EF60714E17
:103BF8000E2472201785010013050535A18193F560
:103C0800F507EF60114D2945EF6051501C3401470D
:103C1800814693F7F707D917B337F000B307F04099
:103C28003CA45000A2852685EF10C01215C52A8431
:103C38009785010093858538178501001305850F41
:103C4800EF603149A2851785010013056531EF60E2
:103C580051482945EF60914BF2506254D25421618A
:103C68008280411122C426C22A84AE8417850100AD
:103C78001305450C978501009385053306C6EF604B
:103C8800514513050002EF6071482945EF6011485E
:103C980022852244B240A6859244410139B7797100
:103CA80022D426D22E84B284814561464AD02A89FC
:103CB800280006D6EFE04FDBEF00E07AA547DC846A
:103CC8009307C0123EC64884EF20A17E93072003C5
:103CD8003375F502978501009385C52F2AC8178586
:103CE800010013052505EF60D13E9C400E24830694
:103CF800840098239C337220A181A2075D8F93F5DD
:103D0800F5071785010013052527EF60913C294524
:103D1800EF60D13F9C4098239C33A207D98F239909
:103D2800F1801C34294793F7F7076385E700FD57AF
:103D3800230AF100831764006359F000FD57230A32
:103D4800F1009307400602C83EC62800EF00F001C4
:103D5800A2854A85993DB250225492540259456130
:103D680082804111978501009385052817850100F8
:103D7800130545FC06C622C43284EF60913513054D
:103D88000002EF60B1382945EF6051380565C53349
:103D98001C4098239C33A207D98F6304F50023990C
:103DA800F180B24022444101828039711C0822DC32
:103DB8003EC22E84B7072000A16526DA3EC4AA8435
:103DC8001C0893854520480006DE3EC6EF00505883
:103DD800B717004083A5470C48009395C56893D54D
:103DE800C548EF20C064978501009385E5281785AD
:103DF8000100130525F4EF60D12D0E2472201785DC
:103E0800010013056514A18193F5F507EF60712C86
:103E18002945EF60B12F1C340147814693F7F70716
:103E2800D917B337F000B307F0403CA45000A2857F
:103E38002685EF00307215C52A8497850100938581
:103E4800A523178501001305E5EEEF609128A285EB
:103E5800178501001305C510EF60B1272945EF60EC
:103E6800F12AF2506254D25421618280411122C455
:103E780026C22A84AE84178501001305A5EB978511
:103E880001009385651E06C6EF60B1241305000284
:103E9800EF60D1272945EF60712722852244B2407F
:103EA800A6859244410111B7B717004083A7470C74
:103EB8007D8D133515008280411126C2AE848D4553
:103EC80022C406C62A84EFE09FFBB717004081C8CA
:103ED80023A6870CB240224492444101828023AC3D
:103EE800870CCDBF4111978501009385251B178548
:103EF8000100130525E406C622C43284EF60711D53
:103F080013050002EF6091202945EF603120184029
:103F1800B717004083A7470C0C239397C76893D71C
:103F2800C7486387F5002244B2400565410169B777
:103F3800B240224441018280797122D426D22E8453
:103F48004AD081453289AA846146280006D6EFE026
:103F5800AFB1112BA547DC849307C0123EC6488435
:103F6800EF202155930720033375F502978501004B
:103F78009385C5112AC8178501001305A5DBEF60D5
:103F880051150E24830684007220A18193F5F5074C
:103F9800178501001305050BEF60B1132945EF6084
:103FA800F1168327090005658C2339371C34294706
:103FB80093F7F7076385E700FD57230AF100831796
:103FC80064006359F000FD57230AF1009307400687
:103FD80002C83EC628002923A2852685F933B25097
:103FE8002254925402594561828041118D4522C460
:103FF80006C62A84EFE0BFE8B71700409387870C0E
:104008009843B24033458700224488C341018280E7
:104018000111354697850100938585D717850100DD
:104028001305C53506CE97D0FF1FE780C0DD01E92F
:10403800178501001305C50AEF60512B01A0EF4059
:10404800515E2AC6EF005119EF004178EF60705CAD
:10405800F2403245056182804111114506C6EFE004
:104068002FA61305503497C0FF1FE780E053B717FA
:104078000040116723ACE70AC1450545EFE05FE85A
:1040880085452165EFE09FD78D451165EFE01FD786
:10409800EFE05FF8179501001305C5C5EF6011251E
:1040A800178501001305852DEF605124EFF0AFA2AD
:1040B800EFF04FB4B13FEFF0DFA797D0FF1FE780D5
:1040C800008001458280B7F70700DC532147AE86A0
:1040D800BD8B6396E7009397450191C301A0AA851C
:1040E8000146254517D3FF1F6700C3894111B286D2
:1040F8002E86AA852D4506C697D0FF1FE7808088A3
:10410800B2400145410182801D7186CEA2CC930741
:10411800000432C663E2C7022A840808EFE06F93FE
:10412800B2461008A285294597D0FF1FE7808085F1
:10413800F6406644256182803955DDBF2E96178783
:1041480001001307270C6393C50082809C21090591
:1041580085059183BA979C23230FF5FE83C7F5FF46
:10416800BD8BBA979C23A30FF5FEF1BF411197852C
:1041780001009385E514178501001305A5BB06C644
:10418800EF60217513050002EF604178B2402945C0
:1041980041016F60A1774111978501009385451012
:1041A80017850100130505B906C6EF60817213056E
:1041B8000002EF60A175B240294541016F600175A9
:1041C8004111978501009385650C1785010013053A
:1041D80065B606C6EF60E16F13050002EF60017374
:1041E800B240294541016F60617241119785010014
:1041F80093850509178501001305C5B306C6EF6049
:10420800416D13050002EF606170B240294541011C
:104218006F60C16F4111978501009385A5051785CA
:104228000100130525B106C6EF60A16A1305000257
:10423800EF60C16DB240294541016F60216D5C4955
:10424800411122C406C62A8491C7DC4381C72E8542
:104258000C4882971C4CC84BEF2041161C4CB240AE
:10426800224423AA0700410182804111328506C6F3
:1042780022C426C22E844AC0EF20C025AA8497856E
:1042880001009385E502178501001305A5AAEF60D3
:1042980041640307840072204E20A686178501001A
:1042A8001305C5EAEF60E1622945EF60216617044E
:1042B8000020130464C2170900201309E9C71C2051
:1042C800639A9700814522859D3F4C2C03C5218622
:1042D800EF20A13F13040402E31324FFB240224459
:1042E80092440249410182801D71A2CCCAC886CE7F
:1042F800A6CACEC6D2C4170400201304E4BD5C2CA1
:104308002E89ED8FC9E78347C403ED8FD9E383472F
:10431800C4050145ED8FA5C78947139A57001C109E
:104328003EC4B70720003EC697E9FF1F938949FBA3
:104338001C103EC883A7C90002CA02CC02CE9E2325
:10434800B3044401984CFC83FD77FC845C4BA1E7E3
:1043580097850100938585ED178501001305859DD7
:10436800EF60215717850100130505E1EF606156DD
:104378002945EF60A1595294482C3345A900F640CD
:104388006644D6444649B649264A25618280814713
:1043980069B7854759B79C30A555B1CBFD17122B86
:1043A8004C479CB0DC242800230FF100EF20400686
:1043B8004E8526879386818230004C08EF0090193D
:1043C800AA8955D997850100938545E61785010087
:1043D80013054596EF60E14FCE851785010013055B
:1043E80065DAEF60014F2945EF604152D5552685C2
:1043F800B93551B79C4DDC4B99C7D041CC2D03C57D
:1044080021866F20C11782801C4EDC4BA1CF411141
:1044180026C206C622C4AE84A9C197850100938529
:10442800A5E4178501001305E5903284EF60614A21
:10443800A68517850100130525D7EF608149294511
:10444800EF60C14C4C2C2244B240924403C52186F3
:104458001306400641016F208112B2402244924463
:104468004101828082809387118688231307150073
:1044780098A3828097070020938707A6984F411139
:1044880026C2584B06C622C44AC0AA8421C3985FD4
:10449800584B1DCFB84F584B1DE3094716073384B7
:1044A800E70026850329840197D0FF1FE780A080B5
:1044B8001C4C232AA9002285A6ABDC4B91E30145BD
:1044C800B240224492440249410182800147F9B72F
:1044D8000547E9B710454C2D03C521866F20210AF1
:1044E800411126C2AA84414506C622C4613705E99E
:1044F80097850100938505D61785010013058583E7
:10450800EF60213D1785010013054586EF60613C8A
:104518002244B2409244294541016F60213F6146DF
:10452800A6852A84EFD0FFD2084CB705D40093851E
:10453800851A3105312D084C8C203105EF10306F6C
:10454800084C930500103105EF10B06F044C056559
:10455800EFF09F95B104AA852685EF10506D22854E
:104568002244B24092444101B5B7411126C2AA84FF
:10457800414506C622C4FD3D05E99785010093859E
:10458800E5CB177501001305E57AEF6081341775DF
:1045980001001305A57DEF60C1332244B240924467
:1045A800294541016F6081366146A6852A84EFD08E
:1045B8005FCA084CB705D4009385851A3105492B85
:1045C800084C8C203105EF109066084C93051012AA
:1045D8003105EF101067044C0565EFF04FD9B104B1
:1045E800AA852685EF10F06522852244B2409244C0
:1045F8004101CDB515713707B19C86CF97070020CB
:104608009387C799A2CD1307871A98C3377700985D
:10461800130727B9D8C337576C141307479598C79A
:10462800881013078021D8C7EF008166B777929C5E
:10463800938707B011464C0028103EC2EFF01FB018
:1046480097850100938545B80818EF60C14A194657
:1046580097850100938585CD13051103EFF01FAEF3
:1046680097850100938545B61305D103EF60A148EE
:104678004146978501009385C5CB1305E103EFF00B
:10468800FFAB130660032C108810EF0021678547E5
:10469800630CF50897850100938505B81775010027
:1046A80013054569EF60E12217850100130505B27E
:1046B800EF6021222945EF606125EF10915F938615
:1046C80011869C22135785002A97BA97135705011C
:1046D800BA976181AA979CA2170700201307C7857C
:1046E80097F7FF1F9387477F98CF0547D8AF1707DE
:1046F80000201307278698DF0947238EE70217074C
:1047080000201307E786B8CF17050000130505BE7C
:104718001147238EE704EF20E11EFE406E442381FB
:10472800A18601452D6182802A848C102800EF0023
:10473800016363018502978501009385E5AD1775CF
:1047480001001305255FEF60C118178501001305E7
:1047580065A9B9BF41462C0017050020130505833C
:10476800EFD03FAF99BFEFD23FAA2A8408452E89E0
:10477800B28909C900C1970500009385C573610511
:10478800EFF0F07581447D5AEF10000463C3A40470
:104798008144EF10600463C6A40497070020938740
:1047A800E7809C43DC47B307F94091872302F40074
:1047B800638109048327C900B307F4409587A302DE
:1047C800F4001C4C89C79C4799C3228582976FD0F7
:1047D800FFA65C44139714008504BA9723904701F9
:1047E80065B71C48139714008504BA9723900700EF
:1047F8004DB7832789000547B307F4409587A3027F
:10480800F40083570400638EE7028DC3094763846D
:10481800E7040D47E397E7FA978701009387C704F2
:104828001CCC978701009387270511A8978701005B
:10483800938707CB1CCC97870100938767CB5CC80D
:1048480049B7978701009387A7B61CCC97870100C3
:10485800938707B7EDB7978701009387A7051CCC07
:104868009787010093870706D9BF85E1EFD27F9B21
:10487800004618448347940075839D8B6315F700A1
:10488800EF00B01948C46FD01F9C8280EFD2DF9729
:1048980013893500C16442094111AA890144F11400
:1048A80013590901054A2EC6EF001072B245634636
:1048B800A400014541016FD07F9883A70900131711
:1048C8001400BA9783D707006388B70063949700EA
:1048D80063742A010504C1BF0545E9BFEFD2FF9102
:1048E800AA892E89328BB6843A8ABE8AEF80403DE7
:1048F8004DC12685EF10B02D8D4763E5A7007D5586
:104908006FD03F9383DB4400EF0010722A84EF00DE
:10491800F0729307740031443305850263C5A7021A
:10492800EF009070EF0050702A84EF003071930709
:10493800740031443305850263CDA702EF00D06EC1
:104948009307450019A8EF00706F33058502130718
:10495800F0179307C017E357A7FC2D55E3C277FB61
:1049680063000B02D6865286A6854A85EFE09058EA
:1049780041BFEF00B06C330585029307C5FFF1BF57
:10498800832749001385C90083D52700013779F9A2
:10499800BDB76955B5B797F7FF1F239BA76097F772
:1049A800FF1F9387A760904381470C463307F500A4
:1049B800420741836393B7008280544613984700A7
:1049C8008507C2962390E600D5B797F7FF1F938710
:1049D800E75D9C4303C58700828017F5FF1F0355D9
:1049E800255D8280EFD2FF83C1671387D7FF6307F6
:1049F800E5026368A700F117630EF50001456FD063
:104A08009F841387E7FF630EE500FD171D8D13359F
:104A18001500F5B7EF40A0347D15D5BFEF40201243
:104A2800E5BFEF408010CDBFEFD2AFFF4111AA84A0
:104A380001442EC6EF00505AB2456346A400014512
:104A480041016FD05F809C48131514003E95835731
:104A58000500E387B7FE0504E9BF03485500814612
:104A680093F7F60F63E5070181473E858280584535
:104A780093975600BA9703D727006316B70003D752
:104A88000700E304C7FE8506E1BF834645000147EA
:104A98009377F70F63E4D700814711A81C451316D5
:104AA80057000507B29703D60700E313B6FE3E8505
:104AB8008280EFD26FF593170501C18797FAFF1F20
:104AC800938ACA4E6353F00883A70A00C0479C47DD
:104AD80003570400198D420541816366F5000144BE
:104AE80022856FD0AFF512052A94DDBFDC471394F9
:104AF8004900014A3E94834744006341FA02014A4F
:104B0800834754006346FA028509C20993D909010B
:104B180083A70A009847E3EBE9FCD1B71C441319B3
:104B28005A00A6853E994A85013709ED050AE1B77D
:104B38005C4413195A00A6853E994A85F53519E152
:104B4800050A7DBFE30209FC61BFAA848149C9B790
:104B5800EFD22FED1C452A8481E79307C5001CC5B9
:104B68001C44231204001CC09307F00F63E9B7002C
:104B780093F5F50F2285EF10900B6FD0CFEC93943F
:104B88000501C167C18063F7F500A6852285EF108E
:104B9800B00DE5B7C18193F5F50F2285EF10300907
:104BA800A6852285EF10F009C9BF97F7FF1F9387E5
:104BB800E73F884382801C4599C797F7FF1F23A7C3
:104BC800A73E014582807D55828097F7FF1F938716
:104BD800E73D984383474500484792073E958280C2
:104BE800EFD22FE4617100451C183EC6B70780015B
:104BF8003EC81C183ECA8357440002CE02D002CCDD
:104C0800231EF100834784002A8902D22301F1027E
:104C18003C083ED402D6553F835705002316F102BF
:104C2800EF3070632307A1025C4003556400F183F1
:104C380013F717008347F10252055181F99BD98F69
:104C4800A307F102EFE0701C39C5AA8403550500DB
:104C5800EF80E00783D704002AD26800231CF10004
:104C680083D72400231DF1001C4803D647008C433A
:104C7800EF10007A8347B400CA861776010013063E
:104C8800A66C8117A305F4006C004810EFE090268D
:104C98005D616FD04FDB2155E5BF1C45B1CF03C522
:104CA800A700894613576500630BD7028D46630E2C
:104CB800D70285466300D702130740063305E5028D
:104CC80003C7B700418B15CB83C7B700BD8B3355DE
:104CD800F54082801375F5031307803EC5B7096751
:104CE8001375F50313070771D1BF3727090013752B
:104CF800F5031307077CD9B701458280EFD26FD23D
:104D080003A98500630409048347B900AE8493F7B7
:104D1800070E91CF03459900930520030D810505E2
:104D2800B305B50288446105EFF0902705A02E85EC
:104D3800AD372A8401CDD5218325C900B307B540F5
:104D480063F887002E94B305A440E9FD6FD0AFCF78
:104D58008545C9BFEFD2EFCC2A8403D505000111E0
:104D680032C636C43AC22EC002CA02CC02CEEF7096
:104D7800107682452ACA22852ECC813D035705002C
:104D8800231EE100EF30304DA24632469247230FF2
:104D9800A10036874C08B28622850146EFF01FB481
:104DA80005616FD04FCAEFD2CFC761711C183EC6DC
:104DB800B70780013EC81C183ECA3C0800453ED4CF
:104DC800AA8402CC02CE02D002D202D6FD3B83577F
:104DD800050035592316F102EF30F0472307A102E9
:104DE80009C48357440091E721594A855D616FD012
:104DF8008FC50355640052055181EFE010012A89DF
:104E080065D58347B40093F7070E89C71305840156
:104E1800EFF0901A83574400231EF1008347840063
:104E28002301F1025C4003550900D98313F70708F1
:104E380083471102231CA10093F7F707D98FA3001A
:104E4800F10283572900231DF1005C40F18313F719
:104E580017008347F102F99BD98FA307F102EF707E
:104E680010672AD251D183479400680013975700DE
:104E78008347B400FD8BD98FA305F4001C4803D6E3
:104E880047008C43EF10C058A68717770100130717
:104E9800A74B740005464C102685EFF03FA42A89DD
:104EA80029D58347B400A685FD8BA305F400B93541
:104EB8002DBFEFD20FB7832485FE2A8441112685A2
:104EC800EFF0BFDD834734FF93F7070E9DC32AC673
:104ED8002685EFF0FFD019C9834734FFB245FD8B13
:104EE800A309F4FE81C52285EFF0900B41016FD034
:104EF8008FB56DDD8327C4FF2685829765F98347C3
:104F080034FF93F7070E81C72285EFF0F00A0325D7
:104F180084FE513DE1BFEFD2CFAD9C4141112A89BA
:104F280003C7070089472E8493566700638CF602EF
:104F38000D466382C6049307F0076302F7022E85C5
:104F4800EF104059AA848149C16B130C490097F7A7
:104F5800FF1F9387A7059C43984763ECE90241012B
:104F68006FD0EFAC03D745008547E3FAE7FE2E85FF
:104F7800EF10205AC1BF03D74500E3F2E7FE2E85A4
:104F8800EF104055AA842285EF102056C204C98C20
:104F98005DBFDC470355A900139A49003E9A931751
:104FA8000501C187635DF00083570A006395A70276
:104FB80063E574038327CA00034D5A001DA0A16747
:104FC8002167A98F1307F7EFE374F7FE63950900CC
:104FD800EFF05FA171FD85099DBF83278A00034D0E
:104FE8004A00835DA90003576900216A138BC70033
:104FF8003AC6814A33CA4D01631E5D0197F7FF1F08
:10500800938747FB9C43E1DBA28662868145268520
:105018008297D1B7A1679387F7EF930C4BFF63F0A3
:105028004703B2455A85EFF07F8619CD03278B00D9
:10503800104719CA10436380C4023107D5BFEE85F3
:105048006685EFF07F9E71FD93861A0093FAF60F3E
:10505800130B0B0255B7835644005C43E3EDF6F699
:1050680022853AC6EF100036A1679387D7042A8AAB
:10507800035D4400324763E897008347D90093E70C
:1050880007F8A306F9001C4766852286E285829701
:10509800C1670844FD17337AFA00529508C02312F5
:1050A800A40115BF97F7FF1F938747F098438147DF
:1050B80015C31447814763FFD500939745004C47B4
:1050C800BE9519C903C7550081476375E600DC45DD
:1050D8001606B2973E85828003C745008147E37B69
:1050E800E6FE16069C45F5B7EFD20F92AA892E8ADE
:1050F800814497FAFF1F938A6AEB83A70A009847AF
:1051080063E4E4006FD08F93DC47139444000149B3
:105118003E9413BB140083474400634BF9000149D4
:1051280013BB140083475400634FF9008504F1B79B
:105138000844931759005287DA860146A2853E959E
:1051480082990509C9BF4844931759005287DA86DE
:105158000546A2853E9582990509E9B7EFD26F8C7D
:10516800814517F5FFFF1305456097F7FF1F23914A
:1051780007E49D3F6FD02F8D97F7FF1F938707E3B5
:105188009C4399CBEFD2EF89814517F5FFFF1305B3
:10519800C55D993F6FD02F8B8280EFD2EF8641118A
:1051A8002315E1002E89B284B6893A8681460147E3
:1051B800ED452A84EF10B14C2AC61DCD0356A10037
:1051C800CE85EFD00F89CA852285EF1071600589D9
:1051D80015C1228501462C0023149100EF10116E91
:1051E8002A8409C5ED452800EF1091582285410110
:1051F8006FD0CF844944FDB76554CDBF5C41FD17DE
:105208005CC18280EFD2EF81EF1001319547330501
:10521800F50281450D816FD00F83EFD28F80EF109B
:10522800A12F95473305F5020D816FD0CF81EFC2CD
:105238005FFF03550500EF1031256FD0CF80EFC217
:105248005FFE035505003287AE8617D6FF1F03564B
:10525800061097F5FF1F938525D681376FC0BFFECF
:10526800EFC23FFCEF4011496FC0FFFDEFC27FFB6B
:1052780097F5FF1F938545D4EF10F16B01456FC07B
:105288009FFCEFC21FFA814517D5FF1F035525085C
:10529800EF10B15D6FC03FFBEFC2BFF897F5FF1F7E
:1052A800938585D2EF10316901456FC0DFF9EFC2F0
:1052B8005FF7814517D5FF1F0355650BEF10F15AAE
:1052C8006FC07FF8EFC2FFF52E85EF60A04DEF604D
:1052D80030036FC05FF7EFC2DFF4EF60500D6FC0AF
:1052E8009FF65C49E1175CC95CC583572501A10796
:1052F8002319F50083570501A1072318F5008280BB
:10530800F1473305F50297F7FF1F9387E7CD9C43D5
:105318003E9582808D476317F60603D7460085477A
:1053280063F2E706EFC2FFEF368536842E89EF1069
:10533800601A39C18357440093140501C18063ED95
:1053480097022285EF100019FD1423129400930789
:10535800A002630EF5009307B0026301F5029307FC
:105368009002631BF5002285EFC0707931A00146D9
:10537800CA852285EF8060056FC0FFEC2285EF00AB
:105388001056DDBF828097F6FF1F938626C69C4283
:10539800014599CF9843D44217F6FF1F2328E6C446
:1053A8006396D70097F6FF1F23A4E6C41385C7FEAC
:1053B8008280EFC21FE7C9267144330585029145F3
:1053C800EF70C05801E565556FC0FFE797F7FF1FFD
:1053D80023AAA7C05526330585029145EF700057CB
:1053E8007DD197F7FF1F23A1A7C0792697F7FF1F45
:1053F8002394A7BE512697F7FF1F2390A7BE977740
:1054080001009387A7F917F7FF1F232BF7BC97070E
:105418000000938747ED17F7FF1F2321F7BC0145CD
:1054280065B7EFC21FE0AA8517F5FF1F1305C5BAB8
:10543800EF10201E6FC03FE1EFC2BFDEDD37EF1077
:10544800C01E97F7FF1F938767BA9C4381CF1387C6
:10545800C7FE09CB83D5C7FF17F5FF1F130585B90D
:10546800EFF000346FC03FDEEFC2BFDBEFF0BFF1FB
:1054780011C9834785002A8493F7070491E70355E8
:10548800E5005D3F6FC03FDC8347C50093044501DD
:1054980017F9FF1F130989B585E3832709005CC93C
:1054A80097F7FF1F23A497B483274900E1FF97F7D5
:1054B800FF1F23AF97B2F9B7FD172306F500610563
:1054C800EF60A0748307840063C9070483478400DE
:1054D80093E707F82304F400EF00B17D4205A947DC
:1054E80041813375F5028347840093F707FCC98F20
:1054F8002304F4008347D4003E951C402318A400DD
:1055080089CF984319CB8347C4005040814585070C
:105518003305F502420541810297832709005CC8DB
:1055280097F7FF1F23A497AC8327490089E797F7CC
:10553800FF1F23AF97AA8347C400A9D78355040147
:1055480017F5FF1F130505ABEFF0802525BFEFC248
:105558005FCD97F7FF1F938727CF9C47014485832B
:10556800858B81EFAE84B2853A86EF1060112A846C
:1055780009C5EF106008829408CC22856FC0BFCCA3
:10558800EFC29FC841112E8932C6AA89712C3247B1
:1055980013060502CA86970500009385A5D617F558
:1055A800FF1F130565A3EFF09FFA2A8429CD930402
:1055B800C5004D261946AA852685EF0070658545E4
:1055C8002685EF005062177501001305E5DA4E9540
:1055D800834505002685EF0090655C483146814586
:1055E800A1075CC85CC483572401E1172319F400A0
:1055F80083570401E1172318F4001C4C3E85EFC0C3
:10560800BFC6A3042501228541016FC03FC3EFC275
:105618005FC14111AA842EC632C4EF104000004D6C
:10562800B2452246834784000CC050C093F7F70365
:1056380093E707042304F400231804002685EF00E9
:10564800B07B83479400A9462317A40013D73700DB
:1056580005073307D7029D8B85072306F400A306A9
:10566800E40083C70401D8488507230FF7FE17F71E
:10567800FF1F1307A7975843232A040093074401E1
:105688001DEB17F7FF1F2325F79617F7FF1F232F8B
:10569800F79417F4FF1F1304E4952285EFF0C00573
:1056A8001C44858B5D8D09E581452285EFF0400F0F
:1056B80041016FC05FB91CC317F7FF1F232AF79278
:1056C800C9BFEFC21FB6970500009385E5C4014521
:1056D800EFF05FBF01456FC01FB7EFC29FB4EFF097
:1056E8009FBF6FC05FB68347C500A1E7EFC27FB316
:1056F8002A840355E500EFF0DFD215C983478400FB
:1057080093F7F7FB2304F4001C4091C7DC4381C7DF
:105718004C4001458297EFF01FC717F5FF1F13058F
:10572800658DEFF060090355E400EFF0FFD06FC01E
:105738009FB18280EFC2FFAE97F7FF1F9387078B59
:1057480097050000938585D217F5FF1F1305858AF5
:1057580023A0070023A20700EFE070786FC0BFAE58
:105768001C4D91CBDC4381CBEFC2BFAB8345070017
:1057780082976FC05FAD828097F7FF1F9387C789B5
:105788009C4303C50700828097F7FF1F9387C7884C
:105798009C4303C51700828097F7FF1F9387C7872D
:1057A8009C4303C52700828097F7FF1F9387C7860E
:1057B8009C4303C54700828097F7FF1F9387C785DF
:1057C8009C4303C53700828097F7FF1F9387C784E0
:1057D8009C4303C55700828097F7FF1F9387C783B1
:1057E8009C4303C56700828097F7FF1F9387C78292
:1057F8009C4303C57700828097F7FF1F9387C78173
:105808009C4303C58700828097F7FF1F9387C78053
:105818009C4303C59700828097E7FF1F9387C77F44
:105828009C4303C5A700828097E7FF1F9387C77E25
:105838009C4303C5B70011E11D45828097E7FF1F10
:105848009387877D9C4303C5C700828097E7FF1F26
:105858009387877C9C4303C5D700828097E7FF1F07
:105868009387877B9C4303C5E700828097E7FF1FE8
:105878009387877A9C4303D50701828097E7FF1FA8
:10588800938787799C4303C52701828097E7FF1F89
:10589800938787789C4303D54701828097E7FF1F4A
:1058A800938787779C4303D56701828097E7FF1F1B
:1058B800938787769C4303D58701828097E7FF1FEC
:1058C800938787759C4303C5A701828097E7FF1FCD
:1058D800938787749C4303C5B701828097E7FF1FAE
:1058E800938787739C4303C5C701828097E7FF1F8F
:1058F800938787729C4303C5D701828097E7FF1F70
:10590800938787719C438857828097E7FF1F938707
:10591800A7709C4303D5C702828097E7FF1F938730
:10592800A76F9C4303D5E702828097E7FF1F938701
:10593800A76E9C4303C50703828097E7FF1F9387E1
:10594800A76D9C43C85B828097E7FF1F9387476CCE
:105958008843828097E7FF1F9387C76B88438280BD
:1059680019E17D558280F5DE984265DFFDD917F78C
:10597800FF1F1307678D1847AA877155058B631694
:10598800072203C507001547E37DA7FC03C73700B7
:105998001305F0057D171377F70FE364E5FC03C3E0
:1059A8005700E30003FC83C86700E38C08FA03C7C9
:1059B8007700494579171377F70FE364E5FA03C7CA
:1059C800A70011481305F7FF1375F50FE36BA8F847
:1059D80003CE97000D481305FEFF1375F50FE3621C
:1059E800A8F803C8B7006309080065181378F80F0A
:1059F8001305600DE36705F703C5C70079487915F6
:105A08001375F50FE36FA8F403C8D7000D457D188B
:105A18001378F80FE36705F503D80701930E4017CD
:105A28005118420813580801E3ED0EF303C8E700C4
:105A38007D181378F80FE36605F303C827017D186E
:105A48001378F80FE36F05F103C88700C54E751882
:105A58001378F80FE3E70EF103D86701856E938E8C
:105A6800BEE06D18420813580801E3EC0EEF03D8A6
:105A780047016D18420813580801E3E40EEF03D8F4
:105A880087017918420813580801E36C05ED03C82B
:105A9800A7017D181378F80FE36505ED03C5B70175
:105AA8001D487D151375F50FE36DA8EA03C5D701E9
:105AB800714879151375F50FE365A8EA03D5E70171
:105AC8001308E00F7D1542054181E36CA8E803C582
