:040000006F404010FD
:100004000000000000000000A00000209206002074
:10001400A9BDF9F350070020000000000000000013
:1000240050070020A0000020000000000000000095
:10003400A000002000000000A0000020000000003C
:1000440078030020A0000020A0000020A0000020D1
:10005400A000002020080020A000002000000000D4
:10006400A0000020A0000020A0000020A00000208C
:1000740008080020A0000020A0000020A00000200C
:10008400A0000020A0000020A0000020A00000206C
:10009400A0000020A0000020A0000020A00000205C
:1000A40001A0B7170040984B41111367070198CB83
:1000B40003C707011377E70F2388E70013078008B6
:1000C40073370780137787083AC60F1000001307A9
:1000D40070052380E704130780FA2380E7040F10D8
:1000E4000000B847B70600069506558FB8C703C782
:1000F400B7041377F70DA385E70403C7A7001367B5
:1001040027012385E700130750142394E7003727BA
:1001140000408346578093F6F60EA302D7808946A3
:10012400A303D78003C7E7041377C70F1367170028
:100134002387E70403C7F70213672700A387E702AF
:1001440003C70701136717002388E7002380070408
:10015400B247F3A707800F10000041018280EFF03F
:100164005FF41305C020970500009385250A174600
:100174000000130626F963FAC5008322050023A0B4
:10018400550011059105E3EAC5FE178502E0130544
:10019400E5B3974500009385E5F61386419163FA2C
:1001A400C5008322050023A0550011059105E3EA4B
:1001B400C5FE138581919765000093852572637749
:1001C400B500232005001105E36DB5FE930250022E
:1001D400739002BC8D42739042808542739012BC2E
:1001E400930280087390023097020000938282E1A8
:1001F40093E2320073905230975200E0938282BEB1
:080204007390123473002030E6
:10020C00011122CC06CEA3050100231601002317F1
:10021C000100975000E0E78040EFA305A100138494
:10022C00819149C183C7219481CB85451305B100C8
:10023C00975000E0E78040890347B1009946834717
:10024C00040063E4E606977602E0938626920A079A
:10025C00369718433697028793E717000145A30595
:10026C0001002300F400974000E0E78060349335F0
:10027C0015000145974000E0E78060323DA005473E
:10028C00A305E10013F7C7000DE393E727001D4515
:10029C002300F400974000E0E7808031933515008F
:1002AC001D45C9BFF957A305F10083470400A98B6D
:1002BC00A1E3975000E0E780404B41672316A10073
:1002CC007D1783470400630DE50893E7470023007F
:1002DC00F40083C7219499C789456800975000E0C2
:1002EC00E780C0840355C100974000E0E780000E12
:1002FC0083470400998BA9E3975000E0E780804680
:10030C0041672317A1007D1783470400630EE504A2
:10031C0093E787002300F40083C7219481CB8945A0
:10032C001305E100975000E0E78080860355E1005B
:10033C00974000E0E780C000F24062440561828093
:10034C007D57F99BA305E1002300F400814515B707
:10035C007D57F59BA305E1002300F400814589B787
:10036C00ED9B2300F400BDBFDD9B2300F4007DBF9B
:10037C003727004083476700858B99CB854723033C
:10038C00F70083C7D19289C7974000E0E7808027A8
:10039C0073002030411106C6EF00706CF5BF41119F
:1003AC00B7170040985F3AC6945F3247E39CE6FE6D
:1003BC0032454101828093874195984309C79C43FC
:1003CC00829723AA019473002030B7F70700DC53FF
:1003DC00411123A8F194B7170040984B13670701FC
:1003EC0098CB03C707011377E70F2388E7001307A0
:1003FC00800873370780137787083AC60F10000000
:10040C00130770052380E704130780FA2380E704A1
:10041C000F1000001307000C6319E50203D78700C7
:10042C001367070C2394E700B717004003C70701B5
:10043C00136717002388E70023800704B247F3A74C
:10044C0007800F1000004101828003C7A70093763C
:10045C000520C9C2118B39E703C7E70403C6E704BB
:10046C001377F70F136636002387C70403C6A7005C
:10047C00136646002385C70003D6870083D5870003
:10048C00420693E5050C2394B7004182A547010071
:10049C00FD1793F7F70FE5FFB71700402394C7003C
:1004AC002387E70493770510DDCB3717004083478C
:1004BC00A70093E707012305F7009377F50185E380
:1004CC00B727004003C7578013670701A382E78053
:1004DC001D4715A0136727002385E700E1B72547C3
:1004EC00636BF704B727004003C757801377F70EE9
:1004FC00A382E780054742054181A383E780B717B4
:10050C0000401367050C2394E7002394A700C9C28D
:10051C0003C7570483C65704418B858A558F09F747
:10052C0003C72701418B09D303C7A7001377D70F44
:10053C002385E700D5BD9377050199EBB7270040DC
:10054C0003C757801377F70EA382E780094765B777
:10055C00B727004003C757801377F70E85BF9377F3
:10056C00850181EFB727004003C757801377F70E3B
:10057C00A382E78013071005BDBFB727004003C750
:10058C0057801377F70EA382E78013077005A5B782
:10059C0003C7A7001377B70F61BF37E700E01C4311
:1005AC0054437D56A183E206D58F9306071890C25B
:1005BC00D0C217060000130646E09706000093868B
:1005CC00E6A38C5E90DE23AAA19411661305071096
:1005DC0010C1130707201388419510C30327080087
:1005EC0075FF37E700E011662320C7180F100000D5
:1005FC008CDE939687002320D710E1832322F710FB
:10060C0082800111814601468145114506CEB126F5
:10061C0093078008F3B7078093F787083EC60F103F
:10062C000000B7170040130770052380E704130779
:10063C0080FA2380E7040F10000003C767041367D8
:10064C0017002383E70423800704B247F3A707802E
:10065C000F100000F2400561828037E700E01C4378
:10066C005443A183E206D58F1CC1FD572320F718F4
:10067C002322F718828013178500B7E700E023A028
:10068C00E710618123A2A7108280411181460146A7
:10069C0081451145D92413078008F337078093F758
:1006AC0087083EC40F100000B717004013067005F2
:1006BC002380C704930680FA2380D7040F10000010
:1006CC00FD552396B70223800704A245F3A50580A8
:1006DC000F10000073370780137787083AC60F1086
:1006EC0000002380C7042380D7040F10000003C729
:1006FC006704136717002383E70423800704B247BA
:10070C00F3A707800F10000001A09307E004330546
:10071C00F50295473355F50201007D1575FD828074
:10072C00411122C406C62A847D1442041305803E5E
:10073C004180E13F75F8B2402244410182802E96FF
:10074C00AA870F70B67882809305000273A045804B
:10075C0082457390153492402242B2424243D243B6
:10076C006244F244025592552256B2564257D25721
:10077C006258F25806499649264AB64A464BD64B19
:10078C00664CF64C065D965D265EB65E465FD65FA1
:10079C000961730020304111B7170040985F3AC6C9
:1007AC00945F3247E39CE6FE324541018280B7E715
:1007BC0000E03707001023A0E72082804111930747
:1007CC008008F3B7078093F787083EC60F10000028
:1007DC00B7170040130770052380E704130780FA4E
:1007EC002380E7040F100000C8DB23800704B24706
:1007FC00F3A707800F10000023A801964101828007
:10080C00B7170040130700032388E702854723A886
:10081C00F196730020300000197106C212C416C67E
:10082C001AC81ECA22CC26CE2AD02ED232D436D604
:10083C003AD83EDA42DC46DECAC0CEC2D2C4D6C6F4
:10084C00DAC8DECAE2CCE6CEEAD0EED2F2D4F6D6E4
:10085C00FAD8FEDA938581968841E700050092402C
:10086C002242B2424243D2436244F2440255925570
:10087C002256B2564257D2576258F25806499649F8
:10088C00264AB64A464BD64B664CF64C065D965DF0
:10089C00265EB65E465FD65F096173002030230387
:1008AC00048015472303E48001002302A480828086
:1008BC0083076480E3CE07FE2303048082808307D2
:1008CC006480E3CE07FE0345448082808307648006
:1008DC00E3CE07FE2302A4808280411126C44AC2C3
:1008EC004EC006C61377F50BAD47AA892E899544E1
:1008FC006306F70019456537653F8D444E854537CE
:10090C00FD59FD1463983401B240A2441249824946
:10091C0041018280135509011375F50F453F2209DA
:10092C00CDB7011126CC06CEB704080051371545BA
:10093C00BD37713769372AC6A53F32459377150005
:10094C0089EB136515001375F50FF240E244056150
:10095C008280FD14E9FC0145CDBF3971B7F7070062
:10096C0006DE26DC4ADA4ED852D656D45AD25ED09F
:10097C0062CE03AB47027D57B7E700E083AA0700BE
:10098C0022C603AA470023A0E71823A2E718B71B27
:10099C000040930770052380FB04930780FA2380A3
:1009AC00FB0483C74B041147AA8993E7070E2382E4
:1009BC00FB04372400401305F00F2303E4802E8C36
:1009CC003289B684E93DED35938779FF93F7F70FBC
:1009DC000947137BFB006362F712A1473707080036
:1009EC006307FB00B70707003E9C37870700795564
:1009FC00637EEC02B3878401636AF702A9476398AC
:100A0C00F90689E481446D3526850DA0E2850945FA
:100A1C00E93505090345F9FFFD14050C453D81C475
:100A2C009377FC0FFDF7F53D69FD7D55B717004039
:100A3C00130770052380E704130780FA2380E7046B
:100A4C0003C74704418B2382E704F250B7E700E069
:100A5C0023A0571123A24711E25432445259C259D0
:100A6C00325AA25A125B825B724C21618280A5477A
:100A7C00639AF906A1478569631DFB029387F9FF09
:100A8C00B3869700B374FC00B69493C7F7FFFD8C44
:100A9C0033FC8701416B856B9387F9FFB3F78701B3
:100AAC0099E363FF340193D94900C147E3E637FF6B
:100ABC0091BF9307F00FE9B78567C169FD17C9B7F7
:100ACC001305800D638869011305000263847901A5
:100ADC0013051008E2851135A93521D94E9CB38434
:100AEC003441C1B7E2852D45CD3BCA94E30C99F056
:100AFC000509F133A30FA9FED5BF9387F9FF93F72F
:100B0C00F70F636FF70AA1476319FB06B7070800D5
:100B1C003E9C83C75B043707070093F7070299E3F2
:100B2C0037870700B70708003E977955E370ECF05C
:100B3C00B3079C00E36CF7EE8947639AF90489804C
:100B4C00D549E38104ECE2850945413B11090327B2
:100B5C00C9FF91472320E48003076480E34E07FE1E
:100B6C0023033481FD17EDFBFD14110C81C4937725
:100B7C00FC0FE9FF7D3371F54DBD83C75B0437076F
:100B8C00070093F70702D5F33787070079BF85472E
:100B9C00E384F9F2E2852D4589339389F4FFE383ED
:100BAC0004E6313B93F7390091EB8326048003274D
:100BBC00090093074900E398E6E43E89CE84F1BF2F
:100BCC00B5476396F9001305900BD13925BDB14794
:100BDC001305B00AE38BF9FE99476394F904A14716
:100BEC006315FB00B70708003E9CE2852D45F531E7
:100BFC0081440D4BA149E131639664018327048044
:100C0C002320F9008504E39834FF8327048013170D
:100C1C002C01635507002312F900EDB32322F900D0
:100C2C00D5B39D476399F90281451305B00475311D
:100C3C00BD442320090023220900FD59493193F7B3
:100C4C007400CA9703C70700FD14398D2380A700D1
:100C5C00E39634FF45BB91476399F9001305600691
:100C6C003D39B931130590098DB7E38D09D8F1548D
:100C7C0059BB23AC05FE1C4199E30CC182803E8715
:100C8C0083A787FFEDFF232CB7FE8280411126C27C
:100C9C00B7E400E04AC003A90400B707200006C669
:100CAC0022C43379F90023A0F4180F10000009E5D1
:100CBC0023A02411014535A09565938505D0C98DD8
:100CCC002A842105B3C5050833450508EF105021CA
:100CDC0065D1FD572320050042A17CA123A024113E
:100CEC002105B240224492440249410182804111C3
:100CFC00B7E700E04AC003A9070026C23707200067
:100D0C0006C622C4AA843379E90023A0E7180F1081
:100D1C00000083A741970144014685E301C8A285E1
:100D2C0013854197976000E0E780E00EA16526856A
:100D3C00976000E0E780805F0DA003C7E7FF6319B1
:100D4C00970205CCA28513854197976000E0E78058
:100D5C00800CA1652685EF204008B24022852244F4
:100D6C00B7E700E023A02711924402494101828099
:100D7C0011E03E8683A787FF4DB73E84E5BF37E77A
:100D8C0000E01C43B70620002320D718F58F0F1066
:100D9C00000019C191C111E637E700E02320F710DC
:100DAC0082802E960F70B650D5BF37E700E01C43FB
:100DBC00B70620002320D718F58F0F10000019C19B
:100DCC00014785E137E700E02320F7108280B386E6
:100DDC00E50003A80600B306E5007D1623A0060176
:100DEC00110775F6C5B737E700E01C43B7062000BE
:100DFC002320D718F58F0F10000001C53307C5004D
:100E0C0011E637E700E02320F71082800505A30FD9
:100E1C00B5FEE31DE5FEF5B7B7E600E09C423706EC
:100E2C0020002A87F18F23A0C6180F10000001455F
:100E3C00B306A7008386060091E637E700E023207F
:100E4C00F71082800505EDB70111B7E700E026CA5F
:100E5C0084434AC83707200006CE22CC2A892E8626
:100E6C00F98C23A0E7180F1000009305F00432C68C
:100E7C0033450608EF10D0062A8401C53246CA85D0
:100E8C00FD3DF24022856244B7E700E023A09710B5
:100E9C004249D2440561828037E700E01C43B70623
:100EAC0020002320D718F58F0F10000001C599C121
:100EBC00014711EA37E700E02320F710054582804F
:100ECC000507E309E6FE3308E500B386E5000348B1
:100EDC0008009422E306D8FE37E700E02320F71041
:100EEC000145828037E700E01C43B7062000232031
:100EFC00D718F58F0F1000001307F6FFBA952A9636
:100F0C006317C50037E700E02320F7108280982193
:100F1C00FD150505A30FE5FEE5B737E700E01C431B
:100F2C00B70620002320D718F58F0F10000001C53D
:100F3C003307C50019E637E700E02320F710014519
:100F4C00828014210505E398B6FEE31CE5FE37E725
:100F5C0000E02320F71005458280797126D2938416
:100F6C00C19822D4804006D64AD04ECE52CC56CA16
:100F7C005AC85EC662C44DC437C9C901814B138BB4
:100F8C0041981309F937175A0000130A2A2C975A5B
:100F9C000000938A2A2997590000938929303E2012
:100FAC0099EF5C44639A0B009CC0032CC40022850F
:100FBC00EF10607F628489A823A6FB00FDB783270E
:100FCC000B0082971C443307F5406376F50003A7AA
:100FDC0089001D8F2A976368E9062E200820EF10E0
:100FEC00D05F5C405844A9CB0C4417560000032634
:100FFC00662BAE97BE8663E4B70063E4C700B38686
:10100C00C74014C4A28B3A8459F817570000032721
:10101C006722894763E6E7009757000023AC072057
:10102C00B250225492540259F249624AD24A424B6B
:10103C00B24B224C4561828063940B0098C0B5B7CB
:10104C0023A6EB009DB703274A021DCB63EDA70235
:10105C003385A7401C2099EF03479A0183A689008A
:10106C006117B307A7003E8563E4E70063E4D7008C
:10107C003385D74083A70A016374F50023A8AA001F
:10108C00A28B404451B703A78900BA97D1B701117D
:10109C0026CA06CE975400009384442022CC4AC81A
:1010AC004EC652C49C288844D9CFB7E700E003A9A8
:1010BC0007003707200023A0E7183379E9000F1049
:1010CC00000003C7C19719CB23A02711F24062443B
:1010DC00D2444249B249224A056182801757000026
:1010EC001307474D8357C70AA1CB9C440324870A97
:1010FC006304F404975900009389C91203A70901EA
:10110C002285630BF702138A419883270A00829782
:10111C006368A40C83270A00098C829783A70901B2
:10112C0098443354F40AB307A4003E8563E4870063
:10113C0063E4E7003385E740B7E700E023A027111D
:10114C009C44639BA702175400001304A40D184879
:10115C0083A741986319A70882979444374736FEB2
:10116C00130707C83697B307A7003E8563E4E7006B
:10117C0063E4D7003385D74017540000130484660A
:10118C005C5C89CB83A641AA9C463707CDFF7D17B3
:10119C00F98F9CC611E1884485475CD097570000B5
:1011AC0083A7070D829715E15C5C99CF5C5089CFC2
:1011BC0097C001E0E780A01E97C001E0E78040A245
:1011CC009757000023A20764493B5C5CE38007F05F
:1011DC0003A741AA1C47B7063300D58F1CC7FDB522
:1011EC009C443E9405BF829714489844B387A6004C
:1011FC003E8563E4D700E3E1E7F83385E740ADBF14
:10120C0023ACA19601C58547238EF1968280AA87CF
:10121C0099E5175700000347670909C7D5B7114768
:10122C006369B7001757000013070706B3C5E5201D
:10123C009CC1828083A7819781CF411106C682977A
:10124C0083C7C19799E323AC0196B24041018280D8
:10125C0083C7C19781E723AC0196828082804111BC
:10126C0022C426C206C64AC09754000093848457F1
:10127C0083C734021754000013040401B9C3175474
:10128C000000130424FA13890199032709001C2078
:10129C0014300146B3A5E7208E21B5C911C21CA09C
:1012AC000820636DD50697570000238D07F683A79A
:1012BC004198D5E7B24022449244024941018280D0
:1012CC0082971C40F5FF9757000083C727FE85E3E4
:1012DC00DC48858B89CFD84C9947631EF70097570C
:1012EC00000023AB0750EF10C0025C4482971C44F3
:1012FC00D9D7829769B7D84C9D47E31AF7FE975711
:10130C00000023AB074EEF10C0001C48C5B7850783
:10131C0093F7F70F0546E3EFD7F651B73327E520E0
:10132C000E2323100700239F019683A78198B347B0
:10133C00F5209C4382971C208326090003D7E19754
:10134C003377E540B3A6D7209222518F9AA299C346
:10135C0085071CA018201C30E36EF7F4A9B797572B
:10136C00000083A727F41CC8CD3E83C73402B9F311
:10137C0083C7140299CBDC4C89EB97570000A383ED
:10138C00074897C001E0E78000A29757000083A7A9
:10139C0027EE8DD31C4899DF18308326090081472E
:1013AC0063C7E702D84C9147E3E6E7F09757000094
:1013BC0083C7C71E918BE39F07EE83C7C197E39B3F
:1013CC0007EE2244B240924402494101C9B133A60E
:1013DC00D7201222E31006EE8507D9B7B7C7004015
:1013EC001387C72014431396264910C3010001002C
:1013FC009387872617550000032585E49C436A05CF
:10140C0014C393C7F7FF99835D8D828023ACA19899
:10141C008280411122C4175400001304A43C1C44C4
:10142C0026C206C6858B9754000083A4E41E91EB5C
:10143C00EF2090372244B2402685924441016F1030
:10144C00503398289757000023A2073A8947E301A5
:10145C00F7FE0146930550020145EF10C01B814574
:10146C00175501E0130585B55D33014681450545EA
:10147C00EF1000015C44858BC5DFB24022449244DE
:10148C00410182809757000083A7C71C639B0716F6
:10149C00011122CC2A84094506CE26CA4AC84EC65A
:1014AC00EF203038938941A903A6090093078007E0
:1014BC00138941A87CD2238E01968327090093843B
:1014CC0041AAB7053300D8572285719B13671700C3
:1014DC00D8D798431377F7CF98C398431377F7CFA0
:1014EC001367072098C398401447CD8E14C7B706CE
:1014FC0003009386862534CA5457F59A54D79843DB
:10150C003424137707F893F6F607558F98C3EF102A
:10151C00703D83A60900370500827D15DC4293E7F8
:10152C001700DCC203260900030784065C5693757A
:10153C00F703E605E98FCD8F5CD69305A0039C409D
:10154C0063D5E508F84FB70500074D8FF8CFB7C73F
:10155C00898E938767ED1CC6B757550093875755EF
:10156C005CC28347A40683444406DD8C8947175725
:10157C0000002327F7289757000023AB07267C444D
:10158C00BCDE9757000083C767D299C7FC52FDFF9A
:10159C009757000023AC072418289D478145172531
:1015AC0000001305A5F36306F700170500001305EB
:1015BC0085E6B13910386244F2404249B249A685F9
:1015CC00D244014505616F00B06B9305200263DACC
:1015DC00E500F84FB70500F9FD156D8FB70500054F
:1015EC00ADB7B70500F96945FD156357E500F84F30
:1015FC006D8FB705000391BFF84F6D8F13178729B7
:10160C00B1B78280975700009387C7FAE853054714
:10161C0054256390E60203C747079147631AF70006
:10162C00011106CE2AC6EF10D0103245F2400561EA
:10163C0091BD828083278511E5CB411122C406C65A
:10164C0058258345E5049437D2272A841377C70F8E
:10165C001395466063F7C50663510506882793F614
:10166C00F60794B70546936627006314C500936686
:10167C00170054A4D8430907D8C3032504114CB848
:10168C002E86CC430905EFF08FEF83278411543855
:10169C00D8433697D8C3DA27158FDAA789473CBCCD
:1016AC00034764039757000083C767BB6369F7065A
:1016BC00B24022440145410182801367170058A4AF
:1016CC006DBF9376F60F6355050288278545136623
:1016DC0027006314B5001366170050A454B8A384F4
:1016EC00070085473CBC832784119C43D5FBC9B7B5
:1016FC001367170058A454B8A384070003250411DA
:10170C00CC430905EFF0AFE7832784115438D84355
:10171C003697D8C3DA27158FDAA78D47E1B75C2443
:10172C0093E707015CA469B705458280411183A743
:10173C00C1A622C406C6858B2A84CDEB7829835793
:10174C00051D63E5E70A4165130525F5976001E082
:10175C00E780805041CD3C253EA583270412ADE3A4
:10176C002320A4122322A41285472311F40423203E
:10177C0005007C2854415EA5583418A5054718B5BA
:10178C0013851702175700000327870915811C437F
:10179C007D151375F50F9CC25C43DCC21C479CC6BF
:1017AC005C47DCC61C4B9CCA5C4BDCCA1C4F9CCEF9
:1017BC005C4FDCCE0DC19386060213070702C1BF36
:1017CC008327441288C3835724042322A412850739
:1017DC00B3C7070859BF175700001307A7DD1E270B
:1017EC0085071EA7B2402244410182805C24230954
:1017FC000400054593C747005CA4EDB7142D85473D
:10180C0063ECD70A1C3D2A870145CDEB5C2713F509
:10181C0007013C2B99CB834667039757000083C77E
:10182C0017A463ECF60001E5828049E582808357BA
:10183C00271E0357671EBA9721A08357271E75F9D9
:10184C000145ADCF9387C712175500000355C5A5A9
:10185C00B3B5A70237460F00411113060624814683
:10186C0022C426C206C67D543385A702974002E0E7
:10187C00E78000B29754000083C4D49EAA94975773
:10188C00000083A767DC03A707099C433354E40AD1
:10189C00FDFB83A74198829781476364A400B3073B
:1018AC00A440B240224433B597001345150092442E
:1018BC00410182808147B5BF01458280828003A7A8
:1018CC0041A93C5BFDFF01000100828039C9011177
:1018DC006C0022CC06CE2A84EF20E03A15C9FD57C5
:1018EC00630DF502B2479755000083C5B59763EBBE
:1018FC00B700034594026244F240B385B7400561DA
:10190C006F100052175700000327C799BA97D5B725
:10191C006244F24005616F10907BF24062440561B5
:10192C0082808280797152CC175A0000130A8AC8BF
:10193C0026D283244A0906D622D44AD04ECEC5C814
:10194C0097570000938707EAD44F15476384E60442
:10195C00DC532A8989CF97C001E0E78040A497B077
:10196C0001E0E780E0279757000023AF07E8FD5917
:10197C006C002685EF2020311DE51725000013058E
:10198C0045F5EFF0FF8783A741A93707100098C7EB
:10199C000547B8DB0D45B250225492540259F24916
:1019AC00624A45618280637435013244AA8984405D
:1019BC00E1F0FD571305F00FE38FF9FC914763F14C
:1019CC0087029307B4FF2320F9002324FA0A99E72E
:1019DC009757000083A7078D2320F900014565BFA9
:1019EC009757000083A7078CED17A297E9BF09450D
:1019FC005DB7797126D206D622D44AD04ECE52CCBF
:101A0C0056CA5AC85EC68347550303447513AA8445
:101A1C003E941374F40F9307400263F6870013048B
:101A2C00B4FD1374F40F03A9841383A9C413A38BFB
:101A3C00841222864A85CE85973002E0E780C05119
:101A4C00058915E503CBD412014A814A337B640323
:101A5C00930B500252864A85CE85973002E0E78080
:101A6C00A04F05890DC563916A031374FA0F238B7C
:101A7C008412B250225492540259F249624AD24A08
:101A8C00424BB24B45618280850A939A4A60050AA3
:101A9C00E3127AFDE9BF83278509035605047971A2
:101AAC0093D60701BD8EB3C60608358E93575640A4
:101ABC00898B135776485D8F93573640918B5D8F8A
:101ACC0093571640A18B5D8F93171600C18B5D8FBA
:101ADC009317360093F707025D8F9317560093F711
:101AEC0007045D8F9317760093F7F70F22D45D8F61
:101AFC002A849357D6001355B6001189898B9355B8
:101B0C008600C98F1355F6002582C98F218AD18F83
:101B1C0013961500418AD18F139635001376060261
:101B2C00D18F1396550013760604D18F139675003A
:101B3C001376F60FD18FA207C5455D8F3307B70219
:101B4C0026D24AD04ECE032984138329C4135AC8F3
:101B5C0006D652CC56CA3697334707081356574009
:101B6C00098A93577748D18F13563740118AD18FF2
:101B7C0013561740218AD18F13161700418AD18F23
:101B8C001316370013760602D18F131657001376EF
:101B9C000604D18F131677001376F60FD18F1358D6
:101BAC00B7001356D70013784800098A13558700DD
:101BBC00336606011358F700258333660601218B23
:101BCC00518F13161500418A518F13163500137659
:101BDC000602518F1316550013760604518F1316F7
:101BEC0075001376F60F518F2207D98FB387B70282
:101BFC005EC6B697B3C7070813D55740098913D7E4
:101C0C007748498F13D537401189498F13D5174021
:101C1C002189498F139517004189498F13953700F6
:101C2C0013750502498F1395570013750504498FD9
:101C3C00139577001375F50F598D13D8B70013D77B
:101C4C00D70013784800098B13D687003367070138
:101C5C0013D8F700A58333670701A18BD98F13170E
:101C6C001600418BD98F1317360013770702D98FC3
:101C7C0013175600137707041E06D98F1376F60F29
:101C8C00D18FA2073367F5003307B7021306500252
:101C9C004A85CE853697B98EB3C4060833F6C4028E
:101CAC00137BF60F973002E0E780002B058905E9DE
:101CBC00834AD412014A930B5002B38A9A0281448C
:101CCC0093DA0A0126864A85CE85973002E0E780B2
:101CDC00A02805890DC563914A0313FBF40F230B50
:101CEC006413B250225492540259F249624AD24AB5
:101CFC00424BB24B45618280050A137AFA0F850478
:101D0C00E39274FDE9BF8327C508035685087971F2
:101D1C0093D60701BD8EB3C60608358E9357564031
:101D2C00898B135776485D8F93573640918B5D8F17
:101D3C0093571640A18B5D8F93171600C18B5D8F47
:101D4C009317360093F707025D8F9317560093F79E
:101D5C0007045D8F9317760093F7F70F22D45D8FEE
:101D6C002A849357D6001355B6001189898B935545
:101D7C008600C98F1355F6002582C98F218AD18F11
:101D8C0013961500418AD18F1396350013760602EF
:101D9C00D18F1396550013760604D18F13967500C8
:101DAC001376F60FD18FA207C5455D8F3307B702A7
:101DBC0026D24AD04ECE0329040A8329440A5AC893
:101DCC0006D652CC56CA3697334707081356574097
:101DDC00098A93577748D18F13563740118AD18F80
:101DEC0013561740218AD18F13161700418AD18FB1
:101DFC001316370013760602D18F1316570013767D
:101E0C000604D18F131677001376F60FD18F135863
:101E1C00B7001356D70013784800098A135587006A
:101E2C00336606011358F700258333660601218BB0
:101E3C00518F13161500418A518F131635001376E6
:101E4C000602518F1316550013760604518F131684
:101E5C0075001376F60F518F2207D98FB387B7020F
:101E6C005EC6B697B3C7070813D55740098913D771
:101E7C007748498F13D537401189498F13D51740AF
:101E8C002189498F139517004189498F1395370084
:101E9C0013750502498F1395570013750504498F67
:101EAC00139577001375F50F598D13D8B70013D709
:101EBC00D70013784800098B13D6870033670701C6
:101ECC0013D8F700A58333670701A18BD98F13179C
:101EDC001600418BD98F1317360013770702D98F51
:101EEC0013175600137707041E06D98F1376F60FB7
:101EFC00D18FA2073367F5003307B70213065002E0
:101F0C004A85CE853697B98EB3C4060833F6C4021B
:101F1C00137BF60F973002E0E7800004058905E992
:101F2C00834A1408014A930B5002B38A9A028144E3
:101F3C0093DA0A0126864A85CE85973002E0E7803F
:101F4C00A00105890DC563914A0313FBF40F230F00
:101F5C006407B250225492540259F249624AD24A4E
:101F6C00424BB24B45618280050A137AFA0F850405
:101F7C00E39274FDE9BF797122D426D22E84AA840F
:101F8C004146975502E0938525C10A8506D69720D0
:101F9C0000E0E780001B4146975502E09385C5BFE2
:101FAC000808972000E0E780C0193C3010088A85AB
:101FBC00DC875C2026855C875C30DC8697B001E092
:101FCC00E780609A0347F1011C200145631EF7006E
:101FDC000347E1011C3001456318F7000345D101AB
:101FEC003C201D8D13351500B2502254925445617E
:101FFC008280011122CC26CA4AC84EC606CEAA84BB
:10200C00174400000324446713092500854905C0C3
:10201C009C303830858B6304F700405CCDBF19468B
:10202C00930544004A85EFE03FE7E31835FFF240A3
:10203C0022856244D2444249B249056182804111F1
:10204C0022C426C24AC006C6174400000324C46238
:10205C0093042500054901E8B240228522449244AC
:10206C00024941018280A6851305A4022937E305A4
:10207C0025FF405CCDB7011122CC26CA06CE2AC45E
:10208C002EC6174400000324A45E854419E00145C4
:10209C000DA09C841830858B6304F7000044FDB7B9
:1020AC0019469305A10013052400EFE0FFDEE317AA
:1020BC0095FEF2406244D24405618280EFF08F9726
:1020CC0073000000000000009382C197038302009C
:1020DC0023800200630F0300F32510342EC09705F4
:1020EC0000009385E5FD73901534EF00405B7300A1
:1020FC00203086DCEF00A05AE650828000004111AF
:10210C004AC0138941A80327090026C206C61C5FD2
:10211C0022C4938401A893D76748B5CF93070006D0
:10212C001CDF174400001304E46B184C93070008E1
:10213C006317F7009C409C4393F707041CCC1C408E
:10214C0093F7070489CB83A74198829748D81C4002
:10215C0093F7F7FB1CC01C4093F7070289CF1C4078
:10216C0003A741A9B706080093F7F7FD1CC05C5400
:10217C0014C786077CD71C4893F7070489EF85475B
:10218C005CC83707020083A741A998C71307000C46
:10219C0018C81854F8D383270900985F1357474879
:1021AC0011CF985F1367070198DF83A741A923A27A
:1021BC000706854717470000232EF7629C40D8433B
:1021CC001357174819C7D843759BD8C3D843799B65
:1021DC00D8C3B2402244924402494101828005375F
:1021EC0073002030974700009387C75F37070400C0
:1021FC0088DB698F01CF03A741A9FD5634D79746D9
:10220C00000093862602D84E0507D8CE137785009A
:10221C0019CF984783A641A81367170098C71307CF
:10222C00000898CBD856719B13671700D8D6137734
:10223C00150001CFD84383A641A813671700D8C354
:10224C00D856719B13671700D8D61377650019CF32
:10225C001377450059C398431367170098C383A697
:10226C0041A8D856719B13671700D8D64167698F60
:10227C000DC39746000083C6263BC18A1747000052
:10228C0013074733A5C28346470793E60602230A82
:10229C00D70637070200698F01CF984B13770708D1
:1022AC0019C3054798CB83A741A93707020098C7E4
:1022BC00B70708007D8D0DC1174700000347D736BF
:1022CC00058B974700009387E72E1DCB03C7570755
:1022DC0013672700A38AE7068280D8471367170085
:1022EC00D8C7B5BF834647070946BD8A6388C60071
:1022FC00834647070D46BD8AE39DC6F8914641BF0C
:10230C0003C75707118B69DB03C757071367870090
:10231C00D1B783A641A9174700001307A74C1C434C
:10232C00858B91E75C43858B99E3FC52EDFB9747DA
:10233C00000023A3074C8280938641A82A878842F9
:10234C001C5D93D75748D1E781C51C59BD839CA10F
:10235C0015C69C42945BC60693D7660163D60600ED
:10236C0093E707C0B3C70708831606009397576017
:10237C00B9C6BE968947B3C6F60216A283A741A971
:10238C00BC4B083393D757488DCF29C597460000CF
:10239C0083A6C64693F606049307950009459DCA85
:1023AC00BA979C230547194593F6F7066394E60202
:1023BC0001459397476063DF0700394582801EA271
:1023CC0075BF2A9748331375F5077D153335A00073
:1023DC0082800545828083A7C1A899CB944BD04BB2
:1023EC009842518F98C294439C479842D98F9CC273
:1023FC00138641A90548184283A641A897470000B7
:10240C009387473E6312050503A806001368080866
:10241C0023A0060183C62702B3C5D5205447938554
:10242C00A50C13981649232607010F10000018421B
:10243C0037060200860510C71306000890CB6CD334
:10244C0054C72384A1A8828088421375F5F788C2EB
:10245C0083C62702B3E5D52054479385E50E139523
:10246C00164948C70F1000001842370602008605AF
:10247C0010C71306000890CB6CD354C70945D1B7CD
:10248C00411122C4AA8706C626C22E85138441A9EF
:10249C00B285DDE71C40F8537DFF3707020098C773
:1024AC009747000023A4073497440000938404DA70
:1024BC00DC5085C7B7E700E03707200023A0E728EA
:1024CC00B7F700E0938707D0984B6D9B98CB984B50
:1024DC001367870398CB73005010F53D83A741A871
:1024EC0098431317772998C3D857719BD8D7974718
:1024FC00000023A307309747000023A7072E1C409A
:10250C00094798C3DC5099CB37F700E0832707D1F4
:10251C0093E787002328F7D0730050101440174717
:10252C0000001307272C1C47858B91E75C47858B94
:10253C0099E3FC52EDFBB24022449244410182806B
:10254C000D47639EE7049747000023A1072A97478E
:10255C00000023AF072897440000938424CFDC505D
:10256C0085C7B7E700E03707200023A0E728B7F7B7
:10257C0000E0938707D0984B6D9B98CB984B1367D3
:10258C00870398CB73005010B93583A741A89843A3
:10259C001317772998C3D857719BD8D7A5B7054778
:1025AC00E39EE7F697460000938646CADC5285C741
:1025BC00B7E700E03707200023A0E728B7F700E0D3
:1025CC00938707D0984B6D9B98CB984B13678703D9
:1025DC0098CB730050101C40D04713171649D8C71E
:1025EC000F1000001C403707020098C713070008A3
:1025FC009745000023A0E52003A741A818431357D3
:10260C00774819C71307E018F8D3D0C7DC52E5BDDB
:10261C001307E01AD5BF83A7C1A889CFD44303A859
:10262C00870098423367070198C2D447DC4B984225
:10263C00D98F9CC2054783A741A89505631EE50267
:10264C0098431367070898C3984F137707C013670D
:10265C00A71398CF13078007B8BB939735009387C0
:10266C00C703174700001307E7171CD72384A1A83B
:10267C0019C2060610D78280984309451377F7F7DD
:10268C0098C3984F137707C01367271398CF130776
:10269C00F007B8BB939745009387C703D9B783A7B7
:1026AC0041A98847D847798D11C588C783A701A947
:1026BC0091C382878280896703A741A9938707F416
:1026CC007CD383A641AA83A7060993D7A74991C7B0
:1026DC0083A7060993D7974999E37C53EDF782803A
:1026EC004111B7E700E022C480433707200006C63B
:1026FC00798C23A0E7180F10000011C199E5B7E7FA
:10270C0000E023A08710014549A80D0533450508B5
:10271C00130740037199B34705086362A70203A529
:10272C0041B383A6C1B2639FA600174700000327DD
:10273C00E7B471D7C207DD8D05450297C9B703A56C
:10274C0001B3C5B77A2131EF5A21636CF704B30694
:10275C00F7402148174600001306C6AC6375D80233
:10276C008328050003586600938687001D8FAA9660
:10277C006117DAA223A016012393060014C15EA1EF
:10278C00130788FF7AA27A226EA12105B307F740BE
:10279C007EA2B7E700E023A08710B240224441019B
:1027AC008280084149B7B7E700E08C433707200027
:1027BC0023A0E718F98D0F10000001E523A0B71036
:1027CC00828003A341B383A8C1B29A87814663F880
:1027DC00170903A807006367F5086365A808138742
:1027EC008700636EE506F223216705076317E60091
:1027FC001386B1A41822050718A21745000013056B
:10280C0065A2D2237A212393070032973347070816
:10281C007AA16383670203A301B3630FF30003D3AD
:10282C006600631B0300DE2223A0060121073E96EF
:10283C002106D2A27AA1B68798436302170383A616
:10284C0001B3630ED700762399EAD623522318439B
:10285C00A106B296D6A398C37E21A1077EA1B7E7A5
:10286C0000E0A9BFBE86C2879DB7AA8703A741B364
:10287C0003A6C1B2B305B5406314E6003E8529A892
:10288C00930687001843E3E9D7FEE3F7E7FE2E85AE
:10289C00E3E4D5FEE3F2E5FE8280411126C206C6D2
:1028AC0022C44AC09744000083A444D66383041016
:1028BC0003A4C40AAA86054535C03C241307700A34
:1028CC006390E70858301C34174900001309099D20
:1028DC0003268900B387E7020357C900B387E702D1
:1028EC001307003293870719B3D7E70203A74409EC
:1028FC003E97BA846364F7006364C700B304C740AF
:10290C0083A7419884C28297B387A44063F5A4003F
:10291C0003278900BA9789EB1305F00FB2402244C4
:10292C00924402494101828058309306204E33076D
:10293C00D702E3F3E7FE930780FA3CA40145F9BF05
:10294C001307800AE39AE7FC83A7419882972A89A8
:10295C003545EF10006DAD47174700002322F7EA0D
:10296C0058301C341746000013064693B387E70211
:10297C005A261046B387E7021307003293870719CC
:10298C00B3D7E70203A744093E97BA866364F700FE
:10299C006364C700B306C740E310D9F8170502E01B
:1029AC001305E561EFE0DF8583A741A90947F8D757
:1029BC00A5B70545A5B7397156D2974A0000938A39
:1029CC006AE283A70A033707080026DA06DE22DC50
:1029DC004AD84ED652D45AD05ECE62CC66CA6AC899
:1029EC006EC6F98F9744000083A444C26384071C0D
:1029FC0083A9C40A83C7990003A4C90092073E9413
:102A0C002820B14705053305F5025E203E95334578
:102A1C000508EFE0AFA7AA8C6305051A130DC500D6
:102A2C002324A50134203146370B0300B386C6029C
:102A3C00231304000149138A41A9938B41A8938D58
:102A4C0041AA130B8B15054CEA9654C483C6790026
:102A5C009307D00783250A00B386F602C1679CC58D
:102A6C00370833008606B4D183A60B009042137648
:102A7C00F6CF90C290421376F6CF1366062090C222
:102A8C0003A50D0010453366060110C503A6090009
:102A9C0023A865059305500290C672205444B29643
:102AAC002324DD0014300146CA96A301DD0003C5C2
:102ABC0004089746000023A906D2B13E83260A00DB
:102ACC00CC4613961549D0C60F10000083260A0079
:102ADC003706020090C61306000823A8CA0003A6F6
:102AEC000B00104213567648631F860B1306E01832
:102AFC00F0D2CCC617460000232006D017460000A3
:102B0C00232406CE23A08601EFF0BF80EF10C0492E
:102B1C0083A64A00858AD9CAEA852685971002E0E1
:102B2C00E78040500DE903465D0049C276204E20F7
:102B3C00B29663DDB606B428AC4803258D00918EA1
:102B4C008906B695EFE0AFA323020D0003465D00A6
:102B5C007620B29676A003260A00310D3452FDFE83
:102B6C00342005091379F90FE362D9EE9C246685AC
:102B7C00A381FC001C20A3820C002383DC00238295
:102B8C00FC006254F250D2544259B259225A925A11
:102B9C00025BF24B624CD24C424DB24D2161171389
:102BAC0001E0670023C21306E01A99B7FD56230211
:102BBC00DD0055B783A741A9FC5781C78547238EF4
:102BCC00F196F2506254D2544259B259225A925A46
:102BDC00025BF24B624CD24C424DB24D2161828071
:102BEC00411122C406C626C24AC02E848DCD13F9CB
:102BFC0015008147414763020904131745003E97AE
:102C0C00B1463307D70283A44199B317F02833C9CF
:102C1C000708BA949C40C840829723A0040023A2C2
:102C2C00040033448900B240228522449244024974
:102C3C0041018280B356F448E9F28507E39CE7FE34
:102C4C00CDB7011126CA06CE22CC4AC84EC6AE84D8
:102C5C00A1C593F7150001444147B1CB931745002B
:102C6C00A2973147B387E7029389419903A90900D9
:102C7C003E998327090081C7032549008297314774
:102C8C003307E40283A70900BA979C478DC7331416
:102C9C008028B3470408BD8CF24062444249B249D3
:102CAC002685D24405618280B3D68448C5FA0504D2
:102CBC00E31CE4FECDB72320090023220900C1BF89
:102CCC00AA8703A5C19811E182803A216315B70048
:102CDC001821E30BF7FE4845FDB77971B7E700E023
:102CEC0022D4804352CC06D626D24AD04ECE56CAD7
:102CFC005AC85EC662C43A8A37072000798C23A072
:102D0C00E7180F10000005E123A087100945B25009
:102D1C00225492540259F249624AD24A424BB24B63
:102D2C00224C4561828083A74198B6892A89AE8A54
:102D3C00328B938B4199829703A70B008144B14648
:102D4C00C147338CD40233068701104235EEC1657E
:102D5C00938505F04145EFF0BF9819ED97370000CA
:102D6C0083A7C75181C7814511458297B7E700E01A
:102D7C0023A087102D4561BF1387C1981C43A1E385
:102D8C0008C323000500B31790283EA183A70B00AE
:102D9C00232605002324650123224501E29723A065
:102DAC00270123A2570123A4470163840900238030
:102DBC009900B7E700E023A08710014589BF3E8743
:102DCC00DC47F5FF48C775BF8504E39CF4F6B7E70D
:102DDC0000E023A0871021451DBFB7E700E0984312
:102DEC00B706200023A0D718758F0F100000973658
:102DFC00000083C636436371D50283A6019933253F
:102E0C00D5201621D58D0EA19736000023A406429D
:102E1C0023A0E7100145828023A0E7100D45828096
:102E2C000111B7E700E022CC80433707200006CE23
:102E3C0026CA4AC8798C23A0E7180F100000BD479A
:102E4C0063E7A70431473307E50283A74199BA9793
:102E5C009C4395CF3315A0282E89B3450508014511
:102E6C002EC6B93DAA8409C9B2450145974000E078
:102E7C00E780C01123A42401B7E700E023A087104A
:102E8C000145F2406244D244424905618280B7E771
:102E9C0000E023A087100945EDB79737000083C7E2
:102EAC00F76CAA86850703A5C1A101471221630708
:102EBC00D60005071905E36BF7FE014582802A87CA
:102ECC0003A541A211E182801C45B227636BC700A8
:102EDC0003584500B306C8006355D7008146639478
:102EEC0006010841C5B703D3A700938807016316F1
:102EFC00E30091C192A13E8582808506C687B3C648
:102F0C000608F1BF9736000083C6466683A701A565
:102F1C0001476394E60001458280AE231386C70304
:102F2C006394A5003E85828005071377F70FB2875F
:102F3C00CDB7411122C406C6973700002386076E11
:102F4C0003A401A605C06C390145B315B028B3C55F
:102F5C000508974000E0E780404E930710273305A3
:102F6C00F50202942244B2408145014541016FE0D3
:102F7C000FAA411106C6383D19C73425631ED70266
:102F8C00B24041017DB73C2DE5DF3825E30AF7FE61
:102F9C003CA5814517E5FFFF13050567EFE02FA75B
:102FAC009737000083C7873089C783A741A951474A
:102FBC00F8D3B240410182803C2D89C7E39AF6FCDC
:102FCC0038A5C1BFD5FEEDBF41114AC0174900005D
:102FDC00130949818327890022C426C206C6973467
:102FEC0000009384245D858BE0509DCB97370000C7
:102FFC0023AE077E83C74407C18B85CFEF00D07A01
:10300C0083C7440793F70702E5DF83C7440722858C
:10301C0093F7F70C238AF406972001E0E780601AF7
:10302C00EF00907822852244B2409244024941013B
:10303C0009B783C75407858B91CBEF00F0768D478A
:10304C00230EF406BC5822858297D9BF83C7440748
:10305C001547BD8B6395E7048347B40603453406D7
:10306C000146930550025D8DEFF0EFDA0146814584
:10307C000545EFF0EFC08327C900858BD5D322859A
:10308C009737000023A60776972001E0E78020FB06
:10309C0041F9B2402244924402494101828083C7E3
:1030AC0044071947BD8BE39DE7F68347B4060345F8
:1030BC0034060146930550025D8DEFF0CFD50146E5
:1030CC0081450545EFF0CFBB8327C900858BA9DB74
:1030DC0022859737000023AD0770972001E0E78029
:1030EC0080CF7DB7411122C426C206C67C25784507
:1030FC002A84BD8B1CA91CA31D4764456395E7342A
:10310C000547B8A08347F5058D466393D7185E2D08
:10311C00CDE37C491147B18B638DE7083147639848
:10312C00E700034715068347F5076304F70885474F
:10313C00BCB019469305640313854400EFD03FC41B
:10314C00BC20990793F7F70FBCA00347040613772D
:10315C00070401CFB83013670704B8B07844BA97A6
:10316C005838B8B3BC208507BCA097370000238D16
:10317C00074ABC2013F7F703050718B80347E40503
:10318C001A07D98FBCA083475403858B91E703475B
:10319C00440389476317F70078441C2393E707041B
:1031AC001CA37C44183898B3B24022449244410189
:1031BC008280A147BCB08357C40697350000938525
:1031CC00653F138641A9DCA08357C4060347140648
:1031DC007444A1831207BD8BD98FDCB2B420854710
:1031EC00890693F6F60FB4A0173700000347C743C0
:1031FC00631EF706183C9387E6008E07231AF40625
:10320C009387C708B387E702794510420948238A98
:10321C000507C1650CC6938707FBB3C707089387DF
:10322C007716B3C7A70233C70708B387A702860769
:10323C003CD2BC3093E70701BCB07C44B6978346C4
:10324C00240693E60604B4B3B4207C44B697D8A302
:10325C00B4207C4421837D8BB69783463406960636
:10326C00558FD8B3BC208D07BCA021B71042F947AD
:10327C00385205833357F7023C5268528583FD8BD5
:10328C00AA977CD28D47238AF5063347070855B792
:10329C001946639BC7125E2DC1E393056503B8B055
:1032AC0013854400EFD0BFADBC201385A400990753
:1032BC00BCA0BC3093E72700BCB083475403898B78
:1032CC0095CF0C58BC299DCB1946D105EFD03FABFF
:1032DC0078441C2393E707F81CA3BC20990793F7A9
:1032EC00F70FBCA00347040613770704E30F07E6A8
:1032FC00B430784493E60604B4B095B58347D40350
:10330C0091C778441C2393E707F81CA3194693052F
:10331C00E403EFD0DFA6D1B7A147BCB08357C506F5
:10332C00DCA08357C506034615066C45A18312061F
:10333C00BD8BD18FDCB1B02017350000130585276C
:10334C00938541A909061376F60FB0A097370000B4
:10335C0083C7872D6398E704183C9307E6008E0714
:10336C00231AF4069387C708B387E702794889467E
:10337C00230AD5069441C1658CC6938707FBB3C756
:10338C00070893877716B3C7070333C70708B387B4
:10339C0007038607BCD2BC3093E70701BCB07C4462
:1033AC00B29771BD8C41B851F94705833357F70279
:1033BC00BC5103A845068583FD8BC297FCD1230A1B
:1033CC00D50633470708C1BFA147BCB08357C50614
:1033DC00DCA08357C506034615066C45A18312066F
:1033EC00BD8BD18FDCB1B020173500001305851CC7
:1033FC0009061376F60FB0A09737000083C7C722D3
:10340C0083A541A9E391E7FA183C9307E6008E07E0
:10341C00231AF4069387C708B387E702F9460948CD
:10342C00230A0507416588C5938707FBB3C70708BF
:10343C0093877716B3C7D70233C70708B387D7026A
:10344C008607BCD189BF0547639EE706B1471CB907
:10345C0083475503898BA1CB0C59BC29A9C71946A5
:10346C00D10513858400EFD09F9178441C2393E7FA
:10347C0007F81CA368441946930564030905EFD0AB
:10348C001F9011679737000083A7C71FF98FE38C34
:10349C0007CE7C24B98BE39807CE78441C2393E7A2
:1034AC0007021CA3CDB18347D40389C79C2093E7A3
:1034BC0007F89CA0684419469305E4032105EFD056
:1034CC001F8C4DBF522D0C559307660093F7F703D5
:1034DC001CB913858400E5B7011126CA9734000086
:1034EC00938444309C4422CC06CE17340000130441
:1034FC00640C858B6850C9C32AC69737000023A774
:10350C00072EEF00702A03474407894732456307AB
:10351C00F700034744078D47631CF70283A641A9B4
:10352C00BC520357450785831307C71263F2E702A2
:10353C00BC528583B1C3914703474407E31EF7FE92
:10354C006244F240D2440561172301E0670083EF27
:10355C00382D3C3D09CF34256309D7026388F60228
:10356C0038A56244F240D24405616FD0BFF199CFC7
:10357C00382509EF3CA5F5B72AC6EF00F0226244C6
:10358C003245F240D24405616DB2EDF7DC4CEDF7FB
:10359C000347440789476307F700034744078D47F0
:1035AC00E31CF7FC914703474407E31EF7FE49BFB2
:1035BC00630E0530011122CC06CE26CA4AC84EC66F
:1035CC0052C456C2582585472A846316F72C973760
:1035DC00000093872721D44F1547638AE600D44F08
:1035EC000D476386E600D84FAD476312F7026C387F
:1035FC006244F240D2444249B249224A924A0145BD
:10360C000561B315B028B3C505086FF00FFD163171
:10361C0013070064973400009384C4F93347D7022E
:10362C009C20E8D0850793F7F70F9CA063CAE700AE
:10363C00974000E0E780002497370000238C07F6C2
:10364C0078249D47631FF70483479406B1C38356C0
:10365C00040763ECF6020C24930730041CAC13052E
:10366C00300493F6F60F014697C001E0E780805BCB
:10367C0022856244F240D2444249B249224A924ADB
:10368C000561173301E06700638A85062318D406A9
:10369C00930530020545974000E0E7808016230132
:1036AC00A4060549238A2407183C8D47631CF70E92
:1036BC00974000E0E78020870D89630F051463169F
:1036CC002517930760023CA4930750023CAC930768
:1036DC00700278243CBC85476302F70889659385A2
:1036EC00F57013051027173A0000130A2ABB8349FB
:1036FC007401974000E0E78040130E30835ACA00F3
:10370C002A8913060064B385550381461385053257
:10371C00B335B500972002E0E78080C7AA84B335A3
:10372C00590337460F001306062481463305590307
:10373C00972002E0E780C0C583270A00AA948297ED
:10374C00B307950003278A00BE8563E4A70063E4F2
:10375C00E700B385E7404E85EFF08FEC83475403C9
:10376C00898BE9CB8347C403F1C70C58E1C5BC2551
:10377C00F1C38947230AF4021946B1051305640302
:10378C00EFD0EFDF0347C407894763E9E70A2285D7
:10379C006244F240D2444249B249224A924A0561FB
:1037AC006FD05FCE89467C346315D70213F71700B0
:1037BC0019CB898B1307500291EB9307700238A435
:1037CC003CAC814739B713076002C5BF9307600251
:1037DC00FDB799CF93F617001307500291E6898B2A
:1037EC0013B717001307670238A4230D0400D1BFC9
:1037FC003C2C130740026368F700930750023CAC63
:10380C003C2C3CA47DBF850793F7F70F3CAC13070A
:10381C007002E364F7FEEDB71307700293075002D2
:10382C003CAC38A4930760026DB5130750029307A4
:10383C007002FDB78547230AF402A9B70327C40A0F
:10384C0083A641983C27ADC31C37583397340000EE
:10385C009384C4A49044B387E702DA24B387E702C5
:10386C001307003293870719B3D7E70203274409DC
:10387C003E973A896364F7006364C7003309C74015
:10388C008296B307A9406374A9009844BA9703576A
:10389C006407E3FEE7EEF2406244D2444249B24987
:1038AC00224A924A0561828083248409829663E9C4
:1038BC00A400835764073385A440E37AF5ECE1BF99
:1038CC009737000083A7079EBE94E5B7828001114D
:1038DC004EC6973900009389E9CD22CC03A4C909BF
:1038EC004AC8173900001309699B0357C90026CA37
:1038FC00835464088327040906CEB384E402374753
:10390C000F009306F7231307072452C456C25AC05C
:10391C00B694B3D4E40263EE9702138A4198B3844D
:10392C00974083270A00829763E9A4023385A44059
:10393C006349050283570404A30F04008507231071
:10394C00F40483470414639E07102285EFE06F8A0A
:10395C0021AA03278900BA97C9B783278900BE9487
:10396C00F1B783270A008297032784086366E50A68
:10397C00198D7E3C0357C9008E07B387E7021307E6
:10398C00003293870719B3D7E70263ECA708B74A4D
:10399C000F00138BFA23938A0A2483570404850798
:1039AC002310F4048347041481E72285EFE06F842D
:1039BC002285973001E0E780603D631305240326E0
:1039CC0004090327C408832689003297BA876364E5
:1039DC00C7006364D700B307D740783C0356C900CF
:1039EC002328F408050778BC035764083307C7027B
:1039FC005A9733575703B384E74063F5E700998E22
:103A0C00B384F60083270A00829763E6A404338507
:103A1C00A440E34405F839BF83278900998F3E956C
:103A2C0089BFA1452285973001E0E780402EA30590
:103A3C00A4029737000083A767846383071C624442
:103A4C00F240D2444249B249224A924A024B894539
:103A5C0015450561828783278900A6973385A74082
:103A6C004DBF2285EFE02F832285973001E0E78060
:103A7C00E031631705180355C90083576408B7462E
:103A8C000F001386F623B387A70293860624032719
:103A9C000409230B0402832A8900B297B3D7D702F7
:103AAC00636AF716B307F7408326C4082324F40887
:103ABC00014BB387E600BE8463E4D70063E457018F
:103ACC00B38457411E3023289408A1CB8356040499
:103ADC005A3037460F0056B03387E640B387E702BB
:103AEC003A301306062481468145BA97B3C70708B6
:103AFC003385A7023EB0972002E0E780608911CDA4
:103B0C002695B3349500A695AA876314BB0063640D
:103B1C005501B30755412328F40883270A008297DF
:103B2C00AA8483270A008297E30D95FE83270A0057
:103B3C0083248408829763E4A40E3385A440630B2A
:103B4C00050E035AC90083576408B7440F00138746
:103B5C00F423B387470393840424BA97B3D797020B
:103B6C001727000003471770BA9763E5A70CB33506
:103B7C009502835A2402528681463305950297207A
:103B8C0002E0E780E0803389AA0033854A03374698
:103B9C000F001306062481468145971002E0E7804A
:103BAC00207F15C1B337950252868146B385B40286
:103BBC003385A402BE95971002E0E780607DB38A3E
:103BCC00AA40231154033545A92923AE890838345A
:103BDC008547631AF704930700FD7CA4814503A570
:103BEC0081A7EFD0CFE2954717370000232AF7C003
:103BFC003707100083A741A998C7060923A82707F0
:103C0C00F2406244D2444249B249224A924A024B9F
:103C1C0005618280B3065701B387F64071B58327DF
:103C2C008900BE9419BF930710FC7CA4814503A5A1
:103C3C0001A745BF9737000023AC07A083470901B4
:103C4C008DC303A541A6EFD06FFC624483274900C6
:103C5C00F240D2444249B249224A924A024B05618F
:103C6C008287834594026244F240D2444249B2496D
:103C7C00224A924A024B01450561B315B028B3C5DF
:103C8C0005086FF08F95011122CC26CA4EC606CEC0
:103C9C004AC852C456C25AC03835854783240509D0
:103CAC002A84AE896314F70C83570508835AC5031D
:103CBC00172A0000130A8A5E035BCA0063FC5719BB
:103CCC0014296399E6180327851163150718032730
:103CDC00450A6311071874351D47639DE6162A3D86
:103CEC00B38AFA409307204E330555030329440940
:103CFC0037460F001306062481463305F502972735
:103D0C00000083C7275633592503B335AB023E99C0
:103D1C0033490908231324093305AB02971002E039
:103D2C00E7800067B307950033B5A7002E950327EE
:103D3C008A00BE8419E163E4E700B384E740B3076B
:103D4C00690337470F009306F7231307072423A0B3
:103D5C009900B697B3D7E702D69763E4F4009D8C2D
:103D6C0031A003278A00B307F740BE94138941980A
:103D7C008327090023A09900829763E2A41033855E
:103D8C00A440635D050A83270900172B0000130B61
:103D9C00EB50829703A709006369E50E198D7E3CF1
:103DAC000357CB008E07B387E702130700329387C4
:103DBC000719B3D7E70263EFA70C374A0F00930A32
:103DCC00FA23130A0A248357040485072310F404E6
:103DDC008347041481E72285EFD0BFC12285973039
:103DEC0001E0E780A0FA61E5832604098327C40873
:103DFC0003278B00B697BE8463E4D70063E4E70027
:103E0C00B384E7407C3C8356CB0023289408850779
:103E1C007CBC83576408B387D702D697B3D74703C4
:103E2C0063E6F40A9D8C8327090023A099008297EE
:103E3C0063E1A40A3385A440E34705F89727000003
:103E4C0083C7574263E6A7069737000023A28780F3
:103E5C000145B9A88357640837470F009306F72329
:103E6C00B387670313070724B697B3D7E702E3F8C2
:103E7C00F4EE03278A002697B304F740C5BD9727B5
:103E8C00000083A72742BE94DDBD83278B00998F4A
:103E9C003E9531B7A1452285973001E0E78020E7B8
:103EAC00A305A4029727000083A7473D81EF7D550A
:103EBC00F2406244D2444249B249224A924A024BED
:103ECC0005618280894515458297D5B71D8FBA94B7
:103EDC0099BF83278B00BE94B1BF83A741A8984399
:103EEC003706CEFF7D161377F7CF1367071098C3ED
:103EFC0003A741AA1447370803001375F51FF18E69
:103F0C0014C783A641A923A8060523A40700904B38
:103F1C0093F5F507130888151366F60390CB9043B9
:103F2C001366060890C3F04F137606E0498EF0CF67
:103F3C0023AC070423A007065057759A50D790431B
:103F4C00137606F84D8E90C31306401FF0D2173629
:103F5C0000002323068A173600002327068805460F
:103F6C0090C29043B70533001376F6CF90C39043BD
:103F7C001376F6CF1366062090C310474D8E10C7EC
:103F8C0023A80605D8531317F728D8D32547F05282
:103F9C0001C6B04FE37DC7FED8531317F748D8D3EB
:103FAC00A853133545008280138741A91443BC4A9A
:103FBC00BD9BBCCA01000100010001001C43B44BB5
:103FCC0093F6F68FB4CB944393E6860094C301002A
:103FDC0001000100010083A641A89C4293F7F7CF92
:103FEC0093E707109CC203A641AA1C46B706CEFF56
:103FFC00FD16F58F1CC61C4337070300B8CB83A7EF
:10400C00C1A899CBD44390479842518F98C2944BF6
:10401C00DC4B9842D98F9CC29727000023A2077EC5
:10402C00828083A741A99C438D8BE9C74111B7E7D7
:10403C0000E04AC003A9070026C23707200006C6C5
:10404C0022C4AA843379E90023A0E7180F100000DA
:10405C001724000013040479584C8D47631AF70099
:10406C009727000083A7C751014681454545829794
:10407C0019476391E4048347140289CB83470402F4
:10408C006396970097270000A38E0776584CA1479C
:10409C006315F700930780101EB0238E0196293705
:1040AC00B2402244B7E700E023A027119244024912
:1040BC00410182809D47639BF40083471402F9D72A
:1040CC00034704028D47E313F7FC6DBF544C63891F
:1040DC00E600584C6306F700584CA147E31FF7FA6B
:1040EC0083471402DDFB5C4C2300F4028547A300DC
:0840FC00F40265B782800000A8
:10410400971100209381C1BB17C10120130141EF16
:104114001305400097C5FF1F938585EE17C6FF1F43
:104124001306860E63FAC5008322050023A05500FA
:1041340011059105E3EAC5FE17C5FF1F1305250206
:1041440002852A8309CA83830500230073007D1630
:10415400050385056DFA82802A8311C62300B30006
:104164007D16050365FE8280854503C5B19217F36C
:10417400FF1F670003C7411106C622C426C2EF0011
:10418400627B1387719483470700B1CFFD1793F7C0
:10419400F70F2300F700B1E3EF00F07E1384B19230
:1041A400034504008945EF30601893070032170770
:1041B40000202317F7306D26B7E700E0416723A0FE
:1041C400E7180F10000003450400C145EF30001646
:1041D40003450400A145EF3060152244B2409244E7
:1041E40041016F00E26C173502001305259DEF10A5
:1041F400C27703C4A19211ECA1442285EF000210FE
:10420400AA85228505041374F40FEF00C205E31692
:1042140094FE03D54194EF00723E61D113048002F1
:10422400EF00520E39C185472385F192EF003071BA
:104234009307000A170700202314F7281384B19268
:1042440025370345040001468945EF209065012682
:10425400B7E700E0416723A0E71003450400A14548
:1042640097F0FF1FE780E0B78DBF7D141374F40F40
:1042740045F8A5B7854503C5B1926F30200B4111B0
:10428400170500001305A51B06C622C4EF30203510
:104294001384B1922300A400E12C17050020130518
:1042A40025E6EF00F03E03D5419493072003134520
:1042B400F5FFA383F194420585472383F19441815B
:1042C4009307000A17070020231CF71EEFF0B17BA9
:1042D400553703450400914597F0FF1FE78060B010
:1042E40003450400894597F0FF1FE78080AF03452D
:1042F4000400C14597F0FF1FE780A0AE034504000A
:10430400A14597F0FF1FE780C0AD3D651305053C4F
:10431400EF20E018372700408347270017350200B5
:104324001305858A93E717002301F7002244B2405E
:10433400B7E700E0416723A0E71041016F10E26294
:104344000111C16706CE22CC26CA4AC84EC6FD1743
:10435400630DF504D147AA841304C5FE63E6A700E0
:1043640013044506420441803344F40205499D493F
:1043740005041374F40F6317240385452285050986
:104384001379F90F292CE31839FF6244F2404249AA
:10439400B249A685D244173502001305E5A105618B
:1043A4006F10023A81454A85D9BF05449D44228550
:1043B400050481451374F40FDD22E31A94FEF240E0
:1043C4006244D2444249B249056182804111C167C5
:1043D40006C622C426C24AC0FD176305F504A947D0
:1043E400130465FF63E6A7001304E5064204418055
:1043F4003344F402A144514921041374F40F6310AB
:10440400940285452285850493F4F40F492AE398A0
:1044140024FFB240224492440249410182808145F2
:104424002685D5B72144D1442285050481451374DA
:10443400F40FB522E31A94FEE9BF411122C406C663
:1044440093F725002E849DC3EF00B05797C0FF1F3C
:10445400E78080DB2146894503C5B192EF20704493
:1044640013452400B24022444101828093F7150091
:1044740091CF11331706002003568604854503C5E2
:10448400B192EF20104213451400E9BF93F74500A1
:1044940089CFEF10800A13060032914503C5B1920B
:1044A400EF2030401345440075BF93F7050189CFD1
:1044B400EF10601613060032C14503C5B192EF2018
:1044C400503E1345040179BF13F5850041DD2E8567
:1044D40051BFB71700401387C70C896614C3B706CA
:1044E400020014C3B706080014C3B706200014C39F
:1044F4009387870D3707100098C33707040098C3C4
:10450400416798C3056798C31307001098C3828056
:10451400B71700401387870D896614C3B7060200D6
:1045240014C3B706080014C3B706200014C3938746
:10453400C70C3707100098C33707040098C34167B6
:1045440098C3056798C31307001098C3828041116C
:1045540006C67D3FB2408547A386F1924101828021
:10456400411106C6BD37B240A38601924101828043
:10457400411106C69387C1B71387C1BC23900700B6
:10458400238107009107E39BE7FE37353F008D4504
:1045940013050510EF105059B24041014DBF0A05F3
:1045A4009387C1B7AA97B335B0002381B70082803F
:1045B4000A059387C1B7AA9703C527008280894754
:1045C4006305F50263EAA70001EDB7170040096728
:1045D4009DC523ACE70C82808D47630DF500828076
:1045E400B717004037070200E5B7B7170040370791
:1045F4000800F9BFB717004037072000D1BF23A632
:10460400E70C82801387C192834707008DEBB717AD
:1046140000409387870DB706100094C3B7060400C3
:1046240094C3C16694C3856694C39306001094C36F
:104634009707002083C7E7E82300F7008280011171
:1046440022CC1384F7FF4AC81319240026CA4EC685
:1046540052C406CE1379F90F939427008149138A23
:10466400C1B713F5F90FB307250193F7F70F63C823
:1046740097021374F40F914763E2870497270200AB
:10468400938707560A043E94144017070020130723
:1046940047E3BE96B71700409387C70C82868A0704
:1046A400D29783C527008509193F65BFB706100057
:1046B40094C32386019289472300F700F2406244A1
:1046C400D2444249B249224A05618280B7060400B5
:1046D40094C3238601928D47C5B7C16694C32386CC
:1046E40001929147D1BF856694C323860192954771
:1046F400E1B79306001094C32386019285476DBFEA
:10470400828083C7619491E3BDB482804111939701
:10471400050122C406C626C2C1872E8463DC0706AF
:1047240003C5318197C0FF1FE780E05CAA840DCDEB
:10473400834705001307000B638FE7021307000D7F
:104744006391E70203472500C547631CF70003464E
:10475400650083457500172502001305A549EF0080
:10476400327E2685EF20006D2165218DB2402244E2
:10477400924441018280034745009307F007E31206
:10478400F7FE83558500172502001305A548EF00A1
:10479400327BC1BF93F7150091CF17060020130693
:1047A400A6999385C1BC03C53181EFD0215413452B
:1047B40014006DBF93F7250099CB13060064894557
:1047C40003C53181EF20F00D1345240045B793F75D
:1047D400850099CF83C73181130740068146294656
:1047E400994503D58193EFD0E14913458400BDBFBA
:1047F40093F705019DC3014789460946814503D5C1
:104804008193EFD0D122AA85172502001305C54153
:10481400EF0012731345040191BF13F5450039D518
:1048240003D58193EFD0111E0566130606C8914582
:1048340003C53181EF20F0061345440005BF0DE1A7
:104844000111680006CE97C0FF1FE780C0531725EB
:1048540002001305A53EEF104211F240056182806B
:10486400828013878193AE8783550700639FA500D9
:104874002312C700172502001305053E3E862311A7
:10488400F7002313D7006F00B26B1725020013053E
:10489400253E6F10820D13878193835645008357FD
:1048A40007006397F604011106CE22CC13843181EC
:1048B40003450400C167F91789451CC323AE01925F
:1048C400EF20D026034504009145EF20302683C70E
:1048D400619499CB85471306F10085451305503043
:1048E400A307F100EFD0A169F24062440561828020
:1048F400172502001305C5376F1022071D7186CED8
:10490400A2CCA6CACAC813891194230009001705AA
:1049140000001305E5DF23810194EF20504C9384BC
:104924003181994705442380A400138601942314FC
:10493400F1028545A94713055030231EF1022300D7
:10494400860023008900EFD0816317060020130638
:10495400E680D14513057030EFD061621386C180C3
:104964009D4513056030EFD08161301089451305F2
:104974001031EFD0C1607018894513052031EFD094
:10498400016017F6FF1F1306E67BD5450145EF606E
:10499400B071930500320D45EF40B0049305003229
:1049A4001145EF40100485457945EF409003701898
:1049B400914513057040A307810023088100230A51
:1049C400810002DE23040102EFC0A1491306F100B5
:1049D400854513050040EFC0C148100885451305FF
:1049E4001040EFC001483010854513052040EFC04A
:1049F40041475008854513055040EFC081464D4559
:104A0400EF70A0074D45EF900051EF1090494D45D0
:104A1400EF10706189473ECA8D473ED41008914714
:104A2400854501453EDE2308810002CC02CE02D03A
:104A3400231201022303010202D602D802DA231C44
:104A44000102230D010282C082C282C42316010422
:104A540023070104EF1090655008CD450545EF107C
:104A6400F0643010CD450945EF1050647018CD4501
:104A74000D45EF10B063C16713878193F9171705CC
:104A84000020130525A41CC323220700EF10306166
:104A940013850193EFB0811A03C50400854597E09F
:104AA400FF1FE7800034170500001305C5C5EF108C
:104AB400216C6644F640D644464917250200130586
:104AC400A51B25616F00726A011183D7818022CCF6
:104AD40006CE26CA1387E7FF2A842E8663C6E5001E
:104AE400F5171396070141829384819303D504003B
:104AF40001478146ED452315C100EF702058035648
:104B0400A100A2852AC697C0FF1FE780C02703D54E
:104B140004002C00EF10106109C5ED452800EF706A
:104B2400806DF2406244D24405618280011183D7D2
:104B3400818022CC06CE26CA1387E7FF2A842E86DC
:104B440063C6E500F51713960701418293848193A8
:104B540003D5040001478146ED452315C100EF70DC
:104B6400E0510356A100A2852AC697C0FF1FE78023
:104B7400802103D504002C00EF10305F09C5ED45FA
:104B84002800EF704067F2406244D244056182809D
:104B9400011183D7818022CC06CE26CA1387E7FF72
:104BA4002A842E8663C6E500F51713960701418211
:104BB4009384819303D5040001478146ED45231571
:104BC400C100EF70A04B0356A100A2852AC697C06E
:104BD400FF1FE780401B03D504002C00EF10505D3D
:104BE40009C5ED452800EF700061F2406244D244EB
:104BF4000561828083C7119485E7411122C406C6EA
:104C0400054413860194854513055030230086001E
:104C1400EFD0E136B240A3808194224441018280E6
:104C240082803D897D15954763E8A7181727020000
:104C3400130787110A053A951C41411122C4BA97FA
:104C440006C626C22E848287172502001305450452
:104C54002244B240924441016F00325183C725007F
:104C640019476394E7022E853D3183456400172577
:104C740002001305E502EF00B22C8547A380F194EE
:104C84001725020013058503E1B70D47E387E7FE07
:104C9400B240224492444101828003C725009547D3
:104CA400E318F7FE9387819383D60700416779174A
:104CB40003D5A5006384E602EFD001551725020051
:104CC4001305C500EF00724A85472381F194A38040
:104CD4000194172502001305E5019DBF03D7E500E4
:104CE400938431812390A7002391E70003D7050122
:104CF40003C50400130600642392E70003D72501CB
:104D040089452393E700EF20C03903C504000966F1
:104D140013060690A145EF20C038EFF0EFC4035608
:104D2400E4008355A40017250200130565FBEF007A
:104D3400322159BF03C725008D47E31BF7F485478C
:104D44002381F194A380F19417250200130545FBF8
:104D540001B783C5250091476397F5001725020025
:104D6400130585FBF5B599476393F502228525362E
:104D74008345640017250200130585F2EF00521CD9
:104D84002244B2409244238101944101A5B5954740
:104D9400639AF50083471400F1F317250200130505
:104DA40065F97DB52244B2409244172502001305EB
:104DB400E5F841016F00D2188280411106C6B71789
:104DC40000401307000823ACE70C8D4513050008C9
:104DD400EF108055B24041016F10A0704111114590
:104DE40006C6EF00301C1305503497B0FF1FE78050
:104DF400405EE13717250200130585F6EF00F23611
:104E0400173502001305459BEF003236EF10F05DB5
:104E1400EF103070EFD0E141D534EFF04FC697B0CA
:104E2400FF1FE780A057171700201307E7268347C3
:104E34001704B306F70085072380A60093F7F70F3E
:104E44009306F00363F3F6008147A300F70482801E
:104E54000A05172702001307670CB71700402A97A3
:104E64009385070B1443904113C7F6FF798E90C1C5
:104E74001386470B0C426D8F18C21386070A18421B
:104E84009387C70A558F18C29843558F98C3828059
:104E9400197186DEA2DCA6DACAD8CED6D2D4B71768
:104EA4000040D6D2DAD0DECEE2CCE6CAEAC8130796
:104EB4003002A38CE70403C7A705AA89014413772A
:104EC400D70C238DE70403C7A7051729020013098C
:104ED4006908394A13670703238DE7040D47A38B39
:104EE400E70403C77705A14413674700A38BE704CE
:104EF400EFF0B1189387419483D50700172502007A
:104F0400130585E793E5F50F2390B700EF005203EF
:104F1400B7070103A1073EDE9147BEC085679387AB
:104F240087BB51466C18BEC40808971700209387A6
:104F3400E71ABEC682C2EFF0CFA00808EFF0A119AD
:104F4400AA85172502001305E5E3EF00627FB30588
:104F5400440339460A850504CA95EFF08F9E0A85F5
:104F6400EFF0C11FE31594FE8565138665E61725EA
:104F74000200130565E2938505C0172A0200130A8F
:104F84006AFD7D79EF00C27BD284814A0144130912
:104F94000940930B6026214B83D5240003D644009B
:104FA40003C514009306803EEFF03122B3072501B8
:104FB400C207C183AA8563EEFB042285EFF0A12A10
:104FC40005041374F40FB904E31864FD63950A042B
:104FD400EFF0110E83A6090023A431959717002042
:104FE400239C070E03C686000147A9450545937710
:104FF400F70F63EEC70EF6506654D6544659B659A9
:10500400265A965A065BF64B664CD64C464D0961B9
:105014008280854A75B717250200130525DAEF004B
:10502400D21485670149014B938B07C0130C00020E
:10503400938C67E6138D57E6937AF90F8144034501
:105044001A009306803E0D46A685EFF011182A84B7
:1050540095E463E7AC0063E5AB028544228BC5B7F6
:10506400AA854A8617250200130545D9EF00426D2B
:105074000509A147390AE311F9FC99BF63FBAB04A5
:1050840063658D02A2855685EFF0E11D0D46A68568
:105094005685EFF06122A2862686CA85172502006E
:1050A400130585D9EF00C269E1B7DA855685EFF0BB
:1050B400811B9385F4FFC2050D46C1815685EFF02F
:1050C400A11FA2862686CA8517250200130545D985
:1050D400D1BF8504C204C180E39284F9CA8517252F
:1050E4000200130525DCEF00A265228B51B73308BB
:1050F400B702DC420507C2972380A700239207006A
:105104002393070023840700DDB517170020130736
:10511400A7F8834707048346170401456380F60212
:10512400B306F700850703C5060093F7F70F930648
:10513400F00363F3F60081472300F70482809307AA
:1051440020034111A383F19417250200130505DA06
:10515400854722C426C206C62383F194172402007D
:10516400130444DFEF00720097240200938484E563
:10517400034514003904E939E31C94FEB240224487
:10518400924441018280411122C426C206C61724DA
:105194000200130424DC972402009384A4E2034550
:1051A400140039047531E31C94FE2244B240924445
:1051B4002383019417250200130585D441016F0050
:1051C400C27A797106D626D252CC56CA5AC822D48B
:1051D4004AD04ECE5EC662C4EFF0C175EFF09112B4
:1051E400138BC194938481942310AB00EFF0416C32
:1051F40003AA0400832A0A0063950A0E83298A00FD
:105204006396090E41667D16239BC1809C4003A9C9
:1052140047006312092041667D16B2502254239A36
:10522400C18092540259F249624AD24A424BB24B6B
:10523400224C456182800347740011CB834784006C
:10524400850793F7F70F63FDE7062304F400850948
:105254000D0993F9F90F1379F90F83C78A00E3FF56
:10526400F9F8B387790303270A00404303A70A0028
:105274004E97034707003E9483570B008346640010
:10528400B3D7E740858BA9C389E6230384014A8504
:10529400593E0357440045DF83572400E3FDE7F8F4
:1052A4008507C207C1832311F400E312F7FA894783
:1052B400130529002303F4001375F50FAD3641BF20
:1052C400230404004A85DDBF81CA130519002303A2
:1052D40004001375F50F813E231104002304040018
:1052E400BDB705498149A94B054C85BF03C9490090
:1052F400894783DA690003A4C900014AE3F427F16A
:1053040083C749006366FA0A1306F9FF814781459A
:10531400850713F7F70F9317170093961500A297B5
:10532400A29603D5070083D60600BA8763F3A600C6
:10533400BA85E34FC7FCC9ED93171900A29703562A
:10534400040083D7E7FF03552400B306F640C206E2
:10535400C1823307A6402A96B297C2074207C18387
:105364004183E3F1FAEA03D6A90003D5890036881C
:10537400334926033307A702B307250391E20548FF
:10538400420813580801334707033A9542054181FF
:10539400B3C7A702B3852503AE97C207C183E385CC
:1053A40007E6130716000546E340F7E63E86A9BD67
:1053B40083A70900131B1A00229BD29703C5070079
:1053C400050A137AFA0FEFE071712310AB000DBFD9
:1053D4006313B60293171900F917A29703D60700AF
:1053E40003D5E7FF83570400B306A640C206C18273
:1053F4003307F6408DB7939715003E948357040006
:105404000356E4FF03552400B386C740C206C18295
:105414003387A74089B78344490089478359690082
:105424000324C900E3F997DE014A83270900D297D0
:1054340003C50700EFE0916A93171A00A297050AC3
:105444002390A7009377FA0FE3E197FE1386F4FF06
:1054540081478145850713F7F70F93171700939634
:105464001500A297A29603D5070083D60600BA8733
:1054740063F3A600BA85E34FC7FCADED9397140020
:10548400A2970356040083D7E7FF03552400B3060D
:10549400F640C206C1823307A6402A96B297C207D5
:1054A4004207C1834183E3F8F9D60356A9000355A3
:1054B40089003688B34496023307A702B3079502DE
:1054C40091E20548420813580801334707033A9507
:1054D40042054181B3C7A702B3859502AE97C207BF
:1054E400C183E38C07D2130716000546E347F7D2BE
:1054F4003E8625B36393C50293971400F917A297C8
:1055040003D6070003D5E7FF83570400B306A6407C
:10551400C206C1823307F64049B7939715003E94FB
:10552400835704000356E4FF03552400B386C740A1
:10553400C206C1823387A7408DB7797122D40A8409
:1055440026D24AD04ECE06D652CC02C002C202C4E3
:1055540002C622898144A1492685EFE03158850499
:105564002310A90093F4F40F0909E39734FF930976
:105574000401A28417290200130989998395040060
:105584004A858904EF00C21BE39A34FF2945EF00E2
:10559400C21E22898144214A2685EFE0D14D85042B
:1055A4002310A90093F4F40F0909E39744FF972407
:1055B40002009384E4958315040026850904EF0012
:1055C4002218E31A34FF2945EF00221B014417294E
:1055D40002001309E993A1442285EFE03152050446
:1055E400AA851374F40F4A85EF008215E31694FE1E
:1055F4001725020013054592EF0022372254B250BA
:1056040092540259F249624A172502001305C590C3
:1056140045616F008235797126D2856422D44AD0DF
:105624004ECE06D652CC56CA5AC85EC662C401448F
:105634000149938464E6A1492285EFE0314C63F388
:10564400A400054905041374F40FE31734FF630F32
:10565400090E0D45EFE0113EEFF0C12D17150200C4
:105664001305C575EF0062308567972A0200938A97
:105674006A8E0149014B938B07C0130C0002138AF5
:1056840057E69379F90F014403C51A009306803E47
:105694000D46A285EFF06133AA840DEC63F5AB0AE5
:1056A400AA854A861715020013054575EF004209BD
:1056B4000509A147B90AE316F9FC2254B2509254E1
:1056C4000259F249624AD24A424BB24B224C4561DA
:1056D4006FF0011E63FBAB046365AA02AA854E85C5
:1056E400EFE071380D46A2854E85EFE0F13CA686C9
:1056F4002286CA851715020013050574EF004204BB
:1057040045BFDA854E85EFE011369305F4FFC205F7
:105714000D46C1814E85EFE0313AA6862286CA85C0
:10572400171502001305C573D1BF05044204418057
:10573400631C8401CA85171502001305A576EF00C2
:105744002200268BB5B70544268B3DBFB2502254A8
:1057540092540259F249624AD24A424BB24B224C09
:105764004561828003D54181828003D56181828035
:10577400B717004003C777051377E70FA38BE70438
:10578400130700F8A38DE7043D47238CE7041307B0
:105794005003A38CE70403C7A7051377D70F238D02
:1057A400E7048280371700408347E704120541115C
:1057B400BD8BC98F93F7F70F93068008F3B6068065
:1057C40093F6860836C60F10000093067005230072
:1057D400D704930680FA2300D7040F100000230790
:1057E400F70423000704B247F3A707800F10000053
:1057F40041018280B717004003C7E7020D894111B8
:105804001377C70F498F93068008F3B6068093F683
:10581400860836C60F100000930670052380D7044F
:10582400930680FA2380D7040F1000002387E70231
:1058340023800704B247F3A707800F10000041013B
:10584400828041112A830148930E407E130F001970
:10585400930F40069318030193D8080163EF1E01C8
:1058640013030019337365028542FD4363F0B20AE2
:105874008D4F214F930E400689A87D13336EE303A9
:105884009308E016630E0E00336EF3039308D016EC
:1058940063080E009378330093B818009388D816E1
:1058A400C29813980801135808016DB793F81500AE
:1058B400138EF5FF6371BF04F908C29813980801A9
:1058C40093150E0113580801C181E391F5FF854535
:1058D400630B0300B378D503814563860800937591
:1058E400350093B51500F105C295139805011358B9
:1058F40008018945D9BFB3881341C2981398080198
:1059040093150E0113580801C1818DB77D16329885
:1059140079463307C70213D61700BE074208135847
:10592400080132976146B3F6C60213068070B38647
:10593400C6023697A166F58F4207D98FB716004085
:1059440003C7F60213770708A303E10003467100B7
:1059540003C7F60213770708E314E6FE0347710052
:10596400B71600405DCF130780087337078013779D
:1059740087083AC40F1000003717004093067005DB
:105984002300D704930680FA2300D7040F100000E5
:10599400232A07038346170393E60608A308D702BE
:1059A400230007042247732707800F1000001166A5
:1059B400371700407D16545B4C5FAD8EF18EE5FECB
:1059C40093068008F3B6068093F6860836C60F1051
:1059D4000000930670052300D704930680FA230081
:1059E400D7040F1000005CDB8347170393E7070419
:1059F400A308F70223000704B247F3A707800F1098
:105A040000004101828003C7F60213770708A3034D
:105A1400E1000346710003C7F60213770708E31495
:105A2400E6FE0347710065D33DBF55714EDF86C75F
:105A3400A2C5A6C3CAC152DD56DB5AD95ED762D508
:105A440066D36AD16ECFAA8982C0EF00D0179307BC
:105A54008008F3B7078093F78708BEC20F100000D1
:105A6400B7170040130770052380E704130780FA73
:105A74002380E7040F10000003C7F7021377770FA2
:105A8400A387E70203C7F70213678700A387E70228
:105A9400238007049647F3A707800F100000130B19
:105AA40080C1334B65039167938707E8130A30027B
:105AB4009546B347F502330A4B033EC8FD873ED2F1
:105AC400BD67938707A6334AFA021357FA413ACAC5
