:040000006F00505EDF
:100004000000000000000000A00000205A090020A9
:10001400A9BDF9F3A00000200000000000000000CA
:10002400A0000020A000002000000000000000004C
:10003400A000002000000000A0000020000000003C
:10004400A0000020A0000020A0000020A0000020AC
:10005400A0000020A0000020A0000020000000005C
:10006400A0000020A0000020A0000020A00000208C
:10007400A0000020A0000020A0000020A00000207C
:10008400A0000020A0000020A0000020A00000206C
:10009400A0000020A0000020A0000020A00000205C
:1000A40001A0B7170040984B41111367070198CB83
:1000B400982B1377E70F98AB1307800873370780E3
:1000C400137787083AC60F100000130770052380C2
:1000D400E704130780FA2380E7040F100000B847F1
:1000E400B70600069506558FB8C703C7B70413773C
:1000F400F70DA385E704B82713672701B8A71307EB
:1001040050149AA7372700408346578093F6F60E7B
:10011400A302D7808946A303D78003C7E7041377D4
:10012400C70F136717002387E70403C7F702136792
:100134002700A387E702982B1367170098AB238047
:100144000704B247F3A707800F1000004101828023
:10015400EFF03FF513050020970500009385450A4D
:1001640017160000130606C863FAC50083220500AB
:1001740023A0550011059105E3EAC5FE171500E01B
:10018400130545E2971500009385C5C51386418084
:1001940063FAC5008322050023A0550011059105CB
:1001A400E3EAC5FE17150000130505C4938541A7AE
:1001B4006377B500232005001105E36DB5FE9302B6
:1001C4005002739002BC8D427390428085427390BA
:1001D40012BC896293828288739002309702000075
:1001E400938242E293E2320073905230971200E01D
:0C01F4009382A2C3739012347300203079
:10020000B7170040984B41111367070198CB982B03
:100210001377E70F98AB13078008733707801377BE
:1002200087083AC60F100000130770052380E70403
:10023000130780FA2380E7040F100000B827136724
:100240002700B8A701000100B82713670701B8A766
:1002500001000100372700408346578093F6F60ED1
:10026000A302D7808946A303D78001001307501C3F
:100270009AA7130750149AA70100982B1367170029
:1002800098AB23800704B247F3A707800F10000044
:1002900041018280797126D2B7C42D0022D44AD080
:1002A0004ECE52CC56CA5AC85EC606D60144994BA9
:1002B00097190000938989B39384046CB79A00401E
:1002C000094B37190040056A0504334404086314D8
:1002D0007401252401445145EF00407083A70900B3
:1002E000850723A0F900E3F1F4FE23806A01835718
:1002F000A9012945B3C7070893F7F7FDB3C7070856
:10030000231DF900EF00E06E029A7DBFB797004011
:100310009E2B138741A683C761A6858B85EB23821D
:10032000A1A2A38201A23C2393E717003CA3379725
:10033000404089472312F70A8347670A93F7C70F9C
:100340002303F70A93E727002303F70A82808147F4
:100350006313F60082803387F50014233307F5001A
:10036000850714A3F5B7797122D41714000013047C
:10037000E4A91C2006D626D24AD04ECE1307200868
:100380006383E714636DF700130700086380E706D3
:10039000130710086381E7101305E00F85A013070A
:1003A0003008E39BE7FEB7970040094798A337174B
:1003B00000403E2F2945B3C7070893F7F7FDB3C7A1
:1003C00007083EAF3D2585678297379700408347F2
:1003D000770A93F7C70F93E72700A303F70AB250F2
:1003E000225492540259F2494561828004301384A8
:1003F000C1808DEC1E2089E781442685013FF1B73D
:100400001E2017160000130666A409458D07F19BF0
:10041000B3C707081EA09715000083A5659D162089
:1004200075259374F50F23960180C1BF0A20171913
:1004300000001309A9A12686971500009385259D24
:100440004A9531371E20BE94B3C4040806A01A2072
:100450009307F00FE3F2E7FA97190000938949999F
:1004600083A509004A86930600100945852583A7C0
:1004700009009374F50F938541969387071023A085
:10048000F9001E204A85938707F0B3C707081EA00E
:100490001220753D9DB73E2042201305E00F420417
:1004A0005D8C8567E31CF4F4B7F6060001468565AC
:1004B0000545292D239601801375F50F9717000028
:1004C00023A8879225BF1430971500009385659463
:1004D0001715000013058597368636C68D3D5E20BC
:1004E0002E20B246C2071716000013062696DD8D91
:1004F0000D45E92B1375F50F11B7B79700409027FD
:1005000098379376F60F418A6304063A0111137700
:10051000F70F9716000023AB068C9376770006CE74
:1005200022CC26CA4AC84EC652C456C2418B631852
:10053000072889CE09476383E624F2406244D24407
:100540004249B249224A924A0561828003C7F709AB
:1005500013846181218B630E0720138741A21C2322
:10056000138AC1819386D1812300FA001C33322380
:100570004E239CA27E231EA09387A18192A3138663
:1005800081810EA283440A0093F40406C9E08C2200
:100590002D4593F6F50F636CB506971500E093852E
:1005A000A598B3C6B6209442AE9682869A23894611
:1005B0001389018221836304D7060D46630EC708A1
:1005C0008547631DF70C971700E09387A79C2320AE
:1005D000F900C9471A2063F3E7001EA01A20930709
:1005E000F0039309000463E6E70083590400B3C9EC
:1005F0000908832A09004E86138541A2D685813BCE
:10060000CE9A232059019307F00F6390F40AB7970D
:1006100000401547238FE708A38FE708C9A0B797C5
:100620000040BC27138701819386218193974760FF
:1006300063D1070285471CA3930700049EA21C23D5
:10064000971700E0938707932320F9009307000290
:1006500051B723880180CDB79E23054793F7F70F45
:10066000638EE7006384D70295EB970700009387BA
:10067000A7772320F90081449147A9BF971700E08D
:100680009387478E2320F900B947A9B7971700E051
:100690009387878C2320F900B1472DBF81479304AE
:1006A000F00F0DBF9E23238AF18083470A009397A2
:1006B000476063D2070A1A209307000463E5E70046
:1006C0001E20B3C707081A201D8F334707081AA03A
:1006D00037970040231EF7089947230FF7083797ED
:1006E00000408347F70993F7F707A30FF708B1B561
:1006F00083C751811CA31A208547E3F8E7FA1EA09F
:100700006DB79E23A38AF1804DB703470A0089463F
:100710007D8BE31ED7EE9E2393F7F70FE39907EE49
:100720001E2293F7F70F638BE70013072008E3906F
:10073000E7EEB79700402383070A85BF379700404D
:10074000A303F70A9DB7238201A275B7239201A2E2
:100750001A2089475DB71E2089EBB7970040239E7A
:1007600007081947238FE7089DBFB797004019472F
:1007700065B5A38F07081A203DF3D5B703C7770ADD
:10078000418B0DC703C7770A1705000013050568DD
:100790009385419A13474700A383E70A03D4470888
:1007A0001374F40F228665362285753E3797004014
:1007B0008347770A93F7F707A303F70ABDBB8DCEEC
:1007C0000947E39CE6D603C7670A1377C70F23835D
:1007D000E70A03C7670A134747002383E70A03C7EB
:1007E00061A61377E70F2383E1A603C7670A137790
:1007F000F7072383E70A91B303D7618113896181E6
:1008000001E71947A38FE70883C7C18193F707065C
:10081000B5EB83C7D18115476381E7081947639416
:10082000E708035709009307F0031304000463E685
:10083000E70003540900334404089389018283A428
:1008400009002286138541A2A68511368357090027
:10085000A29423A09900818FB3C707082310F90041
:10086000B7970040239E870803C7E709134747004F
:10087000238FE70803C7E7091377C70F136727001C
:10088000238FE70883C7E181379700408347E70953
:1008900093F7F707230FF7084DB103C74181B797C7
:1008A0000040B8B3C5B7B7970040239E0708D9BF2B
:1008B00013F7060409C71307000498A7828013F7EB
:1008C00026001DC3094798A7B8279387F180118B8D
:1008D00019C798231367270098A39C238280982325
:1008E0001377D70F98A3828013F716003DC7A38A0A
:1008F0000180238A0180A387018023870180A3814F
:10090000070015479AABBAAB13070004F8CFF8D32A
:10091000138741A298D31387419A98D71387419E92
:10092000F8C3239E0708238F07080947A38FE7080A
:100930002392070A2383070AA383E70A138641A6A3
:1009400081474147B306F600238006008507E39BF5
:10095000E7FEB797004005478DB794A78280411105
:100960008146014681451145952213078008F337DA
:10097000078093F787083EC40F100000B7170040A8
:10098000130670052380C704930680FA2380D704DA
:100990000F100000FD55CEB723800704A245F3A534
:1009A00005800F10000073370780137787083AC659
:1009B0000F1000002380C7042380D7040F1000000D
:1009C00003C76704136717002383E7042380070422
:1009D000B247F3A707800F10000001A09307E004BF
:1009E0003305F50295473355F50201007D1575FD78
:1009F0008280411122C406C62A841305803E7D14DC
:100A0000F13F3344040875F8B2402244410182802A
:100A10002303048015472303E48001002302A480FC
:100A2000828083076480E3CE07FE230304808280F4
:100A300083076480E3CE07FE0345448082808307FA
:100A40006480E3CE07FE2302A4808280411126C485
:100A50004AC24EC006C61377F50BAD47AA892E8948
:100A600095446306F70019456537653F8D444E850B
:100A70004537FD59FD1463983401B240A244124930
:100A8000824941018280135509011375F50F453FD5
:100A90002209CDB7011126CC06CEB7040800513784
:100AA0001545BD37713769372AC6A53F324593775B
:100AB000150089EB136515001375F50FF240E2443C
:100AC00005618280FD14E9FC0145CDBF3971B7F79E
:100AD000070006DE26DC4ADA4ED852D656D45AD261
:100AE0005ED062CE03AB47027D57B7E700E083AA32
:100AF000070022C603AA470023A0E71823A2E7188D
:100B0000B71B0040930770052380FB04930780FA0E
:100B10002380FB0483C74B041147AA8993E7070E80
:100B20002382FB04372400401305F00F2303E480E5
:100B30002E8C3289B684E93DED35938779FF93F7A2
:100B4000F70F0947137BFB006362F712A1473707D2
:100B500008006307FB00B70707003E9C37870700C4
:100B60007955637EEC02B3878401636AF702A94773
:100B70006398F90689E481446D3526850DA0E285E8
:100B80000945E93505090345F9FFFD14050C453D07
:100B900081C49377FC0FFDF7F53D69FD7D55B717CF
:100BA0000040130770052380E704130780FA2380B1
:100BB000E70403C74704418B2382E704F250B7E7F9
:100BC00000E023A0571123A24711E25432445259A6
:100BD000C259325AA25A125B825B724C21618280E6
:100BE000A547639AF906A1478569631DFB029387B0
:100BF000F9FFB3869700B374FC00B69493C7F7FF70
:100C0000FD8C33FC8701416B856B9387F9FFB3F74C
:100C1000870199E363FF340193D94900C147E3E6B3
:100C200037FF91BF9307F00FE9B78567C169FD17DB
:100C3000C9B71305800D6388690113050002638439
:100C4000790113051008E2851135A93521D94E9C8B
:100C5000B3843441C1B7E2852D45CD3BCA94E30C42
:100C600099F00509F133A30FA9FED5BF9387F9FFCA
:100C700093F7F70F636FF70AA1476319FB06B707EE
:100C800008003E9C83C75B043707070093F7070201
:100C900099E337870700B70708003E977955E37057
:100CA000ECF0B3079C00E36CF7EE8947639AF90414
:100CB0008980D549E38104ECE2850945413B11096E
:100CC0000327C9FF91472320E48003076480E34E94
:100CD00007FE23033481FD17EDFBFD14110C81C4C5
:100CE0009377FC0FE9FF7D3371F54DBD83C75B043E
:100CF0003707070093F70702D5F33787070079BF57
:100D00008547E384F9F2E2852D4589339389F4FF21
:100D1000E38304E6313B93F7390091EB83260480AB
:100D20000327090093074900E398E6E43E89CE844F
:100D3000F1BFB5476396F9001305900BD13925BD76
:100D4000B1471305B00AE38BF9FE99476394F904A0
:100D5000A1476315FB00B70708003E9CE2852D45BF
:100D6000F53181440D4BA149E1316396640183273C
:100D700004802320F9008504E39834FF832704804E
:100D800013172C01635507002312F900EDB323223A
:100D9000F900D5B39D476399F90281451305B00465
:100DA0007531BD442320090023220900FD59493132
:100DB00093F77400CA9703C70700FD14398D238089
:100DC000A700E39634FF45BB91476399F9001305EB
:100DD00060063D39B931130590098DB7E38D09D807
:040DE000F15459BBB6
:100DE400970100209381C17F17F101201301412154
:100DF4001305400097F5FF1F9385852017F6FF1F05
:100E04001306C63F63FAC5008322050023A05500DC
:100E140011059105E3EAC5FE17F5FF1F13054533D8
:100E24000285411106C622C497F0FF1FE780003DEA
:100E3400371400401307440D1C432945BD9B1CC3B4
:100E44001307040D1C4393E707011CC31307040C89
:100E54001C431304440CBD9B1CC397000020E78073
:100E640000B91C40C18B99CB154597000020E78041
:100E740000B81C40C18B99C385678297B79700401F
:100E840011472380E720B7160040BA2E138641A6E7
:100E940013670702BAAE254798A31307F005B8A352
:100EA40015479AABBAAB13070004F8CFF8D31387EE
:100EB40041A298D31387419A98D71387419EF8C3C8
:100EC400239E0708238F07080947A38FE708239267
:100ED400070A2383070AA383E70A81474147B30626
:100EE400F600238006008507E39BE7FEB7970040E2
:100EF400A3810700054798B3130780FB98A3B7168F
:100F04000040BA2E13670702BAAE7D5798A7238113
:100F1400070097F0FF1FE780A037000028F8FF1FA5
:100F2400E6F7FF1FEAF6FF1F86F7FF1FEAF6FF1F2B
:100F340080F7FF1F88F6FF1FEAF6FF1FCCF7FF1F9D
:100F4400DEF7FF1F22F8FF1F86F7FF1F0C03430085
:100F540048003500380078000E037700630068000D
:100F64002E0063006E0000000902200001010080D1
:100F7400320904000002FF80550007058202400088
:100F8400000705020240000012011001FF805540D5
:0C0F94004843E05500010000000100008F
:040FA0000403090439
:00000001FF
