:040000006F1000136A
:100004000000000000000000A0000020980C002068
:10001400A9BDF9F3A00000200000000000000000CA
:10002400A0000020A000002000000000000000004C
:10003400A000002000000000A0000020000000003C
:10004400A0000020A0000020A0000020A0000020AC
:10005400A0000020A0000020A0000020000000005C
:10006400A0000020A0000020A0000020A00000208C
:10007400A0000020A0000020A0000020A00000207C
:100084007409002054090020A0000020A0000020D2
:10009400A000002004020020A0000020A0000020F6
:1000A40001A0B7170040984B41111367070198CB83
:1000B40003C707011377E70F2388E70013078008B6
:1000C40073370780137787083AC60F1000001307A9
:1000D40070052380E704130780FA2380E7040F10D8
:1000E4000000B847B70600069506558FB8C703C782
:1000F400B7041377F70DA385E70403C7A7001367B5
:1001040027012385E700130750142394E7003727BA
:1001140000408346578093F6F60EA302D7808946A3
:10012400A303D78003C7E7041377C70F1367170028
:100134002387E70403C7F70213672700A387E702AF
:1001440003C70701136717002388E7002380070408
:10015400B247F3A707800F10000041018280EFF03F
:100164005FF413058020970500009385E5091716B1
:1001740000001306E6FB63FAC5008322050023A0F2
:10018400550011059105E3EAC5FE172500E01305A6
:10019400650A971500009385A5F91386C18063FA53
:1001A400C5008322050023A0550011059105E3EA4B
:1001B400C5FE13858181938581CB6377B5002320A8
:1001C40005001105E36DB5FE93025002739002BC65
:1001D4008D42739042808542739012BC93028008D2
:1001E40073900230970200009382C2E193E23200DE
:1001F40073905230971200E09382622B7390123402
:040204007300203033
:10020800011126CC22CE4ACA4EC852C656C4B7944B
:10021800004083C6840083C7940013F7F60FC18A91
:100228006389066A93F7F70F13F77700C18B639C0E
:10023800075469EB83C7F409A18B6385075093873B
:1002480081C703C7070083D627002384E18203C739
:100258001700A384E18203D767002391E1822393E7
:10026800D18283D647002392D18283C98182938623
:1002780081C793F909066383091283C5818213052F
:10028800000293F505066399A50203C69182A54568
:1002980079161376F60F63E0C51E89659385C5F850
:1002A8003346B6201042028683D64182ADE683D714
:1002B8006182A183238EF18083C7818293974760EF
:1002C80063D3074603D721829307000463E6E70058
:1002D80083D72182B3C7070803D721821D8F3347ED
:1002E80007082391E18237970040231EF7089947B2
:1002F800230FF708379700408347F70993F7F70765
:10030800A30FF7087244E2445249C249324AA24A4A
:1003180005617300203083D641828547639DF614BA
:1003280003D761829387C1812183A380E70069B7DE
:1003380083D6418281EA83D7618293F7F70F238CB2
:10034800F1809DBF83D6418285476396F61203D715
:100358006182938781811377F70FC1BF03D74182E9
:1003680011E783C7C1812380F600B9B703D741825B
:1003780085476312F7109387C18183C71700E5B7D4
:1003880003D7418201E783C78181F1BF03D7418247
:1003980085476312F70E93878181C5B783C591821C
:1003A8002D4813F6F50F6368B80C8965938545FBEE
:1003B8003346B6201042028683D661821946A1824E
:1003C8006382C610636FD60009466388C6048D47EA
:1003D800638BF60A8547638AF60281479309F00F13
:1003E80081A8130710026383E60E13072002E39621
:1003F800E6FE03D74182631E070E89679387470D80
:1004080023A6F1829307E00325A089679387071540
:1004180023A6F18283C7070021A88967938747111C
:1004280003C7270023A6F18283C73700A207D98F05
:1004380003D7218263F4E7002391F18203D7218255
:100448009307F003130A000463E6E70003DA218246
:10045800334A0A0883AAC1825286138581C7D68582
:10046800971000E0E780E0D6D29A23A6518393073D
:10047800F00FE393F9E4B79700401547238FE70897
:10048800A38FE70885BD83D7618293F7F70F63874A
:10049800C702636BF60099EF9387818023A6F182E8
:1004A800814983C7070069B7E399D7F289679387BA
:1004B8000706B9BF89679387470899BF89679387F4
:1004C8008707B9B789679387470999B703D74182DF
:1004D80001EB89679387671223A6F182A54789BF35
:1004E80003D741828547E31AF7EE89679387F713A5
:1004F800E5B703D741828547E311F7EE896793870C
:10050800070A23A6F182930740031DB783D76182A8
:1005180093F7F70F2380F18245B383C711822380B5
:10052800F60003D721828547E3F8E7D82391F182C3
:1005380061B383D7618293F7F70FA380F1820547F0
:10054800238FE18095BB83C68182FD8A99EE83D78C
:100558006182054793F7F70FE39FE7F083C7F181BF
:1005680093F7E70FA38FF18081BB83C68182094689
:10057800FD8AE392C6F003D761821377F70FE31C75
:1005880007EE83D741821307100893F7F70F638BA1
:10059800E70013072008E390E7EEB79700402383AE
:1005A800070A19BBB79700402381070A31B383C6EE
:1005B8008182FD8AB5EA83D66182054693F6F60FF5
:1005C800639EC600896783C7B71193F70702E38460
:1005D80007EA83C7F18193E7170069B703D76182F8
:1005E80089461377F70FE318D7E883D641821307B4
:1005F80000106384E60283D6418213070020638ECD
:10060800E60083D64182130700306388E60003D7EB
:10061800418293070040E311F7CA83C7018393E738
:1006280007082388F18249B983C681820946FD8A71
:10063800E394C6C803D761821377F70FE31E07C692
:1006480083D741821307100893F7F70F6381E702F6
:1006580013072008E391E7E2379700408347670ACA
:1006680093F7C70F93E717002303F70AB1B137973A
:1006780000408347270A93F7C70F93E71700230122
:10068800F70A1DB92380060069BD03C78182239C30
:1006980001C67D8B19EB83C7F181858BBDC3894763
:1006A80003D721822380F60041B503C7818209461A
:1006B8007D8B631CC70403D641829305100813760B
:1006C800F60F6313B602B797004083C7270A8D8BCE
:1006D80005466394C7002380F60083D72182E37D13
:1006E800F7BC2391E182C9BE83D741821306200853
:1006F80093F7F70F6392C702B797004083C7670A5B
:10070800F9B703D72182894705B583D72182E374D6
:10071800F6D62391C18285B383D72182E37DF7D4AE
:100728002391E18289BB83D7218289EBB797004067
:10073800239E07081947238FE7086DBEB797004027
:1007480019473DBBA38F040883D7C40783C7818299
:1007580093F7070685C783C781821307000293F7BB
:100768000706639DE70003C79182A5476318F70052
:1007780003C781C72380E1842391018283D7218223
:10078800E39A07B665B78547630FF70C8947630790
:10079800F710E31907B683D7218281E79947A38F1A
:1007A800F40883C7818293F70706ADEF83C7918268
:1007B800954613F7F70F638AD70899476310F70A26
:1007C80003D721829307F0031304000463E6E700CC
:1007D80003D421823344040883A4C1822286A685D7
:1007E800138581C7971000E0E780A09E83D72182F8
:1007F800A29423A69182818FB3C707082391F1821F
:10080800B7970040239E870803C7E70913474700A7
:10081800238FE70803C7E7091377C70F1367270074
:10082800238FE70883C701839397476063D6070040
:10083800971000E0E780409B379700408347E7091F
:1008480093F7F707230FF70875BC83C7018237971B
:10085800004093F7F70FA301F700E9B7B7970040F7
:10086800239E0708C1B783C7240A93F7C70F2381BC
:10087800F40A83C7240A93C747002381F40A93879D
:10088800018603C717001377E70FA380E70083C724
:10089800240A93F7F7072381F40AADB483C7640ADF
:1008A80093F7C70F2383F40A83C7640A93C74700E3
:1008B8002383F40A9387018603C727001377E70F7A
:1008C8002381E70083C7640A93F7F7072383F40AB1
:1008D80015BC9377070491C7930700042384F40099
:1008E80015B4937727009DCF89472384F40003C765
:1008F800A400098B0DC303C7F18113672700A38FD9
:10090800E18003C7F1818D47E31EF79E971000E051
:10091800E7800010C5BA03C7F1811377D70FA38FFB
:10092800E180CDB2937717008DC3A3800182238025
:100938000182A38F0180238F0180A3810400971077
:1009480000E0E7806097854751BF2384E4005DBAE3
:1009580037470040834747809146BD8B6398D7004F
:100968008347878093F7F70FA38FF18273002030B6
:1009780037370040834767C0858B95C78547230372
:10098800F7C0971000E0E78000CF971000E0E780FD
:1009980040F783C7E18381CB83C7D183850793F76A
:1009A800F70FA38EF18273002030411122C683A76E
:1009B800C18591C783A7C185829723AE018432443C
:1009C800410173002030B7F70700D853411123AC19
:1009D800E184B7170040984B1367070198CB03C70A
:1009E80007011377E70F2388E70013078008733799
:1009F8000780137787083AC60F10000013077005A1
:100A08002380E704130780FA2380E7040F1000000F
:100A18001307000C6319E50203D787001367070C57
:100A28002394E700B717004003C7070113671700AF
:100A38002388E70023800704B247F3A707800F1035
:100A480000004101828003C7A70093760520C9C230
:100A5800118B39E703C7E70403C6E7041377F70FD9
:100A6800136636002387C70403C6A700136646002B
:100A78002385C70003D6870083D587003346060839
:100A880093E5050C2394B700A5470100FD1793F7DC
:100A9800F70FE5FFB71700402394C7002387E70443
:100AA80093770510DDCB371700408347A70093E7FE
:100AB80007012305F7009377F50185E3B727004081
:100AC80003C7578013670701A382E7801D4715A056
:100AD800136727002385E700E1B72547636BF70411
:100AE800B727004003C757801377F70EA382E78024
:100AF8000547A383E78033450508B7170040136708
:100B0800050C2394E7002394A700C9C203C7570420
:100B180083C65704418B858A558F09F703C7270178
:100B2800418B09D303C7A7001377D70F2385E700A5
:100B3800D5BD9377050199EBB727004003C75780C8
:100B48001377F70EA382E780094765B7B7270040F8
:100B580003C757801377F70E85BF9377850181EF19
:100B6800B727004003C757801377F70EA382E780A3
:100B780013071005BDBFB727004003C75780137779
:100B8800F70EA382E78013077005A5B703C7A70070
:100B98001377B70F61BF37E700E01C4354437D5616
:100BA800A183E206D58F9306071890C2D0C2B70674
:100BB800002037160020938506001306E69A03A83E
:100BC800850390DD23AEA1849165130507100CC140
:100BD800130707200CC39386060003A7C18575FF7A
:100BE80037E700E011662320C7180F10000023AC78
:100BF8000603939687002320D710E1832322F7105A
:100C08008280170300E0E702C3594111814601467B
:100C180081451145F52A93078008F3B7078093F7B4
:100C280087083EC60F100000B7170040130770056D
:100C38002380E704130780FA2380E7040F100000DD
:100C480003C76704136717002383E7042380070497
:100C5800B247F3A707800F1000004101170300E017
:100C68006700635637E700E01C435443A183E2065C
:100C7800D58F1CC1FD572320F7182322F71882802F
:100C880013178500B7E700E023A0E710618123A2CE
:100C9800A7108280411181460146814511458D2A60
:100CA80013078008F337078093F787083EC40F10AF
:100CB8000000B7170040130670052380C704930689
:100CC80080FA2380D7040F100000FD552396B70241
:100CD80023800704A245F3A505800F100000733791
:100CE8000780137787083AC60F1000002380C704CF
:100CF8002380D7040F10000003C767041367170089
:100D08002383E70423800704B247F3A707800F1063
:100D1800000001A09307E0043305F5029547335519
:100D2800F50201007D1575FD8280170300E0E702DA
:100D380043472A841305803E7D14E93F3344040861
:100D480075F8170300E0670003482E96AA870F700E
:100D5800B67882802303048015472303E4800100CA
:100D68002302A480828083076480E3CE07FE2303E6
:100D78000480828083076480E3CE07FE03454480B5
:100D8800828083076480E3CE07FE2302A4808280EA
:100D9800411126C44AC24EC006C61377F50BAD47AB
:100DA800AA892E8995446306F70019456537653F7A
:100DB8008D444E854537FD59FD1463983401B24082
:100DC800A2441249824941018280135509011375D1
:100DD800F50F453F2209CDB7011126CC06CEB70441
:100DE800080051371545BD37713769372AC6A53F01
:100DF80032459377150089EB136515001375F50FC8
:100E0800F240E24405618280FD14E9FC0145CDBF52
:100E18003971B7F7070006DE26DC4ADA4ED852D613
:100E280056D45AD25ED062CE03AB47027D57B7E79D
:100E380000E083AA070022C603AA470023A0E718F8
:100E480023A2E718B71B0040930770052380FB0413
:100E5800930780FA2380FB0483C74B041147AA89B0
:100E680093E7070E2382FB04372400401305F00F95
:100E78002303E4802E8C3289B684E93DED359387CF
:100E880079FF93F7F70F0947137BFB006362F712AB
:100E9800A147370708006307FB00B70707003E9C18
:100EA800378707007955637EEC02B3878401636A4C
:100EB800F702A9476398F90689E481446D352685C8
:100EC8000DA0E2850945E93505090345F9FFFD143B
:100ED800050C453D81C49377FC0FFDF7F53D69FD91
:100EE8007D55B7170040130770052380E7041307E3
:100EF80080FA2380E70403C74704418B2382E70471
:100F0800F250B7E700E023A0571123A24711E2549B
:100F180032445259C259325AA25A125B825B724CFD
:100F280021618280A547639AF906A1478569631DF7
:100F3800FB029387F9FFB3869700B374FC00B6945D
:100F480093C7F7FFFD8C33FC8701416B856B938753
:100F5800F9FFB3F7870199E363FF340193D9490097
:100F6800C147E3E637FF91BF9307F00FE9B78567FD
:100F7800C169FD17C9B71305800D63886901130599
:100F880000026384790113051008E2851135A9353B
:100F980021D94E9CB3843441C1B7E2852D45CD3B60
:100FA800CA94E30C99F00509F133A30FA9FED5BF44
:100FB8009387F9FF93F7F70F636FF70AA147631950
:100FC800FB06B70708003E9C83C75B04370707008A
:100FD80093F7070299E337870700B70708003E979A
:100FE8007955E370ECF0B3079C00E36CF7EE8947A2
:100FF800639AF9048980D549E38104ECE2850945BF
:10100800413B11090327C9FF91472320E4800307C7
:101018006480E34E07FE23033481FD17EDFBFD14C6
:10102800110C81C49377FC0FE9FF7D3371F54DBD39
:1010380083C75B043707070093F70702D5F33787A1
:10104800070079BF8547E384F9F2E2852D458933A6
:101058009389F4FFE38304E6313B93F7390091EB7E
:10106800832604800327090093074900E398E6E4F0
:101078003E89CE84F1BFB5476396F9001305900BFE
:10108800D13925BDB1471305B00AE38BF9FE99475D
:101098006394F904A1476315FB00B70708003E9C59
:1010A800E2852D45F53181440D4BA149E131639627
:1010B8006401832704802320F9008504E39834FF22
:1010C8008327048013172C01635507002312F900A6
:1010D800EDB32322F900D5B39D476399F902814501
:1010E8001305B0047531BD442320090023220900EB
:1010F800FD59493193F77400CA9703C70700FD14D7
:10110800398D2380A700E39634FF45BB9147639947
:10111800F900130560063D39B931130590098DB7FB
:08112800E38D09D8F15459BB15
:10113000971100209381818317F10120130181EC25
:101140001305400097F5FF1F9385C5EB17F6FF1FAA
:101150001306860B63FAC5008322050023A0550001
:1011600011059105E3EAC5FE17F5FF1F130565FF9D
:101170000285397101436EC619A0397141536AC89D
:1011800066CA62CC5ECE19A0397101535AD056D2CC
:1011900052D44ED64AD826DA22DC06DE330161402C
:1011A000828241114AC026C222C406C68282B24D42
:1011B0004101024D924C224CB24B4101024B924AEA
:1011C000224AB2494101024992442244B2404101BB
:1011D00082802A8309CA83830500230073007D1659
:1011E000050385056DFA828083C7018393F7F707AE
:1011F0002388F18283D64182130700106399E602A7
:10120000B797004003C757001377070FA382E70083
:1012100003C7570013671700A382E7003797004002
:101220008347570093E70708A302F700828083D61D
:10123000418213070020639FE600B797004003C771
:1012400057001377070FA382E70003C75700136700
:101250002700D9B783D6418213070030639FE60089
:10126000B797004003C757001377070FA382E70023
:1012700003C757001367870045B703D74182930719
:101280000040E31DF7F8B797004003C757001377F6
:10129000070FA382E700371700201307C712F8C70C
:1012A000130750032396E70A09472387E70A03C772
:1012B0005700136747008DB7B79700401D47239825
:1012C000E70005472399E70013070004F8CF130749
:1012D0000020B8D3F8D3138781C798D3138701A709
:1012E000B8C3371700201307871DF8C3238F0708DB
:1012F0000947A38FE7082381070A2383070A138777
:1013000001868147C1463306F700230006008507A2
:10131000E39BD7FE828021CDEFF2BFE8B7170040F4
:1013200003D7870037940040136707342394E700FE
:1013300011472300E42003D7A70113670702239D69
:10134000E700A5472300F4009307F0052301F4000C
:10135000A5378547A300F400930780FB2300F40022
:1013600013070002B7E700E023A2E710A9BD371773
:10137000004083578700B3C7070893F7F7CBB3C77D
:1013800007082314F700B797004083C6072093F699
:10139000B60F2380D720144F93F6F6FD14CF03C762
:1013A0000700136727002380E70003C707001377B0
:1013B000D70F2380E700B7E700E01307000223A25E
:1013C000E7180F1000008280EFF2BFDD9307F5FFF2
:1013D0002A8493F7F70F3945636AF508B7970040F9
:1013E00003D50701B317802805481375F50FE98F5A
:1013F0000145B1CF138501862295034505009384ED
:101400000186058925E53289A1E6B7270010938773
:10141000F740A2978A078CC3B387840003C70700ED
:101420000545136717002380E700B727101093873F
:1014300077423E940A04231024018347240093F743
:10144000C70F2301F40093E727002301F400A5BB95
:10145000E39F06FFB72700109387F740A2978A07FC
:101460008843B70700203E95AD337DB70145C5B72A
:10147000379700408347470093E717002302F700A0
:101480008280EFF21FD2B7170040116723ACE70A42
:10149000C1450545EF00D00085452165192D8D45D5
:1014A0001165012DEF00302039BBEFF29FCF1305FE
:1014B000503497F0FF1FE7808051E137096513052D
:1014C00045FEEF00102871651305052059200965B8
:1014D00013054501EF00F0260146C1450545EF0023
:1014E000607E014689450545EF00C07DBD2A492241
:1014F000096513058502EF00D024D52EF52E096568
:101500001305C503EF00F023096513050586EF00F9
:10151000701537370040834727C037E400E009657E
:1015200093E717002301F7C085472322F410130522
:101530000505EF0010210545F93B93070002232222
:10154000F41083C7E181F5DF4922092E31219D2066
:10155000CDBFEFF21FC5B71700401307000823AC3B
:10156000E70A2A84854513050004A1238D45130548
:10157000000881232285EF001016B74700401307AB
:1015800070F82381E7800D47A381E78013070004EB
:10159000A380E78005472387E7800D45EF005016BD
:1015A00095450545EF007017B7E700E0094723A20E
:1015B000E71011B9EFF2FFBE83C4C183B9E083C65F
:1015C000F18391476381F60283C6F183E947638C17
:1015D000F60083C6F183D9476387F60083C6F1839B
:1015E0009D47639FF60003C7F1839387418423A03F
:1015F000070023A207002381E7008547238EF1829D
:10160000D9B60549639024038546214693854184D4
:1016100005455D3BE31695FEA38E0182238FA182D3
:101620008947E9BF89476392F40203C7D1839307CF
:101630001003E3F7E7FC238F01829387418423A003
:10164000070023A207008D4755BF8D47E39AF4FAA0
:1016500085462146938541840545BD33E31225FB2C
:10166000A38F0182238E018261BF85453D45C9A1BB
:1016700089453D457DA383D7A183A9468507B3C787
:101680000708B3F6D702239DF18285E6239D0182E8
:1016900003D78183B717004083A7470CBD8B631521
:1016A000F70285462386D184B71700202395E716D5
:1016B00082801547B3F7E70281EBB717004083A795
:1016C000470CBD8B239CF1828280EFF2FFAB03C7F6
:1016D000C1846301071823860184B7190020371AD3
:1016E000002003D7A91683578A166305F716014B06
:1016F000914A9384418483D7A91603578A16B98FD8
:10170000B3D76749E9C383D7A91603C47183B3D795
:101710006749F5C363130B0209456947A147B386BF
:10172000A40083C606006382E6080505E319F5FEFA
:10173000A38204009307F4FFF9A085476313FB021B
:1017400009451147A147B386A40083C60600638EEE
:10175000E6040505E319F5FEA38204009307F4FFF0
:10176000C9A0894709456300FB021D47A147B3860D
:10177000A40083C60600638AE6020505E319F5FEA8
:10178000A382040035A809455947A147B386A400A0
:1017900083C60600638BE6000505E319F5FE7D149C
:1017A000A38204001374F40F61A81375F50F930559
:1017B00015001D46098EA6952695213CA38304009D
:1017C0007D14A38B8182050BE3175BF383D7A916E6
:1017D0000547B3C707082314FA16238BE182854611
:1017E0002146938541840545C53685476317F5062F
:1017F000238B01829DA093071400631C0B00269489
:1018000069472301E40093F7F70FA38BF182054B9F
:10181000DDB505470904631CEB002694114723003E
:10182000E40093F7F70FA38BF182094BE9B5094761
:101830002694631BEB0059472300E40013F4F70FD1
:10184000A38B81820D4B45BD1D472300E400A38B74
:10185000F18295BF83C76183D9F38DB2EFF27F9494
:1018600003C7018483C711846305F70683C7018416
:1018700003C71184B98F858B89CB83C70184858B7E
:10188000B9CB0965130545166D2D83C7018403C7C0
:101890001184B98F898B89CB83C70184898BA1C3BC
:1018A000096513054519712D83C7018403C7118488
:1018B000B98F918B89CB83C70184918B8DC70965C3
:1018C0001305451CBD2D83C7018493F7F70FA38033
:1018D000F1846FF05F8F09651305C51775B709654A
:1018E0001305C51AC9B709651305C51DE1BF05650F
:1018F0008545130505F075AA05658945130505F0AD
:101900007DA483D7418385468507B3C70708239AFB
:10191000F18263F7F60203D62183B717004083A74D
:10192000470A239A01820567130707F0F98F6314AA
:10193000F602B71700202396C716238AD184828027
:1019400099CBB717004083A7470A0567130707F02D
:10195000F98F2399F182828003C741851DE383C7F4
:101960001183D5C7EFF2FF83854611469385018524
:101970000945993C85476314F500A38801826FF0FF
:101980009F84238A018423A8018481450147A147BC
:101990000146B718002031482143254EA94E03D5F2
:1019A000C8163355F54839E5639C670013860185F1
:1019B000834716008907A300F6000546A547C5B76B
:1019C000639CC7011386018583471600F917A3009E
:1019D000F6000546A947E1B76399D70109071377D0
:1019E000F70F85450546AD475DBF79171377F70FAC
:1019F000854505468507E39407FB89C593860185E0
:101A00002381E60029DE0547A388E182A1BF828009
:101A1000EFF22FF909651305851F252393070008A9
:101A2000739007800F100000379600408347060030
:101A300085663717004093F7770F2300F6009386EB
:101A400006F0231ED7083D45B7F700E0231FA7087F
:101A5000938707D08C4B93E585028CCB8C4B93E519
:101A600085008CCB730050108C4B93E585008CCB9C
:101A7000730050108347060093E787002300F600A9
:101A80008357C709F58F99CF231ED708EFF05F9EC4
:101A90009307800873900780096513050520552179
:101AA0006FF06FF28357E709BD8BFDD3231FA708A3
:101AB000F1BF914763EAB704896793878720B3C56D
:101AC000F5209841B71700409387470B028794434E
:101AD00037170040B3F6A64094C39306070B9C4209
:101AE000B3F7A74019A8944337170040B3F6A640B0
:101AF00094C39306070B9C42C98F9CC29307070AA5
:101B000098433377A74098C38280944337170040A7
:101B1000C98ED9B798433377A74098C3B717004009
:101B20009387070A9843498FF9BF9843498FF5B7C0
:101B3000914763EAB70489679387C721B3C5F52046
:101B40009841B71700409387470D02879443371792
:101B50000040B3F6A64094C39306070D9C42B3F72A
:101B6000A74019A8944337170040B3F6A64094C382
:101B70009306070D9C42C98F9CC29307070C98439C
:101B80003377A74098C38280944337170040C98EAB
:101B9000D9B798433377A74098C3B71700409387C6
:101BA000070C9843498FF9BF9843498FF5B7894788
:101BB00033470508638BF50463E2B7021346F7FF6A
:101BC0009DE9B717004083D64709F18E239AD708BD
:101BD0009387C70A9443C98E94C321A08D47638C11
:101BE000F502B7170040239EE70883D60709558FF3
:101BF0002398E7088280B717004083D64709F18E03
:101C0000239AD7089387870AF1B7B717004083D67E
:101C10004709D98E65BFB717004083D64709D98ECB
:101C2000C5B79357E50093F70730C98F0947B3C786
:101C30000708638BE5046362B70213C6F7FF9DE9EB
:101C40003717004083566709F18E231BD708130707
:101C5000C70C1443C98E14C321A00D47638CE50241
:101C600037170040231FF70883562709D58F2319FC
:101C7000F70882803717004083566709F18E231BCF
:101C8000D7081307870CF1B7371700408356670949
:101C9000DD8E65BF3717004083566709DD8EC5B7F7
:101CA00009C93717004083578701CD8F231CF700E0
:101CB0008280B717004003D78701B375B740239CD4
:101CC000B7008280411129E593078008F3B70780A8
:101CD00093F787083EC00F100000B71700401307A6
:101CE00070052380E704130780FA2380E7040F10B0
:101CF000000003C7E700B375B7402387B700238010
:101D000007048247F3A707800F100000410182807B
:101D100013078008F337078093F787083EC20F1038
:101D20000000B7170040130870052380070513054E
:101D300080FA2380A7040F10000083C6E700CD8E31
:101D400093E606042387D700238007049246F3A670
:101D500006800F100000F336078093F6860836C41D
:101D60000F100000238007052380A7040F10000038
:101D700083C6F70093F6C60FA387D7002380070416
:101D8000A246F3A606800F10000073370780137772
:101D900087083AC60F100000238007052380A70498
:101DA0000F10000003C7F7007D163336C000518FB7
:101DB000A387E70023800704B247A9B7B7170040FD
:101DC00003D787009306000C1377070C630FD70423
:101DD00003D78700137707101DC703D7870083D762
:101DE00087007D8B09EB93F70720A1C73755E801E2
:101DF00013050580828037C59812FD8B130505E019
:101E00003345F502828003D7870083D78700137795
:101E10000720FD8B11C73755E80113050580CDB7A5
:101E20003725F40013050540E1BF2165130505D0F2
:101E300082803725F4001305054082803285814772
:101E400037370040A14663C3A70082800346B7002E
:101E5000E30ED6FE3386F50003460600850723040D
:101E6000C700D5B7B73700401387C7C008C30947B5
:101E70002380E7C011472380E7C08280EFF26FB272
:101E80002A842D3F2947B307E5028D83B3D7870204
:101E90009507B3D7E70237370040B3C707082316C3
:101EA000F7006FF04FB2EFF2CFAF71651305052069
:101EB000F137B7370040130770F82381E7000D476B
:101EC000A381E70013070004A380E70005472387E9
:101ED000E7006FF04FAFEFF2CFAC2A84C53529474A
:101EE000B307E5028D83B3D787029507B3D7E7021F
:101EF00037470040B3C707082316F7806FF0AFAC31
:101F000037470040834727801A0593F7F703C98FA7
:101F100093F7F70F2301F7808280B747004003C78C
:101F2000178019C94D8FA380E78003C70780136707
:101F300087002380E7808280B375B740A380B78095
:101F40008280011122CC26CA06CE83070500AA840E
:101F50000144A307F100050499EFA9479305F10097
:101F600005460145A307F100D13DF24022856244B8
:101F7000D2440561828005469305F10001457D3D0F
:101F8000B387840083870700E9B70000600300205F
:101F9000840300207A0400207A0400207A040020C0
:101FA0007A0400207A040020BC020020AC02002049
:101FB000340300208E0600204A0500207A04002009
:101FC000B20500207A04002010050020BC03002088
:101FD0007A0400201E050020360500208806002017
:101FE000BC020020436F6D7061746962696C697432
:101FF00079204849442052756E6E696E67204F6E95
:1020000020555342485320436F6E74726F6C6C6559
:102010007200000055534152543220496E697420B9
:102020004F4B210D000000004B42205363616E2096
:10203000496E6974204F4B210D0000004D53205311
:1020400063616E20496E6974204F4B210D000000C2
:1020500054494D3320496E6974204F4B210D0000C7
:1020600016033000310032003300340035003600F2
:1020700037003800390000000C03430048003500E9
:10208000380035000E037700630068002E006300FF
:102090006E0000000A060002000000400000000080
:1020A00005010902A1010901A1000509190129037E
:1020B00015002501750195038102750595018101C2
:1020C00005010930093109381581257F7508950307
:1020D0008106C0C005010906A101050719E029E72D
:1020E000150025017501950881029501750881018A
:1020F00095037501050819012903910295057501DC
:1021000091019506750826FF0005071900299181A0
:1021100000C0000009023B00020100A032090400D7
:10212000000103010100092111010001223E000705
:1021300005810308000A09040100010301020009E6
:10214000211001000122340007058203080001006C
:102150001201000200000040861A00FE0001010288
:10216000030100005475726E206F6E207468652044
:102170004E554D204C45440D000000005475726EC4
:10218000206F666620746865204E554D204C45448E
:102190000D0000005475726E206F6E20746865200B
:1021A00043415053204C45440D0000005475726E5D
:1021B000206F6666207468652043415053204C456B
:1021C000440D00005475726E206F6E207468652097
:1021D0005343524F4C4C204C45440D005475726E85
:1021E000206F666620746865205343524F4C4C2024
:1021F0004C45440D00000000536C6565700D0000F7
:1022000057616B650D000000CE1A0000E61A000051
:102210000A1B0000141B00002A1B00004C1B0000BE
:10222000641B0000881B0000921B0000A81B00001C
:10223000000000000000000000AAAAAAAAAAAAAAF8
:10224000AAEEEEEEEEEEEEEEEEFEFFFFFFFFFFFF7C
:10225000FFFFFFFFFF7FBFDFEFF7FBFDFC7EBFDF70
:10226000EFF7FBFD7E000000000000000F000F00F4
:08227000000F00000403090443
:00000001FF
