:040000006F00101766
:100004000000000000000000A0000020D804002030
:10001400A9BDF9F3A00000200000000000000000CA
:10002400A0000020A000002000000000000000004C
:10003400A000002000000000A0000020000000003C
:10004400A0000020A0000020A0000020A0000020AC
:10005400A0000020A0000020A0000020000000005C
:10006400A0000020A0000020A0000020A00000208C
:10007400A0000020A0000020A0000020A00000207C
:10008400A0000020A0000020A0000020A00000206C
:10009400A0000020A0000020A0000020A00000205C
:1000A40001A0B7170040984B41111367070198CB83
:1000B40003C707011377E70F2388E70013078008B6
:1000C40073370780137787083AC60F1000001307A9
:1000D40070052380E704130780FA2380E7040F10D8
:1000E4000000B847B70600069506558FB8C703C782
:1000F400B7041377F70DA385E70403C7A7001367B5
:1001040027012385E700130750142394E7003727BA
:1001140000408346578093F6F60EA302D7808946A3
:10012400A303D78003C7E7041377C70F1367170028
:100134002387E70403C7F70213672700A387E702AF
:1001440003C70701136717002388E7002380070408
:10015400B247F3A707800F10000041018280EFF03F
:100164005FF413058020970500009385E5091706C1
:1001740000001306E67F63FAC5008322050023A06E
:10018400550011059105E3EAC5FE173500E0130596
:1001940025ED970500009385A57D1386C18563FA37
:1001A400C5008322050023A0550011059105E3EA4B
:1001B400C5FE1385C1859385819C6377B500232093
:1001C40005001105E36DB5FE93025002739002BC65
:1001D4008D42739042808542739012BC93028008D2
:1001E40073900230970200009382C2E193E23200DE
:1001F40073905230971200E0938282867390123487
:040204007300203033
:1002080093870186984309C79C43829723A0018658
:1002180073002030B7F70700DC53411123AEF18497
:10022800B7170040984B1367070198CB03C707011E
:100238001377E70F2388E7001307800873370780D1
:10024800137787083AC60F1000001307700523803C
:10025800E704130780FA2380E7040F100000130750
:10026800000C6319E50203D787001367070C239472
:10027800E700B717004003C7070113671700238873
:10028800E70023800704B247F3A707800F10000098
:100298004101828003C7A70093760520C9C2118B4C
:1002A80039E703C7E70403C6E7041377F70F1366B4
:1002B80036002387C70403C6A700136646002385B4
:1002C800C70003D6870083D587003346060893E521
:1002D800050C2394B700A5470100FD1793F7F70F06
:1002E800E5FFB71700402394C7002387E7049377F7
:1002F8000510DDCB371700408347A70093E70701B8
:100308002305F7009377F50185E3B727004003C776
:10031800578013670701A382E7801D4715A013675D
:1003280027002385E700E1B72547636BF704B72764
:10033800004003C757801377F70EA382E78005476D
:10034800A383E78033450508B71700401367050CFA
:100358002394E7002394A700C9C203C7570483C6A0
:100368005704418B858A558F09F703C72701418BAD
:1003780009D303C7A7001377D70F2385E700D5BD97
:100388009377050199EBB727004003C75780137788
:10039800F70EA382E780094765B7B727004003C770
:1003A80057801377F70E85BF9377850181EFB727BD
:1003B800004003C757801377F70EA382E78013071F
:1003C8001005BDBFB727004003C757801377F70E46
:1003D800A382E78013077005A5B703C7A7001377A3
:1003E800B70F61BF37E700E01C4354437D56A18334
:1003F800E206D58F9306071890C2D0C217060000F0
:10040800130646E097060000938686BF8C5E90DE52
:1004180023A0A18611661305071010C11307072032
:100428001388018610C30327080075FF37E700E02B
:1004380011662320C7180F1000008CDE93968700E2
:100448002320D710E1832322F710828001118146EF
:1004580001468145114506CEDD2A93078008F3B78A
:10046800078093F787083EC60F100000B7170040B3
:10047800130770052380E704130780FA2380E70435
:100488000F10000003C76704136717002383E704EE
:1004980023800704B247F3A707800F100000F2403B
:1004A8000561828037E700E01C435443A183E206DC
:1004B800D58F1CC1FD572320F7182322F7188280F7
:1004C80013178500B7E700E023A0E710618123A296
:1004D800A710828041118146014681451145852A30
:1004E80013078008F337078093F787083EC40F1077
:1004F8000000B7170040130670052380C704930651
:1005080080FA2380D7040F100000FD552396B70208
:1005180023800704A245F3A505800F100000733758
:100528000780137787083AC60F1000002380C70496
:100538002380D7040F10000003C767041367170050
:100548002383E70423800704B247F3A707800F102B
:10055800000001A09307E0043305F50295473355E1
:10056800F50201007D1575FD8280411122C406C681
:100578002A841305803E7D14F13F3344040875F83E
:10058800B2402244410182802E96AA870F70B67825
:1005980082802303048015472303E480010023029B
:1005A800A480828083076480E3CE07FE230304804F
:1005B800828083076480E3CE07FE034544808280FF
:1005C80083076480E3CE07FE2302A4808280411162
:1005D80026C44AC24EC006C61377F50BAD47AA8992
:1005E8002E8995446306F70019456537653F8D44A4
:1005F8004E854537FD59FD1463983401B240A24435
:100608001249824941018280135509011375F50F7A
:10061800453F2209CDB7011126CC06CEB704080004
:1006280051371545BD37713769372AC6A53F324559
:100638009377150089EB136515001375F50FF240D4
:10064800E24405618280FD14E9FC0145CDBF3971A2
:10065800B7F7070006DE26DC4ADA4ED852D656D45B
:100668005AD25ED062CE03AB47027D57B7E700E0AF
:1006780083AA070022C603AA470023A0E71823A2DB
:10068800E718B71B0040930770052380FB04930706
:1006980080FA2380FB0483C74B041147AA8993E798
:1006A800070E2382FB04372400401305F00F2303B1
:1006B800E4802E8C3289B684E93DED35938779FF45
:1006C80093F7F70F0947137BFB006362F712A14703
:1006D800370708006307FB00B70707003E9C37870A
:1006E80007007955637EEC02B3878401636AF702D9
:1006F800A9476398F90689E481446D3526850DA0DC
:10070800E2850945E93505090345F9FFFD14050C9E
:10071800453D81C49377FC0FFDF7F53D69FD7D5597
:10072800B7170040130770052380E704130780FA02
:100738002380E70403C74704418B2382E704F25070
:10074800B7E700E023A0571123A24711E25432442F
:100758005259C259325AA25A125B825B724C2161B9
:100768008280A547639AF906A1478569631DFB0244
:100778009387F9FFB3869700B374FC00B69493C7C8
:10078800F7FFFD8C33FC8701416B856B9387F9FF7D
:10079800B3F7870199E363FF340193D94900C1474F
:1007A800E3E637FF91BF9307F00FE9B78567C169A3
:1007B800FD17C9B71305800D638869011305000289
:1007C8006384790113051008E2851135A93521D90B
:1007D8004E9CB3843441C1B7E2852D45CD3BCA94C4
:1007E800E30C99F00509F133A30FA9FED5BF938750
:1007F800F9FF93F7F70F636FF70AA1476319FB0631
:10080800B70708003E9C83C75B043707070093F7C8
:10081800070299E337870700B70708003E9779551D
:10082800E370ECF0B3079C00E36CF7EE8947639A3A
:10083800F9048980D549E38104ECE2850945413B07
:1008480011090327C9FF91472320E4800307648027
:10085800E34E07FE23033481FD17EDFBFD14110C55
:1008680081C49377FC0FE9FF7D3371F54DBD83C7D4
:100878005B043707070093F70702D5F337870700AC
:1008880079BF8547E384F9F2E2852D458933938959
:10089800F4FFE38304E6313B93F7390091EB8326B9
:1008A80004800327090093074900E398E6E43E899A
:1008B800CE84F1BFB5476396F9001305900BD13983
:1008C80025BDB1471305B00AE38BF9FE9947639438
:1008D800F904A1476315FB00B70708003E9CE285B1
:1008E8002D45F53181440D4BA149E13163966401F1
:1008F800832704802320F9008504E39834FF8327A5
:10090800048013172C01635507002312F900EDB377
:100918002322F900D5B39D476399F9028145130550
:10092800B0047531BD442320090023220900FD5974
:10093800493193F77400CA9703C70700FD14398D2E
:100948002380A700E39634FF45BB91476399F900DC
:10095800130560063D39B931130590098DB7E38D4C
:0809680009D8F15459BB00004D
:10097000971100209381018A17F1012013018168EA
:100980001305400097F5FF1F9385C56717060020E4
:100990001306868763FAC5008322050023A055004D
:1009A00011059105E3EAC5FE17F5FF1F1305657BE9
:1009B00002852A8311C62300B3007D16050365FE58
:1009C000828079711385818106D622D426D24AD0BD
:1009D0004ECE52CC56CAEF00F01A9305F1001385A3
:1009E0008194EF00207935E103C781948547130591
:1009F000100463FCE704972400009384643C0144E2
:100A00009709002093898901170A0020130A4AF6E2
:100A10001949B307340183CA07002685EF009016F1
:100A20009305F10033055A01EF00C07419ED050478
:100A3000A104E31024FF13850181EF00B014930596
:100A4000F10013858194EF00E072B2502254925469
:100A50000259F249624AD24A456182807971114550
:100A600006D622D426D24AD04ECE52CC56CA5AC826
:100A70005EC60D221305503497F0FF1FE780007A01
:100A8000154597000020E780C0AE85450545F52A4D
:100A90003714004011679307840B98C3C14505457F
:100AA000D922854521653D2A8D451165252AE126F6
:100AB00083451404172500001305852C0969EF00F0
:100AC000506C9387818C23A4F1869387818823A21D
:100AD000F186EF00501D172500001305A52BEF1020
:100AE000600D0144B7890040054AD54A938481933B
:100AF0001309198D094B938BC18683C76900858BB8
:100B0000A9E783C70B00F5DB1305800C238601865C
:100B100097000020E780E0A5EF00503983D744001C
:100B2000639D270303D764008D67938707D01377EE
:100B300007F06314F702172500001305A526EF1030
:100B40006007C157A381F4004DBF23834901BD2E27
:100B5000E30C55FB83C7C1867DB703C52400CD2EAA
:100B60008D3541FD636F8B00854705041305401FDC
:100B70002386F1861374F40F97000020E780609FAE
:100B8000ADBF172500001305A522EF10A0020545F3
:100B9000C12601A0371700408347E7041205411121
:100BA000BD8BC98F93F7F70F93068008F3B60680C5
:100BB00093F6860836C60F100000930670052300D2
:100BC000D704930680FA2300D7040F1000002307F0
:100BD000F70423000704B247F3A707800F100000B3
:100BE00041018280914763ECB70497270000938707
:100BF0002720B3C5F52098413E97B717004093874B
:100C0000470B0287944337170040B3F6A64094C3BE
:100C10009306070B9C42B3F7A74019A894433717D4
:100C20000040B3F6A64094C39306070B9C42C98FBD
:100C30009CC29307070A98433377A74098C38280E2
:100C4000944337170040C98ED9B798433377A740EC
:100C500098C3B71700409387070A9843498FF9BF95
:100C60009843498FF5B709C9371700408357870163
:100C7000CD8F231CF7008280B717004003D7870170
:100C8000B375B740239CB7008280797106D622D411
:100C900026D24AD04ECEB717004003C7470203C73B
:100CA000570221E5130780087337078013778708F9
:100CB0003AC20F100000130770052380E7041307E2
:100CC00080FA2380E7040F100000238207022380AC
:100CD00007049247F3A707800F100000B250225478
:100CE00092540259F2494561828093F7050893F6C0
:100CF0003500054789C793D5254813E72500930498
:100D00008008F3B7048093F787083EC40F100000F3
:100D1000371400409309700523003405130980FA45
:100D2000230024050F1000002302E402A302D402D2
:100D300023000404A247F3A707800F100000054515
:100D400097000020E7808081F3B4048093F4840846
:100D500026C60F10000023003405230024050F10C1
:100D600000008347440293E7C7002302F4022300F4
:100D70000404B24785B7B717004003D7870093062E
:100D8000000C1377070C630FD70403D78700137782
:100D900007101DC703D7870083D787007D8B09EB1A
:100DA00093F70720A1C73755E80113050580828016
:100DB00037C59812FD8B130505E03345F502828097
:100DC00003D7870083D7870013770720FD8B11C7D0
:100DD0003755E80113050580CDB73725F400130515
:100DE0000540E1BF2165130505D082803725F40059
:100DF0001305054082803285814737370040A14680
:100E000063C3A70082800346B700E30ED6FE338695
:100E1000F5000346060085072304C700D5B79706EB
:100E20000020938626BFAA8788421387819CAA97B1
:100E300063E9E7000A87130707FC6364F7009CC2B5
:100E400082807D558280411122C406C62A842537BE
:100E50002947B307E502B2408D83B3D78702224406
:100E60009507B3D7E70237370040B3C70708231603
:100E7000F70041018280716541111305052006C606
:100E8000D937B7370040130770F82381E7000D47C3
:100E9000A381E70013070004A380E7000547238729
:100EA000E700B24041018280B787004003C70700D6
:100EB0001377F70B2380E70003C767021377F70761
:100EC0002383E7028280239C01928280411122C405
:100ED00006C6378700408347570013848193034534
:100EE0000400858BA1C311C5834717000145858B7D
:100EF00095E7D13FB787004083C75700172500000B
:100F0000130545F093C7270093D717482301F40032
:100F100085472300F400EF00F0495545B2402244D4
:100F20004101828065DD453717250000130545EE38
:100F3000EF0050485945DDB73787004083473700F9
:100F40001375F50793F70708C98FA301F70082808F
:100F500011C199BF378700408347070093E7070413
:100F60002300F70082804111A147014506C622C433
:100F7000A386F18637840040C1378347140093F776
:100F8000E70FA300F4000D37834714003D4593F7A6
:100F9000970F93E72700A300F40097F0FF1FE78067
:100FA000405D834714001305A00F93F7D70FA300EC
:100FB000F40097F0FF1FE780605A85472303F40091
:100FC000B2402244410182809386819383C7060008
:100FD00081E785472380F600B787004003C75700A5
:100FE0005945058B05CF03C71700058B19EF03C7BC
:100FF0005700098B133617002381C60019C703C792
:10100000170013674700A380E70037870040834736
:101010001700014593E71700A300F700828039719C
:1010200022DC26DA4AD84ED652D456D25AD05ECED8
:1010300062CC66CA6AC86EC606DEB78700402387E0
:10104000B70237890040AA8932842385B702935AB0
:1010500045008144930D6900894B054A554C938C9A
:1010600081930D4B7D5D2304390323807D0193071C
:10107000003203C70D00098B09E7FD17B3C7070846
:10108000EDFB2304090283C70D00898BA5CF83C71D
:101090000D00858B9DC323804D010D3D631485019B
:1010A0002386418783C70C00D5CB638B470B130581
:1010B000800C97F0FF1FE780604A83C70D00898B83
:1010C000D9CB8347790093F70704C9EF034579002B
:1010D000B9473D89630AF508A947631DF50041C872
:1010E000FD576303F4007D143D4597F0FF1FE78033
:1010F000E04695BFA547638CFA02B5476385FA02BF
:1011000063834A031305E00FF2506254D2544259EC
:10111000B259225A925A025BF24B624CD24C424D67
:10112000B24D2161828019C913650502F1BF85673F
:1011300093879780B3D7A700858BFDD785043D455E
:1011400093F4F40F97F0FF1FE7804041E39D64F1B3
:101150001305000255BF2380AD01CDB759456DB7CA
:1011600055455DB701454DB71305E00271BF130545
:10117000A00259BF011126CA4AC8AE842A891305A4
:10118000800C06CE22CC4EC652C456C25AC097F02E
:10119000FF1FE780A03C99C02380040037840040F3
:1011A000A147096A2306F40213060A718145130553
:1011B000000DB535631E0516930700FD2307F402E5
:1011C0002305F40285472306F402938A418683A708
:1011D0000A0017250000130565C403C4770003C780
:1011E00067002204598CA285EF00A07963000410E7
:1011F000630E090E83A70A0017250000130505C317
:1012000083C50700EF00E07783A70A008387070004
:1012100063C90706138BD186B7890040130A0A7188
:101220001305800C97F0FF1FE780403383470B00C6
:101230006374F4009377F40F2386F902814703C7A0
:10124000C9026395E71283C5E90252864145C13B55
:1012500065E183C7C902B307F44033C4070881C8F6
:1012600083C7C90203C70400BA972380F4004DF86E
:1012700083C5040017250000130585BCEF006070CE
:10128000B5A0B7890040130A0A71938A8186138B2F
:10129000D1861305800C97F0FF1FE780202C83C5B3
:1012A000A9025286130500099D3B59E103C7890035
:1012B0009377F40F6376870083C7890093F7F70F5E
:1012C0001D8C3344040891C403C704003E97238057
:1012D000E40001479376F70F6396D7063E9983C7DC
:1012E0008900A5EFB7870040238607021305800C0D
:1012F00097F0FF1FE7808026B787004083C7C702AB
:10130000414599C313050009096613060671930543
:10131000000C313311EDB787004003C7C7021375C6
:10132000F70F19C783C7870013F5F70F91C35D4502
:10133000F2406244D2444249B249224A924A024BA4
:101340000561828083A60A00BA9603C60600B3062A
:10135000E90005072380C600B5BF83470B0003C71C
:101360008900FD17F98FBDFF0DF4ADBF03A70A007B
:101370008346090005093E9785072300D70093F7A8
:10138000F70F75BD814793854186A1463307F50068
:101390000346070098413E972300C7008507E3975F
:1013A000D7FE8280011122CC06CEA147138581830E
:1013B0001384D1862300F400F1379305F1001385DF
:1013C00081944D3B19E90347F10083C7F194230051
:1013D000F400C54763E3E7005D45F2406244056100
:1013E000828001111385018306CE22CC26CA593F83
:1013F0009305F10013858194B53B15ED0347F1008A
:101400008D475D4563F9E7029384819403C43400FA
:1014100083C724001385018322045D8CA307810008
:10142000953783A7418623838700A383070093050D
:10143000F10026858133F2406244D2440561828006
:10144000411126C2AA841385818206C622C41D3F8B
:1014500083A7418623819700A38107008145014529
:10146000113B2A8401E92685C13C294597F0FF1FDD
:10147000E7802010B24022852244924441018280BC
:10148000411122C42A841385018206C6E53D83A743
:101490004186238187002244B240A3810700814511
:1014A00001454101C1B9411122C406C6B7870040B8
:1014B000130700F82380E7003784004083470400C7
:1014C00093974760E3DC07FEA3000400A301040038
:1014D00093078004A306F40083A781861CCC83A70E
:1014E00041865CCC2305040223070402930790F88D
:1014F0002300F400930700042303F402FD572303A1
:10150000F400D1328D472301F400B24022442386F7
:10151000018641018280797126D24AD006D622D432
:101520004ECE52CC56CA5AC85EC62A89AE84A1C9CC
:1015300031479387F5FFB387E70213870191BA9785
:10154000239007002391070001448149954A0D4BE0
:10155000C14B8347390003472900A207D98F63E5B0
:10156000F9022945B129B2502285225492540259D8
:10157000F249624AD24A424BB24B45618280239083
:10158000019423910194C9B7330A390183471A00A2
:10159000639C570583473A008D8B639767058347A4
:1015A0002A00139747606351070493868193BD8B8C
:1015B0003387860091C831471386F4FF3306E6026D
:1015C00013878190329722972304F700A29683C550
:1015D0008600172500001305658705045D26137432
:1015E000F40F8D47E3EF87F683470A00E3EBFBF642
:1015F000CE9793F9F70FB1BF011122CC2A8413853E
:10160000018526CA4AC806CE13894186A53B832791
:1016100009001374F40F814423828700A38297008A
:101620009305F10013858194B13619ED13858184FA
:10163000913B832709009305F10013858194238250
:101640008700A38297003D36F2406244D24442496B
:101650000561828001111385018406CE253393052F
:10166000F10013858194393619E50347F100A1474C
:1016700063E3E7005D45F2400561828083A7418610
:10168000130730022380E7000D472381B700238230
:10169000A700A380E700A3810700A382070023839C
:1016A0000700A383070081450145E9B4011117151F
:1016B00000001305257A06CE22CC26CA4AC84EC69B
:1016C00052C456C2C529EFF01F8A81440144130950
:1016D0004006054597F0FF1FE780A0E9EFF0DF8E99
:1016E00001E9850493F4F40F636F99240544D5B799
:1016F00005041374F40FE31E24FDEFF0CFFC17254F
:101700000000130525837D21594465A8B30789008E
:1017100083C507005285B524130514001374F50F13
:10172000E36634FF2945692C8357890083C9A18268
:101730004E852392F4008357A900034A490023935E
:10174000F400FD392A846313051E171500001305E4
:10175000E571A3803401352469312A846318051C9E
:101760000144971900009389E96F11A8B307890014
:1017700083C507004E85050429241374F40F83578D
:101780002900E365F4FE2945252C83495900834A45
:10179000E90063120A10A147639FFA024E85CD311A
:1017A0002A84631505188D472380F400A381540112
:1017B000171500001305856CF52E0545EFF04FF960
:1017C0000144F24022856244D2444249B249224A4D
:1017D000924A056182809D476396FA020347F900A9
:1017E0008547631AF7124E8561392A846310051400
:1017F0008D472380F400A3815401171500001305C1
:10180000E5685DBF8D476398FA100347F900854787
:1018100063E3E710814513858194F539AA8517158F
:1018200000001305A567B12A4E85034A09018939CD
:101830002A84631D050EC93315E1971A0000938AA7
:101840006A6293090004B307890083C507005685BF
:101850000504052AE31934FF29459D228D4723807D
:10186000F4008547631BFA0093073002A381F4005C
:10187000171500001305056481B789471304B00FDD
:101880006316FA0A93073003A381F40017150000CA
:101890001305856315B7A547631FFA06653B2A84C0
:1018A00051E583452900171500001305E562D1288D
:1018B0008347290011474E85B3D7E70A2386F400F2
:1018C000C1362A8425E58D47A38144012380F40095
:1018D000054413898190B149171A0000130ACA60A0
:1018E00083C7C40063F7870017150000130505625E
:1018F000E1B59307F4FFB3873703A1452285CA9763
:1019000023800700A53B01C5A28552859D280504BB
:101910001374F40FF1B74E85A5362A8401E98D477B
:101920002380F400FD57A381F40041BDA285171563
:1019300000001305A55EB120894705452380F4000A
:10194000EFF00FE1BDBD9384819303C52400EFF058
:101950002FE017150000130565602520A1342A84A7
:1019600071F59387818383C9770003C76700138963
:101970008194A209B3E9E900171A0000130A8A4EFC
:1019800045B35D7122D406D62A842EDA32DC36DEE7
:10199000BAC0BEC2C2C4C6C617F5FF1F0325C5071D
:1019A00011C51C4D81E72AC6A52532450C455418A2
:1019B000228636CEEF009033B2502254616182808D
:1019C000AA8517F5FF1F0325250511CD1C4D81EFB5
:1019D000011106CE2EC62AC4252D2245B245F2405D
:1019E0001045056119A01045F5BF411122C426C25A
:1019F0004AC006C62A89AE84328401C51C4D91E3D3
:101A0000012D971700009387675A6316F406032485
:101A100049007C50858B89EB8357C40093F70720DE
:101A200081E7284CEF0060761C44FD171CC463DA84
:101A30000700184C63C3E70693F7F40F2947638E3A
:101A4000E7041C401387170018C02380970093F405
:101A5000F40F7C50858B89EB8357C40093F70720E4
:101A600081E7284CEF008072B2402244024926856B
:101A70009244410182809717000093872751631594
:101A8000F4000324890071B7971700009387074E6D
:101A9000E311F4F80324C900ADBFA68522864A8568
:101AA0000522AA847DB7011126CA06CE22CC4AC8D7
:101AB0004EC652C4AA8419E11C4502901C4D2E89C1
:101AC000A5E7B9239C4C8044B5C3971700009387C2
:101AD000E74D6310F406C0407C50858B81EB835743
:101AE000C40093F7072099E3284C45258357C40089
:101AF000A18B99C31C48C5E7A2852685512245C103
:101B0000FD547C50858B81EB8357C40093F70720ED
:101B100099E3284CA52DF24062444249B249224A39
:101B20002685D24405618280004545B72685CD21B2
:101B300069BF97170000938767456314F4008044DA
:101B400061BF9717000093876742E317F4F8C0441A
:101B500061B71CC4050963C907021C40138717003D
:101B600018C02380B7001C4483450900FD17F5F118
:101B70001CC463D907022286A94526859120FD57FA
:101B8000E300F5F8A944B5BF184C63C4E700E39639
:101B900045FD228626852D20E31735FD95B7FD5995
:101BA000294AD1B71C401387170018C02947238042
:101BB000E700C9BFAA8517F5FF1F0325E5E5E5B5D1
:101BC000011122CC26CA4AC806CE4EC6AA842E8946
:101BD000328401C51C4D91E3252997170000938796
:101BE000E73C6318F402C0401C4C1CC48357C4007B
:101BF000A18B99C31C4895EFA2852685512015C954
:101C00007D59F2406244D244B2494A854249056155
:101C1000828097170000938767376314F40080442D
:101C2000E1B79717000093876734E31FF4FAC044C5
:101C300065BF1C4808409379F90F1379F90F1D8D82
:101C40005C486346F500A2852685B52455F91C44F9
:101C50000505FD171CC41C401387170018C02380FE
:101C600037015C486389A7008357C400858BD1DBAB
:101C7000A947E318F9F8A2852685352C59D149B72B
:101C8000411122C426C24AC006C697F4FF1F83A48E
:101C9000A4D82A892E8489C49C4C99E326858D2E4C
:101CA00097170000938787306314F402C0408317AE
:101CB000C40013F787002DEB13F7070115EB254739
:101CC0002320E90093E707042316F4007D5559A863
:101CD000971700009387872B6314F4008044C1BFDB
:101CE0009717000093878728E313F4FCC044C1B71B
:101CF000918B8DC74C5889C9930744046384F500C0
:101D00004A856923232A04028357C400232204003E
:101D100093F7B7FD2316F4001C481CC08357C4007A
:101D200093E787002316F4001C4881EF8357C40013
:101D30001307002093F707286385E700A2854A85EB
:101D40006D218317C40013F717001DC358482324BF
:101D500004003307E04018CC1848014501E713F7A9
:101D600007082DF3B2402244924402494101828087
:101D700013F72700814611E3544814C4F1BF839739
:101D8000C500011122CC26CA06CE4AC84EC613F79A
:101D90008700AA842E8469E7D8416345E000B841F2
:101DA0006358E008585449C703A9040023A004005D
:101DB0000C5093D7C748B9CB70488357C400918B58
:101DC00099C75C401D8E5C5899C33C401D8E5C5485
:101DD0000C50814626858297FD57630DF5041C48FB
:101DE0000567232204001CC08357C400F98F91C3E8
:101DF00068C84C5823A0240185CD9307440463840C
:101E0000F50026856121232A04021DA0014685468E
:101E100026850297FD572A86E311F5FA9C40D1DF0B
:101E200075476385E70059476395E70623A02401BA
:101E30000145BDA098408317C40001CFF546630556
:101E4000D700D9466319D7041C48232204001CC0BC
:101E50004DB718482322040093D7C74818C041BF84
:101E600083A90501E38609FC03A905008D8B23A046
:101E7000350133093941014791E3D84918C4E35981
:101E800020FB1C540C50CA864E86268582976340E0
:101E9000A0028317C40093E707042316F4007D55BE
:101EA000F2406244D2444249B24905618280AA9913
:101EB0003309A940E9B79C49411106C622C426C28C
:101EC00081EB8144B24022442685924441018280C4
:101ED000AA842E8401C51C4D91E31D2A971700008A
:101EE0009387C70C631DF402C0408317C400F1DB65
:101EF0007850058B11E793F7072099E3284C71245C
:101F00002685A285AD3D7C50AA84858BC5FF83576D
:101F1000C40093F70720DDF7284C8D2C65B7971781
:101F200000009387A7066314F40080447DBF9717D1
:101F300000009387A703E31AF4FAC0447DB7411168
:101F400022C406C62A842316B5002317C500232001
:101F5000050023220500232405002322050623284B
:101F60000500232A0500232C050021468145130581
:101F7000C505EFE01FA4971700009387A7865CD0E4
:101F8000971700009387E7881CD497170000938762
:101F9000078D5CD4971700009387A78FB24000D0BD
:101FA0001CD8224441018280970500009385E5F00A
:101FB000BDA2411126C2930780069384F5FFB38426
:101FC000F4024AC02E8922C406C693854407452ED2
:101FD0002A8401CD2320050023222501310508C4D0
:101FE000138684068145EFE0DF9CB24022852244BF
:101FF00092440249410182801385418779A2138569
:10200000418769A21385818749A213858187BDAA6B
:10201000411122C406C62A84F5371C4C89C72244C4
:10202000B2404101DDB797070000938727F81CD421
:1020300023240404232604042328040483A781857D
:102040006394870085471CCC22853D2048C02285AB
:10205000252008C422850D2048C4484001469145EA
:10206000F93D08440546A545D93D48440946C945BA
:10207000F93585471CCC65B7411126C24AC006C652
:1020800022C42A89953F83A481859C4C99E32685A7
:102090004137938484048044DC40FD1763D60700F5
:1020A0009C40BDC38440C5BF0317C40039EBC17752
:1020B00085075CC41305840523220406F1208137BB
:1020C0002146232004002324040023220400232883
:1020D0000400232A0400232C040081451305C405B1
:1020E000EFE03F8D232A0402232C0402232404045E
:1020F00023260404B240228522449244024941012D
:1021000082801304840651BF91454A855D3588C09D
:102110002A8449F9ED35B1472320F900E1BF7971EF
:1021200022D44AD04ECE52CC5AC85EC606D626D24B
:1021300056CA2A892E8A130485048149054BFD5B02
:102140000444832A4400FD1A63D00A0200406DF85B
:10215000B250225492540259624AD24A424BB24B74
:102160004E85F2494561828083D7C400637BFB00C2
:102170008397E40063877701A6854A85029AB3E9CD
:10218000A90093848406C1B78280828082805971BD
:10219000A2D42E848395E500A6D2CAD086D6B28476
:1021A000368963D305028357C40093F7070895EB7C
:1021B00013070040B65026542320F90098C0065952
:1021C00096540145656182803000EF00C071E34C98
:1021D00005FC3247BD67F98F7977BA9793B7170037
:1021E000C1BF814713070004F1B783D7C5007971D8
:1021F00022D406D626D24AD04ECE898B2E8491CFB9
:10220000930774041CC01CC885475CC8B250225494
:1022100092540259F2494561828074003000AA84C8
:10222000BD37A2492A892685CE85912A01ED8317DB
:10223000C40013F7072079FBF19B93E727002316CF
:10224000F4007DBF97070000938747D69CD483573F
:10225000C40008C008C893E707082316F400B24773
:10226000232A340189CF8315E40026854D2501C931
:102270008357C400F19B93E717002316F40083579C
:10228000C40033E527012316A40049B7D1CD83A7A5
:10229000C5FF011122CC06CE1384C5FF63D307000E
:1022A0003E942AC6D12D138701881C43324581EB09
:1022B0002322040000C36244F2400561D1A5637D7E
:1022C000F4001040B306C4006396D7009443DC4387
:1022D000B29614C05CC0F9BF3E87DC4399C3E37D6E
:1022E000F4FE14433306D700631F86001040B296F5
:1022F00014C33306D700E390C7FC9043DC43B29687
:1023000014C35CC34DBF6375C400B1471CC165B73E
:102310001040B306C4006396D7009443DC43B296E2
:1023200014C05CC040C341BF828041114AC01389C0
:10233000C1878327090022C426C206C6AA842E8428
:1023400089E7814595292320A900A2852685AD210D
:102350007D59631A25017D54B2402285224492445E
:10236000024941018280130435007198E30685FE1D
:10237000B305A44026858921E31025FFE9BF01119B
:1023800026CA93843500F1984AC8A104B14706CE05
:1023900022CC4EC62A89B3F4F40A63C4040063FD58
:1023A000B400B1472320F9000145F2406244D24411
:1023B0004249B24905618280C1239389018883A77C
:1023C00009003E8431E4A6854A858537FD572A8475
:1023D0006316F50A03A40900A287C1EB8329040050
:1023E00081454A85A299C92E6394A9081C408D0491
:1023F0004A859D8CF198B147A104B3F4F40AA685EF
:102400002D37FD576306F5061C40A6971CC015A086
:102410001440858E63C806042D47637DD70204C02F
:10242000330794006396870223A0E9005C4014C33D
:102430005CC34A85B1231305B40093074400619936
:102440003307F540E303F5F63A94898F1CC0B1BF1A
:10245000D8C3E9BF58406395870023A0E900D1BFE6
:10246000D8C3C1BFA2874040B1BF3E84DC43B5B7EB
:10247000B1472320F9004A8521233DB704C155BF48
:102480001C46FD171CC663DA0700184E63C5E7003B
:10249000A9476394F5006FF0AFF21C422E851387B5
:1024A000170018C22380B7008280011122CC26CAEF
:1024B0004AC84EC652C406CE2A89AE893284B304B5
:1024C000D6007D5A63149400014509A88345040091
:1024D0004E864A8575370504E31645FFF24062448F
:1024E000D2444249B249224A05618280357122CDE7
:1024F00026CB4AC94EC706CF52C556C35AC1DEDEE7
:10250000E2DCAA892E843289B68409C51C4D99E380
:10251000EFF01FB097170000938747A96319F404E1
:1025200003A449007C50858B81EB8357C40093F74B
:10253000072099E3284C91398357C400A18B99C394
:102540001C48A5E3A2854E85EFF08FF339C97C5076
:10255000858BA1C37D55FA406A44DA444A49BA4999
:102560002A4A9A4A0A4BF65B665C0D61828097178D
:1025700000009387A7A16315F40003A489005DB749
:10258000971700009387879EE31EF4F803A4C90001
:1025900051BF8357C40093F70720CDFF284CFD3669
:1025A00055BF93070002A304F1029307000302D270
:1025B0002305F10226C6930B5002971A0000938A56
:1025C000EAA0294BCA8483C7040099C3639B770997
:1025D000338C2441638D2401E2864A86A2854E8590
:1025E000E935FD57630DF5189257E2973ED283C740
:1025F000040063860718FD571389140002C802CE31
:102600003ECA02CCA309010482D4834509001546C1
:102610005685B126C2479304190031E513F7070127
:1026200009C713070002A309E10413F7870009C7CC
:102630001307B002A309E104834609001307A002AF
:10264000638AE602F247CA848146254603C704002E
:1026500093851400130707FD6374E60685C63ECE16
:1026600015A085048DB733055541B397A728268952
:102670003EC861BF324793064700184336C6634AD7
:1026800007023ACE03C704009307E002631EF70473
:1026900003C714009307A002631AF702B247890424
:1026A000138747009C433AC67D57B3E7E70A3ECA03
:1026B00025A83307E04093E727003ACE3EC8D9B7B4
:1026C000B3876703AE848546BA9749B7850402CAC3
:1026D00081468147254603C70400938514001307EC
:1026E00007FD6374E606E1F683C504000D46171581
:1026F00000001305258EA52411CD971700009387A0
:10270000678D1D8DC247130700043317A700D98FAB
:1027100085043EC883C5040019461715000013053B
:10272000A58B138914002304B102152C25CD930722
:10273000000095E74247B2471377071009CF91078A
:102740003EC69257D2973ED2B5BDB3876703AE84DB
:102750008546BA9749B79D07E19BA107D5B7780091
:10276000970600009386A6D422860C084E85970013
:102770000000E7000000FD572A8AE314F5FC7C50B6
:10278000858B89EB8357C40093F7072081E7284C9A
:10279000EFF0DF9F8357C40093F70704E39C07DA49
:1027A000125555BB780097060000938646D02286C6
:1027B0000C084E85F92CC1B7411122C42A842E85FC
:1027C00023A2018806C6EFE08FE5FD576316F500EA
:1027D00083A7418891C31CC0B2402244410182803A
:1027E000411122C42E848395E50006C62523634942
:1027F00005007C48AA977CC8B240224441018280EF
:102800008357C4009397C7482316F400F5B783D7BE
:10281000C500011122CC26CA4AC84EC606CE93F77F
:102820000710AA842E843289B68991C78395E50062
:102830008946014601228357C4008315E400F24013
:102840009397C7482316F4006244CE864A86B2495D
:1028500042492685D244056135A8411122C42E84FF
:102860008395E50006C6F9207D578357C400631A97
:10287000E5009397C7482316F400B2402244410173
:1028800082809397C72868C82316F400FDB7839504
:10289000E5003DA0411122C42A842E85B2853686EA
:1028A00023A2018806C6EFE00FD5FD576316F50099
:1028B00083A7418891C31CC0B24022444101828059
:1028C000411122C42A842E8523A2018806C68529A7
:1028D000FD576316F50083A7418891C31CC0B24021
:1028E000224441018280411122C42A842E85B2856E
:1028F00023A2018806C69129FD576316F50083A718
:10290000418891C31CC0B2402244410182804111E0
:1029100022C42A842E8523A2018806C62D29FD57AC
:102920006316F50083A7418891C31CC0B2402244BE
:1029300041018280411122C42A842E85B2853686C7
:1029400023A2018806C63129FD576316F50083A727
:10295000418891C31CC0B24022444101828093F55A
:10296000F50F2A966314C500014582808347050050
:10297000E38DB7FE0505FDB7138501876FF0FF8076
:10298000138501876FF09F80797156CA9C49BA8A76
:10299000984522D44AD04ECE52CC06D626D25AC81A
:1029A0005EC6B3E7E70A1CC203C73504AA892E84B2
:1029B0003289368A19C385071CC21C4093F7070267
:1029C00091C78327090089072320F90004409988CB
:1029D00091E8130B9401FD5B5C4403270900998F78
:1029E00063CCF40483473404B336F0001C4093F7FF
:1029F0000702A5EB13063404D2854E85829AFD5753
:102A00006303F5041C4011478144998B6399E700E7
:102A10008327090044449D8C8147B3E4F40A1C4495
:102A200018486354F700998FBE94014969047D5B8F
:102A300063982405014509A885465A86D2854E85A6
:102A4000829A631E75017D55B250225492540259E8
:102A5000F249624AD24A424BB24B456182808504B8
:102A6000A5BF3307D40013060003A301C70403471F
:102A7000540493871600A2978906A381E7049DBF9B
:102A800085462286D2854E85829AE30E65FB05092E
:102A900045B7797122D44AD04ECE52CC06D626D232
:102AA00056CA5AC803C88501930780072A892E840D
:102AB000B289368A63E207039307200693863504BA
:102AC00063E107036300081E9307800517060000F3
:102AD00013060651630AF814930424042301040521
:102AE00015A89307D8F993F7F70F5546E366F6FE56
:102AF0001706000013064651B3C7C7209C43B29780
:102B000082871C4393842504938647009C4314C307
:102B10002381F50485474DAA90411C43137506088F
:102B20009385470039C19C430CC3584063D20714B6
:102B30009305D002A301B40418C463500704B3077B
:102B4000F040170600001306A6492948B68433F75B
:102B50000703FD143297034707002380E4003E87F4
:102B6000B3D70703E37507FF8DA09C4313750604D5
:102B70000CC345DD939757604DBF6D9A10C0C1B728
:102B800090411C43137506089385470001C50CC38B
:102B90009C4339A0137606040CC37DDA83D7070063
:102BA0001307F00617060000130686436310E80CAF
:102BB0002148A3010404584018C4E34907F80C4015
:102BC000ED990CC0C1F7B68451F3A147631EF8001C
:102BD0001C40858B91CB58401C4863C7E700930786
:102BE0000003A38FF4FEFD14858E14C85287CE8691
:102BF0007000A2854A85493BFD5A631B550D7D55E2
:102C0000B250225492540259F249624AD24A424B7B
:102C1000456182809C4193E707029CC113088007AD
:102C2000170600001306063DA30204050C401C43D2
:102C300013F80508138547006305080008C39C4383
:102C400001A813F8050408C3E30B08FE83D70700A7
:102C500013F7150001C793E505020CC099C341485D
:102C600089BF18401377F7FD18C0D5BF294891B721
:102C7000170600001306C636294835BF90411C438D
:102C8000CC4913780608138547006306080008C37B
:102C90009C438CC301A808C3137606049C4375DAD1
:102CA0002390B70023280400B68489B71C43D04181
:102CB00081459386470014C3844326854D3101C561
:102CC000B30795405CC05C401CC8A301040439BF35
:102CD00014482686CE854A85029AE30255F31C40A5
:102CE000898B85E74844B2473365F50A11BF8546AD
:102CF0005686CE854A85029AE30365F185045C44D5
:102D00003247998FE3C5F4FEF1BF8144930A9401E1
:102D10007D5BF5B7411122C42A842E85B2853686A3
:102D200023A2018806C6A120FD576316F50083A7DC
:102D3000418891C31CC0B240224441018280930764
:102D4000800523A2F1887D5582809307800523A208
:102D5000F1887D5582809307800523A2F188014583
:102D600082809307800523A2F1887D558280930796
:102D7000800523A2F1887D55828000005374617222
:102D80007420404368697049443D253032580A0038
:102D9000576169742044657669636520496E000057
:102DA000414F41204D6F646500000000554E4B4F70
:102DB000574E20446576696365000000403400008A
:102DC000000004004034000001000C00403400000A
:102DD00002001300403400000300040040340000EF
:102DE00004000E004034000005000E0018DEFFFF56
:102DF00030DEFFFF54DEFFFF5EDEFFFF74DEFFFF0D
:102E00005553422064657620696E00005553422078
:102E1000646576206F757400774C656E6774683AE8
:102E20002025780A00000000625265717565737490
:102E3000547970653A2025780A00000053656E6465
:102E40003A2025640A000000253032782000000076
:102E5000526573657420686F737420706F727400AC
:102E60007825303258200000476574436667446512
:102E70007363723A200000005553422D4469736B0E
:102E800020526561647900005553422D5072696E7D
:102E90007420526561647900416E616C797A65488D
:102EA0006964496E74456E647020253032780A007A
:102EB0005553422D4B6579626F6172642052656192
:102EC000647900005553422D4D6F7573652052652E
:102ED000616479004D617820506F72743A25303208
:102EE000582000004578742D48554220506F727468
:102EF0005F2531642320706F776572206F6E2065C7
:102F000072726F720A0000005553422D48554220DC
:102F10005265616479000000496E6974526F6F7484
:102F200044657620457272203D20253032580A00D3
:102F300044697361626C6520686F737420706F728E
:102F4000742062656361757365206F6620646973C0
:102F5000636F6E6E6563740047657444657644659F
:102F60007363723A200000000000000000000000BF
:102F70000000000000000000000000000000000051
:102F80000000000000000000000000000000000041
:102F90000000000000000000000000000000000031
:102FA0000000000000000000000000000000000021
:102FB0000000000000000000000000000000000011
:102FC0000000000000000000232D302B2000000036
:102FD000686C4C0065666745464700003031323307
:102FE0003435363738394142434445460000000005
:102FF000303132333435363738396162636465666F
:1030000000000000FEFAFFFF14FBFFFFD4FAFFFFF1
:10301000D4FAFFFFD4FAFFFFD4FAFFFF14FBFFFF3F
:10302000D4FAFFFFD4FAFFFFD4FAFFFFD4FAFFFF70
:1030300078FCFFFF7CFBFFFF10FCFFFFD4FAFFFFD3
:10304000D4FAFFFFA8FCFFFFD4FAFFFF7CFBFFFFD1
:0C305000D4FAFFFFD4FAFFFF18FCFFFFCA
:10305C00574348005743485541525444656D6F00DF
:10306C00574348204163636573736F7279205465CD
:10307C00737400312E3000687474703A2F2F77639C
:10308C00682E636E005743484163636573736F72B8
:10309C007931000000000000A82F0000882F0000EC
:1030AC00682F00000000000000000000000000007D
:1030BC000000000000000000000000000000000004
:1030CC0000000000000000000000000000000000F4
:1030DC0000000000000000000000000000000000E4
:1030EC0000000000000000000000000000000000D4
:1030FC0000000000D80B0020B009002000041023B1
:10310C00273543004035000000000000C0330000AC
:10311C000000020000090000000000000005020091
:10312C000000000080060002000004008006000180
:10313C0000001200A00600290000090081060022F0
:10314C0000004100210A000000000000B00900202E
:00000001FF
