:040000006F10802ECF
:100004000000000000000000A0000020880500207F
:10001400A9BDF9F3A00000200000000000000000CA
:10002400A0000020A000002000000000000000004C
:10003400A000002000000000A0000020000000003C
:1000440006060020A0000020A0000020A000002040
:10005400A0000020A0000020A0000020000000005C
:10006400A0000020A0000020A0000020A00000208C
:10007400A0000020A0000020A0000020A00000207C
:100084000E060020A0000020A0000020A0000020F8
:10009400A0000020A0000020A0000020A00000205C
:1000A40001A0B7170040984B41111367070198CB83
:1000B400982B1377E70F98AB1307800873370780E3
:1000C400137787083AC60F100000130770052380C2
:1000D400E704130780FA2380E7040F100000B847F1
:1000E400B70600069506558FB8C703C7B70413773C
:1000F400F70DA385E704B82713672701B8A71307EB
:1001040050149AA7372700408346578093F6F60E7B
:10011400A302D7808946A303D78003C7E7041377D4
:10012400C70F136717002387E70403C7F702136792
:100134002700A387E702982B1367170098AB238047
:100144000704B247F3A707800F1000004101828023
:10015400EFF03FF513054020970500009385850ACD
:10016400171600001306461863FAC500832205001B
:1001740023A0550011059105E3EAC5FE172500E00B
:100184001305C5FC97150000938505161716000086
:100194001306461663FAC5008322050023A0550002
:1001A40011059105E3EAC5FE171500001305851432
:1001B4009385813A6377B500232005001105E36D2B
:1001C400B5FE93025002739002BC8D42739042803C
:1001D4008542739012BC9302800873900230970298
:1001E4000000938222E293E232007390523097121D
:1001F40000E09382221673901234730020300000C2
:10020400011122CC06CE26CA231701009D471714DC
:1002140000001304E4216313F504938781B7982342
:10022400930660026306D700930620056318D7027D
:1002340005472302E4221307400498A3A38C01B6C4
:10024400C1470946938541B6138581B77C87192137
:10025400F24062442887D244056182808347442265
:100264008944638D97060D476387E70C0547E3913F
:10027400E7FE138581B71C21130730096396E70451
:1002840093064002171600001306861A9305E10030
:10029400FD2619E1230294223C876147639BE70012
:1002A4009715000083D545051385818AEF00D05446
:1002B40045B7130780026390E7029715000083D5C2
:1002C400C5031385018EDDB7130700056395E700A9
:1002D40083C791B7B5FF238001B69DBF138581B74E
:1002E4001C2113075009E391E7FE8146171600000D
:1002F400130646149305E100592601E58D472302B0
:10030400F4223C876147639BE7009715000083D57F
:1003140065FE17150000130525FF49BF130780026A
:10032400E39BE7FA9715000083D5E5FC1715000059
:1003340013050501A5BF938781B79823930600058C
:10034400E308D7F8930600036311D706983393069E
:10035400600863E8E604138681B893057008B34621
:100364008720882605079107238EA7FE88363367E2
:10037400B702A38EA7FEA826B436238FA7FEA38FA9
:10038400D7FEE31EF6FCC145138581B769244946AF
:10039400938541B6138581B7752C930700097C8733
:1003A40045BD238C01B69147DDBF9306200AE314B3
:1003B400D7F298339305200801469306C7FF93F6B6
:1003C400F60F63EDD500B42333478720294614A7DD
:1003D400B43314B7D42334A7D43334B790A3E1B7D8
:1003E400B7F70700DC534111171700002328F7F073
:1003F400B7170040984B1367070198CB982B1377D6
:10040400E70F98AB130780087337078013778708C3
:100414003AC60F100000130770052380E704130782
:1004240080FA2380E7040F1000001307000C631503
:10043400E5029A271367070C9AA7B7170040982B71
:100444001367170098AB23800704B247F3A707800C
:100454000F10000041018280B82793760520ADCAB1
:10046400118B29E303C7E70403C6E7041377F70FE7
:10047400136636002387C704B02713664600B0A767
:1004840092278E273346060893E5050C8EA7A547C9
:100494000100FD1793F7F70FE5FFB717004092A788
:1004A4002387E70493770510DDC3371700403C2703
:1004B40093E707013CA79377F50199EFB72700402D
:1004C40003C7578013670701A382E7801D470DA068
:1004D40013672700B8A7F9B725476366F704B7275A
:1004E400004003C757801377F70EA382E7800547C0
:1004F400A383E78033450508B71700401367050C4D
:100504009AA78AA7B5CE03C7570483C65704418B5D
:10051400858A558F1DF3B82B418B05D3B8271377E4
:10052400D70FB8A719BF9377050199EBB7270040F8
:1005340003C757801377F70EA382E78009474DBF9F
:10054400B727004003C757801377F70EB5BF9377DB
:10055400850181EFB727004003C757801377F70E53
:10056400A382E7801307100561B7B727004003C7CC
:1005740057801377F70EA382E780130770058DBFAA
:10058400B8271377B70F71BF4111814601468145E2
:100594001145452C13078008F337078093F7870824
:1005A4003EC40F100000B7170040130670052380E7
:1005B400C704930680FA2380D7040F100000FD556A
:1005C400CEB723800704A245F3A505800F100000D1
:1005D40073370780137787083AC60F10000023800B
:1005E400C7042380D7040F10000003C767041367F0
:1005F40017002383E70423800704B247F3A7078087
:100604000F10000001A0EF00302273002030EF0033
:10061400D048730020309967AA86AA951385373687
:10062400135685006395B60088A290B282809C22FE
:100634008506A98F13F7F70F1207B98F93F7F70FF2
:1006440013D5470013973700A207298FD18F33455D
:10065400F700F9B78147972600E09386269933C7B8
:1006640007086363C70082803307F50018233388C3
:10067400F5008507369718232300E800CDB7183115
:1006840093070002630EF706930700076316F70249
:1006940038211C226310F70838311C32631CF7061A
:1006A40058213C226318F70658313C326314F7068C
:1006B400E14701459EA18280935747009376F70056
:1006C40021483308D840F9171307F00F335707416F
:1006D40093F7F70F11481377F70F63970703BDEAF2
:1006E40018223C216318F70218323C316314F702D4
:1006F40038225C216310F70238327C21631CF70036
:100704009307800205457DB78D4663F7F60095464D
:100714006382D7048147FDB7B306F5003308F600BA
:10072400B42203480800B3C60601758F65F7014774
:1007340019A8B306E60005073308E5009422034828
:100744001800E319D8FC9376F70FE3E4F6FEE3937D
:10075400F6FC7DB71C223421E39EF6FA1C320348D2
:100764003500E319F8FA834826005C21E39417FB6B
:10077400834836007021E39FC8F8B3C60601B58FDD
:100784007D8F49FBB5BF2303048015472303E48011
:1007940001002302A480828083076480E3CE07FEE5
:1007A40023030480828083076480E3CE07FE03452D
:1007B4004480828083076480E3CE07FE2302A48002
:1007C4008280411126C44AC24EC006C61377F50B77
:1007D400AD47AA892E8995446306F7001945653704
:1007E400653F8D444E854537FD59FD1463983401AA
:1007F400B240A24412498249410182801355090141
:100804001375F50F453F2209CDB7011126CC06CE4D
:10081400B704080051371545BD37713769372AC603
:10082400A53F32459377150089EB136515001375C1
:10083400F50FF240E24405618280FD14E9FC0145B4
:10084400CDBF3971B7F7070006DE26DC4ADA4ED889
:1008540052D656D45AD25ED062CE03AB47027D57ED
:10086400B7E700E083AA070022C603AA470023A033
:10087400E71823A2E718B71B0040930770052380ED
:10088400FB04930780FA2380FB0483C74B041147BE
:10089400AA8993E7070E2382FB043724004013053B
:1008A400F00F2303E4802E8C3289B684E93DED35C4
:1008B400938779FF93F7F70F0947137BFB00636274
:1008C400F712A147370708006307FB00B7070700C3
:1008D4003E9C378707007955637EEC02B387840119
:1008E400636AF702A9476398F90689E481446D3580
:1008F40026850DA0E2850945E93505090345F9FF7B
:10090400FD14050C453D81C49377FC0FFDF7F53DBF
:1009140069FD7D55B7170040130770052380E70470
:10092400130780FA2380E70403C74704418B23821B
:10093400E704F250B7E700E023A0571123A24711C0
:10094400E25432445259C259325AA25A125B825B5F
:10095400724C21618280A547639AF906A147856993
:10096400631DFB029387F9FFB3869700B374FC0001
:10097400B69493C7F7FFFD8C33FC8701416B856BFD
:100984009387F9FFB3F7870199E363FF340193D9A0
:100994004900C147E3E637FF91BF9307F00FE9B77A
:1009A4008567C169FD17C9B71305800D638869019F
:1009B400130500026384790113051008E2851135DB
:1009C400A93521D94E9CB3843441C1B7E2852D4564
:1009D400CD3BCA94E30C99F00509F133A30FA9FEAA
:1009E400D5BF9387F9FF93F7F70F636FF70AA14712
:1009F4006319FB06B70708003E9C83C75B043707EF
:100A0400070093F7070299E337870700B707080041
:100A14003E977955E370ECF0B3079C00E36CF7EE76
:100A24008947639AF9048980D549E38104ECE28516
:100A34000945413B11090327C9FF91472320E4805D
:100A440003076480E34E07FE23033481FD17EDFBA7
:100A5400FD14110C81C49377FC0FE9FF7D3371F50C
:100A64004DBD83C75B043707070093F70702D5F32F
:100A74003787070079BF8547E384F9F2E2852D457E
:100A840089339389F4FFE38304E6313B93F7390018
:100A940091EB832604800327090093074900E39818
:100AA400E6E43E89CE84F1BFB5476396F9001305A9
:100AB400900BD13925BDB1471305B00AE38BF9FE7C
:100AC40099476394F904A1476315FB00B70708002D
:100AD4003E9CE2852D45F53181440D4BA149E13120
:100AE40063966401832704802320F9008504E39836
:100AF40034FF8327048013172C0163550700231246
:100B0400F900EDB32322F900D5B39D476399F902A7
:100B140081451305B0047531BD4423200900232207
:100B24000900FD59493193F77400CA9703C70700B8
:100B3400FD14398D2380A700E39634FF45BB91470C
:100B44006399F900130560063D39B931130590091D
:100B54008DB7E38D09D8F15459BB83C701819DC377
:100B640023AC013837E7004089471CA301009307F1
:100B740080041CA35E2BB3C7070893F7F79C93E785
:100B840007625EAB82805C41011122CE26CC231A1F
:100B94000500B70F00022380070081488147014800
:100BA400014E1303F003A1430544850F83AE0500F2
:100BB400F697637FF304938EF7F9630B0E08636271
:100BC400D30740868547054E8144930EC100A69EF7
:100BD40003CF0E006399780883288500C298238088
:100BE400E8018358250105081378F80F6378180580
:100BF40083284500C298238008008148938E1400FE
:100C04008544E3E4FEFC835E4501F6975EA98147D3
:100C140023A0F5016388C5069105E3E9E5F8B685E7
:100C240071B7938EF7F16367D301930700107C8645
:100C3400894759BF9387F7F56377F30005457244F5
:100C4400E24405618280231601008947014EADBF4D
:100C54006366D301230601008547BDB79387F7F583
:100C6400E371F3F6E1BF832E4500331F1F018508AE
:100C7400C29E83C20E0093F8F80F33EFE201238083
:100C8400EE01ADBF63150E005E29FD175EA9230CAE
:100C9400C50101456DB7797122D626D44AD24ED00A
:100CA40052CEAA87231A05004841B70F0002014813
:100CB4002300050001438148014593831F00130E5F
:100CC400F00321448544372900409309C7FF83AECC
:100CD400050023A075007698637F0E05930EF8F93E
:100CE40079C16369DE094486054805458142930E4E
:100CF400C100969E03CF0E006317831003A38700E1
:100D040046932300E30103D32701850893F8F80FE2
:100D140063FD680A03A347004693230003000143CD
:100D2400938E12008542E3E40EFD83DE470176983C
:100D3400239A07010148832E49014E8F939EDE2991
:100D44006384D601138FCEFF6391E503B72200407D
:100D5400130AC7FF83AE4201528F939EDE29638438
:100D6400D601138FCEFFE387E5FF9105E3E1E5F6B6
:100D7400B685B1BF930EF8F16368DE011308001065
:100D84002316010109489DB71305F8F56367AE0002
:100D9400231601000948014591BF6368F80305471C
:100DA40098AF0145B9A06366DE012306010005483A
:100DB40035BF930EF8F5E378DEF36368F801DA2BB8
:100DC400238C07007D17DAAB2DA0B72800407117DC
:100DD4003708000203A54801BA871315D52963040F
:100DE400D5009307C5FFE387F5FE8843636B0501D0
:100DF400054532540CC2A25412598259724A4561B3
:100E04008280BE85C1BF83AE4700331F6F000503D8
:100E1400C69E03CA0E001373F30F336FEA012380D7
:100E2400EE01FDBD1C4141110328C50022C406C6C4
:100E3400214798C323A207000E292A84A10763052A
:100E4400080A762905451387B6006354B7083E8619
:100E540001476364D70823260400B3C7F6201306AA
:100E640040023E858145970000E0E780A04D37377A
:100E74000040A30007C01040930687C193074502B2
:100E840090C29306C7C19CC2834707C013F6F70FED
:100E940093F7D70D13E727001C2CE9C3B7260040AE
:100EA400FC22858BF5DFB73700402380E7C08946F5
:100EB4001387C7C014C301000100C94614C32380AB
:100EC400C7C00547A380E7C0B72700400D4798A3D4
:100ED4000145B240224441018280B305E8008C21DF
:100EE40005070CC21106B5B75229C9460545135763
:100EF40036003307D7023107E3EDE5FC032844004D
:100F04008328840021453E83B28601478345080037
:100F1400330ED640B3D5C549214E99C1A145014EE2
:100F24008CC323A2C7010507FD16A1071377F70F8A
:100F3400B1CA6310A70203C7080011EF0146214795
:100F440090C3D8C3850893070301050889DA368658
:100F54005DBF3E8365BF21460147DDB7B72700402B
:100F6400F423858AA9F29447DC479305000463F4CB
:100F7400F500938707FCE3F8F6F2958FB726004057
:100F8400DCC629BFE309A7FAD9BDADC62A88A148A2
:100F94001D4E9C21B3D7E700858BB9E30143A147DC
:100FA400A300F800050723006800FD169307280036
:100FB4001377F70F8DEA631017031C22214799C397
:100FC400A14701472301F800A301E8009307480063
:100FD4000506850589EE3385A740334505088280DB
:100FE4002143814775BF6375EE00E30817FD014790
:100FF4003E8845B7014582809387C138C8C7EEABA8
:101004008280AA876370B5021385C5FF3707000283
:10101400144101C663E5E600828063E6E6007115CB
:10102400E378F5FE014582807971B727004022D428
:1010340026D24AD006D64ECEF8231377F70FF8A35C
:10104400844F03A9C701C04B9394D4291319D929F8
:101054001314D42963868412636B2403B7270040D6
:10106400094798A323800700154798B31307001274
:10107400D8C7155798A3B2502254B7E700E0416788
:1010840023A0E72892540259F24945618280E3F78C
:1010940084FC71141840B7070002637CF70E054600
:1010A400A2852685B93F19E50546CA85130544007E
:1010B400893F4DD51105636325012685B7070002D5
:1010C40085071CC1B72600401306C9FFDC4A3287D6
:1010D4009397D729638497001387C7FFE308A7FE74
:1010E4009305450063E32501A6859841B7070002EF
:1010F400E376F7F64A87A68670001385C138613E09
:1011040031FDB7270040DC4B1307C9FF9397D7295C
:10111400638497001387C7FFB2476366F7061D8F82
:10112400935727003727004014470946A3000700B8
:1011340010A3850713070012B387E7025147B69738
:101144009306904C63E5F6001307E04D1D8FB72717
:101154000040D8C71307400298A383A7C180E38F38
:1011640007EEDC43E38C07EE1384C1384A288297E8
:101174004AA8E30505EE22857531E31105EEE5BDC8
:101184001304C9FF01BFA697B307F940BA9789832F
:1011940051BFB727004094470947A380070098A38D
:1011A4001307E03B23800700158FD8C713074002BD
:1011B40098A30146A2852685A9352AC60DC1B24940
:1011C40063E789020546CE85130544001D3DE30708
:1011D40005E8B3879900B307F9403E943DA0014662
:1011E400CA8513058400313D2AC671F985BD0546BB
:1011F400CE852685393501E90546CA85130544009F
:101204000935E30D05E4330434410980637C350773
:10121400B389A940A147E3F337E5914763E1870424
:10122400B72700401307000298A3F823058B1DE39A
:10123400130700123304E40298473A941307904CBE
:10124400636A8700094798A31307E04D23800700CA
:10125400018FD8C7B72700401307400298A3B707E8
:101264000002130745008507636227039CC093852A
:10127400440032464A87A6861385C1382932E31FC3
:1012840005DCE1BDCA99B389994059B75CC193059E
:101294008500E3E025FFA685E9BFB737004003C713
:1012A40067C0938647C1A38007C094421386C7C111
:1012B4001377F70F9386061014C22383E7C0B7276A
:1012C4000040094798A32380070013070012D8C7DA
:1012D400154798B3155798A3B7E700E0416723A0D3
:0412E400E7288280F5
:1012E800971100209381818017F10120130101D10A
:1012F8001305400097F5FF1F938545D017F6FF1F8C
:101308001306C6EF63FAC5008322050023A0550023
:1013180011059105E3EAC5FE17F5FF1F130505E35F
:1013280002852A8309CA83830500230073007D167A
:10133800050385056DFA82802A8311C62300B30050
:101348007D16050365FE828001111D469715000074
:10135800938505BE280006CEE9371145392C1305BB
:10136800403497F0FF1FE7806007B7170040116708
:1013780023ACE70AC1450545992E85452165B12469
:101388008D45116599243529171600001306C6BA2C
:1013980097150000938505BB17150000130545BB7D
:1013A800EF00303117150000130545BCEF009032EF
:1013B8003529171500001305A5BCEF00B03128002A
:1013C80039286129171500001305C5BCEF009030B6
:1013D80001A0238001B68280238001B6828001119A
:1013E80006CE22CC26CA170400201304E403AA84DC
:1013F800170500201305C5EE230204229123930547
:1014080080F80CA0942014B0983038A0B02030B0E8
:10141800BC305CA0DC205CB0DC307CA0FC207CB064
:101428009C201CA49C301CB4BC203CA48830A98FF0
:101438008820A98F93C787F83CB4BC305CA4DC2013
:101448005CB4DC307CA4FC207CB4A830D480B18EA1
:10145800A98FC8205881358FA98FC8304C80D0817A
:10146800A98F1CA8930780041CB8B7173E00938760
:10147800170E5CC8B707FE008D07134787F82C00C6
:101488000A8515461CCC58822319040097F0FF1FC3
:10149800E780001C01479306800230008A85138587
:1014A800018E97000020E78000AE97070020239266
:1014B800A7E49307400285450A855C8097F0FF1FE3
:1014C800E78020152C000A850D4697F0FF1FE7805E
:1014D800201830008A850147E1461385818A9700E4
:1014E8000020E78040AA5030542078209707002039
:1014F8002390A7E04C407C30B18E358FB98F2EC039
:101508000A852C0015465C8297F0FF1FE78040147F
:1015180001479306800230008A85170500201305CD
:10152800A5E197000020E78000A6970700202390F8
:10153800A7DC85450A852300010097F0FF1FE78097
:10154800400D2C000A850D4697F0FF1FE7804010DC
:1015580030008A850147E14617050020130545DA62
:1015680097000020E78020A2F240624497070020FD
:10157800239EA7D6D244056182803717004083474F
:10158800E70412054111BD8BC98F93F7F70F930636
:101598008008F3B6068093F6860836C60F1000005A
:1015A800930670052300D704930680FA2300D70416
:1015B8000F1000002307F70423000704B247F3A71E
:1015C80007800F10000041018280914763ECB70447
:1015D800971700009387C79CB3C5F52098413E979D
:1015E800B71700409387470B02879443371700408B
:1015F800B3F6A64094C39306070B9C42B3F7A740E3
:1016080019A8944337170040B3F6A64094C393062D
:10161800070B9C42C98F9CC29307070A98433377EC
:10162800A74098C38280944337170040C98ED9B722
:1016380098433377A74098C3B71700409387070AA2
:101648009843498FF9BF9843498FF5B7914763ECA1
:10165800B704971700009387E795B3C5F52098411D
:101668003E97B71700409387470D02879443371773
:101678000040B3F6A64094C39306070D9C42B3F707
:10168800A74019A8944337170040B3F6A64094C35F
:101698009306070D9C42C98F9CC29307070C984379
:1016A8003377A74098C38280944337170040C98E88
:1016B800D9B798433377A74098C3B71700409387A3
:1016C800070C9843498FF9BF9843498FF5B719C557
:1016D800371700401E2FCD8F1EAF8280B7170040EE
:1016E8009A2FB375B7408EAF8280B7170040D84F96
:1016F80009C5B375B740CCCF8280D98DEDBFB71778
:1017080000409A279306000C1377070C630AD70446
:101718009A27137707100DC79A279E277D8B09EB09
:1017280093F70720B1C33755E80113050580828078
:1017380037C59812FD8B130505E03345F502828005
:101748009A279E2713770720FD8B11C73755E80185
:1017580013050580DDB73725F40013050540F1BFF3
:101768002165130505D082803725F400130505404F
:1017780082803285814737370040A14663C3A7007E
:1017880082803037E30FD6FE3386F50010228507B6
:1017980010A7EDB7411122C406C62A848D37294700
:1017A800B307E502B2408D83B3D787022244950779
:1017B800B3D7E70237370040B3C707085EA7410130
:1017C8008280716541111305052006C6E137B737D8
:1017D8000040130770F8B8A30D47B8B31307000407
:1017E80098B30547F8A7B2404101828001118145AD
:1017F8001305000806CED13B930500080145F535D1
:10180800370503001305053081458935B7170040B2
:10181800D84FB70600030A85558FD8CFBA2F13675C
:101828000730BAAF97070020938707E53EC0938734
:1018380041B63EC4938781B73EC2B7071400938769
:1018480007203EC64D2819C5170500001305C577A2
:10185800512501A0F24005618280411106C697F02A
:10186800FF1FE780402FB737004009472380E7C0B4
:10187800930600072380D7C049469386C7C090C205
:10188800938607C123A00600938647C19442138616
:10189800C7C19386061014C2A1462383D7C02381EB
:1018A800D7C0130640072380C7C0B727004098A3B6
:1018B800055690A313060012D0C7D04B1306061086
:1018C800D0CFF4A397060020938606DB94CF9386A7
:1018D800C138D4CF954694B3F8A3B8A3155798A3A5
:1018E800B240B7E700E0054723A2E710416723A00D
:1018F800E71041018280938601819C228DC31841A3
:101908009387C13898C35A259AAB5841D8C37A25CA
:10191800BAAB1845014598C723AC01388280B7F7A0
:101928000700DC53BD8BE91793F7F70F13B72700B0
:101938001347170098A20547E363F7FC0545828023
:1019480023A6A1808280011106CE2EC60DCD184196
:10195800AA8705C358417D5511CB8546631BD7001F
:1019680098472300070023A207000545F2400561B8
:1019780082809847B24614A39847050798C7D8436A
:101988007D17D8C3DDB705466C00E533F9BF0111F3
:1019980022CC26CA52C456C25AC006CE4AC84EC61F
:1019A8002A8AAE8A3284BA8413FB1600634A060870
:1019B8002E853689A523AA8963528508635D950219
:1019C800058C63190B08130B00022289634F20074B
:1019D80001493369240B3304244163D99902B38440
:1019E8003441A689930500035285FD19A93FE39B5D
:1019F80009FE269921A8098C13792900E30309FC1B
:101A0800E9F063010B040149130B0003CA84B3878F
:101A18002441D69783850700B1E1228963442005D4
:101A28008147F2403365F40A62444249B249224A86
:101A3800924A024B2695D2440561828001446DBFCB
:101A4800814941B7130B000349B7DA855285E53D53
:101A58007D19ADBF130B0002014941B75285E53529
:101A6800850475B7DA855285F93D7D1945BF397109
:101A780026DA4ED606DE22DC4AD852D456D25AD0BE
:101A8800BA84BE899DE1930700030147CE86268666
:101A98002C007C84ED3DF2506254D2544259B25924
:101AA800225A925A025B216182802A893684C28A2C
:101AB800468B91CAA94701446317F60063D5050010
:101AC800B305B0400544A30F01001307F101A54673
:101AD80013856AFCB3F7C50263D3F600AA97938708
:101AE8000703A30FF7FE130AF7FFB3D7C50263F581
:101AF800C50411C8A9C493F72900B1C39305D0023E
:101B08004A859135FD1493F7490099CF930710063C
:101B1800930500034A85639CFA02353593058007CF
:101B28004A8515350904F9145A87CE862686D28542
:101B38004A85B13D229585B7BE85528761BF930717
:101B4800D002A30FFAFE0144130AE7FF6DBFE53B7D
:101B580093058005F1B7014582800145828039717E
:101B68005AD0096B22DC26DA4AD84ED652D456D23D
:101B78005ECE66CA6AC806DE62CCAA892E8932841D
:101B8800014A8144930B5002930AD002A54C294D77
:101B9800130B0B0F830509008DE56385090081454B
:101BA8004E855533F25062544259B259225A925ACC
:101BB800025BF24B624CD24C424D2685D2542161D5
:101BC8008280638775014E85BD3B85040509D9B7B9
:101BD80083071900130C19006399770193055002C4
:101BE8004E85953385046289D5B7C5DB638657036F
:101BF80063CCFA00130730026387E7041307B002C7
:101C08006380E704814721A813070003E39CE7FEEC
:101C1800130C2900894721A0130C290085470307C5
:101C28000C00630D570363C4EA0293063002630A8B
:101C3800D7029306B0026308D7026289014625A835
:101C4800130C2900C1B7130C29009147C9BF93068B
:101C58000003E314D7FE93E7270031A0050C85475E
:101C6800E9BF93E74700050CC9BF3306A60313175E
:101C7800476005093A9683060900138706FD9375A0
:101C8800F70FE3F4BCFE1307E0029945639FE600F3
:101C980005098145A546294803070900130707FDDB
:101CA8001375F70F63F9A6022E8A83060900130736
:101CB800C0066380E6046347D70213078006638B78
:101CC800E6061307A006638EE6061307C004638AB8
:101CD800E60601473DA0B3850503131747600509CC
:101CE800BA955DBF13074007638DE6041307A00785
:101CF800F9BF030519000D476314D50005091147FD
:101D080005098306090013050006635ED50213055D
:101D18008007E34DD5EA13052006E359D5EA9386F3
:101D2800D6F993F6F60F5545E362D5EAB3C66621B0
:101D380094428286030519000147E314D5FC09097A
:101D4800C9B7050979B7130570046344D5021307A9
:101D58004004634DD71213073004E399E6E61840B0
:101D6800130C4400A30601005886BE8601476C0088
:101D780099A09305800513081004E399B6E49146E9
:101D8800631ED70693057400E19913848500C28801
:101D98003E880147B287C146D0418C414E85653B9C
:101DA800AA942DB50C40130C440081E589659385F0
:101DB800850E5287BE864E85D93E1DA89146631E64
:101DC800D70093057400E1993E8813848500930831
:101DD8001006B2870547A946C1B7130C4400D2883C
:101DE800130810063287854629460C404E85413136
:101DF800AA946284E1BB1308100651B7130C44007F
:101E0800D288328781464146CDB79146631DD700B7
:101E180093057400E1993E881384850093081006A1
:101E2800B28701474DBF130C4400D288130810062F
:101E38003287814655BF914693E74700631AD7001A
:101E480093057400E199138485009308100689B7F7
:101E5800130C4400D2881308100665B79146631E18
:101E6800D70093057400E1993E8813848500930890
:101E78001006B2870147A14605B73287130C440004
:101E8800D288130810068146214685B793081004A6
:101E98001305740061993E883287AE8750410C4122
:101EA80013048500A9464E854D39DDBD93081006FB
:101EB800C5B739712ED232D4AA855010014506CE45
:101EC80036D63AD83EDA42DC46DE32C64939F240E6
:101ED80021618280011122CC26CA06CE8307050023
:101EE800AA840144DC87050499EFA9479305F1000A
:101EF80005460145DC87EFF0DF87F2402285624422
:101F0800D2440561828005469305F1000145EFF052
:101F18005F86B387840083870700E9B7AA87982379
:101F2800850775FF3385A7407D15828000AE38E2AE
:101F3800B54C800031353A34353A3037000000006E
:101F480041756720323220323032350050726F6767
:101F580072616D206275696C64206F6E3A2025731A
:101F68002C2025730A0000004E4643412050494367
:101F78004320543254205354415254006E666361D6
:101F88005F706963635F696E6974206F6B0000003E
:101F98007761697420706364000000004EF6FFFFEB
:101FA80066F6FFFF8AF6FFFF94F6FFFFAAF6FFFF2B
:101FB800BCF6FFFFD4F6FFFFF8F6FFFF02F7FFFFBE
:101FC80018F7FFFF6E6663612070696363206C69B0
:101FD8006220696E6974206572726F720000000079
:101FE80001000001000101000001010001000001E1
:101FF80000010100010000010100000100010100D1
:1020080000010100010000010100000100010100C0
:1020180001000001000101000001010001000001B0
:1020280000010100010000010100000100010100A0
:102038000100000100010100000101000100000190
:102048000100000100010100000101000100000180
:102058000001010001000001010000010001010070
:102068000001010001000001010000010001010060
:102078000100000100010100000101000100000150
:102088000100000100010100000101000100000140
:102098000001010001000001010000010001010030
:1020A8000100000100010100000101000100000120
:1020B8000001010001000001010000010001010010
:1020C8000001010001000001010000010001010000
:1020D80001000001000101000001010001000001F0
:1020E800286E756C6C290000661D0000C41D000078
:1020F800B41E0000B41E0000B41E0000D41B000073
:10210800D41B0000D41B0000D41B0000D41B00000B
:10211800D41B0000D41B0000641E00003E1E0000FB
:10212800D41B0000D41B0000AC1D0000D41B000011
:10213800121E0000D41B0000D41B0000FE1D00006E
:0C214800DA13000000020020E013000089
:00000001FF
