:040000006F00501627
:100004000000000000000000A0000020CE0400203A
:10001400A9BDF9F3A00000200000000000000000CA
:10002400A0000020A000002000000000000000004C
:10003400A000002000000000A0000020000000003C
:10004400A0000020A0000020A0000020A0000020AC
:10005400A0000020A0000020A0000020000000005C
:10006400A0000020A0000020A0000020A00000208C
:10007400A0000020A0000020A0000020A00000207C
:10008400A0000020A0000020A0000020A00000206C
:10009400A0000020A0000020A0000020A00000205C
:1000A40001A0B7170040984B41111367070198CB83
:1000B400982B1377E70F98AB1307800873370780E3
:1000C400137787083AC60F100000130770052380C2
:1000D400E704130780FA2380E7040F100000B847F1
:1000E400B70600069506558FB8C703C7B70413773C
:1000F400F70DA385E704B82713672701B8A71307EB
:1001040050149AA7372700408346578093F6F60E7B
:10011400A302D7808946A303D78003C7E7041377D4
:10012400C70F136717002387E70403C7F702136792
:100134002700A387E702982B1367170098AB238047
:100144000704B247F3A707800F1000004101828023
:10015400EFF03FF513058020970500009385C50A4D
:10016400171600001306068063FAC50083220500F3
:1001740023A0550011059105E3EAC5FE173500E0FB
:1001840013058505970500009385C57D17060000B6
:100194001306467D63FAC5008322050023A055009B
:1001A40011059105E3EAC5FE170500001305857BDB
:1001B40097550000938545796377B50023200500A2
:1001C4001105E36DB5FE93025002739002BC8D429B
:1001D400739042808542739012BC9302800873909E
:1001E4000230970200009382E2E193E232007390BE
:1001F4005230972200E0938262427390123473006B
:0402040020300000A6
:10020800411122C6371400208327849691C783277B
:100218008496829723240496324441017300203047
:10022800B7F70700D853B7170020411123A2E79664
:10023800B7170040984B1367070198CB982B137793
:10024800E70F98AB13078008733707801377870881
:100258003AC60F100000130770052380E704130740
:1002680080FA2380E7040F1000001307000C6315C1
:10027800E5029A271367070C9AA7B7170040982B2F
:100288001367170098AB23800704B247F3A70780CA
:100298000F10000041018280B82793760520ADCA6F
:1002A800118B29E303C7E70403C6E7041377F70FA5
:1002B800136636002387C704B02713664600B0A725
:1002C80092278E273346060893E5050C8EA7A54787
:1002D8000100FD1793F7F70FE5FFB717004092A746
:1002E8002387E70493770510DDC3371700403C27C1
:1002F80093E707013CA79377F50199EFB7270040EB
:1003080003C7578013670701A382E7801D470DA025
:1003180013672700B8A7F9B725476366F704B72717
:10032800004003C757801377F70EA382E78005477D
:10033800A383E78033450508B71700401367050C0A
:100348009AA78AA7B5CE03C7570483C65704418B1B
:10035800858A558F1DF3B82B418B05D3B8271377A2
:10036800D70FB8A719BF9377050199EBB7270040B6
:1003780003C757801377F70EA382E78009474DBF5D
:10038800B727004003C757801377F70EB5BF937799
:10039800850181EFB727004003C757801377F70E11
:1003A800A382E7801307100561B7B727004003C78A
:1003B80057801377F70EA382E780130770058DBF68
:1003C800B8271377B70F71BF37E700E01C435443D2
:1003D8007D56A183E206D58F9306071890C2D0C236
:1003E800B70600203706002093850600130646202E
:1003F80003A8850390DD371600202324A69691656F
:10040800130507100CC1130707200CC393860600B9
:100418000327869675FF37E700E011662320C71883
:100428000F10000023AC0603939687002320D710F3
:10043800E1832322F7108280170300E0E702A35923
:1004480041118146014681451145ED2A93078008EF
:10045800F3B7078093F787083EC60F100000B71759
:100468000040130770052380E704130780FA2380F0
:10047800E7040F10000003C76704136717002383FE
:10048800E70423800704B247F3A707800F10000092
:100498004101170300E06700435637E700E01C43BB
:1004A8005443A183E206D58F1CC1FD572320F718BA
:1004B8002322F718828013178500B7E700E023A0EE
:1004C800E710618123A2A71082804111814601466D
:1004D80081451145852A13078008F337078093F76C
:1004E80087083EC40F100000B717004013067005B8
:1004F8002380C704930680FA2380D7040F100000D6
:10050800FD55CEB723800704A245F3A505800F103B
:10051800000073370780137787083AC60F1000006A
:100528002380C7042380D7040F10000003C7670483
:10053800136717002383E70423800704B247F3A750
:1005480007800F10000001A09307E0043305F502AF
:1005580095473355F50201007D1575FD8280170317
:1005680000E0E70243472A841305803E7D14E93FF3
:100578003344040875F8170300E0670003482E9613
:10058800AA870F70B6788280230304801547230357
:10059800E48001002302A480828083076480E3CE84
:1005A80007FE23030480828083076480E3CE07FE6E
:1005B80003454480828083076480E3CE07FE2302DC
:1005C800A4808280411126C44AC24EC006C6137751
:1005D800F50BAD47AA892E8995446306F70019459E
:1005E8006537653F8D444E854537FD59FD14639841
:1005F8003401B240A2441249824941018280135514
:1006080009011375F50F453F2209CDB7011126CC15
:1006180006CEB704080051371545BD37713769371D
:100628002AC6A53F32459377150089EB1365150057
:100638001375F50FF240E24405618280FD14E9FC70
:100648000145CDBF3971B7F7070006DE26DC4ADA67
:100658004ED852D656D45AD25ED062CE03AB470299
:100668007D57B7E700E083AA070022C603AA470020
:1006780023A0E71823A2E718B71B004093077005CB
:100688002380FB04930780FA2380FB0483C74B0471
:100698001147AA8993E7070E2382FB0437240040F9
:1006A8001305F00F2303E4802E8C3289B684E93DCC
:1006B800ED35938779FF93F7F70F0947137BFB0015
:1006C8006362F712A147370708006307FB00B70703
:1006D80007003E9C378707007955637EEC02B38795
:1006E8008401636AF702A9476398F90689E481449B
:1006F8006D3526850DA0E2850945E93505090345CF
:10070800F9FFFD14050C453D81C49377FC0FFDF7F7
:10071800F53D69FD7D55B717004013077005238027
:10072800E704130780FA2380E70403C74704418BD3
:100738002382E704F250B7E700E023A0571123A271
:100748004711E25432445259C259325AA25A125BE2
:10075800825B724C21618280A547639AF906A147A2
:100768008569631DFB029387F9FFB3869700B3740D
:10077800FC00B69493C7F7FFFD8C33FC8701416BEF
:10078800856B9387F9FFB3F7870199E363FF34011A
:1007980093D94900C147E3E637FF91BF9307F00FAC
:1007A800E9B78567C169FD17C9B71305800D638867
:1007B8006901130500026384790113051008E285B5
:1007C8001135A93521D94E9CB3843441C1B7E2858E
:1007D8002D45CD3BCA94E30C99F00509F133A30FDD
:1007E800A9FED5BF9387F9FF93F7F70F636FF70A51
:1007F800A1476319FB06B70708003E9C83C75B0443
:100808003707070093F7070299E337870700B70709
:1008180008003E977955E370ECF0B3079C00E36C51
:10082800F7EE8947639AF9048980D549E38104EC96
:10083800E2850945413B11090327C9FF9147232058
:10084800E48003076480E34E07FE23033481FD1729
:10085800EDFBFD14110C81C49377FC0FE9FF7D3388
:1008680071F54DBD83C75B043707070093F707028F
:10087800D5F33787070079BF8547E384F9F2E28526
:100888002D4589339389F4FFE38304E6313B93F7DD
:10089800390091EB83260480032709009307490058
:1008A800E398E6E43E89CE84F1BFB5476396F90044
:1008B8001305900BD13925BDB1471305B00AE38B59
:1008C800F9FE99476394F904A1476315FB00B7073C
:1008D80008003E9CE2852D45F53181440D4BA14928
:1008E800E13163966401832704802320F90085049D
:1008F800E39834FF8327048013172C0163550700FE
:100908002312F900EDB32322F900D5B39D4763996B
:10091800F90281451305B0047531BD44232009004F
:1009280023220900FD59493193F77400CA9703C778
:100938000700FD14398D2380A700E39634FF45BBDB
:1009480091476399F900130560063D39B9311305DC
:0C09580090098DB7E38D09D8F15459BB0C
:10096400970100209381C17F17F101201301416990
:100974001305400097F5FF1F93858568170600202F
:100984001306468863FAC5008322050023A0550098
:1009940011059105E3EAC5FE17F5FF1F1305457B15
:1009A4000285397101436EC619A0397141536AC871
:1009B40066CA62CC5ECE19A0397101535AD056D2A0
:1009C40052D44ED64AD826DA22DC06DE3301614000
:1009D400828241114AC026C222C406C68282B24D16
:1009E4004101024D924C224CB24B4101024B924ABE
:1009F400224AB2494101024992442244B24041018F
:100A040082802A8309CA83830500230073007D162C
:100A1400050385056DFA82802A8311C62300B3007D
:100A24007D16050365FE828085476318F500B74788
:100A3400002003C537886F10A0611305B00F8280B2
:100A440085476315F5002E856F10A0668280854763
:100A54006318F50037450020130565886F10606B37
:100A64001305B00F82808547631CF500B76500202D
:100A7400374500209385058B130575886F10302149
:100A84001305B00F82808547631EF500B747002029
:100A94009387478603C537020D478D45A380E70238
:100AA4006F10302F1305B00F82808547631FF50048
:100AB400B747002003C57788AE860966B74500208E
:100AC40031069385458A6F10D0201305B00F8280BC
:100AD4005C218D46638CD702F825630BD7029946B7
:100AE4006386D7026308D7029D466381D7026305F4
:100AF400D702A146638CD7006302D702A546638759
:100B0400D7009307F00F6313D700BA871CA2828023
:100B14008D47EDBF9947DDBF9D47CDBFA147FDB7C9
:100B240085476318F500B747002003C577886F1021
:100B3400502A1305B00F8280EFF2BFE62A840D65B8
:100B44000111130505DDEF20C022FD47B307F402B0
:100B54003749002013094986374B002085440D6C22
:100B64008D6C8D6A130B4B8A938B1700CA9B3E992D
:100B74001305400697000020E780A09E2145331509
:100B840095003345050897000020E780809D814546
:100B940022857D358149014D930D4006194A2285F0
:100BA4007D3519ED050D137DFD0F6363AA0F054512
:100BB40097000020E780E09A8549D5B785044DBFAA
:100BC4000545850997000020E780A099B3C9090865
:100BD400E397B9FD9947E393F4FED945D9A8138562
:100BE4004CDEEF20C0162285793DAA851DED8D6966
:100BF400138549DFEF20E017294597000020E7809F
:100C040040960D65130585DFEF2060149305E1011F
:100C14002285613DAA851DC113858ADDEF2020133D
:100C2400E39E44F99305700469A013858ADDEF20DF
:100C34000012E39544F993056004A5A837650020E4
:100C44005E86DA851305058B034D5B0051358345BC
:100C540019000D65130585E0EF20600F0D65130580
:100C640085E1EF20C00EEA8522855D3DAA8501E974
:100C74002AC6138549DFEF20C00FB2451DA813858E
:100C84008ADDEF20C00CE39B44F39305B00F15A05D
:100C940013054CE2EF20A00B2285F133AA85E30073
:100CA40005F413858ADDEF20800AE39944F1930566
:100CB40050042E85056125B38547631CF500B747AD
:100CC400002003C57788374600201306468A6F1034
:100CD40070061305B00F8280EFF21FCE1307E003F6
:100CE4003307E502B7360020374E002013064E8A3C
:100CF4009387867E8545035F26009386867E130E42
:100D04004E8AA54FBA97582291423357B70A98A3EF
:100D14000147637BE711B307EE0090236314F603E6
:100D2400903363115602B02311EE250733470708A9
:100D340081458148B303EF401D44A54411499549B9
:100D440063C67800050733470708E1B7B387E800AF
:100D5400F29703C807006314880C03C81700631DC7
:100D6400380503C8270013134860634B03040D437D
:100D74006364B3041303E003330365023693B30ED1
:100D8400B300A3820E0303C83700A3840E037D4877
:100D94003308050383CE5700DC23A20EB3E7FE001D
:100DA4002E98850593F5F50F332AD8202302B30234
:100DB4002317FA02231B0A028508B3C8080849B797
:100DC40083CE37000943E3996EFE0D43E366C3FE09
:100DD4001303E0033303650203CB47003693330A5E
:100DE400C30023020A017D48330805032304DA0102
:100DF40083CE5700FC2323000A02A20EB3EE6E0139
:100E0400230EFA00329805061376F60FB32AD8207B
:100E1400A301C3002396DA01239A0A0071BFE31DDC
:100E240098F89C33E39A27F9D1B6EFF29FBAAA84D3
:100E34000D65130545E32E84EF10B0730D6513059E
:100E440045E4EF10D0702285374400207135130437
:100E5400448A7C2085C30D65130585E5EF10306F4A
:100E64006C202685913DAA8511C50D65130585DD88
:100E7400EF10F06D376400209307048BFC271304F4
:100E8400048B85C30D651305C5E6EF10506C6C2407
:100E940026851D35AA8511C50D65130585DDEF1061
:100EA400106B7C3485C30D65130505E8EF10306ABB
:100EB4006C3426851135AA8511C50D65130585DDAC
:100EC400EF10F0681C2885C30D65130545E9EF1084
:100ED40010680C282685CD33AA8511C50D65130528
:100EE40085DDEF10D066014539B67D473307E5024D
:100EF400B747002093874786BA97DC3361C6EFF281
:100F0400BFAB1307E003B387E702373400201304B1
:100F1400847E956AAA892E89B284376A0020938ACE
:100F24000AE23E94638C0904054BE39D69FF723425
:100F3400B7970040938787116373960890C3CA8557
:100F440013054A8C7D3C034554026E3856861205BF
:100F5400136515001375150FEF10802025E17E38F9
:100F640093C707107EB87E3463F997043E999D8C2D
:100F74006DBF84C3268619A83E999D8C7234B79799
:100F8400004093878711E37696FE90C3CA851305C4
:100F94004A8C853C034554026E3856861205136507
:100FA40015001375150FEF10A01B09E97E3893C7C0
:100FB40007107EB87E34E3E197FC014505BC84C389
:100FC4002686B5BF01458280EFF2BFA07D47330777
:100FD400E502B747002093874786AE843289BA97E3
:100FE400DC3321E91307E003B387E7023734002039
:100FF4001304847E1566130606E23E9448204E28A8
:101004001205136595001375F50FEF10601515E5BE
:101014005E28B76500209385459093C707105EA8A6
:10102400B797004003A6C71126852320C900D13AEB
:1010340021A00547E308E5FA014575BAE146B30680
:10104400D5027D46374700201307478AB71700208B
:1010540023A0E796B73700209387076F3305C502AF
:10106400B697B7460020938646861306E00398C3D6
:10107400373700201307877E23A20700AA96D432AD
:10108400B386C60236975A2798C7828093064002D1
:10109400B306D502B73700201387077AB735002087
:1010A400131855009387077A3697034607029386E9
:1010B4000576832887000D06C2960A0690C2FD565F
:1010C400938505766394D800854614C7C295054771
:1010D400DAA1130740023307E502BA979A23FAA16B
:1010E400984798C5D847D8C5984B98C9D84BD8C9FC
:1010F400984FDC4F98CDDCCDCDBBEFF29F8DB73749
:101104000020131455009387077241113E94700018
:10111400A2855D3D01E96A20F977FD173E953335D7
:10112400A000060541016FF01F8DEFF29F8A93071F
:101134004002B307F502373400201304047AAA846A
:101144003E94856789071EA08547232404004CC468
:101154002300F402253F11E51C44268585071CC4A1
:10116400693F6FF05F89EFF23F8593074002B30751
:10117400F502373400201304047A41112A893E947D
:10118400856785071EA023000402093769E11C4412
:10119400B7390020B71A002085071CC4E147B307FC
:1011A400F9021384096F014B9389096F0D6A3E9408
:1011B40083A70A96232204001CC00C4070004A85B1
:1011C400213551E563120B02144013058AEA983263
:1011D4009C22A43222075D8FBC22E204C207D98F6D
:1011E400DD8CA685EF10B036B24754401844BE9645
:1011F40063E4E7006390970661473307E90283A736
:101204000A960D65130585EB4E9754C39386C70064
:1012140014C38566938646E1B306D902CC37D82732
:10122400A205D98D37270020130787AC36970EA364
:10123400F037F4272206558E942BC206D18E903BAC
:101244006206558E50C3EF1090304A857D354101BA
:101254006FF0CFF9184054C09D8C3E9718C0054BD1
:10126400A9BFEFF28FF493074002B307F502B73436
:1012740000209384047A4111AA89BE94856791075A
:101284009EA02380040219352A8471E99C443739CD
:101294000020371B002085079CC4E147B387F9026F
:1012A4009304096F814B1309096F8D6ABE948327D8
:1012B4000B9623A204009CC08C4070004E852933F9
:1012C4002A8451ED63940B02944013858AEE98327C
:1012D4009C2203CA360022075D8FBC22620AC20721
:1012E400D98F336AFA00D285EF107026B247D840FE
:1012F40094443E9763E4D700639747076146338677
:10130400C90283270B96B7240020138A84A90D658C
:10131400130585EF938484A932992322E900138766
:10132400C7002320E900D437D827EC37A206D98E8A
:10133400F827E205329A4207558FD98DC107232039
:10134400BA002320F900EF1090209946B386D90201
:1013540003250A006311A4024E8545332A8422859D
:1013640041016FF00FE89440D8C0330AFA40BE96AA
:1013740094C0854B91B70327090033868600334612
:1013840096203347E4201C332C230504A207C2050E
:10139400CD8F0C2338331374F40FCD8F6207D98F9C
:1013A4005CC24DBF9C211CC21397170081476396F2
:1013B400E7003E952300050082808507B386F5008B
:1013C4009022B306F500A38FC6FED5B7EFF2CFDEA9
:1013D40093074002B307F502373400201304047A5C
:1013E4004111AA843E94856795071EA085474CC485
:1013F4002300F4026139631305161C4437370020B7
:10140400371A002085071CC4E147B387F40213048C
:10141400076F8149930A076F3E9483270A96232214
:1014240004001CC00C4070002685793E6318051228
:10143400639F0900144098329C2203C93600220796
:101444005D8FBC226209C207D98F3369F900B247A4
:10145400584014443E9763E4D70063942711E1474E
:10146400B387F4021309E041B71900209389C92511
:1014740033892403BE9A83270A9623A2EA0013879A
:10148400C70023A0EA00D437D827A206D98E338711
:10149400290116A3F437F0271305A901A206D18E5A
:1014A40036A3943B902B4E95A206D18E56A3B03B07
:1014B400B42BEC2B2206558ED42BC206D18ED03BF6
:1014C4006206558EF43BA206CD8E8C2FC205D58DB7
:1014D400943F72A34182E206CD8E36A7C18212A741
:1014E40056A7B03FB42FEC2F2206558ED42FC20638
:1014F400D18ED03F6206558EF43FA206CD8E83C5B1
:101504000702C205D58D83C6170272A74182E2067F
:10151400CD8E36ABC18212AB56AB03C6370283C63F
:10152400270293858A062206558E83C6470283C7FF
:101534005702C206D18EE207D58FC183700076AB05
:101544001EAF8D35B2451305C9214E957000B3E524
:1015540055219385C506B9352685453641016FF079
:10156400EFC8144058C03309F940BE9614C08549E9
:1015740055BDEFF20FC693074002B307F5023734A7
:1015840000201304047AAA843A893E948567990753
:101594001EA08D474CC410C854C82300F402FD3467
:1015A40005E11C44268585071CC4813E11E9B73733
:1015B4000020938707729604BE94DC442320F9002C
:1015C4006FF06FC371473305E502938701C2AA9791
:1015D400984B11E7719A2E9605486313B6008280E2
:1015E400C8439847631FE500983194212207558F1B
:1015F400B421C206D98EB83123A807016207558FDA
:1016040098C30505C8C39105C9BFEFF20FBA930784
:101614004002B307F502373400201304047A411161
:10162400AA843E9485679D071EA08D474CC410C8AC
:1016340054C82300F402993C45E51C44B73A002001
:10164400371B002085071CC4E147B387F4021384C9
:101654000A6F138A01C2814B938A0A6F3E948327CF
:101664000B96232204001CC0F147B387F4023E9A70
:101674000C4070002685EFF03F953DE1B2490C40E7
:101684004E86639F0B0298319C2103C935002207C3
:101694005D8FBC216209138609FFC207D98F3369A4
:1016A400F900DC35D825C105A207D98F03C7E5FFAA
:1016B40042075D8F83C7F5FFE207D98F2326FA001F
:1016C4002685093758401C444E9763E4F900631C8F
:1016D4003901E147B387F4022685D697D8C3313C54
:1016E40041016FF00FB083270B9658C0330939417D
:1016F4001CC0854BB5BFEFF22FAC93074002B30774
:10170400F502373400201304047A4111AA843E946C
:101714008567A1071EA085474CC42300F402EFF09F
:10172400FF96631B05101C44B7390020371A0020AC
:1017340085071CC4E147B387F4021384096F814A07
:101744009389096F3E9483270A96232204001CC0C0
:101754000C4070002685EFF03F8779ED639F0A0007
:10176400144098329C2203C9360022075D8FBC22A4
:101774006209C207D98F3369F900B247544018444B
:10178400BE9663E4E700639C270B61473387E4025A
:101794009305202583270A9637190020B385B402C0
:1017A4004E9754C39386C70014C3943B902BA20650
:1017B400D18E130689DB2E9616A283C6070413095D
:1017C40089DB91E683C6470499C2C1071CC3E1477C
:1017D400B387F40213042025700033848402CE9767
:1017E40083AA070093854A03130544004A955D3E86
:1017F400B24913058420330A890093971900938909
:1018040059037000B3853A014A952311FA00593EF1
:10181400B2451305A4224A95939715008505CE95E4
:101824007000D6952313FA20B53EB2472685860765
:101834002314FA22EFF07F8C41016FF02F9B1840A4
:1018440054C03309F9403E9718C0854A11B7EFF2E6
:101854004F98A9474111328463E1D7029DC2F9161A
:1018640021471C42B3C606086360D7020D671307FD
:1018740007F2B3C6E62098420287C167FD17638268
:10188400F61241016FF02F97AE9783860700130776
:1018940080203307E502B717002093870797BA978C
:1018A40094A31C4085071CC0E9BFAE979423C5B719
:1018B400130780203307E502AE9783960700B71716
:1018C400002093870797BA9796A31C408907E1BF26
:1018D40093068020B306D50237170020AE9713076E
:1018E4000797369794339C23A206D58F1EA3F1BF86
:1018F400130780203307E502AE979443B7170020FF
:1019040093870797BA9794C31C40910769BF13073D
:1019140080203307E502B7160020AE97938606971A
:10192400B0234206BA9698332207518F9023BC33D2
:10193400518FE207D98F9CC2C1BF130780203307A0
:10194400E502AE979043D443B717002093870797D7
:10195400BA9790C3D4C31C40A107B1B71307802022
:101964003307E50237160020AE9713060697B42313
:10197400CC33C206A2053A9698332207558F942396
:10198400558FB433E206558FD423CD8EEC23FC332C
:1019940018C2C205CD8EE207D58F5CC26DBFC107E8
:1019A40019B7130780203305E5021C427000BE9569
:1019B400B7170020938707973E95EFF0BF9EB24775
:1019C400184086078507BA97F9BDEFE21FFE9831E4
:1019D4009C21A43122075D8FBC214111E204C2077E
:1019E400D98F02C6DD8C91E48144268541016FE0E4
:1019F4005FFF1309C6FF9105E30809FE2A8A368BA7
:101A0400814AE15B83C95500DC21F421A209B3E9D1
:101A1400F900FC3113848500A285A207DD8E7000D5
:101A2400528502C62D35B247B305F400B387FB4097
:101A34003E99E38C69FB850AE38954FBE31409FCB2
:101A440065B7EFE27FF793074002B307F502373437
:101A540000201304047A4111AA843E94E977938701
:101A640057801EA0B967938747C05CC895474CC48C
:101A740023280400232C0400232E04002300F40252
:101A8400EFF0CFE079E11C4437370020371A00200B
:101A940085071CC4E147B387F4021304076F814927
:101AA400930A076F3E9483270A96232204001CC0DE
:101AB4000C4070002685EFF02FD141E9639F0900A7
:101AC400144098329C2203C9360022075D8FBC2241
:101AD4006209C207D98F3369F900B24750401844EC
:101AE4003E9663E4E70063952707E147B387F40272
:101AF40083250A96B966938646C0B1052685D6978E
:101B0400D0C351168CC3D135130720253387E40283
:101B140093068020B7170020938787DB2685B3863A
:101B2400D402BA9737170020130707973697144340
:101B340058432395D7242397E724C18241832396CE
:101B4400D7242398E724EFF04FDB41016FE01FEA2D
:101B5400184050C03309F9403E9718C0854989BFE1
:101B6400EFE29FE593074002B307F5023734002004
:101B74001304047A938401C241112A893E9485672F
:101B8400ED071EA0F147B307F502BE949C405CC468
:101B9400DC401CC89C445CC88D472300F402EFF071
:101BA400EFCE25ED1C44B73A0020938A0A6F8507CF
:101BB4001CC4614433048902138A01C2014B814766
:101BC4005694CC4470004A855CC0EFF0EFBF31E519
:101BD400631F0B00D44498329C2283C93600220729
:101BE4005D8FBC22E209C207D98FB3E9F9003247FD
:101BF4005C401444BA976364D700631337036147A6
:101C04003307E9024A8556975CC371473307E902F3
:101C1400D11752971CC7EFF04FCE41016FE01FDD83
:101C2400D444B389E940054BBA96D4C459BFEFE212
:101C34005FD701112A84EFF06FC085452285EFF04C
:101C4400CFCE2285EFF02FD22285EFF08FE1E1474E
:101C5400B307F402B7290020938989A9BE9983A701
:101C64000900638D070E83A549002285B71400205F
:101C7400EFF0CFF59307E041B307F4029384C42552
:101C84000D65130545F4130A20257149371B0020FF
:101C9400814B0D6DBE949E24DA24EE20B224C2073B
:101CA4004207598EDD8DEF10800A9E28DA28EE2433
:101CB400B228C20742070D65DD8D598E130545F61E
:101CC400EF10E008330A440383A549007808FD5661
:101CD40001462285EFF0FF89F24C0D65130545F8A6
:101CE40033092403E685EF10800693078BDB938486
:101CF40001C23E9A130B8BDB269963947C07F14750
:101D0400B307F40237490020594B89691309498AFA
:101D14008D6A0D6ABE9423A2040023A4040098448F
:101D2400DC40228523A06401BA97DCC023A43401DB
:101D340023A624013535AA8513858A03EF102001D3
:101D44009044A28513054A04EF1060009C44E3F814
:101D540037FD0D6513054507EF10A00105616FE020
:101D64001FC883A54900930A2025B30A5403FD56CE
:101D7400014622852322090023247901232809000E
:101D8400EFF0BF888325090013058DF9DA9AEF0077
:101D9400107C832509002285D28DEFF0DF9583D551
:101DA4000A000D65130585FAEF00707A0D651305B9
:101DB40085FCEF00D079014C83D72A000D67850D8F
:101DC40063948709930A2025B30A54030D6C130501
:101DD4004CFEEF00107A0D65130585FEEF00307799
:101DE400D287814DDA9A03D72A008D668507631559
:101DF400B707930A2025B30A540313054CFEEF00DA
:101E040050770D6513050500EF007074D287814D7E
:101E1400DA9A03D72A008D6685076319B705130577
:101E24004CFEEF001075832509002285850B1139BE
:101E340083D7CA2483D5AA240D65C207DD8D130573
:101E44008501EF00D07055BD83C53D001305C7FD66
:101E5400050CEF00D06F8DB783C577201385C6FDC1
:101E64003EC6EF00D06EB247850DB5BF83C597223D
:101E74001385C6FD3EC6EF00906DB247850D51BF78
:101E8400EFE29FB337440020411113044486814498
:101E9400854913F9F40F4A85EFE01FB9631E350F26
:101EA4000D65A6851305C507EF00706A4A852300F2
:101EB4003401A3022401EFE03FC8AA856317050C8F
:101EC40018309947631DF7040D6513054509EF00A4
:101ED40010684C304A85EFE05FF52AC60D6513059E
:101EE400C50AEF00D066B2458DE10D65130545DFE7
:101EF400EF0030688D474A851CA0153B7D0481C4E2
:101F040041016FE0BFAE854469B7D947E388F5FE68
:101F14000D65130585DDEF009063894705A80D6500
:101F24001305450CEF00B0621C3021476383E704BE
:101F34006360F7020D476388E7021D47638FE7027A
:101F44000D6513058510EF00D0628D471CA07DB789
:101F540025476388E7021307F00FE393E7FE0D6557
:101F64001305C50F21A00D651305450DEF00305E67
:101F7400C1BF0D651305C50DD5BF0D651305850ED0
:101F8400F5B70D651305450FD5B7D947E308F5F641
:101F94000D651305451141B735F10D65A68513058A
:101FA4004513EF00D05A7D460349540081452285EC
:101FB400EFE09FA69307E0033309F90237350020C9
:101FC4001305857E1306E00381454A95EFE0DFA4FF
:101FD40035B7B797004039CD11472380E720B716AE
:101FE4000040BA2E13670702BAAE25472380E710D4
:101FF40037670020938687121307478C98C2376788
:102004000020938647121307479098C2138707123C
:102014009306002014C3130710F82388E71293864D
:10202400471198421317872998C213078003238006
:10203400E710828003C70720B71600401377B70F55
:102044002380E720984E1377F7FD98CE1D47C5B738
:102054003797004083476713AA8613F517000DC10D
:102064008547230BF71283574713858B81CF81CE86
:1020740089476387F6008347071093F7070281C7F0
:102084000945828001458280B797004083D7471372
:1020940013070020014593F70760638BE7000545AC
:1020A40081CB1307004009456384E7001305F00F53
:1020B4008280EFE21F92B7970040A3810710054783
:1020C400636EA7009387C71298431367170098C3DA
:1020D40009ED2D4597E0FF1FE780A048B797004022
:1020E4009387C7129843799B98C3094597E0FF1FCC
:1020F400E7802047B797004003C76713058B01CBE0
:1021040003D74713058B01C70547238BE7126FE0FD
:102114009F8E3797004083574713858B95C7834716
:10212400071093F707029DE3EFE2BF8A2A84A93FD1
:1021340008A03797004083470710014593E707023B
:102144002300F7106FE03F8B59458280379700409A
:1021540083470710014593E707022300F7108280A5
:10216400EFE23F849374F500A547411132896397E8
:10217400F40693F50518B335B000139A8500B79D9E
:1021840000403365AA008149938A4D10414C294B84
:10219400F15BA54C094D1314052923A08A0023845F
:1021A4008D119307803E03C78D10418B01EF0545C8
:1021B4003EC697E0FF1FE7806039B247FD17B3C7FB
:1021C4000708F5F383A70A00C19B23A0FA0083C77D
:1021D4008D10C18B99EB1305E00FBDA88547014A0B
:1021E400E39FF4F893F5051479B703C56D130589D6
:1021F4000DC58547238BFD121305800C97E0FF1F47
:10220400E780C03483D74D13858BC5CF83C70D10AA
:1022140093F7070295C7554581A083C78D10C18BDD
:10222400D1CF83C79D1013F7F70FBD8B6396940727
:102234008D466396D70263010A021D8B631BF70464
:1022440085093D4593F9F90F97E0FF1FE7800030BA
:10225400E39569F51305000241016FE04FF82D463F
:102264006384C70239476380E70629476396E70416
:10227400630E0904FD576303F9007D193D4597E09A
:10228400FF1FE780A02C11BFE3180AFC1D8BE30994
:10229400D7FA13E50702C9B72D8BE30FA7FB39471C
:1022A4006383E702E38667FD35476387E400E364FD
:1022B40097F20547E391E4F2C1D7E1BF23847D118E
:1022C40041B7594551BF1305E00279B71305A00280
:1022D40061B7EFE28FED2A8AB284130540062E8996
:1022E40097E0FF1FE780802699C02390040037946D
:1022F4000040930784112147896998C313860971A3
:1023040081453545B13D631E0514130444101C403A
:10231400376B002093F7F7CF93E707101CC09307A0
:102324004B8CE223130B4B8C630E040E630C090ECF
:102334008387070063CB0706B79B00409389097125
:102344001305400697E0FF1FE780402013878B1199
:10235400B3578A0ACA8A1CC303A78B11B3872A41BD
:10236400138C8B11B3C70708639DE71083A54B102B
:102374004E86054513894B10B3C50508D53375E161
:1023840083A74B1093C7071023A2FB1083A78B11BD
:10239400B307F44033C4070891C403A78B119E20EC
:1023A400BA979EA041C0568961BF376B0020B79A87
:1023B400004093890971130B4B907D1A1305400655
:1023C40097E0FF1FE780801883A54A104E862545B5
:1023D400938B4A10B3C50508613341E583A74A10BE
:1023E4001387CA1193C7071023A2FA101443A287B4
:1023F40063F586001C43B3C707081D8C33440408E7
:1024040081C49A203E979AA00147B3460708639C6B
:10241400D7043E999387CA11984331EFB797004088
:1024240023AC07101305400697E0FF1FE780001256
:10243400B797004083A78711054591C325450966D1
:102444001306067193050010213B01EDB797004078
:1024540013878711184311C79387C7119C4391C3EE
:102464005D456FE00FD8B30667019022B306E9001B
:10247400050790A259BF9C43B377FA00C5F31DFC2E
:1024840071BF03C70A00DA97850A98A3F1B5EFE292
:102494004FD4A1471CA137070001B76700209387D9
:1024A400478C1307076898C337071200D8C32A84D8
:1024B400082141111306E100AE84213D01E9FC30FD
:1024C40038871CA0C54763E3E7005D4541016FE021
:1024D4008FD2EFE26FCE37640020B70900024111BA
:1024E4001304448C328A93890968B70A0400368637
:1024F4002A89AE84232034012322540136C6D13BD9
:102504001DE532468D475D451A2263F2E702BC3071
:10251400B820A685A207D98FB3D7470B1EA22322C2
:102524005401232034011E224A857EA05D334101DB
:102534006FE0CFCBEFE24FC837640020370A0003C7
:102544001304448C4111B284130A0A68B7090400C5
:1025540013E9053023204401938999401306E100CF
:10256400A685AA8A23223401231124019D3319ED5F
:102574009C201306E1002320440123223401A68574
:1025840056857C87231124017EA0A13341016FE08D
:10259400EFC5EFE20FC4B76700209387478C13079A
:1025A400005098C3AEA32E840146814523A20700A0
:1025B4000D33AA8401ED1374F407B7970040A38187
:1025C4008710154597E0FF1FE780A0F926856FE087
:1025D4008FC2B767002005679387478C130707905E
:1025E40098C3AEA30146814523A20700DDB1EFE203
:1025F4004FBEB7170040116723ACE70AC145054534
:10260400E9288545216599288D45116581285D2234
:102614006FE06FBEEFE2EFBB1305503497E0FF1F8E
:10262400E78040C0E9370D651305C51499270545B2
:10263400EFF03F9A374500207D46814513053588E4
:10264400EFE08FBD374500201306E00381451305F5
:102654006582EFE06FBCEFF0BF82F5BF914763EA9C
:10266400B7048D6793870716B3C5F5209841B7174C
:1026740000409387470B0287944337170040B3F613
:10268400A64094C39306070B9C42B3F7A74019A82E
:10269400944337170040B3F6A64094C39306070B40
:1026A4009C42C98F9CC29307070A98433377A7407B
:1026B40098C38280944337170040C98ED9B7984392
:1026C4003377A74098C3B71700409387070A984306
:1026D400498FF9BF9843498FF5B719C5371700409B
:1026E4001E2FCD8F1EAF8280B71700409A2FB3756F
:1026F400B7408EAF8280B71700409A279306000C2C
:102704001377070C630AD7049A27137707100DC7AA
:102714009A279E277D8B09EB93F70720B1C3375582
:10272400E80113050580828037C59812FD8B1305D7
:1027340005E03345F50282809A279E271377072008
:10274400FD8B11C73755E80113050580DDB7372523
:10275400F40013050540F1BF2165130505D08280FF
:102764003725F400130505408280328581473737C9
:102774000040A14663C3A70082803037E30FD6FE32
:102784003386F5001022850710A7EDB7EFE26FA49A
:102794002A8495372947B307E5028D83B3D7870287
:1027A4009507B3D7E70237370040B3C707085EA7DA
:1027B4006FE06FA4EFE2EFA1716513050520F9370F
:1027C400B7370040130770F8B8A30D47B8B3130721
:1027D400000498B30547F8A76FE0EFA1011106CEF6
:1027E4002EC60DCD1841AA8705C358417D5511CB7E
:1027F4008546631BD70098472300070023A20700E0
:102804000545F240056182809847B24614A3984773
:10281400050798C7D8437D17D8C3DDB705466C00B4
:10282400A937F9BF011122CC26CA52C456C25AC0D4
:1028340006CE4AC84EC62A8AAE8A3284BA8413FBAC
:102844001600634A06082E853689852BAA896352A9
:102854008508635D9502058C63190B08130B000250
:102864002289634F200701493369240B330424412F
:1028740063D99902B3843441A68993050003528530
:10288400FD19A93FE39B09FE269921A8098C137918
:102894002900E30309FCE9F063010B040149130B6C
:1028A4000003CA84B3872441D69783850700B1E126
:1028B4002289634420058147F2403365F40A624467
:1028C4004249B249224A924A024B2695D2440561B2
:1028D400828001446DBF814941B7130B000349B79E
:1028E400DA855285E53D7D19ADBF130B0002014920
:1028F40041B75285E535850475B7DA855285F93DCA
:102904007D1945BF397126DA4ED606DE22DC4AD857
:1029140052D456D25AD0BA84BE899DE1930700039B
:102924000147CE8626862C007C84ED3DF25062540D
:10293400D2544259B259225A925A025B216182807E
:102944002A893684C28A468B91CAA94701446317EF
:10295400F60063D50500B305B0400544A30F01009C
:102964001307F101A54613856AFCB3F7C50263D3C7
:10297400F600AA9793870703A30FF7FE130AF7FF3E
:10298400B3D7C50263F5C50411C8A9C493F72900D8
:10299400B1C39305D0024A859135FD1493F74900DC
:1029A40099CF93071006930500034A85639CFA02A6
:1029B4003535930580074A8515350904F9145A8776
:1029C400CE862686D2854A85B13D229585B7BE85B9
:1029D400528761BF9307D002A30FFAFE0144130A82
:1029E400E7FF6DBFE53B93058005F1B701458280A4
:1029F4000145828039715AD00D6B22DC26DA4AD81F
:102A04004ED652D456D25ECE66CA6AC806DE62CCB0
:102A1400AA892E893284014A8144930B5002930A75
:102A2400D002A54C294D130BCB17830509008DE566
:102A34006385090081454E855533F25062544259ED
:102A4400B259225A925A025BF24B624CD24C424D1A
:102A54002685D25421618280638775014E85BD3BF2
:102A640085040509D9B783071900130C1900639964
:102A74007701930550024E85953385046289D5B755
:102A8400C5DB6386570363CCFA0013073002638700
:102A9400E7041307B0026380E704814721A8130702
:102AA4000003E39CE7FE130C2900894721A0130CC3
:102AB4002900854703070C00630D570363C4EA022A
:102AC40093063002630AD7029306B0026308D70262
:102AD4006289014625A8130C2900C1B7130C2900EB
:102AE4009147C9BF93060003E314D7FE93E7270079
:102AF40031A0050C8547E9BF93E74700050CC9BF22
:102B04003306A6031317476005093A96830609009E
:102B1400138706FD9375F70FE3F4BCFE1307E00279
:102B24009945639FE60005098145A54629480307A1
:102B34000900130707FD1375F70F63F9A6022E8A20
:102B4400830609001307C0066380E6046347D702BF
:102B540013078006638BE6061307A006638EE6065A
:102B64001307C004638AE60601473DA0B385050345
:102B7400131747600509BA955DBF13074007638DB6
:102B8400E6041307A007F9BF030519000D476314F2
:102B9400D500050911470509830609001305000638
:102BA400635ED50213058007E34DD5EA13052006BD
:102BB400E359D5EA9386D6F993F6F60F5545E362C1
:102BC400D5EAB3C6662194428286030519000147FB
:102BD400E314D5FC0909C9B7050979B713057004CD
:102BE4006344D50213074004634FD712130730041C
:102BF400E399E6E61840130C4400A3060100588646
:102C0400BE8601476C0099A0930580051308100443
:102C1400E399B6E491466310D70893057400E199EB
:102C240013848500C2883E880147B287C146D041DB
:102C34008C414E85653BAA942DB50C40130C440081
:102C440081E58D65938545175287BE864E85EFF0E5
:102C54007FBD25A89146631ED70093057400E199B2
:102C64003E881384850093081006B2870547A94659
:102C74007DBF130C4400D2881308100632878546A2
:102C840029460C404E85EFF0FFC7AA946284D1BB5D
:102C94001308100641B7130C4400D28832878146CA
:102CA4004146C5B79146631DD70093057400E19969
:102CB4003E881384850093081006B287014745BFF8
:102CC400130C4400D28813081006328781464DBF86
:102CD400914693E74700631AD70093057400E1997E
:102CE40013848500930810063DBF130C4400D2885A
:102CF4001308100665B79146631ED7009305740048
:102D0400E1993E881384850093081006B287014731
:102D1400A14631BF3287130C4400D2881308100631
:102D240081462146B9BF93081004130574006199C4
:102D34003E883287AE8750410C4113048500A94672
:102D44004E85EFF0FFCAC5BD93081006F9BF39716F
:102D54002ED232D4AA855010014506CE36D63AD8A2
:102D64003EDA42DC46DE32C6EFF0DFC8F2402161D3
:102D74008280011122CC26CA06CE83070500AA84CC
:102D84000144DC87050499EFA9479305F100054642
:102D94000145DC87EFF07F9DF24022856244D244F6
:102DA4000561828005469305F1000145EFF0FF9B24
:102DB400B387840083870700E9B7AA879823850728
:102DC40075FF3385A7407D1582800000456E756DC3
:102DD4003A0D00004572722825303278290D0A0018
:102DE40053657420446576416464723A200000009F
:102DF4004F4B0D0047657420436667446573633A1F
:102E040020000000446576547970653A20253032FC
:102E1400780D0A00536574204366673A2000000069
:102E240047657420446576446573633A2000000066
:102E3400456E756D20496D6167653A0D00000000AF
:102E4400416E616C797A6520436667446573633AC1
:102E54002000000047657420537472696E674465EE
:102E64007363343A20000000476574205374726918
:102E74006E6744657363313A20000000476574202F
:102E8400537472696E6744657363323A20000000BC
:102E940047657420537472696E6744657363333A8B
:102EA4002000000074656D703A20253034780D0AD6
:102EB400000000005374616E64617264566572733D
:102EC400696F6E3A20253032782C2056656E646F17
:102ED40072457874656E73696F6E49443A20253281
:102EE400780D0A0074656D703A20253032780D0A29
:102EF400000000005054505F53746F72616765495D
:102F040044735B207573625F706F7274205D2E6E04
:102F14003A20253032780D0A00000000AE18000077
:102F2400B4180000D4180000F418000012190000AE
:102F34003E19000060190000A2190000A219000047
:102F44004D61784361706162696C697479203D20D8
:102F5400253038782C20253038780D0A0000000000
:102F6400467265655370616365496E427974657331
:102F7400203D20253038782C20253038780D0A0063
:102F840020746F74616C5F6E756D203D2025303246
:102F9400780D0A0068616E646C65203D2025303828
:102FA400780D0A006F626A5F696E666F2E4F626AFF
:102FB400656374466F726D6174203D2025303278EC
:102FC4000D0A00006F626A5F696E666F2E46696C57
:102FD400654E616D653A00002530327820000000AE
:102FE4000D0000006F626A5F696E666F2E44617443
:102FF400615F43726561743A000000006F626A5F4A
:10300400696E666F2E446174615F4D6F64696669B1
:1030140065643A006F626A5F696E666F2E46696C1A
:10302400655F53697A65203D202530386C780D0A38
:103034000000000073203D20253032780D0A000086
:103044004D54505F506172615B2025303278205DB1
:103054002E6765745F646174612E48616E646C658B
:103064005F6D61786C656E3D25640D0A000000009B
:10307400656E640D0000000055534220506F727459
:1030840025782044657620496E2E0D0A0000000044
:10309400526F6F74204465766963652049732049D3
:1030A4006D6167652E200000467572746865722034
:1030B400456E756D20526573756C743A200000007E
:1030C400526F6F74204465766963652049732000EC
:1030D4004869642E2000000053746F726167652E86
:1030E400200000005072696E7465722E200000008A
:1030F4004875622E20000000556E6B6E6F776E2E41
:1031040020000000456E6420456E756D2E0D000094
:10311400456E756D204661696C2077697468204539
:1031240072726F7220436F64653A25780D0A00004D
:1031340055534220506F7274257820446576204F91
:1031440075742E0D0A000000555342485320486FF1
:10315400737420496E69740D000000007C26000021
:1031640094260000B8260000C2260000D8260000DD
:10317400286E756C6C290000F82B0000582C000098
:103184004C2D00004C2D00004C2D0000662A000040
:10319400662A0000662A0000662A0000662A0000EB
:1031A400662A0000662A0000FA2C0000D42C0000D5
:1031B400662A0000662A00003E2C0000662A0000F1
:1031C400A82C0000662A0000662A0000942C000047
:00000001FF
