:040000006F10C0318C
:100004000000000000000000A0000020820E00207C
:10001400A9BDF9F3A00000200000000000000000CA
:10002400A0000020A000002000000000000000004C
:10003400A000002000000000A0000020000000003C
:10004400A0000020A0000020A0000020A0000020AC
:10005400A0000020A0000020A0000020000000005C
:10006400A000002008020020A0000020A000002022
:10007400A0000020A0000020A0000020A00000207C
:10008400A000002030020020A0000020A0000020DA
:10009400A00000202A030020A0000020A0000020CF
:1000A40001A0B7170040984B41111367070198CB83
:1000B40003C707011377E70F2388E70013078008B6
:1000C40073370780137787083AC60F1000001307A9
:1000D40070052380E704130780FA2380E7040F10D8
:1000E4000000B847B70600069506558FB8C703C782
:1000F400B7041377F70DA385E70403C7A7001367B5
:1001040027012385E700130750142394E7003727BA
:1001140000408346578093F6F60EA302D7808946A3
:10012400A303D78003C7E7041377C70F1367170028
:100134002387E70403C7F70213672700A387E702AF
:1001440003C70701136717002388E7002380070408
:10015400B247F3A707800F10000041018280EFF03F
:100164005FF41305C020970500009385250A171630
:1001740000001306A61A63FAC5008322050023A013
:10018400550011059105E3EAC5FE172500E01305A6
:10019400A51897150000938565181386418063FAA6
:1001A400C5008322050023A0550011059105E3EA4B
:1001B400C5FE171500001305A5229385C148637772
:1001C400B500232005001105E36DB5FE930250022E
:1001D400739002BC8D42739042808542739012BC2E
:1001E400930280087390023097020000938282E1A8
:1001F40093E2320073905230971200E093820267C8
:080204007390123473002030E6
:10020C003737004083476780858B89CF8547230329
:10021C00F780138741028357C7008507B3C70708C8
:10022C002316F70073002030411102C4231601007D
:10023C002307010037470040834747809946BD8B11
:10024C006384D7063147638DE70611476397E7064A
:10025C00371600201D47938741023745004013068F
:10026C00C63F1308F03F83D6470093851600B3C5ED
:10027C0005082392B70083458580B2962380B6008B
:10028C0083D647006374D800239207007D17137739
:10029C00F70F71FB03D767001D073347070823933C
:1002AC00E7002396070011A88345578009651305BD
:1002BC004517972000E0E780C0DE41017300203035
:1002CC002800972000E0E780808437160020137800
:1002DC00F50F0147938741021306C63F9308F03F81
:1002EC009376F70F63E8060103D767001375F50FD4
:1002FC002A9765B783D6470093851600B3C50508C2
:10030C002392B7002C00BA9583C50500B2962380C2
:10031C00B60083D6470063F4D80023920700050784
:10032C00C1B7011126CC22CE4ACA4EC852C656C4F9
:10033C005AC2B794004083C6840083C7940013F755
:10034C00F60FC18A6384067C93F7F70F13F97700D5
:10035C00C18B63900766630F090089476307F960D7
:10036C007244E2445249C249324AA24A124B0561D4
:10037C007300203083C7F409A18B638B07569387D6
:10038C00C14403C7070083D627002389E18003C734
:10039C0017001386C144A389E18003D7670083D774
:1003AC0047002396E1802398D1802397F18083CA5C
:1003BC00218193FA0A06638E0A0883C7218193F779
:1003CC000702ADCF03C63181930610029377F60F67
:1003DC006301D60663E9F60093060002638CD7002E
:1003EC001309F00F01A89387E7FD93F7F70F8546E4
:1003FC00E3E8F6FE83D6C1809307F003930A00046A
:10040C0063E6D70083DAC180B3CA0A0883A44181AA
:10041C0056861385C144A685971000E0E780E0F965
:10042C00D694CA8A23AA91809307F00F6398FA1E78
:10043C0049A99387210323AAF1806DBF03C92181A8
:10044C001349090413596948330920411379F90FE9
:10045C0055B783C531812D4593F7F50F6363B546C9
:10046C00896593858512B3C7B7209C43828783D750
:10047C0001819946A183FD1793F7F70F63E2F60EFE
:10048C00896693868615B3C7D7209C438287896774
:10049C009387C72883C4070023AAF180A1A0B7972C
:1004AC00004003C7A700B7160020B717002013178A
:1004BC004760635707060547238FE73C1307002067
:1004CC002390E63E03C7E73D85476310F70689672F
:1004DC009387472083C4370003C7270023AAF180E2
:1004EC00A204D98C83D7C18063F4F4002396918045
:1004FC0003D7C1809307F003130B000463E6E700F6
:10050C0003DBC180334B0B0883A441815A861385CE
:10051C00C144A685971000E0E78020EADA9419B769
:10052C00238F073C1307000461BF896793878724D7
:10053C0055B783D70181094793F7F70F638AE70211
:10054C00636DF70095E3B71700209387873D83C44D
:10055C00070023AAF180814A71B70D47638EE7002B
:10056C008144930AF00FBDBF89679387471F1DB75E
:10057C0089679387C71D39BF89679387471C19BF44
:10058C0089679387871B39B7B717002083C6E73D68
:10059C000547639FE60289679387872483C43700E6
:1005AC0003C727008965A204D98C37150020138650
:1005BC00E4FF9385A52413052535971000E0E7800B
:1005CC00C0DFB71700209387073523AAF18019BF26
:1005DC0083C7E73D93FAF70FC1F7896793874720E5
:1005EC0083C4370003C727008965A204D98C37154B
:1005FC0000201386E4FF9385652013056539971059
:10060C0000E0E78080DBB71700209387473975BF80
:10061C0083D7018193F7F70F2385F18083C721815D
:10062C009397476063D7072A03D7C18093070004C9
:10063C0063E6E70083D7C180B3C7070803D7C1803F
:10064C001D8F334707082396E18037970040231E00
:10065C00F7089947230FF708379700408347F709A6
:10066C0093F7F707A30FF708E5B983C7B180230009
:10067C00F60003D7C1808547E3F2E7FA2396F180B1
:10068C0071BF83D7018193F7F70FA385F180B7175B
:10069C0000200547238EE73C51B783C72181FD8B92
:1006AC008DE383D70181054793F7F70F639BE72011
:1006BC00371700208347D73D93F7E70FA30EF73C7E
:1006CC00B1BF03C6218189477D8A631CF61E83D77F
:1006DC00018193F7F70F6396071E83D7E180130709
:1006EC00200893F7F70F638DE70013073008638E2C
:1006FC00E7006398C71C37970040A303F70A39BF7C
:10070C00B79700402383070A11BFB7970040238592
:10071C00070A29B783C72181FD8BC1EF83D70181DC
:10072C00054693F7F70F6390C704371700208346ED
:10073C00E73D6398F600896783C7B72093F70702F4
:10074C0081EF8347E73D639E0716896783C7F724CC
:10075C0093F7070263870716371700208347D73DA7
:10076C0093E71700A1BF83D70181094793F7F70FD0
:10077C006399E71403D7E180930700106304F70231
:10078C0003D7E18093070020630EF70003D7E180C5
:10079C00930700306308F70003D7E180930700400C
:1007AC00E31EF7E683C7818193E70708238CF1806A
:1007BC00B5B503C6218189477D8AE311F6E683D757
:1007CC00018193F7F70FE39B07E483D7E1801307CD
:1007DC00200893F7F70F6381E7021307300863884B
:1007EC00E7026390C70E379700408347770A93F769
:1007FC00C70F93E7170011B7379700408347670A75
:10080C0093F7C70F93E717002303F70A01BD379738
:10081C0000408347A70A93F7C70F93E717002305F8
:10082C00F70AEDBB23000600A9B583C721812396E7
:10083C0001440947FD8B6393E70603D7E1809306D8
:10084C0020081377F70F6309D70293063008630269
:10085C00D7046312F706B797004083C7770A85461B
:10086C008D8B6394D7002300F60083D7C180E37788
:10087C00F7DA2396E1805DB3379700400347670AA8
:10088C000D8B85466314D7002300E60003D7C18087
:10089C00E5B3379700400347A70ADDB783C721812B
:1008AC00FD8BE1F7B717002083C7D73D858BD5DFCC
:1008BC002300E6005DBF03D7C18063F4E7002396F5
:1008CC00F180B79700401547238FE708A38FE708FF
:1008DC0061B383D7C18089EBB7970040239E07088B
:1008EC001947238FE7088DBBB79700401947F9BF0D
:1008FC00A38F040883D7C40783C7218193F7070606
:10090C00A5C32396018003C73181930700026319A5
:10091C00F7041387C144834607009387410223875A
:10092C00D70083461700A387D70083462700238868
:10093C00D70083463700A388D70083464700238916
:10094C00D7008346570003476700A389D700238A43
:10095C00E7007947A38AE700971000E0E780A0B88A
:10096C0083D7C180E39A07CE85BF03D7440893870A
:10097C0041029376F70F03C6870021832384D700A7
:10098C0083C69700A384E70003C7740A1347470084
:10099C00A383E40A03C7740A1377C70FA383E40A7B
:1009AC00A385070083C7740A93F7F707A383F40A98
:1009BC0045BA8947630FF90C8D47630DF910E311A4
:1009CC00099A83D7C18081E79947A38FF40883C71D
:1009DC00218193F70706ADEF83C73181954613F755
:1009EC00F70F638AD70899476310F70A03D7C180BA
:1009FC009307F0031304000463E6E70003D4C180FB
:100A0C003344040883A441812286A6851385C144FE
:100A1C00971000E0E780609A83D7C180A29423AA44
:100A2C009180818FB3C707082396F180B797004058
:100A3C00239E870803C7E70913474700238FE7085E
:100A4C0003C7E7091377C70F13672700238FE7083E
:100A5C0083C781819397476063D60700971000E0A6
:100A6C00E780E0C0379700408347E70993F7F70723
:100A7C00230FF708F5B083C7A1803797004093F791
:100A8C00F70FA301F700E9B7B7970040239E0708BB
:100A9C00C1B72392040A83C7640A93C74700238310
:100AAC00F40A83C7640A93F7C70F2383F40A938766
:100ABC00C10303C727001377E70F2381E700938750
:100ACC0041022385070083C7640A93F7F707238342
:100ADC00F40A79B083C7A40A93F7C70F2385F40AE5
:100AEC0083C7A40A93C747002385F40A9387C103DD
:100AFC0003C737001377E70FA381E70083C7A40A66
:100B0C0093F7F7072385F40A6FF09F859377070413
:100B1C0099C7930700042384F4006FF07F849377C4
:100B2C00270085CF89472384F40003C7A400B71797
:100B3C000020118B19CB03C7D73D13672700A38E59
:100B4C00E73C83C7D73D6FF0BF8103C7D73D137711
:100B5C00D70FA38EE73C6FF0BF80937717008DC73C
:100B6C00A385018023850180B7170020A38E073C45
:100B7C00B7170020238E073CA3810400971000E0D8
:100B8C00E780E0BB854741BF2384E4006FF04FFD55
:100B9C00411122C683A7018291C783A70182829744
:100BAC0023A001823244410173002030B7F70700C3
:100BBC00D853411123AEE180B7170040984B13670F
:100BCC00070198CB03C707011377E70F2388E700CA
:100BDC001307800873370780137787083AC60F10FE
:100BEC000000130770052380E704130780FA2380A5
:100BFC00E7040F1000001307000C6319E50203D77C
:100C0C0087001367070C2394E700B717004003C74E
:100C1C000701136717002388E70023800704B247F6
:100C2C00F3A707800F1000004101828003C7A700C3
:100C3C0093760520C9C2118B39E703C7E70403C6B5
:100C4C00E7041377F70F136636002387C70403C630
:100C5C00A700136646002385C70003D6870083D5FB
:100C6C0087003346060893E5050C2394B700A54787
:100C7C000100FD1793F7F70FE5FFB717004023941A
:100C8C00C7002387E70493770510DDCB37170040A7
:100C9C008347A70093E707012305F7009377F50136
:100CAC0085E3B727004003C7578013670701A3826A
:100CBC00E7801D4715A0136727002385E700E1B7E0
:100CCC002547636BF704B727004003C7578013779A
:100CDC00F70EA382E7800547A383E7803345050819
:100CEC00B71700401367050C2394E7002394A70063
:100CFC00C9C203C7570483C65704418B858A558FD5
:100D0C0009F703C72701418B09D303C7A700137742
:100D1C00D70F2385E700D5BD9377050199EBB7274E
:100D2C00004003C757801377F70EA382E78009476B
:100D3C0065B7B727004003C757801377F70E85BFF9
:100D4C009377850181EFB727004003C7578013774E
:100D5C00F70EA382E78013071005BDBFB72700402D
:100D6C0003C757801377F70EA382E780130770052C
:100D7C00A5B703C7A7001377B70F61BF37E700E02C
:100D8C001C4354437D56A183E206D58F9306071866
:100D9C0090C2D0C2B70600203716002093850600FB
:100DAC00130686B903A8850390DD23A0A182916563
:100DBC00130507100CC1130707200CC393860600FC
:100DCC0003A7018275FF37E700E011662320C718DF
:100DDC000F10000023AC0603939687002320D71036
:100DEC00E1832322F7108280170300E0E702E35926
:100DFC0041118146014681451145F52A930780082A
:100E0C00F3B7078093F787083EC60F100000B7179B
:100E1C000040130770052380E704130780FA238032
:100E2C00E7040F10000003C7670413671700238340
:100E3C00E70423800704B247F3A707800F100000D4
:100E4C004101170300E06700835637E700E01C43BD
:100E5C005443A183E206D58F1CC1FD572320F718FC
:100E6C002322F718828013178500B7E700E023A030
:100E7C00E710618123A2A7108280411181460146AF
:100E8C00814511458D2A13078008F337078093F7A6
:100E9C0087083EC40F100000B717004013067005FA
:100EAC002380C704930680FA2380D7040F10000018
:100EBC00FD552396B70223800704A245F3A50580B0
:100ECC000F10000073370780137787083AC60F108E
:100EDC0000002380C7042380D7040F10000003C731
:100EEC006704136717002383E70423800704B247C2
:100EFC00F3A707800F10000001A09307E00433054F
:100F0C00F50295473355F50201007D1575FD82807C
:100F1C00170300E0E70263472A841305803E7D1423
:100F2C00E93F3344040875F8170300E067002348D1
:100F3C002E96AA870F70B6788280230304801547FB
:100F4C002303E48001002302A48082808307648051
:100F5C00E3CE07FE23030480828083076480E3CE04
:100F6C0007FE03454480828083076480E3CE07FE3E
:100F7C002302A4808280411126C44AC24EC006C6F8
:100F8C001377F50BAD47AA892E8995446306F700B4
:100F9C0019456537653F8D444E854537FD59FD1420
:100FAC0063983401B240A2441249824941018280C3
:100FBC00135509011375F50F453F2209CDB70111E2
:100FCC0026CC06CEB704080051371545BD3771370E
:100FDC0069372AC6A53F32459377150089EB13650F
:100FEC0015001375F50FF240E24405618280FD1483
:100FFC00E9FC0145CDBF3971B7F7070006DE26DCE9
:10100C004ADA4ED852D656D45AD25ED062CE03AB00
:10101C0047027D57B7E700E083AA070022C603AA60
:10102C00470023A0E71823A2E718B71B004093073B
:10103C0070052380FB04930780FA2380FB0483C78D
:10104C004B041147AA8993E7070E2382FB0437242C
:10105C0000401305F00F2303E4802E8C3289B684F4
:10106C00E93DED35938779FF93F7F70F0947137B2C
:10107C00FB006362F712A147370708006307FB0008
:10108C00B70707003E9C378707007955637EEC0253
:10109C00B3878401636AF702A9476398F90689E468
:1010AC0081446D3526850DA0E2850945E935050994
:1010BC000345F9FFFD14050C453D81C49377FC0FE6
:1010CC00FDF7F53D69FD7D55B71700401307700519
:1010DC002380E704130780FA2380E70403C747043F
:1010EC00418B2382E704F250B7E700E023A05711AD
:1010FC0023A24711E25432445259C259325AA25ACD
:10110C00125B825B724C21618280A547639AF9065F
:10111C00A1478569631DFB029387F9FFB38697008E
:10112C00B374FC00B69493C7F7FFFD8C33FC8701B6
:10113C00416B856B9387F9FFB3F7870199E363FFE5
:10114C00340193D94900C147E3E637FF91BF9307B8
:10115C00F00FE9B78567C169FD17C9B71305800D95
:10116C006388690113050002638479011305100873
:10117C00E2851135A93521D94E9CB3843441C1B7D0
:10118C00E2852D45CD3BCA94E30C99F00509F1336A
:10119C00A30FA9FED5BF9387F9FF93F7F70F636FE2
:1011AC00F70AA1476319FB06B70708003E9C83C7E3
:1011BC005B043707070093F7070299E337870700AB
:1011CC00B70708003E977955E370ECF0B3079C0025
:1011DC00E36CF7EE8947639AF9048980D549E3817A
:1011EC0004ECE2850945413B11090327C9FF9147EE
:1011FC002320E48003076480E34E07FE230334813D
:10120C00FD17EDFBFD14110C81C49377FC0FE9FF66
:10121C007D3371F54DBD83C75B043707070093F72A
:10122C000702D5F33787070079BF8547E384F9F2C6
:10123C00E2852D4589339389F4FFE38304E6313B42
:10124C0093F7390091EB8326048003270900930759
:10125C004900E398E6E43E89CE84F1BFB547639636
:10126C00F9001305900BD13925BDB1471305B00A10
:10127C00E38BF9FE99476394F904A1476315FB00CE
:10128C00B70708003E9CE2852D45F53181440D4B96
:10129C00A149E13163966401832704802320F9007E
:1012AC008504E39834FF8327048013172C016355BE
:1012BC0007002312F900EDB32322F900D5B39D47A3
:1012CC006399F90281451305B0047531BD4423209F
:1012DC00090023220900FD59493193F77400CA977C
:1012EC0003C70700FD14398D2380A700E39634FF54
:1012FC0045BB91476399F900130560063D39B93137
:10130C00130590098DB7E38D09D8F15459BB000032
:10131C00971100209381C18B17F101201301C1CDCE
:10132C001305400097F5FF1F938505CD17F6FF1F9A
:10133C00130606ED63FAC5008322050023A05500B1
:10134C0011059105E3EAC5FE17F5FF1F1305A5E08E
:10135C000285397101436EC619A0397141536AC8AF
:10136C0066CA62CC5ECE19A0397101535AD056D2DE
:10137C0052D44ED64AD826DA22DC06DE330161403E
:10138C00828241114AC026C222C406C68282B24D54
:10139C004101024D924C224CB24B4101024B924AFC
:1013AC00224AB2494101024992442244B2404101CD
:1013BC0082802A8309CA83830500230073007D166B
:1013CC00050385056DFA82809387410223900700FF
:1013DC00239107002392070023930700238507001E
:1013EC000547A385E700239607000DC52387070053
:1013FC00930620FCA387D7002388E700A388070067
:10140C0023890700A38907002147238AE70079472E
:10141C00A38AE7008280EFF23FF5B717004013076D
:10142C00000823ACE70AAE89AA848545130500049D
:10143C003289368461218D451305000841214E8582
:10144C00152DB7470040130770F82381E7800D472F
:10145C00A381E78013070004A380E7800547238757
:10146C00E7806318E90003C7378013674700A3813F
:10147C00E78085476317F40237470040834737807E
:10148C0093E78700A301F7800D45112D9545054580
:10149C002525B7E700E0094723A2E71026852D375D
:1014AC00F5BD89476319F4003747004083473780FF
:1014BC0093E78701C1BF8D476319F400374700409C
:1014CC008347378093E7870275BF9147E31EF4FA91
:1014DC00374700408347378093E7870365B7EFF2C0
:1014EC005FEA9387410203C7170183C6070183C5CF
:1014FC00F70003C6E700C20662073697329703C6A9
:10150C00270183C63701A205BA9501452937B7973C
:10151C000040138741C298D703C7770A1377C70FC8
:10152C00A383E70A03C7770A13672700A383E70A95
:10153C009DBDEFF21FE59387410283D7870013848B
:10154C0041028DC703550400854593071500B3C7A9
:10155C0007082310F400938741C23E95512383570B
:10156C008400FD17B3C707082314F4008347B400A5
:10157C0095E7835784009DE3231004008547A3055A
:10158C00F40037970040938741C21CD78347770AF2
:10159C0093F7C70F93E72700A303F70A29B5EFF2D8
:1015AC005FDE9387410283C7A700CDEF938441028E
:1015BC0083D7640033C40708D5C7B717002003D7F7
:1015CC00073E7D176357E40083D6C4007947637BDD
:1015DC00D70803D7240093060040229763D9E6006E
:1015EC0003D7240013040040198C3344040803D798
:1015FC00073E6367E40003D4073E7D1433440408BC
:10160C0083D764002286818FB3C707082393F40025
:10161C0083D52400B71700209387C73FBE95138549
:10162C00C124413B83D72400A297B3C70708239159
:10163C00F40003D724009307F03F63F4E7002391F1
:10164C00040085472385F400379700402312870A4E
:10165C008347670A93F7C70F93E727002303F70A1B
:10166C002396040089B383C7818193F7F707238CF2
:10167C00F18083D6E180130700106399E602B797D7
:10168C00004003C757001377070FA382E70003C777
:10169C00570013671700A382E70037970040834772
:1016AC00570093E70708A302F700828083D6E180F6
:1016BC0013070020639FE600B797004003C757004D
:1016CC001377070FA382E70003C7570013672700A0
:1016DC00D9B783D6E18013070030639FE600B79734
:1016EC00004003C757001377070FA382E70003C717
:1016FC0057001367870045B703D7E1809307004075
:10170C00E31DF7F8B797004003C757001377070F8F
:10171C00A382E7003717002013078731F8C7130798
:10172C0050032396E70A09472387E70A03C75700A4
:10173C00136747008DB7B797004035472398E700EC
:10174C0015472399E70013070004F8CF130700206F
:10175C00F8D3B8D71387C14498D3138741C298D70D
:10176C001387C124F8C31387C104B8C7239E070885
:10177C00238F07080947A38FE7082392070A2383BF
:10178C00070AA383E70A2394070A2385070A13870A
:10179C00C1038147C1463306F700230006008507C5
:1017AC00E39BD7FE828031C5EFF2BFBD379400407A
:1017BC0091472300F420371700408357A70193E784
:1017CC000702231DF700A5472300F4009307F0053B
:1017DC002301F4008D378547A300F400930780FBA9
:1017EC002300F40013070002B7E700E023A2E71080
:1017FC005DBEB797004003C70720B71600401377AC
:10180C00B70F2380E720984E1377F7FD98CE03C7C8
:10181C000700136727002380E70003C7070013772F
:10182C00D70F2380E700B7E700E01307000223A2DD
:10183C00E7180F1000008280EFF2BFB4B71700401A
:10184C00116723ACE70AC1450545C52885452165C7
:10185C00B5208D4511659D20FD22B1B6EFF27FB20A
:10186C001305503497F0FF1FE7804034F1370965BA
:10187C0013050518EF009004096513050586612210
:10188C00373700408347278037E400E0F16593E762
:10189C0017002301F780B70700022320F4108146BC
:1018AC000146938505200545BD360545ED3D93075D
:1018BC0000022322F410E531AD39F5BF914763EAFC
:1018CC00B70489679387072AB3C5F5209841B717E2
:1018DC0000409387470B0287944337170040B3F6B9
:1018EC00A64094C39306070B9C42B3F7A74019A8D4
:1018FC00944337170040B3F6A64094C39306070BE6
:10190C009C42C98F9CC29307070A98433377A74020
:10191C0098C38280944337170040C98ED9B7984337
:10192C003377A74098C3B71700409387070A9843AB
:10193C00498FF9BF9843498FF5B709C9371700404C
:10194C0083578701CD8F231CF7008280B717004087
:10195C0003D78701B375B740239CB7008280B717B4
:10196C00004003D787009306000C1377070C630F16
:10197C00D70403D78700137707101DC703D7870039
:10198C0083D787007D8B09EB93F70720A1C73755C9
:10199C00E80113050580828037C59812FD8B13056D
:1019AC0005E03345F502828003D7870083D7870093
:1019BC0013770720FD8B11C73755E80113050580F8
:1019CC00CDB73725F40013050540E1BF216513059C
:1019DC0005D082803725F4001305054082803285BE
:1019EC00814737370040A14663C3A7008280034676
:1019FC00B700E30ED6FE3386F500034606008507D6
:101A0C002304C700D5B7B73700401387C78008C376
:101A1C0009472380E78011472380E7808280EFF21B
:101A2C005F962A842D3F2947B307E5028D83B3D7F0
:101A3C0087029507B3D7E70237370040B3C70708CB
:101A4C002316F7008DB2EFF2DF93716513050520B5
:101A5C00F937B7370040130770F82381E7000D47BB
:101A6C00A381E70013070004A380E7000547238741
:101A7C00E70015BAEFF2FF902A84D5352947B30752
:101A8C00E5028D83B3D787029507B3D7E7023747B3
:101A9C000040B3C707082316F7806FF0DF90374775
:101AAC000040834727801A0593F7F703C98F93F7F4
:101ABC00F70F2301F7808280B747004003C71780D8
:101ACC0019C94D8FA380E78003C707801367870070
:101ADC002380E7808280B375B740A380B780828073
:101AEC00AA95B74700402147B74600406313B5009D
:101AFC00828003C6B780E30BE6FE034605000505AE
:101B0C002384C680E5B78147374700408346A780CA
:101B1C0081E633C50708828003468780B306F5004B
:101B2C0085072380C600DDB7011106CE2EC615CD64
:101B3C001841AA8705C358417D5511CB8546631BB7
:101B4C00D70098472300070023A207000545F24061
:101B5C00056182809847B2462300D7009847050755
:101B6C0098C7D8437D17D8C3D5B705466C00853DBB
:101B7C00F1BF011122CC26CA52C456C25AC006CE9D
:101B8C004AC84EC62A8AAE8A3284BA8413FB16001F
:101B9C00634A06082E853689852BAA8963528508E7
:101BAC00635D9502058C63190B08130B00022289E7
:101BBC00634F200701493369240B3304244163D953
:101BCC009902B3843441A689930500035285FD190B
:101BDC00A13FE39B09FE269921A8098C13792900C2
:101BEC00E30309FCE9F063010B040149130B000347
:101BFC00CA84B3872441D69783850700B1E1228933
:101C0C00634420058147F2403365F40A624442493B
:101C1C00B249224A924A024B2695D24405618280EF
:101C2C0001446DBF814941B7130B000349B7DA85F5
:101C3C005285DD3D7D19ADBF130B0002014941B743
:101C4C005285DD35850475B7DA855285F13D7D19F0
:101C5C0045BF397126DA4ED606DE22DC4AD852D47C
:101C6C0056D25AD0BA84BE8985E593070003014742
:101C7C00CE8626862C002314F100E53DF2506254EA
:101C8C00D2544259B259225A925A025B2161828033
:101C9C002A893684C28A468B91CAA94701446317A4
:101CAC00F60063D50500B305B0400544A30F010051
:101CBC001307F101A54613856AFCB3F7C50263D37C
:101CCC00F600AA9793870703A30FF7FE130AF7FFF3
:101CDC00B3D7C50263F5C50411C8A9C493F729008D
:101CEC00B1C39305D0024A858135FD1493F74900A1
:101CFC0099CF93071006930500034A85639CFA025B
:101D0C002535930580074A8505350904F9145A874A
:101D1C00CE862686D2854A85A93D229585B7BE8575
:101D2C00528761BF9307D002A30FFAFE0144130A36
:101D3C00E7FF6DBFD53B93058005F1B70145828068
:101D4C000145828039715AD0096B22DC26DA4AD8D7
:101D5C004ED652D456D25ECE66CA6AC806DE62CC65
:101D6C00AA892E893284014A8144930B5002930A2A
:101D7C00D002A54C294D130BCB2B830509008DE507
:101D8C006385090081454E854533F25062544259B2
:101D9C00B259225A925A025BF24B624CD24C424DCF
:101DAC002685D25421618280638775014E85AD3BB7
:101DBC0085040509D9B783071900130C1900639919
:101DCC007701930550024E85853385046289D5B71A
:101DDC00C5DB6386570363CCFA00130730026387B5
:101DEC00E7041307B0026380E704814721A81307B7
:101DFC000003E39CE7FE130C2900894721A0130C78
:101E0C002900854703070C00630D570363C4EA02DE
:101E1C0093063002630AD7029306B0026308D70216
:101E2C006289014625A8130C2900C1B7130C29009F
:101E3C009147C9BF93060003E314D7FE93E727002D
:101E4C0031A0050C8547E9BF93E74700050CC9BFD6
:101E5C003306A6031317476005093A968306090053
:101E6C00138706FD9375F70FE3F4BCFE1307E0022E
:101E7C009945639FE60005098145A5462948030756
:101E8C000900130707FD1375F70F63F9A6022E8AD5
:101E9C00830609001307C0066380E6046347D70274
:101EAC0013078006638BE6061307A006638EE6060F
:101EBC001307C004638AE60601473DA0B3850503FA
:101ECC00131747600509BA955DBF13074007638D6B
:101EDC00E6041307A007F9BF030519000D476314A7
:101EEC00D5000509114705098306090013050006ED
:101EFC00635ED50213058007E34DD5EA1305200672
:101F0C00E359D5EA9386D6F993F6F60F5545E36275
:101F1C00D5EAB3C6662194428286030519000147AF
:101F2C00E314D5FC0909C9B7050979B71305700481
:101F3C006345D50213074004634ED71213073004D0
:101F4C00E399E6E61840130C4400A30601002306AF
:101F5C00E100BE8601476C0099A09305800513082B
:101F6C001004E398B6E49146631ED70693057400FB
:101F7C00E19913848500C2883E880147B287C14627
:101F8C00D0418C414E855D3BAA9425B50C40130C79
:101F9C00440081E589659385452B5287BE864E8525
:101FAC00C93E1DA89146631ED70093057400E199A4
:101FBC003E881384850093081006B2870547A9460E
:101FCC00C1B7130C4400D28813081006328785461B
:101FDC0029460C404E85B539AA946284D9BB1308A6
:101FEC00100651B7130C4400D28832878146414603
:101FFC00CDB79146631DD70093057400E1993E88D7
:10200C001384850093081006B28701474DBF130C4B
:10201C004400D288130810063287814655BF91467A
:10202C0093E74700631AD70093057400E199138472
:10203C0085009308100689B7130C4400D288130846
:10204C00100665B79146631ED70093057400E1999D
:10205C003E881384850093081006B2870147A14679
:10206C0005B73287130C4400D2881308100681463A
:10207C00214685B7930810041305740061993E88B6
:10208C003287AE8750410C4113048500A9464E851A
:10209C004539DDBD93081006C5B739712ED232D43F
:1020AC00AA855010014506CE36D63AD83EDA42DC27
:1020BC0046DE32C64139F24021618280011122CCC8
:1020CC0026CA06CE83070500AA840144A307F100A3
:1020DC00050485E3A9479305F10005460145A307CF
:1020EC00F100EFF0DF8FF24022856244D2440561AB
:1020FC00828005469305F1000145EFF05F8EB387B2
:10210C00840083870700D9B7AA8703C70700850710
:10211C006DFF3385A7407D158280000032080020BA
:10212C00A2060020CA0800201C070020CA080020B4
:10213C001806002076040020CA0800207206002031
:10214C008A0600202C08002024060020960400207B
:10215C00A60400203A050020680500206805002030
:10216C0088050020900500206572726F723A257800
:10217C000A00000053696D756C61746520555342FB
:10218C002D434443204465766963652072756E6EF9
:10219C00696E67206F6E20555342485320436F6E13
:1021AC0074726F6C6C65720D000000000A06000200
:1021BC00FFFFFF4001000000160330003100320029
:1021CC003300340035003600370038003900000089
:1021DC0016035500530042002000530065007200A6
:1021EC00690061006C0000000E037700630068005A
:1021FC002E0063006E000000090243000201008003
:10220C00320904000001020201000524001001053E
:10221C0024010001042402020524060001070583A1
:10222C000340000109040100020A00000007050236
:10223C0002000200070582020002000009024300AE
:10224C000201008032090400000102020100052491
:10225C0000100105240100010424020205240600DB
:10226C00010705830340000109040100020A000074
:10227C000007050202400000070582024000000032
:10228C001201000202000040861A0CFE010001023D
:10229C0003010000E4180000FC18000020190000E5
:1022AC002A19000040190000286E756C6C2900007A
:1022BC00501F0000B01F0000A0200000A020000054
:1022CC00A0200000BE1D0000BE1D0000BE1D0000B1
:1022DC00BE1D0000BE1D0000BE1D0000BE1D000086
:1022EC00502000002A200000BE1D0000BE1D000072
:1022FC00981F0000BE1D0000FE1F0000BE1D000048
:08230C00BE1D0000EA1F0000E5
:10231400000000000000000000AAAAAAAAAAAAAA13
:10232400AAEEEEEEEEEEEEEEEEFEFFFFFFFFFFFF97
:10233400FFFFFFFFFF7FBFDFEFF7FBFDFC7EBFDF8B
:10234400EFF7FBFD7E00000009070000000000001D
:102354000000000000000000000000000000000079
:102364000000000000000000000000000000000069
:102374000000000000000000000000000000000059
:102384000000000000000000000000000907000039
:102394000000000000000000000000000000000039
:1023A4000000000000000000000000000000000029
:1023B4000000000000000000000000000000000019
:1023C4000000000000000000000000000000000009
:0423D40004030904F1
:00000001FF
