:040000006F305069A4
:100004000000000000000000A0000020EE0300201B
:10001400A9BDF9F3FC01002000000000000000006D
:10002400FC010020A00000200000000000000000EF
:10003400A000002000000000A0000020000000003C
:10004400A0000020A0000020A0000020A0000020AC
:10005400A00000206C040020A0000020000000008C
:10006400A0000020A0000020A0000020A00000208C
:1000740018050020A0000020A0000020A0000020FF
:10008400A0000020A0000020A0000020A00000206C
:10009400A0000020A0000020A0000020A00000205C
:1000A40001A0B7170040984B41111367070198CB83
:1000B400982B1377E70F98AB1307800873370780E3
:1000C400137787083AC60F100000130770052380C2
:1000D400E704130780FA2380E7040F100000B847F1
:1000E400B70600069506558FB8C703C7B70413773C
:1000F400F70DA385E704B82713672701B8A71307EB
:1001040050149AA7372700408346578093F6F60E7B
:10011400A302D7808946A303D78003C7E7041377D4
:10012400C70F136717002387E70403C7F702136792
:100134002700A387E702982B1367170098AB238047
:100144000704B247F3A707800F1000004101828023
:10015400EFF03FF513050020970500009385450A4D
:1001640017460000130606D363FAC5008322050070
:1001740023A0550011059105E3EAC5FE177502E0B9
:1001840013050561974500009385C5D013868186C4
:1001940063FAC5008322050023A0550011059105CB
:1001A400E3EAC5FE1385818697650000938505EE15
:1001B4006377B500232005001105E36DB5FE9302B6
:1001C4005002739002BC8D427390428085427390BA
:1001D40012BC93028008739002309702000093824D
:1001E40062E293E2320073905230975200E09382BD
:0C01F40062CB73901234730020300000C6
:100200009305000273A04580824573901534924097
:100210002242B2424243D2436244F24402559255D2
:100220002256B2564257D2576258F258064996495A
:10023000264AB64A464BD64B664CF64C065D965D52
:10024000265EB65E465FD65F096173002030B7F761
:100250000700DC53411123A4F186B7170040984BE7
:100260001367070198CB982B1377E70F98AB130709
:10027000800873370780137787083AC60F1000008D
:10028000130770052380E704130780FA2380E7042F
:100290000F1000001307000C6315E5029A2713677F
:1002A000070C9AA7B7170040982B1367170098AB55
:1002B00023800704B247F3A707800F100000410115
:1002C0008280B82793760520ADCA118B29E303C736
:1002D000E70403C6E7041377F70F13663600238796
:1002E000C704B02713664600B0A792278E2733466F
:1002F000060893E5050C8EA7A5470100FD1793F7A7
:10030000F70FE5FFB717004092A72387E70493771D
:100310000510DDC3371700403C2793E707013CA7D2
:100320009377F50199EFB727004003C7578013670C
:100330000701A382E7801D470DA013672700B8A718
:10034000F9B725476366F704B727004003C757800E
:100350001377F70EA382E7800547A383E780334531
:100360000508B71700401367050C9AA78AA7B5CEF2
:1003700003C7570483C65704418B858A558F1DF3E5
:10038000B82B418B05D3B8271377D70FB8A719BF60
:100390009377050199EBB727004003C75780137780
:1003A000F70EA382E78009474DBFB727004003C778
:1003B00057801377F70EB5BF9377850181EFB72785
:1003C000004003C757801377F70EA382E780130717
:1003D000100561B7B727004003C757801377F70EA2
:1003E000A382E780130770058DBFB8271377B70F77
:1003F00071BF41118146014681451145F52A130718
:100400008008F337078093F787083EC40F10000079
:10041000B7170040130670052380C704930680FABF
:100420002380D7040F100000FD55CEB723800704AA
:10043000A245F3A505800F100000733707801377DE
:1004400087083AC60F1000002380C7042380D70412
:100450000F10000003C76704136717002383E70426
:1004600023800704B247F3A707800F10000001A004
:10047000197106C212C416C61AC81ECA22CC26CECC
:100480002AD02ED232D436D63AD83EDA42DC46DEF4
:10049000CAC0CEC2D2C4D6C6DAC8DECAE2CCE6CE64
:1004A000EAD0EED2F2D4F6D6FAD8FEDA9385C18637
:1004B0008841E700050092402242B2424243D243C3
:1004C0006244F244025592552256B2564257D257D0
:1004D0006258F25806499649264AB64A464BD64BC8
:1004E000664CF64C065D965D265EB65E465FD65F50
:1004F0000961730020304111B7170040985F3AC678
:10050000945F3247E39CE6FE324541018280B7E7C3
:1005100000E03707001023A0E7208280B7170040D3
:10052000130700032388E702854723AAF186730097
:100530002030411106C6EF00701CF5BF2303048074
:1005400015472303E48001002302A48082808307EF
:100550006480E3CE07FE23030480828083076480E7
:10056000E3CE07FE03454480828083076480E3CEA8
:1005700007FE2302A4808280411126C44AC24EC0D5
:1005800006C61377F50BAD47AA892E8995446306F5
:10059000F70019456537653F8D444E854537FD5950
:1005A000FD1463983401B240A244124982494101CA
:1005B0008280135509011375F50F453F2209CDB708
:1005C000011126CC06CEB704080051371545BD37BA
:1005D000713769372AC6A53F32459377150089EBF5
:1005E000136515001375F50FF240E2440561828032
:1005F000FD14E9FC0145CDBF3971B7F7070006DEF0
:1006000026DC4ADA4ED852D656D45AD25ED062CEC2
:1006100003AB47027D57B7E700E083AA070022C675
:1006200003AA470023A0E71823A2E718B71B00403E
:10063000930770052380FB04930780FA2380FB0453
:1006400083C74B041147AA8993E7070E2382FB0453
:10065000372400401305F00F2303E4802E8C3289E9
:10066000B684E93DED35938779FF93F7F70F094796
:10067000137BFB006362F712A1473707080063078B
:10068000FB00B70707003E9C378707007955637E5C
:10069000EC02B3878401636AF702A9476398F906FD
:1006A00089E481446D3526850DA0E2850945E9354B
:1006B00005090345F9FFFD14050C453D81C49377F9
:1006C000FC0FFDF7F53D69FD7D55B7170040130799
:1006D00070052380E704130780FA2380E70403C72B
:1006E0004704418B2382E704F250B7E700E023A0E0
:1006F000571123A24711E25432445259C259325A77
:10070000A25A125B825B724C21618280A547639A78
:10071000F906A1478569631DFB029387F9FFB3863C
:100720009700B374FC00B69493C7F7FFFD8C33FCBD
:100730008701416B856B9387F9FFB3F7870199E3D5
:1007400063FF340193D94900C147E3E637FF91BF06
:100750009307F00FE9B78567C169FD17C9B713059E
:10076000800D638869011305000263847901130514
:100770001008E2851135A93521D94E9CB384344146
:10078000C1B7E2852D45CD3BCA94E30C99F005092C
:10079000F133A30FA9FED5BF9387F9FF93F7F70FA6
:1007A000636FF70AA1476319FB06B70708003E9C71
:1007B00083C75B043707070093F7070299E337877E
:1007C0000700B70708003E977955E370ECF0B307D0
:1007D0009C00E36CF7EE8947639AF9048980D54958
:1007E000E38104ECE2850945413B11090327C9FF78
:1007F00091472320E48003076480E34E07FE230330
:100800003481FD17EDFBFD14110C81C49377FC0FAF
:10081000E9FF7D3371F54DBD83C75B0437070700E2
:1008200093F70702D5F33787070079BF8547E3843D
:10083000F9F2E2852D4589339389F4FFE38304E6D9
:10084000313B93F7390091EB83260480032709009D
:1008500093074900E398E6E43E89CE84F1BFB547AB
:100860006396F9001305900BD13925BDB1471305E7
:10087000B00AE38BF9FE99476394F904A147631525
:10088000FB00B70708003E9CE2852D45F531814409
:100890000D4BA149E1316396640183270480232035
:1008A000F9008504E39834FF8327048013172C0193
:1008B000635507002312F900EDB32322F900D5B3E5
:1008C0009D476399F90281451305B0047531BD4414
:1008D0002320090023220900FD59493193F77400B0
:1008E000CA9703C70700FD14398D2380A700E3963C
:1008F00034FF45BB91476399F900130560063D3904
:10090000B931130590098DB7E38D09D8F15459BB5E
:1009100023AC05FE1C4199E30CC182803E8783A76E
:1009200087FFEDFF232CB7FE8280411126C2B7E47A
:1009300000E04AC003A90400B707200006C622C48D
:100940003379F90023A0F4180F10000009E523A063
:100950002411014535A09565938505D0C98D2A845C
:100960002105B3C5050833450508EF10702E65D184
:10097000FD572320050042A17CA123A024112105BD
:10098000B240224492440249410182804111B7E7BA
:1009900000E04AC003A9070026C23707200006C6A8
:1009A00022C4AA843379E90023A0E7180F100000BD
:1009B00083A781880144014685E301C8A285138588
:1009C0008188974000E0E7800054A1652685975014
:1009D00000E0E780A0A40DA003C7E7FF631997021A
:1009E00005CCA28513858188974000E0E780A0515F
:1009F000A1652685EF206015B24022852244B7E725
:100A000000E023A02711924402494101828011E0B5
:100A10003E8683A787FF4DB73E84E5BF37E700E0FA
:100A20001C43B70620002320D718F58F0F100000B5
:100A300019C191C111E637E700E02320F710828049
:100A40002E960F70B650D5BF37E700E01C43B706AF
:100A500020002320D718F58F0F10000019C101477F
:100A600085E137E700E02320F7108280B386E500B8
:100A700003A80600B306E5007D1623A006011107B2
:100A800075F6C5B737E700E01C43B7062000232002
:100A9000D718F58F0F10000001C53307C50011E608
:100AA00037E700E02320F71082800505A30FB5FE8D
:100AB000E31DE5FEF5B7B7E600E09C4237062000EF
:100AC0002A87F18F23A0C6180F1000000145B30636
:100AD000A7008386060091E637E700E02320F710A1
:100AE00082800505EDB70111B7E700E026CA84430F
:100AF0004AC83707200006CE22CC2A892E86F98CD8
:100B000023A0E7180F1000009305F00432C6334508
:100B10000608EF10F0132A8401C53246CA85FD3D50
:100B2000F24022856244B7E700E023A097104249D3
:100B3000D2440561828037E700E01C43B7062000FD
:100B40002320D718F58F0F10000001C599C1014768
:100B500011EA37E700E02320F710054582800507FA
:100B6000E309E6FE3308E500B386E5000348080024
:100B70009422E306D8FE37E700E02320F710014572
:100B8000828037E700E01C43B70620002320D718F7
:100B9000F58F0F1000001307F6FFBA952A9663171A
:100BA000C50037E700E02320F71082809821FD156B
:100BB0000505A30FE5FEE5B737E700E01C43B706E0
:100BC00020002320D718F58F0F10000001C5330730
:100BD000C50019E637E700E02320F71001458280C1
:100BE00014210505E398B6FEE31CE5FE37E700E0B7
:100BF0002320F71005458280797126D29384018ADB
:100C000022D4804006D64AD04ECE52CC56CA5AC8BC
:100C10005EC662C44DC437C9C901814B138B81893B
:100C20001309F937175A0000130A0AE3975A00000C
:100C3000938A0AE097590000938909E73E2099EFCB
:100C40005C44639A0B009CC0032CC4002285EF1007
:100C5000900C628489A823A6FB00FDB783270B00B4
:100C600082971C443307F5406376F50003A789009B
:100C70001D8F2A976368E9062E200820EF10F06C7C
:100C80005C405844A9CB0C4417560000032646E2AA
:100C9000AE97BE8663E4B70063E4C700B386C7407F
:100CA00014C4A28B3A8459F817570000032747D978
:100CB000894763E6E7009757000023A307D8B2509F
:100CC000225492540259F249624AD24A424BB24BE0
:100CD000224C4561828063940B0098C0B5B723A66F
:100CE000EB009DB703274A021DCB63EDA7023385B6
:100CF000A7401C2099EF03479A0183A6890061173A
:100D0000B307A7003E8563E4E70063E4D7003385BB
:100D1000D74083A70A016374F50023A8AA00A28B19
:100D2000404451B703A78900BA97D1B7011126CA29
:100D300006CE97540000938424D722CC4AC84EC6CE
:100D400052C49C288844D9CFB7E700E003A9070024
:100D50003707200023A0E7183379E9000F100000BF
:100D600003C7018919CB23A02711F2406244D24462
:100D70004249B249224A0561828017570000130791
:100D8000A7EF8357C70AA1CB9C440324870A6304B7
:100D9000F404975900009389A9C903A70901228582
:100DA000630BF702138A818983270A00829763689D
:100DB000A40C83270A00098C829783A70901984411
:100DC0003354F40AB307A4003E8563E4870063E468
:100DD000E7003385E740B7E700E023A027119C44F4
:100DE000639BA70217540000130484C4184883A708
:100DF00081896319A70882979444374736FE130701
:100E000007C83697B307A7003E8563E4E70063E4AD
:100E1000D7003385D740175400001304E4085C5C06
:100E200089CB83A6419A9C463707CDFF7D17F98F62
:100E30009CC611E1884485475CD09757000083A782
:100E4000E7C3829715E15C5C99CF5C5089CF97C06E
:100E500001E0E780601197C001E0E78000959757B7
:100E6000000023A50706493B5C5CE38007F003A76D
:100E7000419A1C47B7063300D58F1CC7FDB59C446B
:100E80003E9405BF829714489844B387A6003E85D8
:100E900063E4D700E3E1E7F83385E740ADBF23A67D
:100EA000A18801C585472388F1888280AA8799E5B2
:100EB00017570000034747C009C7D5B711476369F3
:100EC000B700175700001307E7BCB3C5E5209CC166
:100ED000828083A7C18881CF411106C6829783C7CC
:100EE000018999E323A60188B2404101828083C72A
:100EF000018981E723A6018882808280411122C472
:100F000026C206C64AC0975400009384E4F983C7FA
:100F10003402175400001304E4B7B9C31754000097
:100F2000130404B11389418A032709001C201430DB
:100F30000146B3A5E7208E21B5C911C21CA0082027
:100F4000636DD50697570000238407AE83A7818978
:100F5000D5E7B240224492440249410182808297FF
:100F60001C40F5FF9757000083C707B585E3DC48B1
:100F7000858B89CFD84C9947631EF700975700009F
:100F800023AE07F2EF10E00F5C4482971C44D9D7E0
:100F9000829769B7D84C9D47E31AF7FE9757000030
:100FA00023AE07F0EF10E00D1C48C5B7850793F797
:100FB000F70F0546E3EFD7F651B73327E5200E23A9
:100FC000231007002399018883A7C189B347F5201F
:100FD0009C4382971C208326090003D721893377FD
:100FE000E540B3A6D7209222518F9AA299C38507D4
:100FF0001CA018201C30E36EF7F4A9B79757000027
:1010000083A707AB1CC8CD3E83C73402B9F383C79F
:10101000140299CBDC4C89EB97570000A38607EAB2
:1010200097C001E0E780C0949757000083A707A509
:101030008DD31C4899DF183083260900814763C788
:10104000E702D84C9147E3E6E7F09757000083C7E3
:1010500027C1918BE39F07EE83C70189E39B07EECE
:101060002244B240924402494101C9B133A6D7207B
:101070001222E31006EE8507D9B7B7C700401387E1
:10108000C72014431396264910C30100010093871B
:101090008726175500000325659B9C436A0514C3EA
:1010A00093C7F7FF99835D8D828023A6A18A8280F2
:1010B000411122C417540000130404DF1C4426C24B
:1010C00006C6858B9754000083A444C191EBEF20A2
:1010D00090472244B2402685924441016F1050430C
:1010E00098289757000023A507DC8947E301F7FEFE
:1010F0000146930550020145EF10E0288145173560
:1011000001E01305C5FD5D33014681450545EF103E
:10111000200E5C44858BC5DFB240224492444101DD
:1011200082809757000083A727BF639B0716011192
:1011300022CC2A84094506CE26CA4AC84EC6EF20CC
:1011400030489389419903A60900930780071389C2
:1011500041987CD223880188832709009384419A8F
:10116000B7053300D8572285719B13671700D8D76E
:1011700098431377F7CF98C398431377F7CF136744
:10118000072098C398401447CD8E14C7B7060300B4
:101190009386862534CA5457F59A54D798433424F5
:1011A000137707F893F6F607558F98C3EF10704D35
:1011B00083A60900370500827D15DC4293E71700FE
:1011C000DCC203260900030784065C569375F70307
:1011D000E605E98FCD8F5CD69305A0039C4063D5CF
:1011E000E508F84FB70500074D8FF8CFB7C7898ED0
:1011F000938767ED1CC6B7575500938757555CC258
:101200008347A40683444406DD8C894717570000B2
:10121000232AF7CA9757000023AE07C87C44BCDED8
:101220009757000083C7478999C7FC52FDFF97571E
:10123000000023AF07C618289D47814517250000E9
:101240001305A5036306F70017050000130585E6DF
:10125000B13910386244F2404249B249A685D244BD
:10126000014505616F00D0789305200263DAE5003F
:10127000F84FB70500F9FD156D8FB7050005ADB73F
:10128000B70500F96945FD156357E500F84F6D8F07
:10129000B705000391BFF84F6D8F13178729B1B7BA
:1012A0008280975700009387279DE8530547542570
:1012B0006390E60203C747079147631AF7000111DD
:1012C00006CE2AC6EF10D0203245F240056191BD0E
:1012D000828083278511E5CB411122C406C658259B
:1012E0008345E5049437D2272A841377C70F1395D3
:1012F000466063F7C50663510506882793F6F6072F
:1013000094B70546936627006314C50093661700DB
:1013100054A4D8430907D8C3032504114CB82E861A
:10132000CC430905EFF08FEF832784115438D8435D
:101330003697D8C3DA27158FDAA789473CBC03470D
:1013400064039747000083C747726369F706B2409A
:1013500022440145410182801367170058A46DBFE4
:101360009376F60F63550502882785451366270097
:101370006314B5001366170050A454B8A384070083
:1013800085473CBC832784119C43D5FBC9B71367B1
:10139000170058A454B8A384070003250411CC43B4
:1013A0000905EFF0AFE7832784115438D843369707
:1013B000D8C3DA27158FDAA78D47E1B75C2493E706
:1013C00007015CA469B705458280411183A7C196D6
:1013D00022C406C6858B2A84CDEB78298357051D48
:1013E00063E5E70A4165130525F5975001E0E780BD
:1013F000008B41CD3C253EA583270412ADE323207D
:10140000A4122322A41285472311F40423200500EB
:101410007C2854415EA5583418A5054718B5138596
:101420001702175700000327E7AB15811C437D15F2
:101430001375F50F9CC25C43DCC21C479CC65C471D
:10144000DCC61C4B9CCA5C4BDCCA1C4F9CCE5C4F60
:10145000DCCE0DC19386060213070702C1BF8327A6
:10146000441288C3835724042322A4128507B3C7D8
:10147000070859BF17570000130707801E27850765
:101480001EA7B2402244410182805C24230904004B
:10149000054593C747005CA4EDB7142D854763EC61
:1014A000D70A1C3D2A870145CDEB5C2713F50701C0
:1014B0003C2B99CB834667039747000083C7F75AB5
:1014C00063ECF60001E5828049E582808357271EA0
:1014D0000357671EBA9721A08357271E75F9014548
:1014E000ADCF9387C712174500000355A55CB3B570
:1014F000A70237460F00411113060624814622C475
:1015000026C206C67D543385A702974002E0E780D5
:10151000A0E39744000083C4B455AA949747000001
:1015200083A7C77E03A707099C433354E40AFDFB46
:1015300083A78189829781476364A400B307A4408D
:10154000B240224433B5970013451500924441013F
:1015500082808147B5BF01458280828003A741997F
:101560003C5BFDFF01000100828039C901116C0064
:1015700022CC06CE2A84EF20E04A15C9FD57630D20
:10158000F502B2479745000083C5954E63EBB7005F
:10159000034594026244F240B385B74005616F1081
:1015A000205F174700000327A750BA97D5B76244BA
:1015B000F24005616F20800BF24062440561828039
:1015C0008280797152CC174A0000130AEA6A26D247
:1015D00083244A0906D622D44AD04ECEC5C897578E
:1015E00000009387678CD44F15476384E604DC536F
:1015F0002A8989CF97C001E0E780009797B001E082
:10160000E780A01A9757000023A2078CFD596C00B1
:101610002685EF2020411DE517250000130545050F
:10162000EFF0FF8783A741993707100098C7054758
:10163000B8DB0D45B250225492540259F249624A25
:1016400045618280637435013244AA898440E1F0A7
:10165000FD571305F00FE38FF9FC914763F1870203
:101660009307B4FF2320F9002324FA0A99E7974748
:10167000000083A7E7432320F900014565BF974792
:10168000000083A7E742ED17A297E9BF09455DB7C0
:10169000797126D206D622D44AD04ECE52CC56CA22
:1016A0005AC85EC68347550303447513AA843E9403
:1016B0001374F40F9307400263F687001304B4FD1C
:1016C0001374F40F03A9841383A9C413A38B841286
:1016D00022864A85CE85974002E0E78020C20589B0
:1016E00015E503CBD412014A814A337B6403930B83
:1016F000500252864A85CE85974002E0E78000C0BE
:1017000005890DC563916A031374FA0F238B841244
:10171000B250225492540259F249624AD24A424B80
:10172000B24B45618280850A939A4A60050AE312AA
:101730007AFDE9BF8327850903560504797193D69D
:101740000701BD8EB3C60608358E93575640898B68
:10175000135776485D8F93573640918B5D8F935723
:101760001640A18B5D8F93171600C18B5D8F931769
:10177000360093F707025D8F9317560093F707041F
:101780005D8F9317760093F7F70F22D45D8F2A842D
:101790009357D6001355B6001189898B935586004F
:1017A000C98F1355F6002582C98F218AD18F1396D0
:1017B0001500418AD18F1396350013760602D18F1A
:1017C0001396550013760604D18F13967500137681
:1017D000F60FD18FA207C5455D8F3307B70226D21A
:1017E0004AD04ECE032984138329C4135AC806D67F
:1017F00052CC56CA36973347070813565740098AC2
:1018000093577748D18F13563740118AD18F13568B
:101810001740218AD18F13161700418AD18F1316D2
:10182000370013760602D18F13165700137606047D
:10183000D18F131677001376F60FD18F1358B70098
:101840001356D70013784800098A1355870033666A
:1018500006011358F700258333660601218B518F4B
:1018600013161500418A518F1316350013760602A0
:10187000518F1316550013760604518F13167500F9
:101880001376F60F518F2207D98FB387B7025EC642
:10189000B697B3C7070813D55740098913D77748B8
:1018A000498F13D537401189498F13D517402189A6
:1018B000498F139517004189498F13953700137588
:1018C0000502498F1395570013750504498F139529
:1018D00077001375F50F598D13D8B70013D7D700BC
:1018E00013784800098B13D687003367070113D894
:1018F000F700A58333670701A18BD98F1317160053
:10190000418BD98F1317360013770702D98F13171E
:101910005600137707041E06D98F1376F60FD18F62
:10192000A2073367F5003307B702130650024A8552
:10193000CE853697B98EB3C4060833F6C402137B3E
:10194000F60F974002E0E780609B058905E9834A2E
:10195000D412014A930B5002B38A9A02814493DA5B
:101960000A0126864A85CE85974002E0E7800099E5
:1019700005890DC563914A0313FBF40F230B641310
:10198000B250225492540259F249624AD24A424B0E
:10199000B24B45618280050A137AFA0F8504E392FF
:1019A00074FDE9BF8327C50803568508797193D66E
:1019B0000701BD8EB3C60608358E93575640898BF6
:1019C000135776485D8F93573640918B5D8F9357B1
:1019D0001640A18B5D8F93171600C18B5D8F9317F7
:1019E000360093F707025D8F9317560093F70704AD
:1019F0005D8F9317760093F7F70F22D45D8F2A84BB
:101A00009357D6001355B6001189898B93558600DC
:101A1000C98F1355F6002582C98F218AD18F13965D
:101A20001500418AD18F1396350013760602D18FA7
:101A30001396550013760604D18F1396750013760E
:101A4000F60FD18FA207C5455D8F3307B70226D2A7
:101A50004AD04ECE0329040A8329440A5AC806D61E
:101A600052CC56CA36973347070813565740098A4F
:101A700093577748D18F13563740118AD18F135619
:101A80001740218AD18F13161700418AD18F131660
:101A9000370013760602D18F13165700137606040B
:101AA000D18F131677001376F60FD18F1358B70026
:101AB0001356D70013784800098A135587003366F8
:101AC00006011358F700258333660601218B518FD9
:101AD00013161500418A518F13163500137606022E
:101AE000518F1316550013760604518F1316750087
:101AF0001376F60F518F2207D98FB387B7025EC6D0
:101B0000B697B3C7070813D55740098913D7774845
:101B1000498F13D537401189498F13D51740218933
:101B2000498F139517004189498F13953700137515
:101B30000502498F1395570013750504498F1395B6
:101B400077001375F50F598D13D8B70013D7D70049
:101B500013784800098B13D687003367070113D821
:101B6000F700A58333670701A18BD98F13171600E0
:101B7000418BD98F1317360013770702D98F1317AC
:101B80005600137707041E06D98F1376F60FD18FF0
:101B9000A2073367F5003307B702130650024A85E0
:101BA000CE853697B98EB3C4060833F6C402137BCC
:101BB000F60F973002E0E7806074058905E9834AF3
:101BC0001408014A930B5002B38A9A02814493DAB3
:101BD0000A0126864A85CE85973002E0E7800072AA
:101BE00005890DC563914A0313FBF40F230F6407A6
:101BF000B250225492540259F249624AD24A424B9C
:101C0000B24B45618280050A137AFA0F8504E3928C
:101C100074FDE9BF797122D426D22E84AA8441466C
:101C2000975502E0938585D80A8506D6972000E06F
:101C3000E780E02A4146975502E0938525D70808BA
:101C4000972000E0E780A0293C3010088A85DC87D7
:101C50005C2026855C875C30DC8697B001E0E780FD
:101C6000208D0347F1011C200145631EF700034747
:101C7000E1011C3001456318F7000345D1013C2008
:101C80001D8D13351500B250225492544561828047
:101C9000011122CC26CA4AC84EC606CEAA841744D1
:101CA00000000324A40913092500854905C09C30C0
:101CB0003830858B6304F700405CCDBF194693052F
:101CC00044004A85EFE03FE7E31835FFF240228504
:101CD0006244D2444249B24905618280411122C422
:101CE00026C24AC006C617440000032424059304F4
:101CF0002500054901E8B240228522449244024968
:101D000041018280A6851305A4022937E30525FF3A
:101D1000405CCDB7411122C426C24AC006C6174452
:101D200000000324A40193042500054901E8B24002
:101D3000228522449244024941018280A6851305EE
:101D4000A401C93DE30525FF405CCDB7011126CABA
:101D5000644122CC4AC84EC652C406CE2A841D49CC
:101D600093096505054A3C4463E4F4000545A1A0D8
:101D70005834DC2063192705034784026304F70005
:101D80008440D5B7D83083475405E31BF7FE194686
:101D90009305640513856400EFE0FFD98547E311DF
:101DA000F5FED82483479402E31CF7FCFA243E3462
:101DB000E318F7FC0145F2406244D2444249B2497B
:101DC000224A05618280E31DF7FAD8308347540523
:101DD000E318F7FA1946CE8513856400EFE0BFD506
:101DE000E31045FBC1BF011122CC26CA06CE2AC48E
:101DF0002EC6174400000324E4F3854419E001458E
:101E00000DA09C841830858B6304F7000044FDB757
:101E100019469305A10013052400EFE0DFD1E31775
:101E200095FEF2406244D24405618280EFF06F8AF1
:101E30007300000000000000938201890383020008
:101E400023800200630F0300F32510342EC0970592
:101E500000009385E5FD73901534EF00405B73003F
:101E6000203086DCEF00A05AE6508280000041114D
:101E70004AC0138941980327090026C206C61C5F81
:101E800022C49384019893D76748B5CF930700067F
:101E90001CDF1744000013042401184C93070008AA
:101EA0006317F7009C409C4393F707041CCC1C402D
:101EB00093F7070489CB83A78189829748D81C4070
:101EC00093F7F7FB1CC01C4093F7070289CF1C4017
:101ED00003A74199B706080093F7F7FD1CC05C54AF
:101EE00014C786077CD71C4893F7070489EF8547FA
:101EF0005CC83707020083A7419998C71307000CF5
:101F000018C81854F8D383270900985F1357474817
:101F100011CF985F1367070198DF83A7419923A228
:101F200007068547174700002328F7F89C40D84349
:101F30001357174819C7D843759BD8C3D843799B03
:101F4000D8C3B240224492440249410182800537FD
:101F50007300203097470000938707F53707040088
:101F600088DB698F01CF03A74199FD5634D7974687
:101F700000009386E6ABD84E0507D8CE13778500D0
:101F800019CF984783A641981367170098C713077E
:101F9000000898CBD856719B13671700D8D61377D3
:101FA000150001CFD84383A6419813671700D8C303
:101FB000D856719B13671700D8D61377650019CFD1
:101FC0001377450059C398431367170098C383A636
:101FD0004198D856719B13671700D8D64167698F0F
:101FE0000DC39746000083C666D0C18A174700001C
:101FF000130787C8A5C28346470793E60602230A4C
:10200000D70637070200698F01CF984B137707086F
:1020100019C3054798CB83A741993707020098C792
:10202000B70708007D8D0DC117470000034717CC87
:10203000058B97470000938727C41DCB03C757071D
:1020400013672700A38AE7068280D8471367170023
:10205000D8C7B5BF834647070946BD8A6388C6000F
:10206000834647070D46BD8AE39DC6F8914641BFAA
:1020700003C75707118B69DB03C75707136787002F
:10208000D1B783A64199174700001307E7E11C4326
:10209000858B91E75C43858B99E3FC52EDFB974779
:1020A000000023AD07E08280938641982A8788420A
:1020B0001C5D93D75748D1E781C51C59BD839CA1AE
:1020C00015C69C42945BC60693D7660163D606008C
:1020D00093E707C0B3C707088316060093975760B6
:1020E000B9C6BE968947B3C6F60216A283A7419920
:1020F000BC4B083393D757488DCF29C5974600006E
:1021000083A606DC93F606049307950009459DCA4D
:10211000BA979C230547194593F6F7066394E602A0
:1021200001459397476063DF0700394582801EA20F
:1021300075BF2A9748331375F5077D153335A00011
:1021400082800545828083A7C19899CB944BD04B60
:102150009842518F98C294439C479842D98F9CC211
:10216000138641990548184283A641989747000075
:10217000938787D36312050503A806001368080830
:1021800023A0060183C62702B3C5D52054479385F3
:10219000A50C13981649232607010F1000001842BA
:1021A00037060200860510C71306000890CB6CD3D3
:1021B00054C72384A198828088421375F5F788C29A
:1021C00083C62702B3E5D52054479385E50E1395C2
:1021D000164948C70F10000018423706020086054E
:1021E00010C71306000890CB6CD354C70945D1B76C
:1021F000411122C4AA8706C626C22E85138441999E
:10220000B285DDE71C40F8537DFF3707020098C711
:102210009747000023AE07C8974400009384C48307
:10222000DC5085C7B7E700E03707200023A0E72888
:10223000B7F700E0938707D0984B6D9B98CB984BEE
:102240001367870398CB73005010F53D83A741981F
:1022500098431317772998C3D857719BD8D79747B6
:10226000000023AD07C49747000023A107C41C400A
:10227000094798C3DC5099CB37F700E0832707D193
:1022800093E787002328F7D07300501014401747B6
:102290000000130767C11C47858B91E75C47858B5E
:1022A00099E3FC52EDFBB24022449244410182800A
:1022B0000D47639EE7049747000023AB07BE97478F
:1022C000000023A907BE973400009384E478DC5013
:1022D00085C7B7E700E03707200023A0E728B7F756
:1022E00000E0938707D0984B6D9B98CB984B136772
:1022F000870398CB73005010B93583A74198984352
:102300001317772998C3D857719BD8D7A5B7054716
:10231000E39EE7F69736000093860674DC5285C785
:10232000B7E700E03707200023A0E728B7F700E071
:10233000938707D0984B6D9B98CB984B1367870377
:1023400098CB730050101C40D04713171649D8C7BC
:102350000F1000001C403707020098C71307000841
:102360009745000023AAE5B403A7419818431357E3
:10237000774819C71307E018F8D3D0C7DC52E5BD7A
:102380001307E01AD5BF83A7C19889CFD44303A808
:10239000870098423367070198C2D447DC4B9842C4
:1023A000D98F9CC2054783A741989505631EE50216
:1023B00098431367070898C3984F137707C01367AC
:1023C000A71398CF13078007B8BB9397350093875F
:1023D000C70317470000130727AD1CD72384A19814
:1023E00019C2060610D78280984309451377F7F77C
:1023F00098C3984F137707C01367271398CF130715
:10240000F007B8BB939745009387C703D9B783A755
:1024100041998847D847798D11C588C783A7019905
:1024200091C382878280896703A74199938707F4C4
:102430007CD383A6419A83A7060993D7A74991C75E
:1024400083A7060993D7974999E37C53EDF78280D8
:102450004111B7E700E022C480433707200006C6D9
:10246000798C23A0E7180F10000011C199E5B7E798
:1024700000E023A08710014549A80D053345050854
:10248000130740037199B34705086362A70203A5C8
:1024900081A383A601A3639FA6001737000003272B
:1024A000A75E71D7C207DD8D05450297C9B703A5A1
:1024B00041A3C5B77A2131EF5A21636CF704B30603
:1024C000F740214817360000130686566375D80278
:1024D0008328050003586600938687001D8FAA96FF
:1024E0006117DAA223A016012393060014C15EA18E
:1024F000130788FF7AA27A226EA12105B307F7405D
:102500007EA2B7E700E023A08710B2402244410139
:102510008280084149B7B7E700E08C4337072000C5
:1025200023A0E718F98D0F10000001E523A0B710D4
:10253000828003A381A383A801A39A87814663F8BD
:10254000170903A807006367F5086365A8081387E0
:102550008700636EE506F223216705076317E6002F
:102560001386B1941822050718A217350000130529
:10257000254CD2237A21239307003297334707084B
:102580007AA16383670203A341A3630FF30003D31C
:102590006600631B0300DE2223A0060121073E968E
:1025A0002106D2A27AA1B68798436302170383A6B5
:1025B00041A3630ED700762399EAD623522318430A
:1025C000A106B296D6A398C37E21A1077EA1B7E744
:1025D00000E0A9BFBE86C2879DB7AA8703A781A3D3
:1025E00003A601A3B305B5406314E6003E8529A800
:1025F000930687001843E3E9D7FEE3F7E7FE2E854D
:10260000E3E4D5FEE3F2E5FE8280411126C206C670
:1026100022C44AC09734000083A4846B63830410EF
:1026200003A4C40AAA86054535C03C241307700AD2
:102630006390E70858301C34173900001309C94665
:1026400003268900B387E7020357C900B387E7026F
:102650001307003293870719B3D7E70203A744098A
:102660003E97BA846364F7006364C700B304C7404D
:1026700083A7818984C28297B387A44063F5A400AD
:1026800003278900BA9789EB1305F00FB240224463
:10269000924402494101828058309306204E33070C
:1026A000D702E3F3E7FE930780FA3CA40145F9BFA4
:1026B0001307800AE39AE7FC83A7818982972A8916
:1026C0003545EF10E06FAD4717370000232CF77E3C
:1026D00058301C34173600001306063DB387E70256
:1026E0005A261046B387E70213070032938707196B
:1026F000B3D7E70203A744093E97BA866364F7009D
:102700006364C700B306C740E310D9F8172502E099
:10271000130585ADEFE0AFF883A741990947F8D7D6
:10272000A5B70545A5B7397156D2973A0000938AE7
:10273000AA7783A70A033707080026DA06DE22DC19
:102740004AD84ED652D45AD05ECE62CC66CA6AC837
:102750006EC6F98F9734000083A484576384071CE6
:1027600083A9C40A83C7990003A4C90092073E94B1
:102770002820B14705053305F5025E203E95334517
:102780000508EFE08F9AAA8C6305051A130DC500A2
:102790002324A50134203146370B0300B386C6023B
:1027A000231304000149138A4199938B4198938D17
:1027B000419A130B8B15054CEA9654C483C67900D5
:1027C0009307D00783250A00B386F602C1679CC52C
:1027D000370833008606B4D183A60B0090421376E7
:1027E000F6CF90C290421376F6CF1366062090C2C1
:1027F00003A50D0010453366060110C503A60900A8
:1028000023A865059305500290C672205444B296E1
:102810002324DD0014300146CA96A301DD0003C560
:1028200004089736000023A30668B13E83260A00F9
:10283000CC4613961549D0C60F10000083260A0017
:102840003706020090C61306000823A8CA0003A694
:102850000B00104213567648631F860B1306E018D0
:10286000F0D2CCC617360000232A066417360000C3
:10287000232E066223A08601EFF0BF80EF10A04C4C
:1028800083A64A00858AD9CAEA852685973002E060
:10289000E780A09B0DE903465D0049C276204E20EB
:1028A000B29663DDB606B428AC4803258D00918E40
:1028B0008906B695EFE08F9623020D0003465D0072
:1028C0007620B29676A003260A00310D3452FDFE22
:1028D000342005091379F90FE362D9EE9C2466854B
:1028E000A381FC001C20A3820C002383DC00238234
:1028F000FC006254F250D2544259B259225A925AB0
:10290000025BF24B624CD24C424DB24D216117F347
:1029100000E0670003281306E01A99B7FD5623026A
:10292000DD0055B783A74199FC5781C785472388A8
:10293000F188F2506254D2544259B259225A925AF2
:10294000025BF24B624CD24C424DB24D216182800F
:10295000411122C406C626C24AC02E848DCD13F969
:1029600015008147414763020904131745003E974C
:10297000B1463307D70283A4818AB317F02833C93D
:102980000708BA949C40C840829723A0040023A261
:10299000040033448900B240228522449244024913
:1029A00041018280B356F448E9F28507E39CE7FED3
:1029B000CDB7011126CA06CE22CC4AC84EC6AE8477
:1029C000A1C593F7150001444147B1CB93174500CA
:1029D000A2973147B387E7029389818A03A9090047
:1029E0003E998327090081C7032549008297314713
:1029F0003307E40283A70900BA979C478DC73314B5
:102A00008028B3470408BD8CF24062444249B24971
:102A10002685D24405618280B3D68448C5FA050470
:102A2000E31CE4FECDB72320090023220900C1BF27
:102A3000AA8703A5018A11E182803A216315B700B4
:102A40001821E30BF7FE4845FDB77971B7E700E0C1
:102A500022D4804352CC06D626D24AD04ECE56CA75
:102A60005AC85EC662C43A8A37072000798C23A010
:102A7000E7180F10000005E123A087100945B250A8
:102A8000225492540259F249624AD24A424BB24B02
:102A9000224C4561828083A78189B6892A89AE8AC2
:102AA000328B938B818A829703A70B008144B146B6
:102AB000C147338CD40233068701104235EEC1651D
:102AC000938505F04145EFF0BF9819ED9737000069
:102AD00083A787FB81C7814511458297B7E700E04F
:102AE00023A087102D4561BF1387018A1C43A1E3F2
:102AF00008C323000500B31790283EA183A70B004D
:102B0000232605002324650123224501E29723A003
:102B1000270123A2570123A44701638409002380CE
:102B20009900B7E700E023A08710014589BF3E87E1
:102B3000DC47F5FF48C775BF8504E39CF4F6B7E7AB
:102B400000E023A0871021451DBFB7E700E09843B0
:102B5000B706200023A0D718758F0F1000009736F6
:102B6000000083C6F6EC6371D50283A6418A332543
:102B7000D5201621D58D0EA19736000023A206EC94
:102B800023A0E7100145828023A0E7100D45828035
:102B90000111B7E700E022CC80433707200006CEC2
:102BA00026CA4AC8798C23A0E7180F100000BD4739
:102BB00063E7A70431473307E50283A7818ABA9701
:102BC0009C4395CF3315A0282E89B34505080145B0
:102BD0002EC6B93DAA8409C9B2450145972000E037
:102BE000E780C04923A42401B7E700E023A08710B1
:102BF0000145F2406244D244424905618280B7E710
:102C000000E023A087100945EDB79736000083C682
:102C1000260283A7019101476394E6000145828063
:102C20008E23138687026394A5003E858280050764
:102C30001377F70FB287CDB79737000083C757FFD9
:102C4000AA86850703A5C191014712216307D60013
:102C500005071905E36BF7FE014582802A8703A566
:102C6000419211E182801C45B227636BC700035873
:102C70004500B306C8006355D7008146639406013A
:102C80000841C5B703D3A700938807016316E30083
:102C900091C192A13E8582808506C687B3C606088B
:102CA000F1BF9736000083C6A6F883A701950147B8
:102CB0006394E60001458280AE231386C7036394C4
:102CC000A5003E85828005071377F70FB287CDB741
:102CD000411122C406C6973700002389070003A4C8
:102CE000019605C06C390145B315B028B3C5050878
:102CF000973000E0E7806083930710273305F502E3
:102D000002942244B2408145014541016FE00F9A8F
:102D1000411106C6383D19C73425631ED702B2409B
:102D200041017DB73C2DE5DF3825E30AF7FE3CA5E0
:102D3000814517E5FFFF13050557EFE02F979737FC
:102D4000000083C767D789C783A741995147F8D344
:102D5000B240410182803C2D89C7E39AF6FC38A538
:102D6000C1BFD5FEEDBF41114AC01739000013099C
:102D7000A9138327890022C426C206C697340000FF
:102D8000938484EF858BE0509DCB9737000023A17F
:102D9000071283C74407C18B85CFEF00D07A83C762
:102DA000440793F70702E5DF83C74407228593F7BB
:102DB000F70C238AF406970001E0E7800071EF002A
:102DC000907822852244B24092440249410109B7D9
:102DD00083C75407858B91CBEF00F0768D47230E88
:102DE000F406BC5822858297D9BF83C7440715478C
:102DF000BD8B6395E7048347B4060345340601465B
:102E0000930550025D8DEFF00FD8014681450545D1
:102E1000EFF00FBE8327C900858BD5D32285973766
:102E2000000023A90708970001E0E780C05141F99D
:102E3000B2402244924402494101828083C7440740
:102E40001947BD8BE39DE7F68347B4060345340677
:102E50000146930550025D8DEFF0EFD201468145AA
:102E60000545EFF0EFB88327C900858BA9DB2285E4
:102E70009737000023A00704970001E0E780202691
:102E80007DB7411122C426C206C67C2578452A8416
:102E9000BD8B1CA91CA31D4764456395E7340547FA
:102EA000B8A08347F5058D466393D7185E2DCDE313
:102EB0007C491147B18B638DE70831476398E70080
:102EC000034715068347F5076304F7088547BCB039
:102ED00019469305640313854400EFD03FB4BC202A
:102EE000990793F7F70FBCA003470406137707046D
:102EF00001CFB83013670704B8B07844BA97583890
:102F0000B8B3BC208507BCA097370000238007DE3C
:102F1000BC2013F7F703050718B80347E4051A07A1
:102F2000D98FBCA083475403858B91E703474403A3
:102F300089476317F70078441C2393E707041CA311
:102F40007C44183898B3B2402244924441018280B4
:102F5000A147BCB08357C406973500009385C5D1FF
:102F600013864199DCA08357C406034714067444B2
:102F7000A1831207BD8BD98FDCB2B42085478906A7
:102F800093F6F60FB4A017370000034727D6631E49
:102F9000F706183C9387E6008E07231AF4069387FA
:102FA000C708B387E702794510420948238A050715
:102FB000C1650CC6938707FBB3C7070893877716CD
:102FC000B3C7A70233C70708B387A70286073CD257
:102FD000BC3093E70701BCB07C44B6978346240617
:102FE00093E60604B4B3B4207C44B697D8A3B420C7
:102FF0007C4421837D8BB697834634069606558F95
:10300000D8B3BC208D07BCA021B71042F947385275
:1030100005833357F7023C5268528583FD8BAA978C
:103020007CD28D47238AF5063347070855B71946E2
:10303000639BC7125E2DC1E393056503B8B013858A
:103040004400EFD0BF9DBC201385A4009907BCA00D
:10305000BC3093E72700BCB083475403898B95CFDE
:103060000C58BC299DCB1946D105EFD03F9B784425
:103070001C2393E707F81CA3BC20990793F7F70FCD
:10308000BCA00347040613770704E30F07E6B43038
:10309000784493E60604B4B095B58347D40391C74A
:1030A00078441C2393E707F81CA319469305E4030F
:1030B000EFD0DF96D1B7A147BCB08357C506DCA0DF
:1030C0008357C506034615066C45A1831206BD8BC2
:1030D000D18FDCB1B020173500001305E5B9938519
:1030E000419909061376F60FB0A09737000083C701
:1030F000E7BF6398E704183C9307E6008E07231A9E
:10310000F4069387C708B387E70279488946230AFC
:10311000D5069441C1658CC6938707FBB3C70708E2
:1031200093877716B3C7070333C70708B387070327
:103130008607BCD2BC3093E70701BCB07C44B29791
:1031400071BD8C41B851F94705833357F702BC5123
:1031500003A845068583FD8BC297FCD1230AD506BB
:1031600033470708C1BFA147BCB08357C506DCA0E1
:103170008357C506034615066C45A1831206BD8B11
:10318000D18FDCB1B020173500001305E5AE09067C
:103190001376F60FB0A09737000083C727B583A535
:1031A0004199E391E7FA183C9307E6008E07231A4A
:1031B000F4069387C708B387E702F9460948230A4C
:1031C0000507416588C5938707FBB3C70708938741
:1031D0007716B3C7D70233C70708B387D702860766
:1031E000BCD189BF0547639EE706B1471CB9834739
:1031F0005503898BA1CB0C59BC29A9C71946D10508
:1032000013858400EFD09F8178441C2393E707F84F
:103210001CA368441946930564030905EFD01F8079
:1032200011679737000083A727B2F98FE38C07CE89
:103230007C24B98BE39807CE78441C2393E70702DC
:103240001CA3CDB18347D40389C79C2093E707F81B
:103250009CA0684419469305E4032105EFD00FFCB8
:103260004DBF522D0C559307660093F7F7031CB919
:1032700013858400E5B7011126CA973400009384B2
:10328000A4C29C4422CC06CE173400001304C49E72
:10329000858B6850C9C32AC69737000023AA07C088
:1032A000EF00702A03474407894732456307F70058
:1032B000034744078D47631CF70283A64199BC521C
:1032C0000357450785831307C71263F2E702BC5211
:1032D0008583B1C3914703474407E31EF7FE624469
:1032E000F240D2440561170301E067002346382D00
:1032F0003C3D09CF34256309D7026388F60238A51F
:103300006244F240D24405616FD0BFE199CF3825C5
:1033100009EF3CA5F5B72AC6EF00F022624432451A
:10332000F240D24405616DB2EDF7DC4CEDF7034796
:10333000440789476307F700034744078D47E31CA9
:10334000F7FC914703474407E31EF7FE49BF630EAE
:103350000530011122CC06CE26CA4AC84EC652C438
:1033600056C2582585472A846316F72C97370000E4
:10337000938787B3D44F1547638AE600D44F0D4730
:103380006386E600D84FAD476312F7026C3862449B
:10339000F240D2444249B249224A924A014505616B
:1033A000B315B028B3C505086FF02FFA163113070F
:1033B0000064973400009384248C3347D7029C2008
:1033C000E8D0850793F7F70F9CA063CAE700972022
:1033D00000E0E780205997370000238F0788782482
:1033E0009D47631FF70483479406B1C383560407C0
:1033F00063ECF6020C24930730041CAC1305300474
:1034000093F6F60F014697C001E0E7800051228550
:103410006244F240D2444249B249224A924A05618A
:10342000171301E06700A3C285062318D40693058D
:1034300030020545972000E0E780A04B2301A40659
:103440000549238A2407183C8D47631CF70E9720F3
:1034500000E0E78040BC0D89630F05146316251753
:10346000930760023CA4930750023CAC93077002A0
:1034700078243CBC85476302F70889659385F5701D
:1034800013051027172A0000130A0A6283497401E2
:10349000972000E0E78060480E30835ACA002A89EE
:1034A00013060064B3855503814613850532B33591
:1034B000B500972002E0E78020E9AA84B3355903DC
:1034C00037460F001306062481463305590397201B
:1034D00002E0E78060E783270A00AA948297B30797
:1034E000950003278A00BE8563E4A70063E4E70034
:1034F000B385E7404E85EFF0AFE983475403898BEE
:10350000E9CB8347C403F1C70C58E1C5BC25F1C31F
:103510008947230AF4021946B10513056403EFD065
:10352000EFCF0347C407894763E9E70A228562446E
:10353000F240D2444249B249224A924A05616FD0D0
:103540005FBE89467C346315D70213F7170019CB89
:10355000898B1307500291EB9307700238A43CAC9F
:10356000814739B713076002C5BF93076002FDB7F3
:1035700099CF93F617001307500291E6898B13B782
:1035800017001307670238A4230D0400D1BF3C2C99
:10359000130740026368F700930750023CAC3C2CD1
:1035A0003CA47DBF850793F7F70F3CAC130770026F
:1035B000E364F7FEEDB713077002930750023CACCB
:1035C00038A4930760026DB5130750029307700289
:1035D000FDB78547230AF402A9B70327C40A83A6C7
:1035E00081893C27ADC31C3758339724000093844E
:1035F000A44B9044B387E702DA24B387E7021307AA
:10360000003293870719B3D7E702032744093E978F
:103610003A896364F7006364C7003309C740829640
:10362000B307A9406374A9009844BA970357640785
:10363000E3FEE7EEF2406244D2444249B249224AF4
:10364000924A0561828083248409829663E9A400FA
:10365000835764073385A440E37AF5ECE1BF9727ED
:10366000000083A7E744BE94E5B7828001114EC6EF
:10367000972900009389496022CC03A4C9094AC84C
:1036800017290000130949420357C90026CA835469
:1036900064088327040906CEB384E40237470F0089
:1036A0009306F7231307072452C456C25AC0B69490
:1036B000B3D4E40263EE9702138A8189B3849740FE
:1036C00083270A00829763E9A4023385A4406349F3
:1036D000050283570404A30F040085072310F40494
:1036E00083470414639E07102285EFD07FFA21AA36
:1036F00003278900BA97C9B783278900BE94F1B719
:1037000083270A008297032784086366E50A198DD8
:103710007E3C0357C9008E07B387E70213070032C8
:1037200093870719B3D7E70263ECA708B74A0F00DE
:10373000138BFA23938A0A248357040485072310E2
:10374000F4048347041481E72285EFD07FF42285B7
:10375000971001E0E780E06763130524032604095E
:103760000327C408832689003297BA876364C70099
:103770006364D700B307D740783C0356C9002328B9
:10378000F408050778BC035764083307C7025A9743
:1037900033575703B384E74063F5E700998EB3844A
:1037A000F60083270A00829763E6A4043385A440C9
:1037B000E34405F839BF83278900998F3E9589BF77
:1037C000A1452285971001E0E780C058A305A40217
:1037D0009727000083A7472B6383071C6244F240AE
:1037E000D2444249B249224A924A024B8945154580
:1037F0000561828783278900A6973385A7404DBF3F
:103800002285EFD03FF32285971001E0E780605CCE
:10381000631705180355C90083576408B7460F009E
:103820001386F623B387A702938606240327040989
:10383000230B0402832A8900B297B3D7D702636AA5
:10384000F716B307F7408326C4082324F408014B76
:10385000B387E600BE8463E4D70063E45701B38412
:1038600057411E3023289408A1CB835604045A30B4
:1038700037460F0056B03387E640B387E7023A3049
:103880001306062481468145BA97B3C707083385D6
:10389000A7023EB0972002E0E78000AB11CD26954D
:1038A000B3349500A695AA876314BB0063645501E1
:1038B000B30755412328F40883270A008297AA8476
:1038C00083270A008297E30D95FE83270A0083244D
:1038D0008408829763E4A40E3385A440630B050E2D
:1038E000035AC90083576408B7440F001387F423B1
:1038F000B387470393840424BA97B3D79702172753
:1039000000000347F716BA9763E5A70CB335950295
:10391000835A24025286814633059502972002E09D
:10392000E78080A23389AA0033854A0337460F0017
:103930001306062481468145972002E0E780C0A057
:1039400015C1B337950252868146B385B4023385DB
:10395000A402BE95972002E0E780009FB38AAA40A8
:10396000231154033545A92923AE890838348547E6
:10397000631AF704930700FD7CA4814503A5819792
:10398000EFD0CFD2954717270000232DF7523707E6
:10399000100083A7419998C7060923A82707F2407A
:1039A0006244D2444249B249224A924A024B0561DA
:1039B0008280B3065701B387F64071B5832789002B
:1039C000BE9419BF930710FC7CA4814503A5019701
:1039D00045BF9727000023AF0732834709018DC3F6
:1039E00003A54196EFD06FEC624483274900F24073
:1039F000D2444249B249224A924A024B0561828727
:103A0000834594026244F240D2444249B249224A78
:103A1000924A024B01450561B315B028B3C50508AC
:103A20006FF0AF92011122CC26CA4EC606CE4AC80C
:103A300052C456C25AC038358547832405092A84A2
:103A4000AE896314F70C83570508835AC503172AF8
:103A50000000130A6A05035BCA0063FC57191429A6
:103A60006399E61803278511631507180327450A8C
:103A70006311071874351D47639DE6162A3DB38A06
:103A8000FA409307204E330555030329440937466E
:103A90000F001306062481463305F5029727000020
:103AA00083C707FD33592503B335AB023E9933492C
:103AB0000908231324093305AB02972002E0E780AD
:103AC000A088B307950033B5A7002E9503278A0079
:103AD000BE8419E163E4E700B384E740B3076903F8
:103AE00037470F009306F7231307072423A09900F5
:103AF000B697B3D7E702D69763E4F4009D8C31A064
:103B000003278A00B307F740BE941389818983276E
:103B1000090023A09900829763E2A4103385A44092
:103B2000635D050A83270900172B0000130BCBF7F1
:103B3000829703A709006369E50E198D7E3C035740
:103B4000CB008E07B387E70213070032938707196C
:103B5000B3D7E70263EFA70C374A0F00930AFA23A3
:103B6000130A0A248357040485072310F4048347A7
:103B7000041481E72285EFD0BFB12285971001E0C0
:103B8000E780202561E5832604098327C4080327ED
:103B90008B00B697BE8463E4D70063E4E700B38488
:103BA000E7407C3C8356CB002328940885077CBCE7
:103BB00083576408B387D702D697B3D7470363E622
:103BC000F40A9D8C8327090023A09900829763E162
:103BD000A40A3385A440E34705F89727000083C76C
:103BE00037E963E6A7069727000023A5871201455A
:103BF000B9A88357640837470F009306F723B387A4
:103C0000670313070724B697B3D7E702E3F8F4EE88
:103C100003278A002697B304F740C5BD9727000005
:103C200083A707E9BE94DDBD83278B00998F3E955E
:103C300031B7A1452285971001E0E780A011A305C7
:103C4000A4029727000083A727E481EF7D55F24067
:103C50006244D2444249B249224A924A024B056127
:103C60008280894515458297D5B71D8FBA9499BF33
:103C700083278B00BE94B1BF83A741989843370632
:103C8000CEFF7D161377F7CF1367071098C303A7EE
:103C9000419A1447370803001375F51FF18E14C7B6
:103CA00083A6419923A8060523A40700904B93F50A
:103CB000F507130888151366F60390CB9043136637
:103CC000060890C3F04F137606E0498EF0CF23AC80
:103CD000070423A007065057759A50D790431376D0
:103CE00006F84D8E90C31306401FF0D21726000031
:103CF0002326061C17260000232A061A054690C212
:103D00009043B70533001376F6CF90C390431376F4
:103D1000F6CF1366062090C310474D8E10C723A818
:103D20000605D8531317F728D8D32547F05201C6F4
:103D3000B04FE37DC7FED8531317F748D8D3A85325
:103D4000133545008280138741991443BC4ABD9BBB
:103D5000BCCA01000100010001001C43B44B93F6F2
:103D6000F68FB4CB944393E6860094C30100010020
:103D70000100010083A641989C4293F7F7CF93E797
:103D800007109CC203A6419A1C46B706CEFFFD163B
:103D9000F58F1CC61C4337070300B8CB83A7C19817
:103DA00099CBD44390479842518F98C2944BDC4BA7
:103DB0009842D98F9CC29727000023A507108280C4
:103DC00083A741999C438D8BE9C74111B7E700E078
:103DD0004AC003A9070026C23707200006C622C42E
:103DE000AA843379E90023A0E7180F1000001724F4
:103DF00000001304640B584C8D47631AF700972793
:103E0000000083A727E4014681454545829719476D
:103E10006391E4048347140289CB834704026396C9
:103E2000970097270000A381070A584CA147631504
:103E3000F700930780101EB0238801882937B2400D
:103E40002244B7E700E023A0271192440249410130
:103E500082809D47639BF40083471402F9D7034790
:103E600004028D47E313F7FC6DBF544C6389E600F1
:103E7000584C6306F700584CA147E31FF7FA8347F5
:103E80001402DDFB5C4C2300F4028547A300F4021E
:043E900065B7828010
:103E9400971100209381C18C17C101201301411691
:103EA4001305400097C5FF1F9385851517C6FF1F8F
:103EB4001306C63463FAC5008322050023A0550007
:103EC40011059105E3EAC5FE17C5FF1F1305452833
:103ED40002852A8309CA83830500230073007D16A3
:103EE400050385056DFA82802A8311C62300B30079
:103EF4007D16050365FE8280B717004003C777056A
:103F04001377E70FA38BE704130700F8A38DE704E7
:103F14003D47238CE70413075003A38CE70403C72E
:103F2400A7051377D70F238DE70482803717004046
:103F34008347E70412054111BD8BC98F93F7F70F2F
:103F440093068008F3B6068093F6860836C60F10EB
:103F54000000930670052300D704930680FA23001B
:103F6400D7040F1000002307F70423000704B24707
:103F7400F3A707800F1000004101828041112A83BA
:103F84000148930E407E130F0019930F4006B34867
:103F9400030863EF1E01130300193373650285429E
:103FA400FD4363F6B2088D4F214F930E4006A1A046
:103FB4007D13336EE3039308E016630E0E00336E35
:103FC400F3039308D01663080E009378330093B874
:103FD40018009388D816C29833C808084DBF93F8C0
:103FE4001500138EF5FF637CBF02F908C29833C82D
:103FF4000808B3450E08E394F5FF8545630B0300F9
:10400400B378D5038145638608009375350093B56D
:104014001500F105C29533C805088945E9BFB38881
:104024001341C29833C80808B3450E089DBF7D16D6
:10403400329879463307C70213D61700BE073348B0
:10404400080832976146B3F6C60213068070B38639
:10405400C6023697A166F58F4207D98FB71600407E
:1040640003C7F60213770708D883908303C7F602C1
:1040740013770708E316E6FE9883B71600404DCF82
:104084001307800873370780137787083AC40F1023
:10409400000037170040930670052300D7049306E9
:1040A40080FA2300D7040F100000232A0703834655
:1040B400170393E60608A308D70223000704224740
:1040C400732707800F1000001166371700407D1614
:1040D400545B4C5FAD8EF18EE5FE93068008F3B61B
:1040E400068093F6860836C60F1000009306700506
:1040F4002300D704930680FA2300D7040F1000008E
:104104005CDB8347170393E70704A308F702230044
:104114000704B247F3A707800F1000004101828013
:1041240003C7F60213770708D883908303C7F60200
:1041340013770708E316E6FE98837DD391B791477A
:1041440063ECB704973702009387C787B3C5F5209C
:1041540098413E97B71700409387470B02879443D3
:1041640037170040B3F6A64094C39306070B9C424E
:10417400B3F7A74019A8944337170040B3F6A640F5
:1041840094C39306070B9C42C98F9CC29307070AEA
:1041940098433377A74098C38280944337170040ED
:1041A400C98ED9B798433377A74098C3B71700404F
:1041B4009387070A9843498FF9BF9843498FF5B706
:1041C40019C5371700401E2FCD8F1EAF8280B71739
:1041D40000409A2FB375B7408EAF8280B717004066
:1041E4009A279306000C21651377070C630ED704F6
:1041F4009A27137707100DC79A279E277D8B09EB03
:1042040093F7072095CF3755E80113050580828081
:1042140037C59812FD8B130505E03345F5028280FE
:104224009A279E2713770720FD8B11C73755E8017E
:1042340013050580DDB73725F40013050540F1BFEC
:104244003725F400130505408280B7F700E088475E
:1042540082803285814737370040A14663C3A70077
:1042640082803037E30FD6FE3386F50010228507AF
:1042740010A7EDB797060020938686CEAA878842BA
:1042840017270020130747E0AA9763E9E7000A8786
:10429400130707FC6364F7009CC282807D5582800B
:1042A400411122C406C62A84153F2947B307E502F3
:1042B400B2408D83B3D7870222449507B3D7E70270
:1042C40037370040B3C707085EA741018280716594
:1042D40041111305052006C6E137B737004013071F
:1042E40070F8B8A30D47B8B31307000498B3054793
:1042F400F8A7B24041018280411193962500AA8516
:104304002D4506C697C0FF1FE780C02EB240014569
:1043140041018280011122CC06CE3714004026CA06
:104324004AC84EC652C483447405034AB40583493B
:10433400840503499405C9368347A40593F4F40F0F
:10434400137AFA0F93E71700230DF40493F9F90F86
:104354001379F90FB717004003C7A705058B6DFF45
:1043640003D5C705A38D4705238C3705A38C2705E3
:10437400A38B9704F2406244D2444249B249224A90
:1043840005618280411122C406C62E84939755602C
:1043940063DF070097C0FF1FE780005F19C1EF00CC
:1043A400B0371315F468B24022444101828093F778
:1043B400150013C51500E5FB8967ED8F99CFEF80D4
:1043C400112237F60200130606E0896503C501874A
:1043D400EF00705B1315D468F9B711656D8D61D565
:1043E400172502001305455FEF10C242130600644F
:1043F400916503C50187EF0010591315E46865B78B
:104404002D71232A9110FD74E98C232C811023280B
:104414002111232631112A84AE8932899306001092
:104424000A86A6852D45232E111097C0FF1FE7800D
:10443400601C13154401498113962900CA850A9505
:1044440097C0FF1FE780405DA68585660146254528
:1044540097C0FF1FE780001A0A86A68593060010FE
:10446400294597C0FF1FE780E0188320C11103246A
:10447400811183244111032901118329C11015617C
:104484008280011183A7818606CE22CC26CABD8BE9
:1044940021476399E700AD37F2406244D2440145B5
:1044A40005618280B7F70700DC532A84B284BD8B90
:1044B400939625006397E7008567FD17F58F91C3F1
:1044C40001A0A2850146254536C697C0FF1FE78097
:1044D4006012B2462686A285294597C0FF1FE78051
:1044E40060115DBF1D714946972502009385054FF4
:1044F400173502001305C5E286CEA2CC97C0FF1F74
:10450400E780206301E9172502001305654EEF10CB
:10451400623001A0B7F700E023A40700795798CBD5
:104524003D4798C30564B7E700E023A087180F1040
:10453400000017E7FF1F1307E78F23A6E186130781
:1045440000F8A38AE7401306C0038145480897C0D2
:10455400FF1FE780E052970700209387E7CC3ECA0D
:10456400896793870780FC849D673ECEB707010F58
:10457400938707103ED09307001F2312F102A94727
:104584002303F10297070000938747D7BEC4970718
:104594000000938747EFBEC6930754D12314F1025A
:1045A400B7F5070097070000938767CA3EDA81468C
:1045B40097070000938747D67000E10519453EDE52
:1045C40097C0FF1FE780000319466C001305E10242
:1045D4000932D24781C7BC8463F3870001A048082D
:1045E400EF10C010AA8501C91725020013058541E3
:1045F400EF10620E01A0F6406644256182804111ED
:1046040017050000130545D806C622C4EF10600B39
:104614001384018708A0112808202244B2401306FD
:104624000032896541016F001036397106DE1307C7
:104634008008F337078093F787083EC20F10000005
:10464400B7170040930570052380B704130680FA5A
:104654002380C7040F10000083C6F70293F6D60F19
:10466400A387D702238007049246F3A606800F107F
:10467400000073370780137787083AC40F100000CF
:104684002380B7042380C7040F10000003C7F70278
:1046940013675700A387E70223800704A247F3A701
:1046A40007800F1000008147014781460546854574
:1046B4001305407EE130680013064002814597C02F
:1046C400FF1FE780E03BB707C0A83ECAB7873200A8
:1046D4003ECC97C7FF1F9387C7E13EC6680097C7C4
:1046E400FF1F938787E23EC8EF10C02CF250216170
:1046F40082804111172502001305C53206C6EF005A
:10470400927DB2408547238EF18641018280B305B4
:10471400B040172502001305A5336F00D27B3C215E
:1047240035476366F726172702001307A73FB3C769
:10473400E7209C43797122D4BA9706D626D24AD070
:104744004ECE52CC2A8482879389618803C709009C
:10475400A547034A450063E4E71A1304550081445E
:10476400138981A703C5090063EFA404A285194630
:1047740033652521090597C0FF1FE780E02983C51C
:104784000900172502001305A52EB3E72521850589
:1047940093F5F50FA38047012380B90022541386B3
:1047A400F5FF33662621B25083487600034866003D
:1047B4005C325822343292540259F249624A30220D
:1047C40045616F005271B3E524211946890522859C
:1047D40097C0FF1FE780E03563130512850493F447
:1047E400F40F49B705041374F40F9C20637CF400A0
:1047F400B3652421194689054E8597C0FF1FE780BC
:1048040040336DD19C20639687041725020013055D
:10481400A528EF102200014685450D452383018814
:10482400EFB0A13217250200130585232254B2509C
:1048340092540259F249624A45616F00B27D0144C3
:1048440093846188138981A797F9FF1F9389C9719C
:1048540069BF1725020013056525EF00B27B938716
:1048640081A70E04930624003E941030BE96814521
:104874000145EFB0E12A0566130606C8930500104A
:1048840003C57188EF0030101725020013050523B6
:1048940071BF93847188882093050010EF0050370E
:1048A4000C30B5E52A248947A382F188902097F734
:1048B400FF1F2399A76A8547238EF1866C0093070F
:1048C400C01E7C86EF40F05D882013060064A1457D
:1048D400EF00700B88201306006493050020EF009E
:1048E400900A882005661306069693050040EF009B
:1048F4009009172502001305651DEF00B271B2502F
:10490400225492540259F249624A45618280172521
:1049140002001305A51CEF00125C17250200130505
:104924002514EF00326F238301882254B25092542D
:104934000259F249624A014685450D4545616FB009
:10494400C120A3820188F9579305000803C5718823
:1049540017F7FF1F2318F760238201882383018838
:10496400238E0186EF00D02A6C2017250200130540
:10497400A518EF005256172502001305650EEF0027
:10498400726965B7172502001305C51845B58280FD
:10499400011122CC26CA06CE2E84B684BD25B74783
:1049A4000F00938707243376F50291C8B285172543
:1049B40002001305A51A32C6EF00F25132462285D1
:1049C4006244F240D244814505616FC0C126397109
:1049D40026DA06DE22DC4AD84ED652D4AE84939729
:1049E400556063D00724138971880345090097C073
:1049F400FF1FE78060F92A841DC118219307000B6B
:104A0400631DF70083C7518809474C21930985002A
:104A14006381E7024E85EF50001E2285F529139528
:104A2400F468F2506254D2544259B259225A216164
:104A340082800D47638FE5000547639EE5001825D6
:104A44006317F7024C251725020013052512EF0002
:104A54009248238E018658209307F0076319F700C4
:104A64000E24172502001305E511EF00D2465C2041
:104A74002D476384E70285466398D7021824A94624
:104A8400631ED7024C241725020013056510EF009E
:104A94009244238E01864C20B5BF5C441725020046
:104AA400130505108C23E5B74D476399E7061725D1
:104AB400020013052511EF00F255E1BFC946631842
:104AC400D7004C24172502001305850EC9B703C768
:104AD400418871D3631EF7085C201D476398E7087B
:104AE4001830E947E399E7FA83D72188CDD77C8446
:104AF40083D701887C85F9779387271009477C86BB
:104B04002382E188FD57034609002C0017F5FF1F97
:104B1400035545455C87EF403043B5BF6D47639906
:104B2400E7001387818714433E24B6971CC3A5B7B7
:104B340003C741882DD36317D7061D47E39EE7F8C3
:104B44001E24D9DB5C44172502001305A5088C3309
:104B54009823B033A205D98D2391B188B8232206B6
:104B6400598E2390C188EF001237BDB705479DBF0A
:104B74008947631FF7045C2025476399E7041830CD
:104B8400E947E39AE7F08D472382F18883D72188A8
:104B94007C8483D701887C85930720207C869307B7
:104BA400900295B78946631BD7022547E395E7FC36
:104BB4001E24F1D35C4417250200130565048C23DD
:104BC4009C33A207DD8DEF00123175B7054755BF41
:104BD4008D47E312F7EC2382018875BD8D46E31CF3
:104BE400D7EA2547E399E7FE1E24F5D75C4403453D
:104BF4000900138AE18798239C3313060064930504
:104C04000004A207D98F2310FA00238E0186A52B56
:104C140083550A001725020013050501EF00B22B86
:104C24005DBF93F7150085C317F6FF1F130606270C
:104C340097F5FF1F9385C52503C57188EFA0F1681B
:104C440013C51400F9BB93F7051081CB41657D159D
:104C5400EFC0515113C50410E9B393F785009DC704
:104C640081577C842390018823910188854783C6DA
:104C7400718809462C0017F5FF1F0355A52E2382C2
:104C8400F188EF40504913C5840061BB93F70501D7
:104C940099CF1307802581465146D14517F5FF1F4B
:104CA4000355452CEFC0914B13C504019DBB93F7ED
:104CB40005408DC7014789460946814517F5FF1F01
:104CC4000355452AEFC0714CAA8517250200130528
:104CD40025F9EF00522013C50440A1B393F705044E
:104CE400ADC31384C1871C20A9E717F9FF1F13095B
:104CF40069270355090083D7E1877C8401478947E5
:104D040081460946C945231801007C85EF40102BD4
:104D14002AC605C185471CA1B2470355090003C62D
:104D24007188A38007002C00EF40902211E585478D
:104D34001CA013C50404F5B1C9452800EF40B06BAD
:104D4400CDBF93F7050895C317F5FF1F03558521BC
:104D5400EFC091400566130606969305000803C547
:104D64007188152113C504086DB913F50520E30AEC
:104D740005CA83A58187172502001305A5EFEF0057
:104D84009215130600649305002003C5718823ACB3
:104D94000186D52E13C5042069B1AE8717250200FC
:104DA400130505EEB285A1C70547639DE7001725E6
:104DB4000200130525EE09C617250200130585EE2A
:104DC4006F00522509476398E70017250200130571
:104DD40065EE7DD682800D47E39EE7FE172502002F
:104DE400130545EE71DE172502001305E5EE6F008D
:104DF400920E0111170500001305A5BD06CE22CCA5
:104E0400EF00300C13847188856508A0938505969E
:104E14000945EF20E04A9D451D45EF20604A9D4528
:104E24002145EF20E049930540063545EF204049F0
:104E340085470D47700091451305F0405C84DC8480
:104E44005885DC8502C6EFC0A105300085451305F1
:104E54008040EFC0E104130691008545130590409E
:104E6400EFC001041306A10085451305A040EFC05F
:104E740021031306B10085451305D040EFC041025C
:104E8400EF5090010820EF50803008206244F24037
:104E94008545056117E3FF1F6700E3CA411111450A
:104EA40006C6EFF0AF881305503497B0FF1FE780B4
:104EB400C039B7170040116723ACE70AC14505455F
:104EC400EFF00FB085452165EFF06FA78D451165B3
:104ED400EFF0EFA6EFF0AFBF17250200130545442E
:104EE400EF005213EFF00FE0EFF06FF1EFC0312A53
:104EF400093797B0FF1FE7808063184183A785FFB8
:104F04006319B7001CC1FD5723AC05FE238FF5FEC2
:104F14008280232CF6FEC5BF411122C437E400E091
:104F240026C204403707200006C6F98C2320E41863
:104F34000F10000009E9232094101545B2402244C3
:104F44009244410182800347E5FF9307F00F630613
:104F5400F700232094101145D5B797D0FF1FE780A1
:104F6400405B014523209410D1BF41114AC037E969
:104F740000E022C403240900B707200006C626C2A5
:104F84007D8C2320F9180F10000089E52320891057
:104F9400154515A0AA849717002083C7F7A82E8566
:104FA40063F5F400894763EE9700BD37B7E700E087
:104FB40023A087100D45B240224492440249410186
:104FC400828083A785FF99E703C7E5FF9307F00F66
:104FD4006308F7009137B7E700E023A087104DBFBF
:104FE400238F95FE1385818897C0FF1FE780009269
:104FF400A165268597E0FF1FE780E0B401452320E3
:10500400891055BF23A4018882804111B7E700E0CD
:1050140026C284433707200006C622C4F98C23A085
:10502400E7180F1000009717002083A767A41384C4
:10503400018191C782971C40AA971CC021A083A715
:105044008189EDFB0840B74703009387D73F3305B9
:10505400F502B7A72600938737ECB2403E9508C007
:105064002244B7E700E023A09710924441018280D4
:10507400B7E700E09843B706200023A0D718758F40
:105084000F1000009716002083C6169A637ED50081
:1050940083A6418A3325D5201621B3F5B6400EA147
:1050A40023A0E7100145828023A0E7100D458280EC
:1050B4007971B7E700E026D284433707200006D68B
:1050C40022D44AD04ECE52CCF98C23A0E7180F102C
:1050D4000000930705FF93F7F70F7D47636FF70809
:1050E40031473307E50283A7818ABA979C43D1C726
:1050F400135445003D893315A028AE89B3450508EE
:1051040022852EC697E0FF1FE78040922A8929C98D
:10511400B2452285171A0020130A8A98913F83A763
:10512400818982978357CA002A848146338737034B
:1051340013060064B3B7370313050732B335E5002C
:10514400BE95EF00A21FB307850083268A003E8721
:1051540063E4A70063E4D7003387D7402324E9003E
:10516400B7E700E023A097100145B25022549254AF
:105174000259F249624A45618280B7E700E023A000
:1051840097100945DDB7797122D437E400E04AD09D
:1051940003290400B707200006D626D24ECE52CCEF
:1051A40056CA5AC85EC63379F9002320F4180F1082
:1051B40000009717002083C737876376F50083AB19
:1051C400818963970B00B7E700E023A0271199A01A
:1051D400971A0020938ACA8C03AB8A00B74736FE1D
:1051E400938707C83E9B83D7CA002E8AAA84B385B7
:1051F400C702B2898146B3B7C70213850532B335F6
:10520400B50013060064BE95EF0042136370AB0251
:10521400232024110145B250225492540259F249D8
:10522400624AD24A424BB24B45618280829B83D709
:10523400CA002A8413060064B38537038146B3B7D2
:10524400370313850532B335B500BE95EF00020F61
:10525400B307850003A78A003E8463E4A70063E4E0
:10526400E7003384E740D285268597D0FF1FE78087
:10527400E07B01C900C5B7E700E023A0271105457D
:1052840059BF93E504F04145B3C5050897D0FF1F06
:10529400E780C01B11E99707002083A7677E85D7A5
:1052A400A6851145829705B71387018A1C4389EFA8
:1052B40008C385472326050000C52311450104A121
:1052C4001CB12322050045BF3E87DC47F5FF48C7D4
:1052D400CDB77971B7E700E026D2844337072000C1
:1052E40006D622D44AD04ECE52CC56CA5AC85EC62E
:1052F40062C466C2F98C23A0E7180F10000025C110
:105304002A892E8AB28AB6894144B14C138B818A88
:10531400130C0003B30B940383270B00DE979C4309
:10532400B9EF135544409375F40056861375F50F81
:10533400B315B028B3C50508B93531C183270B00AF
:10534400DE9723A0270123A2470163840900238059
:105354008900B7E700E023A09710014521A023A00E
:1053640097100945B250225492540259F249624AA4
:10537400D24A424BB24B224C924C45618280050486
:10538400E31A84F9B7E700E023A097102145D9BFB9
:10539400011122CC37E400E026CA04404AC84EC6B4
:1053A40052C406CEB70720002A892E8AB289FD8C02
:1053B4002320F4180F100000F933D2854A8597D0C2
:1053C400FF1FE780A06601ED232094102145F240E1
:1053D4006244D2444249B249224A05618280970715
:1053E400002083D7A76CB38537032A89130600648A
:1053F4008146B3B7370313850532B335B500BE957F
:10540400EFF0D1732322A900232094100145C1B7E2
:10541400011126CAB7E400E04AC803A9040022CC5B
:105424004EC6B707200006CE52C4AA892E8433790B
:10543400F90023A0F4180F10000097D0FF1FE78095
:10544400E05E170A0020130A2A5E1DE1A2854E853C
:10545400053183470A006380370523A024111945C9
:10546400F2406244D2444249B249224A05618280F0
:1054740023110500A2854E85E53E83470A00638615
:10548400370123A024110145E1BF138721891E237D
:10549400C18F1EA3FDB7938721899A23598C82A3B8
:1054A4006DBF01114AC837E900E022CC032409008A
:1054B400B707200006CE26CA4EC67D8C2320F918D5
:1054C4000F1000009307F00263E5A704B144B3048E
:1054D40095029389818A83A70900A6979C4395CB5B
:1054E4009375F5001181B315B028B3C505080D37C0
:1054F40083A709000145A69723A0070023A207005C
:1055040023208910F2406244D2444249B2490561E1
:105514008280B7E700E023A087100945E5B7411171
:10552400B7E700E026C2844306C622C4370720003A
:10553400F98C23A0E7180F10000097D0FF1FE78015
:10554400E04E19E90145B2402244B7E700E023A048
:105554009710924441018280004583A781898297F4
:10556400970700209387C7536367A4029847B746F9
:1055740036FE938606C83305A4403697E374E5FCEB
:1055840013070064B335E502D22781463305E502EB
:10559400EFF0D15A4DBF98473A94C9BF411106C69E
:1055A40023AAA1880295B2409707002023AAA748FE
:1055B4000145410182804111514681451705002072
:1055C4001305C54C06C622C426C223A0018A23AAF9
:1055D400018823AC01882388018823A6018897B019
:1055E400FF1FE780E049130680028145170500206C
:1055F4001305854397B0FF1FE7808048EFC0014340
:10560400970700209387C744E82BFC3B170400202E
:105614001304844185453E958D473305F502930770
:1056240000049384818A39051375F50F3375F50ADF
:10563400994728A03305F5021305052433450508C9
:1056440097D0FF1FE78080E088C03DC53020994790
:1056540081453306F6021306062497B0FF1FE78040
:1056640020429C4038209384C189938707249CC09E
:10567400B347F72023A2F18AEFF0DF9821291C30E9
:10568400944017D6FF1F1306863233C7D72010C3A2
:10569400138717001377F70F17D6FF1F1306062B70
:1056A4003347D72010C313873700890718B093F7FF
:1056B400F70FB3C7D72090C3B240224492444101AC
:1056C400828097060020938626362A87BC22883259
:1056D400637BF5001306150083A7C18990B2B34715
:1056E400F52098C382801305F00F82801C41F5C712
:1056F400370700F07D8FB706002089476310D70E67
:105704005A21411122C406C62A8479C31946930535
:10571400F00F690597B0FF1FE780C04905478D4723
:105724006308E50A1C4491C75858994755C3185C47
:1057340045C31306C00381451705002013054531F1
:1057440097B0FF1FE780C0331306C003A285170577
:1057540000201305E52F97B0FF1FE780E02B970784
:1057640000209387E72EDA2701E713070010DAA752
:10577400F82719E30547F8A79A2B19E36D479AAB65
:10578400F83719E31547F8B7B82B19E30547B8AB51
:10579400B83B19E3F837B8BBD83B11C79376370049
:1057A4000983F4ABF8BBD82B19E35547D8AB182CB5
:1057B40001E71307C00398AF9C5791C782979707D7
:1057C40000202397A726FD572386F1A2ED338147B6
:1057D400B24022443E854101828089473E858280D1
:1057E40079714ECE970900209389892B83A70900EC
:1057F40006D622D426D24AD052CC8297130900640A
:10580400B335250303D6C9008146170A0020130ABD
:10581400AA2132C633052503EFF0513283248A01CD
:105824002A8401456386840232463305944063EF3B
:10583400840003A589008146B335A9023305A90272
:10584400EFF0D12FB307954033858700232C8A00CE
:10585400B250225492540259F249624A45618280FC
:10586400011122CC0A852E844146971502009385A6
:10587400651206CEEFE0EFE518083324E420035761
:1058840004FFF24062449707002083D7472237453C
:105894000F00BA97130505243355F502056182807C
:1058A4009707002083D7A72051471D45637CF70243
:1058B400794719456378F702130720031545637385
:1058C400F7021307B0041145637EF700130740067F
:1058D4000D456379F7001307600909456374F70000
:1058E40013B5B70F8280411122C426C22E84AA8424
:1058F40006C6058CEFF06FF1B327A402B240224430
:10590400338597001375F50F92444101828041114C
:1059140022C426C22E84AA8406C6058CEFF0EFEEBC
:10592400B327A402B24022443385970033450508C7
:10593400924441018280411122C426C22E84AA8449
:1059440006C6058CEFF06FEC3335A402B240224456
:10595400269592444101828041114AC017090020D2
:105964001309090F8327890206C622C426C28DCFD4
:105974008297970400209384240B9E242A848DC745
:1059840033F7A70A33470708B3D7A70AB3C70708EB
:10599400B307F74051476359F7008327C90291C3FE
:1059A4008297EF70C14382A4B240224492440249D8
:1059B40041018280011122CC23A6018A1704002010
:1059C400130404095C5406CEAA8581C72AC68297AB
:1059D400B245C1C59C410545ADCF9C45BDCBDE2537
:1059E400ADCBFE25BDC79C2981CB7C287838BA97DE
:1059F4006341F506DC41B1CF1306400217050020D0
:105A04001305050A97B0FF1FE780000197070020E0
:105A140093870709984323ACE188183C19EFCA27F8
:105A24009307805737460F003305F5021306062403
:105A340081468145EFF0911008BC183C9D4763E412
:105A4400E700A1471CBC170500001305A5D9B9360A
:105A54000145F2406244056182809707002023A338
:105A640007FE970700209387A70317B7FF1F1307A5
:105A7400876098C337873200FD56130727A194C760
:105A8400D8C79707002023850702B7C7004023A47F
:105A9400D726ADBF011122CC17040020130444FB08
:105AA400084406CE26CA4AC801E90545F2406244C4
:105AB400D2444249056182805C58E5DB185C75D7A5
:105AC4007000854582971844B247E300F7FE4A24E4
