:040000006F00101766
:100004000000000000000000A0000020D804002030
:10001400A9BDF9F3A00000200000000000000000CA
:10002400A0000020A000002000000000000000004C
:10003400A000002000000000A0000020000000003C
:10004400A0000020A0000020A0000020A0000020AC
:10005400A0000020A0000020A0000020000000005C
:10006400A0000020A0000020A0000020A00000208C
:10007400A0000020A0000020A0000020A00000207C
:10008400A0000020A0000020A0000020A00000206C
:10009400A0000020A0000020A0000020A00000205C
:1000A40001A0B7170040984B41111367070198CB83
:1000B40003C707011377E70F2388E70013078008B6
:1000C40073370780137787083AC60F1000001307A9
:1000D40070052380E704130780FA2380E7040F10D8
:1000E4000000B847B70600069506558FB8C703C782
:1000F400B7041377F70DA385E70403C7A7001367B5
:1001040027012385E700130750142394E7003727BA
:1001140000408346578093F6F60EA302D7808946A3
:10012400A303D78003C7E7041377C70F1367170028
:100134002387E70403C7F70213672700A387E702AF
:1001440003C70701136717002388E7002380070408
:10015400B247F3A707800F10000041018280EFF03F
:100164005FF413058020970500009385E5091706C1
:1001740000001306E67F63FAC5008322050023A06E
:10018400550011059105E3EAC5FE175500E0130576
:10019400E5F6970500009385A57D1386418363FAF0
:1001A400C5008322050023A0550011059105E3EA4B
:1001B400C5FE13854183938541CA6377B500232027
:1001C40005001105E36DB5FE93025002739002BC65
:1001D4008D42739042808542739012BC93028008D2
:1001E40073900230970200009382C2E193E23200DE
:1001F40073905230971200E09382228273901234EB
:040204007300203033
:1002080093878183984309C79C43829723AC0182D3
:1002180073002030B7F70700DC53411123AAF1829D
:10022800B7170040984B1367070198CB03C707011E
:100238001377E70F2388E7001307800873370780D1
:10024800137787083AC60F1000001307700523803C
:10025800E704130780FA2380E7040F100000130750
:10026800000C6319E50203D787001367070C239472
:10027800E700B717004003C7070113671700238873
:10028800E70023800704B247F3A707800F10000098
:100298004101828003C7A70093760520C9C2118B4C
:1002A80039E703C7E70403C6E7041377F70F1366B4
:1002B80036002387C70403C6A700136646002385B4
:1002C800C70003D6870083D587003346060893E521
:1002D800050C2394B700A5470100FD1793F7F70F06
:1002E800E5FFB71700402394C7002387E7049377F7
:1002F8000510DDCB371700408347A70093E70701B8
:100308002305F7009377F50185E3B727004003C776
:10031800578013670701A382E7801D4715A013675D
:1003280027002385E700E1B72547636BF704B72764
:10033800004003C757801377F70EA382E78005476D
:10034800A383E78033450508B71700401367050CFA
:100358002394E7002394A700C9C203C7570483C6A0
:100368005704418B858A558F09F703C72701418BAD
:1003780009D303C7A7001377D70F2385E700D5BD97
:100388009377050199EBB727004003C75780137788
:10039800F70EA382E780094765B7B727004003C770
:1003A80057801377F70E85BF9377850181EFB727BD
:1003B800004003C757801377F70EA382E78013071F
:1003C8001005BDBFB727004003C757801377F70E46
:1003D800A382E78013077005A5B703C7A7001377A3
:1003E800B70F61BF37E700E01C4354437D56A18334
:1003F800E206D58F9306071890C2D0C217060000F0
:10040800130646E097060000938686BF8C5E90DE52
:1004180023ACA18211661305071010C1130707202A
:100428001388818310C30327080075FF37E700E0AE
:1004380011662320C7180F1000008CDE93968700E2
:100448002320D710E1832322F710828001118146EF
:1004580001468145114506CEDD2A93078008F3B78A
:10046800078093F787083EC60F100000B7170040B3
:10047800130770052380E704130780FA2380E70435
:100488000F10000003C76704136717002383E704EE
:1004980023800704B247F3A707800F100000F2403B
:1004A8000561828037E700E01C435443A183E206DC
:1004B800D58F1CC1FD572320F7182322F7188280F7
:1004C80013178500B7E700E023A0E710618123A296
:1004D800A710828041118146014681451145852A30
:1004E80013078008F337078093F787083EC40F1077
:1004F8000000B7170040130670052380C704930651
:1005080080FA2380D7040F100000FD552396B70208
:1005180023800704A245F3A505800F100000733758
:100528000780137787083AC60F1000002380C70496
:100538002380D7040F10000003C767041367170050
:100548002383E70423800704B247F3A707800F102B
:10055800000001A09307E0043305F50295473355E1
:10056800F50201007D1575FD8280411122C406C681
:100578002A841305803E7D14F13F3344040875F83E
:10058800B2402244410182802E96AA870F70B67825
:1005980082802303048015472303E480010023029B
:1005A800A480828083076480E3CE07FE230304804F
:1005B800828083076480E3CE07FE034544808280FF
:1005C80083076480E3CE07FE2302A4808280411162
:1005D80026C44AC24EC006C61377F50BAD47AA8992
:1005E8002E8995446306F70019456537653F8D44A4
:1005F8004E854537FD59FD1463983401B240A24435
:100608001249824941018280135509011375F50F7A
:10061800453F2209CDB7011126CC06CEB704080004
:1006280051371545BD37713769372AC6A53F324559
:100638009377150089EB136515001375F50FF240D4
:10064800E24405618280FD14E9FC0145CDBF3971A2
:10065800B7F7070006DE26DC4ADA4ED852D656D45B
:100668005AD25ED062CE03AB47027D57B7E700E0AF
:1006780083AA070022C603AA470023A0E71823A2DB
:10068800E718B71B0040930770052380FB04930706
:1006980080FA2380FB0483C74B041147AA8993E798
:1006A800070E2382FB04372400401305F00F2303B1
:1006B800E4802E8C3289B684E93DED35938779FF45
:1006C80093F7F70F0947137BFB006362F712A14703
:1006D800370708006307FB00B70707003E9C37870A
:1006E80007007955637EEC02B3878401636AF702D9
:1006F800A9476398F90689E481446D3526850DA0DC
:10070800E2850945E93505090345F9FFFD14050C9E
:10071800453D81C49377FC0FFDF7F53D69FD7D5597
:10072800B7170040130770052380E704130780FA02
:100738002380E70403C74704418B2382E704F25070
:10074800B7E700E023A0571123A24711E25432442F
:100758005259C259325AA25A125B825B724C2161B9
:100768008280A547639AF906A1478569631DFB0244
:100778009387F9FFB3869700B374FC00B69493C7C8
:10078800F7FFFD8C33FC8701416B856B9387F9FF7D
:10079800B3F7870199E363FF340193D94900C1474F
:1007A800E3E637FF91BF9307F00FE9B78567C169A3
:1007B800FD17C9B71305800D638869011305000289
:1007C8006384790113051008E2851135A93521D90B
:1007D8004E9CB3843441C1B7E2852D45CD3BCA94C4
:1007E800E30C99F00509F133A30FA9FED5BF938750
:1007F800F9FF93F7F70F636FF70AA1476319FB0631
:10080800B70708003E9C83C75B043707070093F7C8
:10081800070299E337870700B70708003E9779551D
:10082800E370ECF0B3079C00E36CF7EE8947639A3A
:10083800F9048980D549E38104ECE2850945413B07
:1008480011090327C9FF91472320E4800307648027
:10085800E34E07FE23033481FD17EDFBFD14110C55
:1008680081C49377FC0FE9FF7D3371F54DBD83C7D4
:100878005B043707070093F70702D5F337870700AC
:1008880079BF8547E384F9F2E2852D458933938959
:10089800F4FFE38304E6313B93F7390091EB8326B9
:1008A80004800327090093074900E398E6E43E899A
:1008B800CE84F1BFB5476396F9001305900BD13983
:1008C80025BDB1471305B00AE38BF9FE9947639438
:1008D800F904A1476315FB00B70708003E9CE285B1
:1008E8002D45F53181440D4BA149E13163966401F1
:1008F800832704802320F9008504E39834FF8327A5
:10090800048013172C01635507002312F900EDB377
:100918002322F900D5B39D476399F9028145130550
:10092800B0047531BD442320090023220900FD5974
:10093800493193F77400CA9703C70700FD14398D2E
:100948002380A700E39634FF45BB91476399F900DC
:10095800130560063D39B931130590098DB7E38D4C
:0809680009D8F15459BB00004D
:10097000971100209381018617F1012013018168EE
:100980001305400097F5FF1F9385C56717060020E4
:100990001306868763FAC5008322050023A055004D
:1009A00011059105E3EAC5FE17F5FF1F1305657BE9
:1009B00002852A8309CA83830500230073007D16FC
:1009C000050385056DFA82802A8311C62300B300D2
:1009D0007D16050365FE828019C94111AA85174558
:1009E00000001305E54806C6EF30000501A082802F
:1009F000411106C6B7170040116723ACE70AC1458D
:100A00000545052B8545216565218D4511654D21E0
:100A1000B240410189A57971114506D626D24AD046
:100A20004ECE52CC56CA5AC85EC622D462C466C2E2
:100A30006AC03D211305503497F0FF1FE780007E08
:100A4000453FB717004083C517041745000013053D
:100A500025438544EF20507E9387419023A0F18465
:100A60009387418C23AEF182EF0090416126138978
:100A7000418423820184938901C5974A0000938AA7
:100A8000AA41174B0000130B2B42170A0020130A30
:100A90006AFA974B0000938B2B48378700408347B7
:100AA0006700858B85EB8347090081CF1305800C98
:100AB0002382018497000020E780A0ABEF009042E2
:100AC0000DC11305400697000020E78080AA054568
:100AD0003D2DE1B723039700652BD547E315F5FCC2
:100AE000F1B791472380F90029445685EF30E0178C
:100AF000EF10D002AA8511CD5A85EF20F0737D1436
:100B0000130520031374F40F97000020E78060A6FC
:100B100069FC03C709009147E3F5E7FA17450000B0
:100B200013050539EF306014974500009385C538EB
:100B3000138541B4EF304014EF20700F713D17451D
:100B4000000013056538EF3040129745000093858B
:100B500065385285EF3040120144138C41B4130DB7
:100B60001004A94C2310AC0123224C01EF20D03CEF
:100B7000A535A2855E850504EF20106CE31494FF73
:100B8000174500001305853AEF30200E23009C0026
:100B9000EF204073913535B76F00301D797122D445
:100BA00026D24AD04ECE52CC56CA5AC85EC662C46D
:100BB00066C26AC006D6AA842E89814C1384418CF1
:100BC000938951C9130C00F8138A01C8A94A130B61
:100BD0008002938BC1C4138D81C583C709004A85E8
:100BE00023068401B397F40013D787002304F4008D
:100BF000A304E40013D70701E183A305F4008347AE
:100C00000A002305E40023075401A306F400238A05
:100C1000018C83A70B00A3076401A30B940013D7D7
:100C20008701A308E40013D707012309E40013D7C1
:100C30008700230AF400A309E400A38C018C238D10
:100C4000018C238E018CEF00306483470D0013F577
:100C5000F70F89CF6685EF10202F2300AD00834763
:100C60000D009DC303450D001375F50FB2502254BE
:100C700092540259F249624AD24A424BB24B224C38
:100C8000924C024D45618280850C93FCFC0F8D4790
:100C9000E395FCF4FD472300FD007D45C1BF39719C
:100CA00022DC26DA4AD84ED652D456D25AD05ECE5C
:100CB00062CC66CA6EC606DE6AC8AA842E89814CDA
:100CC0001384418C138A51C9938A01C8294C130B90
:100CD000A002938BC1C4938D81C58D4983470A00BF
:100CE0004A8523078401B397F40013D787002304B0
:100CF000F400A304E40013D70701E183A305F40083
:100D00002388018C83C70A002305E400A30764013C
:100D1000A306F400238A018C83A70B00A30B940085
:100D200013D78701A308E40013D707012309E400C0
:100D300013D78700230AF400A309E400A38C018CD5
:100D4000238D018C238E018CEF00105483C70D007E
:100D500013FDF70F9DE71305800C97F0FF1FE78049
:100D6000E07FF2506254D2544259B259225A925AF8
:100D7000025BF24B624CD24CB24D6A85424D21610E
:100D800082806685EF10401C2380AD0083C70D0074
:100D900091C703CD0D00137DFD0FE1B7850C93FCCA
:100DA000FC0FE39D3CF3FD472380FD007D4D55BFC7
:100DB0003787004083473700094693F7F707A301B9
:100DC000F700834757000347370093F7F70F9376F1
:100DD000F70F631BC70013F7170019C7918B99C34F
:100DE0002388D1C40145828085472388F1C45945B1
:100DF00082808280411106C6EF0030473D4793074D
:100E0000F00F637BA704970700209387E7D023ACFC
:100E1000F1C223A0F1C2238801C4A547A38AF1C867
:100E2000930700202392F1C623AA01C6930700046A
:100E3000239DF1C6B78700401387C70123AAE1C2EB
:100E40001387870123AEE1C81387C702A10723AA2E
:100E5000E1C023A0F1C48147B2403E8541018280B8
:100E6000371700408347E70412054111BD8BC98F36
:100E700093F7F70F93068008F3B6068093F686087B
:100E800036C60F100000930670052300D7049306A2
:100E900080FA2300D7040F1000002307F704230073
:100EA0000704B247F3A707800F10000041018280BA
:100EB000914763ECB704974700009387A707B3C532
:100EC000F52098413E97B71700409387470B02875C
:100ED000944337170040B3F6A64094C39306070B1C
:100EE0009C42B3F7A74019A8944337170040B3F6C4
:100EF000A64094C39306070B9C42C98F9CC29307DC
:100F0000070A98433377A74098C3828094433717E2
:100F10000040C98ED9B798433377A74098C3B71715
:100F200000409387070A9843498FF9BF9843498F38
:100F3000F5B709C93717004083578701CD8F231CA8
:100F4000F7008280B717004003D78701B375B74019
:100F5000239CB7008280B717004003D78700930611
:100F6000000C1377070C630FD70403D787001377A0
:100F700007101DC703D7870083D787007D8B09EB38
:100F800093F70720A1C73755E80113050580828034
:100F900037C59812FD8B130505E03345F5028280B5
:100FA00003D7870083D7870013770720FD8B11C7EE
:100FB0003755E80113050580CDB73725F400130533
:100FC0000540E1BF2165130505D082803725F40077
:100FD0001305054082803285814737370040A1469E
:100FE00063C3A70082800346B700E30ED6FE3386B4
:100FF000F5000346060085072304C700D5B797060A
:1010000000209386269DAA878842138741CAAA9703
:1010100063E9E7000A87130707FC6364F7009CC2D3
:1010200082807D558280411122C406C62A842537DC
:101030002947B307E502B2408D83B3D78702224424
:101040009507B3D7E70237370040B3C70708231621
:10105000F70041018280716541111305052006C624
:10106000D937B7370040130770F82381E7000D47E1
:10107000A381E70013070004A380E7000547238747
:10108000E700B2404101828085472388F1C4828015
:10109000411106C63787004003455700938701C5B5
:1010A00005891DC903C6070085466307D6000347A7
:1010B00017000145058B11EF05472380E700174511
:1010C0000000130565E809472380E700EF20F039A9
:1010D0005545B2404101828083C607000547E37A47
:1010E000D7FE174500001305E5E62380E700EF2053
:1010F000D0375945F9BF378700408347370013750C
:10110000F50793F70708C98FA301F7008280828053
:101110004111A147014506C622C4A382F184378448
:101120000040D13F834714003D4593F7E70FA300EC
:10113000F4008347140093F7970F93E72700A30069
:10114000F40097F0FF1FE780C042834714001305A7
:10115000A00F93F7D70FA300F40097F0FF1FE780CD
:10116000E03F85472303F400B240224441018280DE
:1011700003C701C5854763E5E70089472388F1C4B4
:10118000B787004003C757005945058B01CB03C7FC
:101190001700014513671700A380E70082803971AB
:1011A00022DC26DA4AD84ED652D456D25AD05ECE57
:1011B00062CC66CA6AC86EC606DEB787004023875F
:1011C000B70237890040AA8932842385B702935A2F
:1011D00045008144930B6900094C894C054A554DE3
:1011E000138B01C5FD5D2304390323809B01130785
:1011F000003283C60B00898A89E67D1733470708CA
:101200006DFB2304090203C70B00098B3DCF03C705
:101210000B00058B15C723804B019D3D6314A50171
:101220002382418503470B00630E470B03470B00E6
:10123000630C870B1305800C97F0FF1FE7800032CB
:1012400003C70B00098B41CF0347790013770704CD
:1012500051EF0345790039473D89630BE50829477C
:10126000631DE50049C87D576303E4007D143D45D7
:1012700097F0FF1FE780802EBDB72547638CEA02F9
:1012800035476385EA0263834A031305E00FF25092
:101290006254D2544259B259225A925A025BF24BCA
:1012A000624CD24C424DB24D2161828019C9136506
:1012B0000502F1BF0567130797803357A700058B19
:1012C0007DD73D4597F0FF1FE7804029850493F4C3
:1012D000F40F8D47E399F4F0130500024DBF23800E
:1012E000BB01C5B7594565B7554555B7014545B724
:1012F0001305E00269BF1305A00251BF011126CA00
:101300004AC8AE842A891305800C06CE22CC4EC66C
:1013100052C456C25AC097F0FF1FE780202499C0DC
:101320002380040037840040A147096A2306F402A1
:1013300013060A7181451305000D9535631E0516C8
:10134000930700FD2307F4022305F40285472306D3
:10135000F402938AC18383A70A001745000013058E
:1013600025C003C4770003C767002204598CA285F7
:10137000EF20806C63000410630E090E83A70A003F
:10138000174500001305C5BE83C50700EF20C06ADE
:1013900083A70A008387070063C90706138B51845C
:1013A000B7890040130A0A711305800C97F0FF1FDC
:1013B000E780C01A83470B006374F4009377F40F3F
:1013C0002386F902814703C7C9026395E71283C5E3
:1013D000E90252864145E13365E183C7C902B3079B
:1013E000F44033C4070881C883C7C90203C7040097
:1013F000BA972380F4004DF883C504001745000018
:10140000130545B8EF204063B5A0B7890040130A23
:101410000A71938A0184138B51841305800C97F011
:10142000FF1FE780A01383C5A90252861305000998
:10143000BD3359E103C789009377F40F63768700C2
:1014400083C7890093F7F70F1D8C3344040891C4B8
:1014500003C704003E972380E40001479376F70F0B
:101460006396D7063E9983C78900A5EFB7870040EA
:10147000238607021305800C97F0FF1FE780000EFC
:10148000B787004083C7C702414599C313050009C8
:101490000966130606719305000C113311EDB78729
:1014A000004003C7C7021375F70F19C783C787002A
:1014B00013F5F70F91C35D45F2406244D2444249AF
:1014C000B249224A924A024B0561828083A60A00F1
:1014D000BA9603C60600B306E90005072380C600D6
:1014E000B5BF83470B0003C78900FD17F98FBDFF08
:1014F0000DF4ADBF03A70A008346090005093E9716
:1015000085072300D70093F7F70F75BD81479385B3
:10151000C183A1463307F5000346070098413E9773
:101520002300C7008507E397D7FE8280011122CCF4
:1015300006CEA14713858182138451842300F400D1
:10154000F1379305F100138541B94D3B19E9034784
:10155000F10083C7B1B92300F400C54763E3E70096
:101560005D45F2406244056182800111138501826C
:1015700006CE22CC26CA593F9305F100138541B906
:10158000B53B2A8425E10347F1008D475D4463FBA9
:10159000E704938441B903C4340083C7240013854E
:1015A000018222045D8CA30781008D3783A7C1834C
:1015B00023838700A38307009305F10026853D3B25
:1015C0002A840DE10347F1009307000463F4E70068
:1015D000A307F1000346F100938541B91385418CBF
:1015E000EFF02FBDF24022856244D2440561828033
:1015F000411126C2AA841385818106C622C43937C7
:1016000083A7C18323819700A381070081450145FA
:10161000F5312A8401E92685F93C294597F0FF1F19
:10162000E78020F5B2402285224492444101828025
:10163000411122C42A841385018106C6C13D83A7B6
:10164000C183238187002244B240A38107008145E2
:101650000145410165B1411122C42A8417F5FF1FDC
:101660001305C53706C65D3583A7C183238287006E
:101670002244B240A3820700814501454101BDB922
:10168000B7870040130700F82380E70003C707006F
:1016900013174760E35C07FEA3800700A3810700E0
:1016A00013078004A386E70003A7018498CF03A74C
:1016B000C183D8CF2385070223870702130790F839
:1016C0002380E700130700042383E7027D57238369
:1016D000E70005472388E1C40D472381E700238203
:1016E000018482800111174500001305658A06CE2A
:1016F00022CC26CA4AC84EC652C4EF200057093C25
:101700008144014413094006054597F0FF1FE78017
:1017100040E6B93C01E9850493F4F40F6366990E41
:101720000544DDB705041374F40FE31F24FDEFF047
:10173000BF95174500001305A589EF2000535944B4
:101740005DA8B387840083C5070052850504EF2098
:10175000A02E1374F40FE36624FF2945EF20A03177
:1017600083D7840003C9A1814A852392F90083D7D6
:10177000A40003CA44002393F9009D3D2A8405E197
:101780001745000013054582A3802901EF20C02AD8
:10179000E93B2A8417490000130989800DC9A285F5
:1017A0001745000013054581EF20002989470545AD
:1017B0002388F1C4EFF0BF953DA8B387840083C5AB
:1017C00007004A850504EF2020271374F40F83D700
:1017D0002400E364F4FE2945EF20E0291304B00F50
:1017E000631B0A0003C7E400A1476316F700914793
:1017F0002388F1C40144F24022856244D244424924
:10180000B249224A05618280938941B803C5290003
:10181000EFF0FF8F173500001305057EEF20C02184
:1018200031332A842DFD9387818203C9770003C752
:101830006700938441B922093369E900173A00002F
:10184000130A0A7609BF4111094506C622C426C2F9
:1018500097F0FF1FE780E0D183C781C5A381F1CA5C
:10186000EFF00FD5AA873DE503C701C58D46930765
:10187000300863F1E60683C601CA1306100223820C
:10188000C18C7D569387418CA382C18C2381070034
:10189000A38107002382D700A382070023830700C8
:1018A000A38307008145993C238CA1C45947AA878B
:1018B0006302E50203C541C43D89713B03C541C9CB
:1018C0003D8913650508413B83C731CAA38101CA1D
:1018D000238CF1C4B240224492443E85410182806F
:1018E0004111054706C62388E1C4EFF06FCC19E12A
:1018F00013053008B24041018280411122C483A700
:10190000C1C403A781C806C601456384E70283A555
:1019100001C203A781C323A4F1C86308B702054528
:10192000EFF0CFA7238CA1C409E903C581C51375C6
:10193000F50FB2402244410182807D5723ACE1C8BB
:1019400023A4E1C8238201C2CDB7054523ACF1C869
:10195000EFF0CFA4238CA1C469D9C5B7411122C42B
:1019600083A7C1C403A781C906C601456384E702F2
:1019700083A581C303A701C223ACF1C86308B702E2
:101980000545EFF0AFA1238CA1C409E903C581C5CA
:101990001375F50FB2402244410182807D5723AC7C
:1019A000E1C823A4E1C8238201C2CDB7054523A421
:1019B000F1C8EFF0AF9E238CA1C469D9C5B783A746
:1019C000C1C483A501C2411103A781C322C406C6B5
:1019D00023A4F1C86305B7020545EFF04FAC238C93
:1019E000A1C401C97D5723ACE1C823A4E1C8238267
:1019F00001C2B240224403C581C54101828023ACAB
:101A0000F1C8D9BF83A7C1C483A581C3411103A76E
:101A100001C222C406C623ACF1C86305B70205455E
:101A2000EFF0EFA7238CA1C401C97D5723ACE1C817
:101A300023A4E1C8238201C2B240224403C581C568
:101A40004101828023A4F1C8D9BF03C6C1C183A7C5
:101A5000C1C603C711CA83A6C1C8F917B397C70087
:101A60003697BA9723A6F1C482804145828083C706
:101A700001C593F7F70F63E6A7002388B1C40145BA
:101A80008280E38EB7FEA9BD797126D21307500577
:101A900056CA2382E18C13073005A382E18C83A709
:101AA00041C1130720042383E18C1307300422D49F
:101AB0004AD04ECE52CCA383E18C06D67D475AC87D
:101AC0005EC662C42390E7002A8483C531CA03C579
:101AD00041C437060200EFF08FEC238CA1C45947B4
:101AE000630FE514938B418C15CD9387418C9384C0
:101AF000418E98439107D8CFE39D97FEA933DE87A7
:101B00009853910723AEE7FEE39C97FE83C531CA45
:101B100003C541C437060200EFF06FE8238CA1C46F
:101B2000631B051683C49B0003C68B0083C7AB00F1
:101B300003C731CA83C6BB00A204D18CC207C58FBC
:101B40001347070493948601A381E1CADD8C638463
:101B500004108386CB0083D7A1C763D40608138BF8
:101B6000419091A000C383C531CA03C541C937065E
:101B70000200EFF0CFE2238CA1C4631E051403C75B
:101B800031CA83A601C483D7A1C713470708A3811D
:101B9000E1CA83D6060063E1F4189D8C639ED714D6
:101BA0003E94638B041403A7C1C9E3FDF4FA232018
:101BB000670155BF23A088002390F60083D7A1C7F3
:101BC0009D8C3E94EFF0AFDD238CA1C42DE103C7C3
:101BD00031CA13470704A381E1CA6386040E83D781
:101BE000A1C703C841C4BA853706020083A841C310
:101BF00083A641C14285E3FFF4FA23A07801239034
:101C00009600814703460400B38677018507C20723
:101C10002380C600C1830504E39697FE37060200C1
:101C2000BA854285EFF0AFD7238CA1C479C903A749
:101C300041C39307E00223207701630FF506B250FA
:101C4000225492540259F249624AD24A424BB24B50
:101C5000224C4561828003C541C937060200BA851E
:101C6000EFF0EFD3238CA1C479F983C731CA03A75E
:101C700001C493C707F8A381F1CAFD47238CF1C4BF
:101C800003570700B5476314F70203C5019129C143
:101C9000854763FEA7002254B25092540259F2497C
:101CA000624AD24A424BB24B224C456169BE03C5DF
:101CB00081C51375F50F61B703C541C43D89EFF0C8
:101CC0009F9903C731CA83A741C323A0770161B796
:101CD000238C01C4ADB783A6C1C91307E00223A0BA
:101CE0006601E31EE5F403C541C93D891365050896
:101CF000EFF07F9603C731CA83A7C1C923A067014C
:101D000099BF03C731CA83A741C313470704A381FF
:101D1000E1CA23A0770181B763E5D402F1DE93879E
:101D2000F6FFC207C1838507A2975A87834607003B
:101D300005040507A30FD4FEE39A87FE03C731CA43
:101D400065BF93960401C182D9BF4111294506C6DA
:101D500097F0FF1FE780E08103C701C89387418C9C
:101D6000A386E700C94619472384D7002387E700E5
:101D7000930600F80D47A387E700A38407004947AF
:101D800023850700A38507002386D7001385418E8E
:101D9000A389E70023880700A38807002389070099
:101DA000238A0700A38A0700238B0700A38B070061
:101DB000238C0700D139154597E0FF1FE780607B32
:101DC00083C781C5014593F7F70F81CF03C581C54F
:101DD000D9471375F50F6309F500D547630CF50076
:101DE0000145B2404101828005472388E1C423AA0E
:101DF00001C6C5BF09472388E1C4E5B73971A547C6
:101E000022DCA38AF1C8BD472388F1C226DA4AD86A
:101E10004ED652D456D25AD05ECE62CC66CA6AC86A
:101E20006EC606DE938D418C938401C3214B930AC9
:101E300000F8130A5002A949854C4D4D81A063FA60
:101E4000DC0A6308A70BA380E400013703C501C3C4
:101E500003C7140072057D85137585F71305850C7E
:101E6000238CE1C497E0FF1FE780A07003C701C384
:101E70007D171377F70F2388E1C225CF03C701C869
:101E80001385418E23846D01A386ED00A3840D008C
:101E900023850D00A3850D0023865D01A3874D01D9
:101EA00023880D00A3880D0023890D00238A0D00CF
:101EB000A38A0D00238B0D00A38B0D00238C0D0036
:101EC00023873D01A3890D00C13603C781C5137760
:101ED000F70F9306B7FE93F6F60F35F383C76D023F
:101EE00011476382E70421476384E704414763881D
:101EF000E70403C751C98547B397E700C207C18309
:101F0000F25062542392F1C603C514004259D254D0
:101F1000B259225A925A025BF24B624CD24C424D59
:101F2000B24D21618280A38A31C993070040C9BFA5
:101F3000AD47A38AF1C8856793870780D1B7B147BA
:101F4000A38AF1C885676DBF411126C2AA840545E1
:101F500006C622C497E0FF1FE780A061854763F3B0
:101F6000970683C701C5C94693F7F70F6388D70063
:101F7000C14663F8F6002388D1C421A09547238881
:101F8000F1C483C781C593F7F70FAD1793F7F70F28
:101F900005476374F700553B05C1094597E0FF1FEE
:101FA000E780205D03C581C5D9471375F50F630C24
:101FB000F502D5476303F504B2402244924401453B
:101FC0004101828083C781C593F7F70FDDFC094586
:101FD00097E0FF1FE780E05903C581C5D947137516
:101FE000F50FE318F5FCB240224405472388E1C40D
:101FF00023AA01C6924441018280B240224409478B
:102000002388E1C492444101828039716EC606DEA4
:1020100022DC26DA4AD84ED652D456D25AD05ECED8
:1020200062CC66CA6AC8EFE0BFD8AA8D71E983C7DF
:1020300001C50D476376F70E91472388F1C4EFE0A1
:10204000BFB5238CA1C4AA8D45ED938C418C83C66A
:10205000EC002147639DE60C03C6FC00238401C607
:1020600099466315D60085462384D1C603C77C01F3
:1020700083C5BC0003C66C0183C6EC0103C8DC0148
:1020800003D3A1C72207A2062380B1CA518F238898
:1020900001C2B3E6060103C64C0183C5BC0103C8F7
:1020A00041C403CE41C96310670862066186137399
:1020B000F600634606081368030101460543639072
:1020C000E6201397850161879376F700138B01C390
:1020D0006346070809472388E1C2A300BB0013E851
:1020E00006016311061A238201C561A083C681C55A
:1020F0001306E0026300D62203C781C5937DF70F64
:10210000F25062546E85D2544259B259225A925AB0
:10211000025BF24B624CD24C424DB24D2161828047
:10212000930D3008F1BF138901C3A300C900FD4717
:10213000238CF1C403C781C5937DF70FD1B7136E0C
:10214000030905460143E38EE6F6938701C323881E
:10215000C1C2A380B700238AC1C9D1BF93E606F9E3
:1021600009472388E1C2A300BB00238AD1C8E31C2E
:1021700003F603C55C00EFF0AFCB238CA1C4AA8D9E
:1021800041F183C601CA130610FA03A581C3238255
:10219000C18C7956A382C18C854A938511C323884B
:1021A00001C223810C00A3810C002382DC00A382E6
:1021B0000C0023835C01A3830C00EFF02F94238C8D
:1021C000A1C40DF583461B006398560183A681C305
:1021D00083C606002388D1C2154597E0FF1FE7801C
:1021E0004039FD5623ACD1C823A4D1C803A581C36F
:1021F000238201C2A38101CA238001C80146130CB6
:102200004002930B00F8194BC94A130A4002A386F7
:10221000CC0023848C01A3840C0023850C00A385AF
:102220000C0023867C0123876C01A3875C01238833
:102230000C00A3880C0023890C00A3894C01238A7D
:102240000C00A38A0C00238B0C00A38B0C00238CA6
:102250000C00EFF07F8383C681C5054693F6F60F29
:102260008DE683C601C3B9C283C601C8A1E203A536
:1022700081C3954783460500639AF602854723800C
:10228000F1C871B7238AC1C9B9BD83C601C3A9C248
:1022900083C601C88947138616001376F60F63E9D3
:1022A000D7022380C1C803A581C395B783C701C5E1
:1022B0008D4663F1F60495472388F1C491B5938761
:1022C00001C3238861C2A380B700238201C585B5FD
:1022D0006254238001C8F250D2544259B259225A52
:1022E000925A025BF24B624CD24C424DB24D0545C4
:1022F000216199B96254F250D2544259B259225ACA
:10230000925A025BF24B624CD24C424DB24D21616B
:102310006FF00FDD0145EFF00FB47DBD411126C216
:1023200022C406C623A201B4EFE09FA82A8441E19B
:1023300083C701C511476372F7089387418C03C7B0
:1023400001C823840700A386E7001947A384070078
:1023500023850700A3850700238607002387E7005E
:102360001385418EA387070023880700A3880700F1
:1023700023890700A3890700238A0700A38A07008F
:10238000238B0700A38B0700238C0700EFF0CFEF10
:1023900083C781C593F7F70F99CB83C781C523887E
:1023A000F1C2EFF09F9A03C401C3238C81C422853C
:1023B000B2402244924441018280813919C91305F7
:1023C000000497E0FF1FE780C01A813119C12A84F9
:1023D000F9BFEFF0BFA205E59387418C03C6170252
:1023E00083C5070283C6270203C7370222064D8E24
:1023F000C206D18E6207558F23A2E1B489B703C408
:1024000081C51374F40F65B783C701C5397106DE42
:1024100022DC26DA4AD84ED652D456D25AD05ECED4
:1024200062CC66CA6AC86EC611476374F73803A7E0
:1024300041C7FD5723ACF1C823A4F1C8238201C2D0
:10244000B7573412937607FF93870767638AF63688
:10245000938441C5A3800400238C01C6A38001CAD4
:1024600023A001C62D6A130A5AA5138D01C323A602
:1024700001C4930B900E930D0004EFF02FCE631464
:10248000051283C6140003A681C399E6834706009C
:1024900093F7D70F638B77178357E61F63984731FE
:1024A00083CE81C7238AD1C5638FBE2F9387EE1B4E
:1024B000B29783C5A70003C7B70003C8870003C549
:1024C0009700A301ED00238801C3A300AD00230101
:1024D000BD0083A501C383C74700154723A6B1C428
:1024E0002388F1C26387E72A3D476384E72A76871A
:1024F000014F01433545054E1548BD489DA083C792
:1025000001C3FD1793F7F70F930F07019382F6FFAF
:102510006367F500637EDE0E93F6F20F054F13F747
:10252000FF0F9307E71BB2976306B70B03C3A70020
:1025300083C5B70083CF970023016D00A301BD00C1
:10254000A300FD0183C5870083C747000543238897
:10255000B1C283A501C32388F1C2638F0701638DD4
:102560001701939F870193DF8F4193F7F703E3D818
:102570000FF82388F1C271B723A6B1C463040F001A
:10258000A380D400238AE1C483A701C683C611CAED
:10259000BE9523A6B1C4E39206EE4107A380E1CA2B
:1025A00023A0B1C6F9B5EFF00FAAEFF03F85EFF029
:1025B000EFBAE30805ECF2506254D2544259B259D2
:1025C000225A925A025BF24B624CD24C424DB24DAF
:1025D000216182806304030023A6B1C463040F0059
:1025E000A380D40083C711CA13070004238AE1C45F
:1025F000638B071A63990E1A03C71400238CF1C664
:1026000023A001C6BD47E314F7E683A5C1C405A016
:102610006302031E23A6B1C463040F00A380D40089
:10262000238AE1C483A781C9BE9523A6B1C423AA86
:10263000B1C6EFF0AFB241F183A581C31307900E8D
:1026400083C7050093F7D70F6390E71A83C7D500B8
:1026500013978701238CF1C66187634207181947D6
:102660008607238EE1C093F7F70F0145194793962C
:102670008701E1861306F7FF860763C70610137705
:10268000F60F93F7F70F05457DF38547238E01C0BD
:10269000238CF1C603D5650123AEA1C401E5C85161
:1026A00023AEA1C483C7450103C63501A207D18F5C
:1026B00023AEF1C281E79C5123AEF1C203C62501CE
:1026C00083C8150183D641C603C351C922063366A8
:1026D0001601958283D8E500B296FD161306B3FF66
:1026E000B3D6C6403386160103CF05012A9623A42C
:1026F000D1C223A411C523A8C1C28946630DDF0836
:1027000023AE01C483A6C1C4918F33D7E7003696A8
:1027100023A6C1C823A2E1C8C167D11763EBE704B0
:10272000239F01C68567D11763EBE7060547A382A0
:10273000E1C26383080283A781C299CF85476305FD
:10274000FF0083A7C1C589CB03C5B50011E503C749
:10275000C500854763E5E70A83C71400C9EB8547D1
:10276000A380F400238C01C6A38001CA23A001C664
:10277000D5B9DC5503D6050323A4F1C2239FC1C6F6
:102780000D47A382E1C275B7E30605F0238EE1C0D1
:1027900011B77687D5BB2A9623A8C1C2A5B709472A
:1027A000A382E1C279B71305200931B513051009D9
:1027B00019B5EFF09F85E31005E0EFF02FE485B940
:1027C0003D8B938441C5A380E400238C01C6A38084
:1027D00001CA23A001C6BD47E316F7C83DB51D4792
:1027E000238EE1C01D477DB51305100AE9B313051B
:1027F000300AD1B3E3080FE2A380D40025B583C724
:1028000001C5B69823A411C511476376F700C147E7
:102810002388F1C44DB36254F250D2544259B25994
:10282000225A925A025BF24B624CD24C424DB24D4C
:1028300021616FF0EF8A01114AC883A781C826CAB7
:1028400022CC06CE4EC623A6F1C4EFF04F972A84C1
:1028500011E583A7C1C599EB238201C22285F2400D
:102860006244D2444249B2490561828003A7C1C48F
:1028700083A501C2BA97054523A6F1C4EFE02FC294
:1028800003A7C1C4238CA1C403A6C1C583C781C546
:10289000118F23A6E1C493F7F70FDDDF03C481C5D1
:1028A000FD5723ACF1C823A4F1C8238201C21374DD
:1028B000F40F6DB7797152CC03C851C222D426D21D
:1028C0004AD006D64ECE56CA5AC85EC689472A890D
:1028D000014403A781C16300F8128D47630BF81010
:1028E00093571700137417003E9783D641C683C7CA
:1028F00051C983A501C203A681C4FD16F98EB35741
:10290000F70003A781C8AE96B29723AAD1C423AC1F
:10291000F1C06382E70203C741C209C7293F5DEDE9
:1029200083A781C123A6F1C4EFE03FFD45E903C8B9
:1029300051C283A641C5630F090091476308F91688
:102940008547630FF90E83A7C1C623ACF1C00547C5
:102950002382E1C2238E01C689476300F80A0D472E
:1029600083A781C16301E80E03C5060013F8F70FC2
:1029700083D541C61377F5009318480003A601C21A
:1029800033671701938401C391831377F70FFD1504
:10299000A380F4002381A4002388E1C2B307B6001A
:1029A000638AF61083C71600A381F4006310090838
:1029B0006309040E83D72400918305672391F400F3
:1029C0005917636CF70A03C7C1C723A8F1C233695B
:1029D000E900631B090423A6F1C60145B250225445
:1029E00092540259F249624AD24A424BB24B456173
:1029F00082800A07DDBD0607CDBD03D7060023A8E8
:102A0000E1C2C167D91763FDE7008547238EF1C690
:102A1000630C090083A781C101452390F6007DBFA7
:102A2000E31A09FE23A6E1C601454DBF31CC238040
:102A3000E60083A741C503C71400A380E7009DBF3C
:102A400023AC01C029B79842370600101305F6FFE2
:102A5000B70500F0F98DE98FCD8F698F23ACF1C0F8
:102A600023A8E1C25916637CE6060547238EE1C61A
:102A7000E30C09FA9CC2014595B70547238EE1C6D0
:102A800023A8F1C2014599BF2380060183C7340002
:102A900003C7140083A641C5C19B1183D98FA380AE
:102AA000F60083D72400D207D18301BFFD5723ACA2
:102AB000F1C071BD6318090283C741C285EB83A7CA
:102AC00081C8850723A6F1C4EFE03FE3E31805F0D2
:102AD00083A701C283C70700A381F400D1BDE31B14
:102AE00009F889B711E042872380E600A933E3178C
:102AF00005EE83A781C8850723A6F1C4EFE0FFDFB9
:102B0000E31E05EC83A601C203C70600A381E4000F
:102B1000E30009EA83C7140001E4419B9183D98F44
:102B20002380F60005472382E1C259B5797122D48A
:102B300066C262C403A841C803ACC1C66AC026D23B
:102B40004AD04ECE52CC56CA5AC85EC606D6854921
:102B5000938A01C363638813050C014523AC81C1CB
:102B6000913B23A681C759ED83A701C36380071456
:102B700003A841C89367FC0F1367F80FE38CE7FCC9
:102B800083C651C2E38836FD83A701C2094603D735
:102B900041C623AAF1C46385C60893562700FD16D3
:102BA000C206C182370E00102398D1C22391DA00E9
:102BB0003687814E7D1E39A0131703014183AE87EE
:102BC000854E5DCFD0431303F7FF93854700B3785D
:102BD000C601E39308FE23AAB1C463850E0C2398B3
:102BE000E1C2B7050010B3E68601FD153387E64064
:102BF0004D8E0507D0C323A6E1C66360E8080547EC
:102C00002382E1C2B250225492540259F249624ADC
:102C1000D24A424BB24B224C924C024D45618280CB
:102C2000135617007D16420641822398C1C2239194
:102C3000CA003287014339A0139708014183AE8748
:102C4000054321CB83D627009308F7FF9385270000
:102C5000E5F623AAB1C4630903042398E1C2FD5633
:102C60002391D70083D62A00B3E686013387E64056
:102C7000050723A6E1C6E374E8F81305100B59B75E
:102C8000336CDC0023AAB1C4239801C223A681C7F8
:102C9000D1B5336CCC0023AAB1C4239801C223A6BA
:102CA00081C74DBD368735BF328755BF225423AC0F
:102CB00081C1B25092540259F249624AD24A424BFF
:102CC000B24B224C924C024D114545616FF09FBEB4
:102CD000411106C6A13D9307100B6305F500B240F4
:102CE00041018280B24023A601C6410181B55D71D8
:102CF00056DA83C701C586C6A2C4A6C2CAC04EDEC4
:102D000052DC5AD85ED662D466D26AD06ECE3D47C7
:102D1000637CF72C83C701C53D47637DF710C1472E
:102D20002388F1C483C641B4238101CA6386063077
:102D30001307C0056387E6301307F0026383E630AC
:102D4000138741B4034617009307A0036306F62ACE
:102D50003EC483A6C1C283A7C1C832C623A8E1C8A6
:102D6000138401C3638D061C83C5C1C103C681C71B
:102D70001387E6FF3317B700BA97A380C1CA23A809
:102D8000F1C66302062423A6F1C4EFE03FBD5DE572
:102D900083D741C6239301C66384072083A581C3DB
:102DA00023AAB1C483C70500B9CB930D500E2D459E
:102DB000930BC0056381B70315476394E70093073E
:102DC000500E03A801C9834608006388F60813075C
:102DD000A0026384E60883D761C603D741C6938700
:102DE0000702C207C1832393F1C663FBE71A83A5D9
:102DF00081C3BE9523AAB1C483C70500C5FF83A6BE
:102E000001C981471306A0029305C0051305F0020E
:102E100039A0630EC7006303B7226301A72233877B
:102E2000F60003470700850793F7F70F7DF31305B7
:102E3000200429A0EFE0DFAAE30605EEB640264411
:102E400096440649F259625AD25A425BB25B225CFE
:102E5000925C025DF24D616182809D8E93B6160098
:102E600036872301D4003386D500B307E80083C733
:102E70000700034606009308F0021303E002214E08
:102E8000930E0002130F1700638EC702F9C7638603
:102E9000770D6384170D639D670C6304C701631A84
:102EA000D6152301E401A146034724003386D5004B
:102EB00003460600B307E80083C70700130F170097
:102EC000E396C7FC050785061377F70F2301E40097
:102ED00093F6F60FE39AA6FC429783470700A301F7
:102EE000F40083C7B500A18BE39707EE238E01C6DC
:102EF00083A741C5A24583D6A70103C651C20D478A
:102F000023A6D1C26318E60003D747014207D98E32
:102F100023A6D1C203473400630B072403C7C1C7EC
:102F2000631707240347240083A701C90507BA973D
:102F300023A8F1C8B24783A7C1C8E39706E203A755
:102F400081C29376F70F958F1377F70FA380E1CAAD
:102F500023A8F1C6E31907E25DB513070002631E5B
:102F6000E6021D47E36DD7F603C78500E309C7F600
:102F7000A301F4001307A002E39FE7E483C7B500B1
:102F8000A18BE39A07E483A701C66389071463C191
:102F90000712FD1723A0F1C63DBDA301F40025BD16
:102FA00003C711CA83A701C77D1785071377F70FDA
:102FB00023A8F1C6A380E1CAE31707DCA24783A6D2
:102FC000C1C2E38E06E2014523ACD1C0EFF09F8E73
:102FD000E31605E683C7C1C7E39307E283A601C3EF
:102FE000A24723A6D1C2B9B7EFF00FC2E30405D2BE
:102FF000B1B5A3016400C5B393072004E3FAD7D4A5
:10300000138771B423A8E1C8938771B489A0D84FFE
:1030100023A0E1C691E67D57A380E1CA23A001C6A3
:1030200083C701C53D476378F718D1472388F1C4AA
:1030300083C7C1C763990716014509B51305300B4E
:10304000F5BB138751B423A8E1C8938751B483C655
:1030500051C20D476384E60603C707003EC436C667
:1030600023A601C283A7C1C88146E31B07CE83A65E
:1030700081C203C651C9A24513F7F60F998F3317C2
:10308000C700094623A6C1C2238CD1C6B24623A6D7
:10309000F1C823A0E1C6894623A6D1C623AE01C24A
:1030A000A38001CAC9472388F1C41305100479B36A
:1030B000EFD03FD483A701C62D45E1BD83A681C2D1
:1030C00083C707003AC423A6D1C289C73EC683A7D7
:1030D000C1C879B17D5723A0E1C67DBF238801C255
:1030E00083A701C90147130500022148154E155356
:1030F0009308E002AD451DA82300D60083C701C395
:1031000083A601C999EB03C606006318C601238094
:10311000660083C701C383A601C9850793F7F70F2C
:103120002388F1C2B6970507630DB70283A641C590
:103130003E86BA9683C60600E387A6FEE31E07FB1B
:103140002380170183C701C383A641C503A601C914
:10315000850793F7F70F2388F1C283C686003E9652
:1031600061BF238007008547238EF1C651B303C793
:10317000B70023A6D1C623AE01C2A38001CA418BEA
:10318000E30707E883C701C5FD5623A0D1C63D4725
:10319000637EF700CD472388F1C483C7C1C71305F9
:1031A0001004E38D07C81305300449B9EFE04FF36D
:1031B000E31605C8DDB7EFE0AFF2E31105C88DBD3A
:1031C000411106C622C4EFF07F9611CD9307100B74
:1031D0006306F500B24022444101828023A601C665
:1031E000EFF0DF9465F9EFF00FE56DF583A7C1C649
:1031F00003A701C723A6F1C223A6E1C4EFE00FF69F
:1032000071F903D661C683A781C303A7C1C2224453
:10321000B29793560701239DE700B2400546D0CFF1
:10322000239AD70023AAF1C441016FE0AFFD4111F9
:1032300083D7E1C722C423A8A1C206C6014589E7F6
:10324000B24022444101828003A741C7BA9723A616
:10325000F1C4EFE0AFF06DF503A781C383A601C30E
:1032600022448327871EB240B6972324F71E4101CC
:103270006FE04FF983C701C5238101CA4D476364DD
:10328000F7000145828003A701C7411106C623A6A6
:10329000E1C4EFE0AFEC09ED03D761C683A781C3BA
:1032A0000145BA9703C7B70023AAF1C4418B01C7F0
:1032B000B2404101828003A701C6B240D8CF41018C
:1032C0006FE04FF4411122C483C701C506C64547CC
:1032D00093F7F70F6371F7084947638AE70483C7D9
:1032E00001C54D4793F7F70F6361F702238101CAC8
:1032F00083C701C53D476377F702C1472388F1C4FF
:103300000145B2402244410182805147638BE7046A
:1033100083C721CAF1DFB93F6DF583C701C53D47BA
:10332000E36DF7FC2244B24041016FE06FDB03C75D
:1033300051C28D47E305F7FA83C5C1C103A6C1C8D1
:1033400083C781C205473317B700B297238CE1C604
:1033500023A6F1C869B7B24022441305400B4101CE
:10336000828083C741B4CDF751B7011122CC83C706
:1033700001C506CE26CA4AC84EC64947637FF7082C
:1033800083C701C53D476370F708C1472388F1C46F
:1033900003A701C723A6E1C4EFE04FDC25E903D76B
:1033A00061C683A781C3BA9715572380E700EFE072
:1033B0006FE529ED83A7C1C223A8F1C2A1CB9386F3
:1033C000F7FF23A6D1C223A601C619A083A701C374
:1033D000054523ACF1C0EFF0EFCD0DE983A7C1C6E1
:1033E00003C7C1C7850723A6F1C66DD3EFF0AFC4ED
:1033F00011ED03A5C1C66244F240D2444249B2492C
:1034000005616FF0DFE2EFE0AFCD59D1F2406244E9
:10341000D2444249B24905618280EFF05F8D2DD1DF
:10342000F2406244D2444249B249056182807971D6
:1034300022D406D626D24AD04ECE52CC56CA5AC82C
:103440005EC6EFF0DF8AA380A1CA630F0510930761
:103450002004630DF500B250225492540259F249EF
:10346000624AD24A424BB24B4561828083D661C6E2
:1034700083D741C603A7C1C263E0F60863190710EA
:1034800083A781C2A380F1CA130A500E83A701C784
:10349000FD1723A8F1C623A6F1C4EFE02FCC45FD0C
:1034A00003D641C6239301C60DCA83A581C383C732
:1034B0000500638847259307000201A883C606001C
:1034C0004207418363864603BA87B386F5001387B4
:1034D0000702E3E5C7FE2393F1C683C711CAFD17B0
:1034E00093F7F70FA380F1CAD5F31305200BA5B707
:1034F00003A7C1C22393F1C623A6E1C6EFF00FE3F1
:103500009307100B6300F50839F5EFF0CFB221F502
:1035100083A7C1C67D5523A6F1C2EFF05FD105FD9B
:1035200003A701C723A6E1C4EFE04FC3E31505F2EB
:1035300083D661C603A781C38147369723AAE1C416
:10354000A945930800027D4801A823000700638075
:10355000061103A741C585073E9793F6F70FE3E6EB
:10356000F5FE23001701F5B7EFF03FE0E31505EE98
:1035700003A7C1C223A6E1C6EFF04FDB9307100BF0
:10358000E314F5F823A601C6EFF04FDAB5BF014505
:1035900023ACE1C0EFF00FB2E31F05EA83C7C1C758
:1035A00003A7C1C2B1DB23A6E1C6EFF02FD8930772
:1035B000100B6309F508E31005EA83A7C1C20945AA
:1035C00023ACF1C0EFF00FAFE31705E8EFF0AFA6C3
:1035D000E31305E883D641C689CE03A681C381479C
:1035E0003307F6009107C20723200700C183E39940
:1035F000D7FE83A7C1C603C6C1C183A6C1C8F91738
:1036000003C781C7B397C700B697A38001CA23A693
:10361000F1C4239301C623A8F1C62388E1C219EFA0
:10362000E5A083C701C303A7C1C4FD17050793F72E
:10363000F70F23A6E1C42388F1C2F9C7EFE08FBCDE
:103640006DD111BD23A601C6EFF04FCEADB703A6D5
:1036500041C58D6793871702231CF60085475CCE12
:1036600083A701C99308E0022D4303C70700B305F0
:10367000A60005051375F50F09CF9386170063099A
:1036800017052380E50023A8D1C863046500B68729
:10369000E9BF83A7C1C213D70701231DF600231A70
:1036A000E600EFE02FB6E31805DA83A6C1C203C730
:1036B00001C523A6D1C623A001C623AE01C2A380A3
:1036C00001CABD4663F3E60251472388E1C461B3F2
:1036D00023A8D1C803C717009386270023A8D1C801
:1036E0002304E6002545B68749B72254B2509254C8
:1036F0000259F249624AD24A424BB24B45616FE0ED
:103700002F9E03A7C1C2CDBB7D55EFF05FB2E3147E
:1037100005D403A7C1C2CDB303A7C1C2D545933712
:10372000170023A6E1C6B307F04023AE01C25145FE
:10373000A380F1CA6FE0AFB339715AD083C701C516
:1037400006DE22DC26DA4AD84ED652D456D25ECED7
:1037500062CC66CA6AC86EC65547630BF70083C75A
:1037600001C55147631FF726EFF01FFB6316051ACB
:1037700003D741B4938441B42394E40009E783C799
:1037800021CA63980726239201B4054C63010718E8
:1037900003C711CA9307F00F6312F70683A7C1C2CC
:1037A0006385072283C701C549476317F70003C72D
:1037B00051C28D47631FF72683A7C1C623AEF1C24E
:1037C000EFF00FD1631A051403A7C1C3094523AC59
:1037D000E1C0EFF02F8E6311051403A701C283A788
:1037E00081C36303F7207D55EFF07FA463160512B4
:1037F00083A701C6A38001CA23AEF1C2EFE0EFA404
:1038000083D541C683A6C1C303C711CA83C781C775
:1038100003C851C91385F5FF3376D500998F420649
:1038200003D784004182B3970701918F63F3E700C8
:103830003E87AE8D6361B710630E0610B38DC54031
:10384000C20D93DD0D01636CB719EFE02F9169E5AF
:1038500083D541C683A6C1C31385F5FF03A781C3E2
:1038600003D641B4DC40758D93950D012A97B2972C
:10387000C18163840D021386F5FF4206418205066D
:103880003E96850783C6F7FF0507A30FD7FEE39A89
:10389000C7FE83A6C1C303D641B483D78400B69DB7
:1038A0002E968D8F23AEB1C32394F4002392C1B41E
:1038B000EFE04F9535E103A7C1C383A601C663F6C8
:1038C000E60023A0E1C6238181CB83D741C6FD1743
:1038D000F98F95EB83C711CA03C781C7850793F793
:1038E000F70FA380F1CA63E0E70203A7C1C6014551
:1038F00023ACE1C0EFE01FFC05E183C7C1C7F9CBF2
:10390000FD57A380F1CA03D78400E31307E883C7F8
:1039100041C20145639F070EF2506254D25442598E
:10392000B259225A925A025BF24B624CD24C424D2F
:10393000B24D21618280B38DC540C20D93DD0D0172
:103940006373B701BA8DE31206F083A701C6E3F7EC
:10395000F6F0E5BD83D741B4CC40BE9593F7350072
:10396000EDF7335A0701937DFA0F6E85EFD02FB331
:1039700045F583C751C903D7840083C611CAB3175D
:10398000FA001396070183A8C1C303D841B441824A
:10399000118FEE96420703A501C693F6F60FC69760
:1039A00041834296A380D1CA23AEF1C22394E4009E
:1039B0002392C1B46376F50023A0F1C6238181CBA5
:1039C00083C781C7E3E4F6DC0DB7EFF06FFFE30CCC
:1039D00005E099B703D78400A38001CA45BBBA8D1F
:1039E000ADB51305400B0DBFEFE0FFE4E30D05DEC1
:1039F00025B76254F250D2544259B259225A925ABF
:103A0000025BF24B624CD24C424DB24D21616FF0E1
:103A10007F866254F250D2544259B259225A925A75
:103A2000025BF24B624CD24C424DB24D21616FE0D1
:103A30009FE01305100BCDB55D7122D406D62A8404
:103A40002EDA32DC36DEBAC0BEC2C2C4C6C617D554
:103A5000FF1F032565F811C51C4D81E72AC6BD2D42
:103A600032450C455418228636CEEF00B036B2509F
:103A7000225461618280AA8517D5FF1F0325C5F5F1
:103A800011CD1C4D81EF011106CE2EC62AC4B925D9
:103A90002245B245F2401045056119A01045F5BF19
:103AA000411122C426C24AC006C62A89AE84328485
:103AB00001C51C4D91E31D25971700009387C7583A
:103AC0006316F406032449007C50858B89EB8357E9
:103AD000C40093F7072081E7284CEF0000791C44CD
:103AE000FD171CC463DA0700184C63C3E70693F79D
:103AF000F40F2947638EE7041C401387170018C092
:103B00002380970093F4F40F7C50858B89EB8357C7
:103B1000C40093F7072081E7284CEF002075B240DE
:103B20002244024926859244410182809717000071
:103B30009387874F6315F4000324890071B79717A3
:103B400000009387674CE311F4F80324C900ADBF6C
:103B5000A68522864A85152AAA847DB7011126CA20
:103B600006CE22CC4AC84EC652C4AA8419E11C45CE
:103B700002901C4D2E89A5E795239C4C8044B5C32B
:103B8000971700009387474C6310F406C0407C50A1
:103B9000858B81EB8357C40093F7072099E3284C6A
:103BA000E9258357C400A18B99C31C48C5E7A285AA
:103BB0002685612A45C1FD547C50858B81EB835756
:103BC000C40093F7072099E3284C4D25F240624446
:103BD0004249B249224A2685D24405618280004585
:103BE00045B72685E52969BF971700009387C74326
:103BF0006314F400804461BF971700009387C740A7
:103C0000E317F4F8C04461B71CC4050963C907028F
:103C10001C401387170018C02380B7001C4483453D
:103C20000900FD17F5F11CC463D907022286A945D6
:103C30002685A128FD57E300F5F8A944B5BF184C27
:103C400063C4E700E39645FD228626853D28E317F9
:103C500035FD95B7FD59294AD1B71C401387170088
:103C600018C029472380E700C9BFAA8517D5FF1FC1
:103C7000032585D66FF09FEEAA8703C70500850749
:103C80008505A38FE7FE75FB8280011122CC26CA31
:103C90004AC806CE4EC6AA842E89328401C51C4D60
:103CA00091E32D29971700009387073A6318F402D0
:103CB000C0401C4C1CC48357C400A18B99C31C4832
:103CC00095EFA2852685512015C97D59F2406244A1
:103CD000D244B2494A854249056182809717000063
:103CE000938787346314F4008044E1B7971700008A
:103CF00093878731E31FF4FAC04465BF1C4808402E
:103D00009379F90F1379F90F1D8D5C486346F5001F
:103D1000A2852685B52455F91C440505FD171CC44C
:103D20001C401387170018C0238037015C48638943
:103D3000A7008357C400858BD1DBA947E318F9F8A6
:103D4000A2852685352C59D149B7411122C426C2F6
:103D50004AC006C697D4FF1F83A404C82A892E84AC
:103D600089C49C4C99E32685952E9717000093876C
:103D7000A72D6314F402C0408317C40013F7870013
:103D80002DEB13F7070115EB25472320E90093E7F7
:103D900007042316F4007D5559A897170000938750
:103DA000A7286314F4008044C1BF971700009387CD
:103DB000A725E313F4FCC044C1B7918B8DC74C58C1
:103DC00089C9930744046384F5004A854D23232A57
:103DD00004028357C4002322040093F7B7FD23167F
:103DE000F4001C481CC08357C40093E787002316C7
:103DF000F4001C4881EF8357C4001307002093F799
:103E000007286385E700A2854A85C1218317C4007E
:103E100013F717001DC35848232404003307E0405C
:103E200018CC1848014501E713F707082DF3B240F5
:103E30002244924402494101828013F727008146BF
:103E400011E3544814C4F1BF8397C500011122CC7B
:103E500026CA06CE4AC84EC613F78700AA842E8407
:103E600069E7D8416345E000B8416358E008585419
:103E700049C703A9040023A004000C5093D7C748E6
:103E8000B9CB70488357C400918B99C75C401D8E95
:103E90005C5899C33C401D8E5C540C50814626856D
:103EA0008297FD57630DF5041C4805672322040023
:103EB0001CC08357C400F98F91C368C84C5823A015
:103EC000240185CD930744046384F50026854521AC
:103ED000232A04021DA00146854626850297FD5728
:103EE0002A86E311F5FA9C40D1DF75476385E70028
:103EF00059476395E70623A024010145BDA09840DA
:103F00008317C40001CFF5466305D700D94663196E
:103F1000D7041C48232204001CC04DB71848232294
:103F2000040093D7C74818C041BF83A90501E386A1
:103F300009FC03A905008D8B23A035013309394104
:103F4000014791E3D84918C4E35920FB1C540C5095
:103F5000CA864E86268582976340A0028317C400D6
:103F600093E707042316F4007D55F2406244D244DF
:103F70004249B24905618280AA993309A940E9B74B
:103F80009C49411106C622C426C281EB8144B2403D
:103F900022442685924441018280AA842E8401C550
:103FA0001C4D91E3252A971700009387E709631EAC
:103FB000F402C0408317C400F1DB7850058B11E791
:103FC00093F7072099E3284C4D242685A285EFF02E
:103FD000BFE77C50AA84858BDDFB8357C40093F731
:103FE0000720D5F7284C59245DB797170000938711
:103FF000A7036314F400804475BF971700009387EC
:10400000A700E319F4FAC04475B7411122C406C6EB
:104010002A842316B5002317C50023200500232278
:104020000500232405002322050623280500232A52
:104030000500232C0500214681451305C505EFC069
:10404000BF98971700009387C7885CD09717000028
:104050009387078B1CD4971700009387278F5CD416
:10406000971700009387C791B24000D01CD8224414
:1040700041018280970500009385C5F049A2411156
:1040800026C2930780069384F5FFB384F4024AC0E6
:104090002E8922C406C693854407D9262A8401CDD9
:1040A0002320050023222501310508C41386840638
:1040B0008145EFC07F91B24022852244924402495B
:1040C000410182801385C1844DA21385C18479AAE0
:1040D0001385018559AA1385018549AA411122C476
:1040E00006C62A84EFF0DFFE1C4C91C72244B24082
:1040F00041016FF05FFE970700009387E7F71CD43C
:1041000023240404232604042328040483A701830E
:104110006394870085471CCC2285152848C02285DA
:104120003D2008C42285252048C4484001469145C9
:10413000EFF0BFED08440546A545EFF01FED4844FC
:104140000946C945EFF07FEC85471CCC45B74111C6
:1041500026C24AC006C622C42A89EFF0BFF683A44D
:1041600001839C4C81E72685EFF05FF793848404FC
:104170008044DC40FD1763D607009C40A5C78440FF
:10418000C5BF0317C40021EFC17785075CC41305C1
:10419000840523220406C928EFF03FF3214623209B
:1041A0000400232404002322040023280400232ADB
:1041B0000400232C040081451305C405EFC0DF80F3
:1041C000232A0402232C04022324040423260404A7
:1041D000B240228522449244024941018280130464
:1041E000840649BF91454A85EFF07FE988C02A845B
:1041F00059F5EFF09FEDB1472320F900D1BF797158
:1042000022D44AD04ECE52CC5AC85EC606D626D24A
:1042100056CA2A892E8A130485048149054BFD5B01
:104220000444832A4400FD1A63D00A0200406DF85A
:10423000B250225492540259624AD24A424BB24B73
:104240004E85F2494561828083D7C400637BFB00C1
:104250008397E40063877701A6854A85029AB3E9CC
:10426000A90093848406C1B78280828082805971BC
:10427000A2D42E848395E500A6D2CAD086D6B28475
:10428000368963D305028357C40093F7070895EB7B
:1042900013070040B65026542320F90098C0065951
:1042A00096540145656182803000EF00A072E34CB6
:1042B00005FC3247BD67F98F7977BA9793B7170036
:1042C000C1BF814713070004F1B783D7C5007971D7
:1042D00022D406D626D24AD04ECE898B2E8491CFB8
:1042E000930774041CC01CC885475CC8B250225494
:1042F00092540259F2494561828074003000AA84C8
:10430000EFF0FFF6A2492A892685CE85912A01ED94
:104310008317C40013F7072071FBF19B93E7270075
:104320002316F40075BF970700009387E7D49CD449
:104330008357C40008C008C893E707082316F40091
:10434000B247232A340189CF8315E40026857D25D1
:1043500001C98357C400F19B93E717002316F400AB
:104360008357C40033E527012316A40041B7D1CDFC
:1043700083A7C5FF011122CC06CE1384C5FF63D3EA
:1043800007003E942AC6C525138781851C43324504
:1043900081EB2322040000C36244F2400561C1ADF9
:1043A000637DF4001040B306C4006396D7009443C5
:1043B000DC43B29614C05CC0F9BF3E87DC4399C3AE
:1043C000E37DF4FE14433306D700631F86001040DC
:1043D000B29614C33306D700E390C7FC9043DC4386
:1043E000B29614C35CC34DBF6375C400B1471CC112
:1043F00065B71040B306C4006396D7009443DC430E
:10440000B29614C05CC040C341BF828041114AC013
:10441000138941858327090022C426C206C6AA84BF
:104420002E8489E7814541212320A900A285268584
:104430009D297D59631A25017D54B240228522446D
:104440009244024941018280130435007198E306C9
:1044500085FEB305A4402685B921E31025FFE9BFF9
:10446000011126CA93843500F1984AC8A104B147C6
:1044700006CE22CC4EC62A89B3F4F40A63C40400E3
:1044800063FDB400B1472320F9000145F2406244C6
:10449000D2444249B24905618280F12393898185E2
:1044A00083A709003E8421E8A6854A85EFF01FF620
:1044B000FD572A846317F50A03A40900A287C9EBF4
:1044C0008329040081454A85A299F12E6395A908A4
:1044D0001C408D044A859D8CF198B147A104B3F42A
:1044E000F40AA685EFF09FF2FD576306F5061C401F
:1044F000A6971CC015A01440858E63C806042D47DE
:10450000637DD70204C0330794006396870223A01B
:10451000E9005C4014C35CC34A85912B1305B400C9
:104520009307440061993307F540E301F5F63A94A7
:10453000898F1CC0A1BFD8C3E9BF584063958700CD
:1045400023A0E900D1BFD8C3C1BFA2874040A1BF0B
:104550003E84DC43ADB7B1472320F9004A85012BE7
:104560002DB704C155BF1C46FD171CC663DA0700F2
:10457000184E63C5E700A9476394F5006FF0EFF0AC
:104580001C422E851387170018C22380B700828033
:10459000011122CC26CA4AC84EC652C406CE2A8968
:1045A000AE893284B304D6007D5A63149400014569
:1045B00011A8834504004E864A85EFF0DFFA050412
:1045C000E31545FFF2406244D2444249B249224ACF
:1045D00005618280357122CD26CB4AC94EC706CFF0
:1045E00052C556C35AC1DEDEE2DCAA892E84328966
:1045F000B68409C51C4D99E3EFF05FAE9717000034
:10460000938787A4631AF40403A449007C50858B24
:1046100089EB8357C40093F7072081E7284CEFF01C
:10462000DFC48357C400A18B99C31C48ADE3A285A6
:104630004E85EFF08FF121CD7C50858BA1C37D5548
:10464000FA406A44DA444A49BA492A4A9A4A0A4B21
:10465000F65B665C0D618280971700009387C79CAC
:104660006315F40003A4890055B7971700009387DA
:10467000A799E31DF4F803A4C90049BF8357C400F8
:1046800093F70720CDFF284CEFF05FBE4DBF930797
:104690000002A304F1029307000302D22305F102F2
:1046A00026C6930B5002971A0000938AEA9B294B67
:1046B000CA8483C7040099C3639C7709338C24415F
:1046C000638E2401E2864A86A2854E85EFF05FEC78
:1046D000FD57630DF5189257E2973ED283C7040049
:1046E00063860718FD571389140002C802CE3ECA1C
:1046F00002CCA309010482D48345090015465685DE
:10470000B126C2479304190031E513F7070109C721
:1047100013070002A309E10413F7870009C7130771
:10472000B002A309E104834609001307A002638ACB
:10473000E602F247CA848146254603C704009385F2
:104740001400130707FD6374E60685C63ECE15A068
:10475000850485B733055541B397A72826893EC8F8
:1047600061BF324793064700184336C6634A0702C3
:104770003ACE03C704009307E002631EF70403C7A1
:1047800014009307A002631AF702B2478904138743
:1047900047009C433AC67D57B3E7E70A3ECA25A8BF
:1047A0003307E04093E727003ACE3EC8D9B7B38736
:1047B0006703AE848546BA9749B7850402CA814625
:1047C0008147254603C7040093851400130707FD9E
:1047D0006374E606E1F683C504000D461715000074
:1047E00013050589A52411CD9717000093874788E5
:1047F0001D8DC247130700043317A700D98F850406
:104800003EC883C5040019461715000013058586A8
:10481000138914002304B102152C25CD9307000041
:1048200095E74247B2471377071009CF91073EC675
:104830009257D2973ED2ADBDB3876703AE8485460B
:10484000BA9749B79D07E19BA107D5B778009706AE
:104850000000938626D422860C084E85970000001F
:10486000E7000000FD572A8AE314F5FC7C50858B95
:1048700089EB8357C40093F7072081E7284CEFF0BA
:10488000FF9E8357C40093F70704E39A07DA125593
:1048900045BB7800970600009386C6CF22860C0899
:1048A0004E85F92CC1B7411122C42A842E8523AE2E
:1048B000018406C6EFC0AFF4FD576316F50083A769
:1048C000C18591C31CC0B240224441018280411184
:1048D00022C42E848395E50006C63523634905006E
:1048E0007C48AA977CC8B240224441018280835709
:1048F000C4009397C7482316F400F5B783D7C500C3
:10490000011122CC26CA4AC84EC606CE93F707101C
:10491000AA842E843289B68991C78395E500894699
:10492000014601228357C4008315E400F2409397A7
:10493000C7482316F4006244CE864A86B2494249EB
:104940002685D244056135A8411122C42E84839561
:10495000E50006C6F9207D578357C400631AE500B9
:104960009397C7482316F400B24022444101828045
:104970009397C72868C82316F400FDB78395E50010
:104980003DA0411122C42A842E85B285368623AEED
:10499000018406C6EFC02FE4FD576316F50083A718
:1049A000C18591C31CC0B2402244410182804111A3
:1049B00022C42A842E8523AE018406C69529FD577C
:1049C0006316F50083A7C18591C31CC0B240224481
:1049D00041018280411122C42A842E85B28523AEF2
:1049E000018406C6A129FD576316F50083A7C1857A
:1049F00091C31CC0B240224441018280411122C4B3
:104A00002A842E8523AE018406C63D29FD576316F0
:104A1000F50083A7C18591C31CC0B2402244410167
:104A20008280411122C42A842E85B285368623AE27
:104A3000018406C60521FD576316F50083A7C185CD
:104A400091C31CC0B24022444101828093F5F50F0E
:104A50002A966314C5000145828083470500E38DD3
:104A6000B7FE0505FDB7138581846FF01F801385A0
:104A700081846FF0AFFF797156CA9C49BA8A984514
:104A800022D44AD04ECE52CC06D626D25AC85EC6C2
:104A9000B3E7E70A1CC203C73504AA892E8432890A
:104AA000368A19C385071CC21C4093F7070291C7B9
:104AB0008327090089072320F9000440998891E899
:104AC000130B9401FD5B5C4403270900998F63CCB1
:104AD000F40483473404B336F0001C4093F7070214
:104AE000A5EB13063404D2854E85829AFD576303E5
:104AF000F5041C4011478144998B6399E700832793
:104B0000090044449D8C8147B3E4F40A1C441848CE
:104B10006354F700998FBE94014969047D5B6398E3
:104B20002405014509A885465A86D2854E85829A74
:104B3000631E75017D55B250225492540259F249B8
:104B4000624AD24A424BB24B456182808504A5BF7E
:104B50003307D40013060003A301C704034754041A
:104B600093871600A2978906A381E7049DBF854617
:104B70002286D2854E85829AE30E65FB050945B7EC
:104B8000797122D44AD04ECE52CC06D626D256CAFD
:104B90005AC803C88501930780072A892E84B289E1
:104BA000368A63E20703930720069386350463E1A0
:104BB00007036301081E930780051706000013060C
:104BC000E64B630BF814930424042301040515A891
:104BD0009307D8F993F7F70F5546E366F6FE1706E5
:104BE00000001306264CB3C7C7209C43B2978287A8
:104BF0001C4393842504938647009C4314C323815C
:104C0000F50485475DAA90411C43137506089385FA
:104C1000470039C19C430CC3584063D30714930524
:104C2000D002A301B40418C463500704B307F040D2
:104C300017060000130686442948B68433F7070395
:104C4000FD143297034707002380E4003E87B3D763
:104C50000703E37507FF8DA09C43137506040CC37F
:104C600045DD939757604DBF6D9A10C0C1B7904115
:104C70001C43137506089385470001C50CC39C436C
:104C800039A0137606040CC37DDA83D70700130717
:104C9000F006170600001306663E6311E80C214873
:104CA000A3010404584018C4E34907F80C40ED99E7
:104CB0000CC0C1F7B68451F3A147631EF8001C4035
:104CC000858B91CB58401C4863C7E70093070003CE
:104CD000A38FF4FEFD14858E14C85287CE86700013
:104CE000A2854A85EFF03FD9FD5A631C550D7D55CD
:104CF000B250225492540259F249624AD24A424B6B
:104D0000456182809C4193E707029CC1130880079C
:104D1000170600001306C637A30204050C401C4307
:104D200013F80508138547006305080008C39C4372
:104D300001A813F8050408C3E30B08FE83D7070096
:104D400013F7150001C793E505020CC099C341484C
:104D500081BF18401377F7FD18C0D5BF294889B720
:104D6000170600001306863129482DBF90411C43C9
:104D7000CC4913780608138547006306080008C36A
:104D80009C438CC301A808C3137606049C4375DAC0
:104D90002390B70023280400B68481B71C43D04178
:104DA00081459386470014C384432685EFF01FCACC
:104DB00001C5B30795405CC05C401CC8A301040456
:104DC00029BF14482686CE854A85029AE30155F309
:104DD0001C40898B85E74844B2473365F50A09BF13
:104DE00085465686CE854A85029AE30265F185049A
:104DF0005C443247998FE3C5F4FEF1BF8144930AC6
:104E000094017D5BF5B7411122C42A842E85B285B9
:104E1000368623AE018406C6A120FD576316F50031
:104E200083A7C18591C31CC0B24022444101828046
:104E30009307800523AEF1847D558280930780051A
:104E400023AEF1847D5582809307800523AEF184E3
:104E5000014582809307800523AEF1847D558280D1
:104E60009307800523AEF1847D5582804572726F71
:104E7000723A20253032580A0000000053746172E3
:104E80007420404368697049443D25303258200AF7
:104E90000000000057616974204469736B526561BA
:104EA00064790000253032780A00000043726561A1
:104EB000746500002F4E455746494C452E545854B2
:104EC0000000000042797465577269746500000043
:104ED0004E6F74653A200D0AD5E2B8F6B3CCD0F225
:104EE000CAC7D2D4D7D6BDDACEAAB5A5CEBBBDF837
:104EF000D0D055C5CCCEC4BCFEB6C1D0B42C35374D
:104F000033BCF2B5A5D1DDCABEB9A6C4DCA1A30DE0
:104F10000A000000B3C9B9A6D0B4C8EB20253032CE
:104F200058B4CE0A00000000436C6F7365000000A7
:104F3000A0BFFFFFB8BFFFFFDCBFFFFFE6BFFFFF63
:104F4000FCBFFFFF5553422064657620696E000068
:104F500055534220646576206F757400774C656EFA
:104F60006774683A2025780A000000006252657173
:104F700075657374547970653A2025780A000000CD
:104F800053656E643A2025640A000000526573651B
:104F90007420686F737420706F72740078253032DB
:104FA0005820000047657443666744657363723A2E
:104FB00020000000496E6974526F6F74446576205A
:104FC000457272203D20253032580A0044697361D1
:104FD000626C6520686F737420706F7274206265F4
:104FE0006361757365206F6620646973636F6E6EAD
:104FF0006563740047657444657644657363723A0B
:105000002000000000000000000000000000000080
:105010000000000000000000000000000000000090
:105020000000000000000000000000000000000080
:105030000000000000000000000000000000000070
:105040000000000000000000000000000000000060
:105050000000000000000000000000000000000050
:1050600000000000232D302B20000000686C4C0055
:105070006566674546470000303132333435363790
:105080003839414243444546000000003031323354
:105090003435363738396162636465660000000074
:1050A00050FBFFFF66FBFFFF26FBFFFF26FBFFFF1A
:1050B00026FBFFFF26FBFFFF66FBFFFF26FBFFFF34
:1050C00026FBFFFF26FBFFFF26FBFFFFCCFCFFFFBD
:1050D000CEFBFFFF64FCFFFF26FBFFFF26FBFFFF6D
:1050E000FCFCFFFF26FBFFFFCEFBFFFF26FBFFFFC5
:0850F00026FBFFFF6CFCFFFF33
:1050F800000000004450000024500000045000004C
:105108000000000000000000000000000000000097
:105118000000000000000000000000000000000087
:105128000000000000000000000000000000000077
:105138000000000000000000000000000000000067
:105148000000000000000000000000000000000057
:1051580000000000740E00206C090020020100000D
:105168000000000000090000000000000005020027
:105178000000000080060002000004008006000114
:08518800000012006C09002078
:00000001FF
