:040000006F00D017A6
:100004000000000000000000A0000020E404002024
:10001400A9BDF9F3A00000200000000000000000CA
:10002400A0000020A000002000000000000000004C
:10003400A000002000000000A0000020000000003C
:10004400A0000020A0000020A0000020A0000020AC
:10005400A0000020A00000200402002000000000F6
:10006400A0000020A0000020A0000020A00000208C
:10007400A0000020A0000020A0000020A00000207C
:10008400A0000020A0000020A0000020A00000206C
:10009400A0000020A0000020A0000020A00000205C
:1000A40001A0B7170040984B41111367070198CB83
:1000B40003C707011377E70F2388E70013078008B6
:1000C40073370780137787083AC60F1000001307A9
:1000D40070052380E704130780FA2380E7040F10D8
:1000E4000000B847B70600069506558FB8C703C782
:1000F400B7041377F70DA385E70403C7A7001367B5
:1001040027012385E700130750142394E7003727BA
:1001140000408346578093F6F60EA302D7808946A3
:10012400A303D78003C7E7041377C70F1367170028
:100134002387E70403C7F70213672700A387E702AF
:1001440003C70701136717002388E7002380070408
:10015400B247F3A707800F10000041018280EFF03F
:100164005FF413058020970500009385E5091716B1
:1001740000001306A68063FAC5008322050023A0AD
:10018400550011059105E3EAC5FE172500E01305A6
:10019400E56B970500009385657E1386C18063FA3D
:1001A400C5008322050023A0550011059105E3EA4B
:1001B400C5FE1385C1809385C19C6377B500232058
:1001C40005001105E36DB5FE93025002739002BC65
:1001D4008D42739042808542739012BC93028008D2
:1001E40073900230970200009382C2E193E23200DE
:1001F40073905230971200E09382C2847390123449
:040204007300203033
:10020800971000E0E780A094730020309387018264
:10021800984309C79C43829723A00182730020302A
:10022800B7F70700DC53411123AEF180B717004040
:10023800984B1367070198CB03C707011377E70F9C
:100248002388E70013078008733707801377870828
:100258003AC60F100000130770052380E704130740
:1002680080FA2380E7040F1000001307000C6319BD
:10027800E50203D787001367070C2394E700B71735
:10028800004003C70701136717002388E70023808E
:100298000704B247F3A707800F10000041018280CE
:1002A80003C7A70093760520C9C2118B39E703C796
:1002B800E70403C6E7041377F70F136636002387AE
:1002C800C70403C6A700136646002385C70003D6E4
:1002D800870083D587003346060893E5050C2394E9
:1002E800B700A5470100FD1793F7F70FE5FFB7170C
:1002F80000402394C7002387E70493770510DDCBDC
:10030800371700408347A70093E707012305F70045
:100318009377F50185E3B727004003C75780136734
:100328000701A382E7801D4715A0136727002385CF
:10033800E700E1B72547636BF704B727004003C719
:1003480057801377F70EA382E7800547A383E780DA
:1003580033450508B71700401367050C2394E700D9
:100368002394A700C9C203C7570483C65704418B07
:10037800858A558F09F703C72701418B09D303C71E
:10038800A7001377D70F2385E700D5BD937705011D
:1003980099EBB727004003C757801377F70EA3825E
:1003A800E780094765B7B727004003C75780137729
:1003B800F70E85BF9377850181EFB727004003C704
:1003C80057801377F70EA382E78013071005BDBF88
:1003D800B727004003C757801377F70EA382E7803B
:1003E80013077005A5B703C7A7001377B70F61BF39
:1003F80037E700E01C4354437D56A183E206D58FBE
:100408009306071890C2D0C217060000130646E0EC
:10041800970600009386C6BE8C5E90DE23A0A1825C
:1004280011661305071010C11307072013880182EE
:1004380010C30327080075FF37E700E01166232083
:10044800C7180F1000008CDE939687002320D71062
:10045800E1832322F71082800111814601468145FC
:10046800114506CEDD2A93078008F3B7078093F776
:1004780087083EC60F100000B71700401307700525
:100488002380E704130780FA2380E7040F10000095
:1004980003C76704136717002383E704238007044F
:1004A800B247F3A707800F100000F2400561828071
:1004B80037E700E01C435443A183E206D58F1CC1F3
:1004C800FD572320F7182322F71882801317850079
:1004D800B7E700E023A0E710618123A2A71082807C
:1004E80041118146014681451145852A1307800837
:1004F800F337078093F787083EC40F100000B7173B
:100508000040130670052380C704930680FA2380F1
:10051800D7040F100000FD552396B7022380070467
:10052800A245F3A505800F100000733707801377E5
:1005380087083AC60F1000002380C7042380D70419
:100548000F10000003C76704136717002383E7042D
:1005580023800704B247F3A707800F10000001A00B
:100568009307E0043305F50295473355F50201007A
:100578007D1575FD8280411122C406C62A841305A3
:10058800803E7D14F13F3344040875F8B24022449C
:10059800410182802E96AA870F70B6788280230345
:1005A800048015472303E48001002302A48082808D
:1005B80083076480E3CE07FE2303048082808307D9
:1005C8006480E3CE07FE034544808280830764800D
:1005D800E3CE07FE2302A4808280411126C44AC2CA
:1005E8004EC006C61377F50BAD47AA892E899544E8
:1005F8006306F70019456537653F8D444E854537D5
:10060800FD59FD1463983401B240A244124982494D
:1006180041018280135509011375F50F453F2209E1
:10062800CDB7011126CC06CEB704080051371545C1
:10063800BD37713769372AC6A53F3245937715000C
:1006480089EB136515001375F50FF240E244056157
:100658008280FD14E9FC0145CDBF3971B7F7070069
:1006680006DE26DC4ADA4ED852D656D45AD25ED0A6
:1006780062CE03AB47027D57B7E700E083AA0700C5
:1006880022C603AA470023A0E71823A2E718B71B2E
:100698000040930770052380FB04930780FA2380AA
:1006A800FB0483C74B041147AA8993E7070E2382EB
:1006B800FB04372400401305F00F2303E4802E8C3D
:1006C8003289B684E93DED35938779FF93F7F70FC3
:1006D8000947137BFB006362F712A147370708003D
:1006E8006307FB00B70707003E9C3787070079556B
:1006F800637EEC02B3878401636AF702A9476398B3
:10070800F90689E481446D3526850DA0E285094501
:10071800E93505090345F9FFFD14050C453D81C47C
:100728009377FC0FFDF7F53D69FD7D55B717004040
:10073800130770052380E704130780FA2380E70472
:1007480003C74704418B2382E704F250B7E700E070
:1007580023A0571123A24711E25432445259C259D7
:10076800325AA25A125B825B724C21618280A54781
:10077800639AF906A1478569631DFB029387F9FF10
:10078800B3869700B374FC00B69493C7F7FFFD8C4B
:1007980033FC8701416B856B9387F9FFB3F78701BA
:1007A80099E363FF340193D94900C147E3E637FF72
:1007B80091BF9307F00FE9B78567C169FD17C9B7FE
:1007C8001305800D638869011305000263847901AC
:1007D80013051008E2851135A93521D94E9CB3843B
:1007E8003441C1B7E2852D45CD3BCA94E30C99F05D
:1007F8000509F133A30FA9FED5BF9387F9FF93F736
:10080800F70F636FF70AA1476319FB06B7070800DC
:100818003E9C83C75B043707070093F7070299E3F9
:1008280037870700B70708003E977955E370ECF063
:10083800B3079C00E36CF7EE8947639AF904898053
:10084800D549E38104ECE2850945413B11090327B9
:10085800C9FF91472320E48003076480E34E07FE25
:1008680023033481FD17EDFBFD14110C81C493772C
:10087800FC0FE9FF7D3371F54DBD83C75B04370776
:10088800070093F70702D5F33787070079BF854735
:10089800E384F9F2E2852D4589339389F4FFE383F4
:1008A80004E6313B93F7390091EB83260480032754
:1008B800090093074900E398E6E43E89CE84F1BF36
:1008C800B5476396F9001305900BD13925BDB1479B
:1008D8001305B00AE38BF9FE99476394F904A1471D
:1008E8006315FB00B70708003E9CE2852D45F531EE
:1008F80081440D4BA149E13163966401832704804B
:100908002320F9008504E39834FF83270480131714
:100918002C01635507002312F900EDB32322F900D7
:10092800D5B39D476399F90281451305B004753124
:10093800BD442320090023220900FD59493193F7BA
:100948007400CA9703C70700FD14398D2380A700D8
:10095800E39634FF45BB91476399F9001305600698
:100968003D39B931130590098DB7E38D09D8F15494
:0409780059BB000067
:10097C00971100209381C18517F101201301C167E4
:10098C001305400097F5FF1F938505671706002098
:10099C001306C68663FAC5008322050023A0550002
:1009AC0011059105E3EAC5FE17F5FF1F1305A57A9E
:1009BC0002852A8309CA83830500230073007D16F0
:1009CC00050385056DFA82802A8311C62300B300C6
:1009DC007D16050365FE8280411106C69387C1987A
:1009EC002380A70003A5C182A380B7002381C70081
:1009FC00BE851306000413050504A381D700553FDB
:100A0C00B2401305000441016F00F00D411106C600
:100A1C00B7170040116723ACE70AC1450545F52D12
:100A2C0085452165952D8D451165BD25B24041014A
:100A3C006F00F0004111114506C622C43125130583
:100A4C00503497F0FF1FE780607DC93717250000F1
:100A5C00130505BCEF00501F9387C18C23A8F182AE
:100A6C0097070020938787FB23A6F182EF005000A5
:100A7C00B7E700E03707400023A0E7101305400656
:100A8C0097000020E780E0AE138471818347040057
:100A9C0089CBC54613060002C1451545A38B0180C1
:100AAC00253F1305400697000020E78080AC834764
:100ABC00040091CB9306200213065002D54529451C
:100ACC00A38B0180113F1305400697000020E7809F
:100ADC0040AA8347040091CB930640041306A0025E
:100AEC00E9453945A38B0180C53D130540069700A8
:100AFC000020E78000A88347040091CB9306800870
:100B0C001306E002F9454145A38B0180F13513052D
:100B1C00400697000020E780C0A58DBF8147138653
:100B2C00C18213F7F70F6364A7006F00C07B1842F4
:100B3C003E9783460700850793C6F6FF2300D7042C
:100B4C00CDB7011122CC06CE26CA4AC84EC652C415
:100B5C00378400408347640013F7F70F898B638D4C
:100B6C000746834774001307000393F70703638654
:100B7C00E702834774001307000293F7F7036383BC
:100B8C00E70C6366F7086389071405476389E71464
:100B9C00B787004009472383E70037870040834726
:100BAC0077009397476063DA0744930720FC23018F
:100BBC00F702138601830842138441818346750032
:100BCC0083476500A206DD8E2310D40083471500F1
:100BDC00238BF1808344050013F70406630B07167F
:100BEC0013F704046311071213F70402630D0710C3
:100BFC00F91793F7F70F25476362F71C17270000C7
:100C0C001307C7A7B3C7E7209C43BA97828713077C
:100C1C001002E39FE7F68347640285451725000021
:100C2C001305C5A093C707042303F402834764028A
:100C3C0093F7C70F93E727002303F4028547A38B91
:100C4C00F1800DA883C761811547638CE7061947AE
:100C5C006384E7020D47E38DE7F223000402894722
:100C6C002301F4028547A38BF180854517250000ED
:100C7C001305859A612529BF9389418113890181C7
:100C8C0083D409008325090093070004B3D4F40A24
:100C9C0003A501832686313B83D7090013FAF40F91
:100CAC00858F2390F90083270900A6972320F9004C
:100CBC00230044038347240293C707042301F4024F
:100CCC00C1BD8347340003C7418193F70708D98F0F
:100CDC00A301F4008947DDB78347840055BD8347E2
:100CEC00740093F70704E38507EA8347640293C70C
:100CFC0007082303F402034584000D3551BD83C757
:100D0C00F18CA386F18081469394446063DD0400EA
:100D1C00835704001307000433D7E70A998F93769F
:100D2C00F70F2310F400B78700402380D702130776
:100D3C0000FC2381E70255A083C7E18C2387F18057
:100D4C00D9B783C7D1802386F18C75BF83C7E18067
:100D5C00DDBFAD4563E4F5069725000093858594CA
:100D6C00B3C7B7209C43AE978287834735001306E1
:100D7C00100293890181638CC70A6366F6060546E7
:100D8C006384C7080946638AC7081309F00F6374A4
:100D9C00D7002310E400035A040083A5090093072D
:100DAC000004335AFA0A5286293183A70900D297D4
:100DBC0023A0F9009307F00FE317F9F4B78700406D
:100DCC001307F0FC2381E7028545854717250000B2
:100DDC0013050587A38BF1801523B78700400947BE
:100DEC002383E70019AC13062002E390C7FA83476C
:100DFC004500A1EF972700009387C78D23A0F9002A
:100E0C0001491307200261B7972700009387879148
:100E1C0023A0F900014949479DBF972700009387FC
:100E2C00A78D23A0F9000149130790028DB78347C2
:100E3C0045001309F00FA1FF972700009387E78C5B
:100E4C0023A0F9000149254799B701491307F00F71
:100E5C003DBF834725002310F40075B583C78181FE
:100E6C002300F500035704008547E3FEE7E88547B8
:100E7C00DDB783472500238CF18071B593F7F4011E
:100E8C000947639DE7028347450005476381E702F5
:100E9C0013071008E394E7F2378700408347670293
:100EAC0093F7C70B93E727002303F702A9BD3787F6
:100EBC0000408347670293F73707FDB7E39007F0CD
:100ECC008347350003472500A207D98F0547E39CCC
:100EDC00E7E21387C18083470700F99B2300F700E3
:100EEC001DB593F7F40109476391E7048347550057
:100EFC0003474500A207D98F0547638FE700130707
:100F0C001008E39DE7EA378700408347670293F7B1
:100F1C00C70B93E7370049BF378700408347670209
:100F2C0093F7370793E7C70041B7E39907E883477F
:100F3C00350003472500A207D98F0547E395E7DC69
:100F4C001387C1808347070093E7170041BF230035
:100F5C00050009BF13F7F40189476313F706230053
:100F6C00050018428347570083464700A207D58FD8
:100F7C008546638BD70293051008639DB700B7872E
:100F8C00004083C767028D4593F737046394B7001D
:100F9C002300D7001C42A380070003570400854799
:100FAC00E3F3E7D6894745BDB786004083C66602A2
:100FBC00B14593F6C608E39FB6FC2300F700D9BFF2
:100FCC0071FB2300050003C7C18019C31842F5B794
:100FDC001C42238007007DBF937717009DC7A30198
:100FEC00040089472301F4022303F4022305F402CD
:100FFC002307F40285472303F400F2406244D244F1
:10100C004249B249224A056182809377470095CBC9
:10101C0083475400918B89CFA38B01808145171591
:10102C00000013052563D92CB787004011474DBB31
:10103C008547A38BF1808545171500001305C56204
:10104C00DDB72303E40055BF371700408347E7049F
:10105C0012054111BD8BC98F93F7F70F93068008CA
:10106C00F3B6068093F6860836C60F10000093067A
:10107C0070052300D704930680FA2300D7040F10C1
:10108C0000002307F70423000704B247F3A70780E7
:10109C000F10000041018280914763ECB704971751
:1010AC00000093876769B3C5F52098413E97B71741
:1010BC0000409387470B0287944337170040B3F6E1
:1010CC00A64094C39306070B9C42B3F7A74019A8FC
:1010DC00944337170040B3F6A64094C39306070B0E
:1010EC009C42C98F9CC29307070A98433377A74049
:1010FC0098C38280944337170040C98ED9B7984360
:10110C003377A74098C3B71700409387070A9843D3
:10111C00498FF9BF9843498FF5B709C93717004074
:10112C0083578701CD8F231CF7008280B7170040AF
:10113C0003D78701B375B740239CB7008280B717DC
:10114C00004003D787009306000C1377070C630F3E
:10115C00D70403D78700137707101DC703D7870061
:10116C0083D787007D8B09EB93F70720A1C73755F1
:10117C00E80113050580828037C59812FD8B130595
:10118C0005E03345F502828003D7870083D78700BB
:10119C0013770720FD8B11C73755E8011305058020
:1011AC00CDB73725F40013050540E1BF21651305C4
:1011BC0005D082803725F4001305054082803285E6
:1011CC00814737370040A14663C3A700828003469E
:1011DC00B700E30ED6FE3386F500034606008507FE
:1011EC002304C700D5B797F6FF1F9386667EAA87A0
:1011FC0088421387C19CAA9763E9E7000A87130703
:10120C0007FC6364F7009CC282807D55828041118B
:10121C0022C406C62A8425372947B307E502B24003
:10122C008D83B3D7870222449507B3D7E7023737AC
:10123C000040B3C707082316F7004101828071658F
:10124C0041111305052006C6D937B73700401307DF
:10125C0070F82381E7000D47A381E7001307000412
:10126C00A380E70005472387E700B2404101828055
:10127C00B7870040238007001307C0FC2386E700D4
:10128C00A386E70003A7018398CB03A7C182D8CB21
:10129C0003A7818298CF03A74182D8CF89462381A7
:1012AC00D70249472383E7022385E7022387E70216
:1012BC002389D702A3810700130790022380E7003C
:1012CC00B716004003D7A6011367070C239DE60051
:1012DC007D572383E700130710F8A380E7001D4711
:1012EC002381E7008280B78700402382A70203C7CF
:1012FC0067021377C70F2383E70282805D7122D4C4
:10130C0006D62A842EDA32DC36DEBAC0BEC2C2C49D
:10131C00C6C617F5FF1F0325E56B11C51C4D81E7EC
:10132C002AC6492332450C455418228636CEEF0086
:10133C003025B250225461618280011126CA06CE3A
:10134C0022CC4AC84EC652C4AA8419E11C4502904C
:10135C001C4D2E89A5E7B9239C4C8044B5C3971727
:10136C0000009387A7426310F406C0407C50858B25
:10137C0081EB8357C40093F7072099E3284C45254C
:10138C008357C400A18B99C31C48C5E7A285268549
:10139C00512245C1FD547C50858B81EB8357C40091
:1013AC0093F7072099E3284CA52DF240624442495B
:1013BC00B249224A2685D24405618280004545B750
:1013CC002685CD2169BF971700009387273A6314B0
:1013DC00F400804461BF9717000093872737E31709
:1013EC00F4F8C04461B71CC4050963C907021C406A
:1013FC001387170018C02380B7001C4483450900CD
:10140C00FD17F5F11CC463D907022286A945268570
:10141C009120FD57E300F5F8A944B5BF184C63C4FF
:10142C00E700E39645FD228626852D20E31735FD42
:10143C0095B7FD59294AD1B71C401387170018C01E
:10144C0029472380E700C9BFAA8517F5FF1F03258D
:10145C006558E5B5011122CC26CA4AC806CE4EC63F
:10146C00AA842E89328401C51C4D91E32529971736
:10147C0000009387A7316318F402C0401C4C1CC4B5
:10148C008357C400A18B99C31C4895EFA285268570
:10149C00512015C97D59F2406244D244B2494A8563
:1014AC00424905618280971700009387272C6314AB
:1014BC00F4008044E1B79717000093872729E31FB6
:1014CC00F4FAC04465BF1C4808409379F90F1379AE
:1014DC00F90F1D8D5C486346F500A2852685B52461
:1014EC0055F91C440505FD171CC41C401387170037
:1014FC0018C0238037015C486389A7008357C40058
:10150C00858BD1DBA947E318F9F8A2852685352C04
:10151C0059D149B7411122C426C24AC006C697F414
:10152C00FF1F83A4244B2A892E8489C49C4C99E3E5
:10153C0026858D2E97170000938747256314F40298
:10154C00C0408317C40013F787002DEB13F7070176
:10155C0015EB25472320E90093E707042316F40035
:10156C007D5559A897170000938747206314F40002
:10157C008044C1BF971700009387471DE313F4FC09
:10158C00C044C1B7918B8DC74C5889C9930744048B
:10159C006384F5004A856923232A04028357C40017
:1015AC002322040093F7B7FD2316F4001C481CC03B
:1015BC008357C40093E787002316F4001C4881EF7F
:1015CC008357C4001307002093F707286385E700AF
:1015DC00A2854A856D218317C40013F717001DC31C
:1015EC005848232404003307E04018CC1848014520
:1015FC0001E713F707082DF3B24022449244024945
:10160C004101828013F72700814611E3544814C42A
:10161C00F1BF8397C500011122CC26CA06CE4AC859
:10162C004EC613F78700AA842E8469E7D841634518
:10163C00E000B8416358E008585449C703A90400B6
:10164C0023A004000C5093D7C748B9CB70488357DC
:10165C00C400918B99C75C401D8E5C5899C33C406B
:10166C001D8E5C540C50814626858297FD57630D68
:10167C00F5041C480567232204001CC08357C400D2
:10168C00F98F91C368C84C5823A0240185CD9307CA
:10169C0044046384F50026856121232A04021DA0DD
:1016AC000146854626850297FD572A86E311F5FAF1
:1016BC009C40D1DF75476385E70059476395E70682
:1016CC0023A024010145BDA098408317C40001CF7D
:1016DC00F5466305D700D9466319D7041C48232265
:1016EC0004001CC04DB718482322040093D7C748E8
:1016FC0018C041BF83A90501E38609FC03A90500B5
:10170C008D8B23A0350133093941014791E3D84929
:10171C0018C4E35920FB1C540C50CA864E862685EF
:10172C0082976340A0028317C40093E70704231633
:10173C00F4007D55F2406244D2444249B2490561FD
:10174C008280AA993309A940E9B79C49411106C680
:10175C0022C426C281EB8144B240224426859244A5
:10176C0041018280AA842E8401C51C4D91E31D2A5F
:10177C009717000093878701631DF402C0408317FD
:10178C00C400F1DB7850058B11E793F7072099E340
:10179C00284C71242685A285AD3D7C50AA84858B6E
:1017AC00C5FF8357C40093F70720DDF7284C8D2C19
:1017BC0065B797170000938767FB6314F4008044A8
:1017CC007DBF97170000938767F8E31AF4FAC044BB
:1017DC007DB7411122C406C62A842316B5002317EF
:1017EC00C500232005002322050023240500232205
:1017FC00050623280500232A0500232C0500214675
:10180C0081451305C505EFF02F9C971700009387B2
:10181C0067865CD0971700009387A7881CD497170E
:10182C0000009387C78C5CD4971700009387678F51
:10183C00B24000D01CD822444101828097050000A0
:10184C009385E5F0BDA2411126C2930780069384CF
:10185C00F5FFB384F4024AC02E8922C406C69385D0
:10186C004407452E2A8401CD23200500232225017F
:10187C00310508C4138684068145EFF0EF94B2401D
:10188C00228522449244024941018280138581833E
:10189C0079A21385818369A21385C18349A213851B
:1018AC00C183BDAA411122C406C62A84F5371C4C3B
:1018BC0089C72244B2404101DDB7970700009387E6
:1018CC0027F81CD42324040423260404232804040A
:1018DC0083A781806394870085471CCC22853D209B
:1018EC0048C02285252008C422850D2048C44840C4
:1018FC0001469145F93D08440546A545D93D484466
:10190C000946C945F93585471CCC65B7411126C236
:10191C004AC006C622C42A89953F83A481809C4C68
:10192C0099E326854137938484048044DC40FD1779
:10193C0063D607009C40BDC38440C5BF0317C400D9
:10194C0039EBC17785075CC4130584052322040693
:10195C00F120813721462320040023240400232274
:10196C00040023280400232A0400232C04008145AE
:10197C001305C405EFF04F85232A0402232C04021F
:10198C002324040423260404B240228522449244D6
:10199C000249410182801304840651BF91454A8556
:1019AC005D3588C02A8449F9ED35B1472320F9000B
:1019BC00E1BF797122D44AD04ECE52CC5AC85EC601
:1019CC0006D626D256CA2A892E8A13048504814942
:1019DC00054BFD5B0444832A4400FD1A63D00A02C4
:1019EC0000406DF8B250225492540259624AD24AC5
:1019FC00424BB24B4E85F2494561828083D7C4007D
:101A0C00637BFB008397E40063877701A6854A8597
:101A1C00029AB3E9A90093848406C1B782808280BC
:101A2C0082805971A2D42E848395E500A6D2CAD0A7
:101A3C0086D6B284368963D305028357C40093F7E4
:101A4C00070895EB13070040B65026542320F900E5
:101A5C0098C0065996540145656182803000EF00AC
:101A6C008071E34C05FC3247BD67F98F7977BA97E3
:101A7C0093B71700C1BF814713070004F1B783D791
:101A8C00C500797122D406D626D24AD04ECE898B87
:101A9C002E8491CF930774041CC01CC885475CC866
:101AAC00B250225492540259F2494561828074001A
:101ABC003000AA84BD37A2492A892685CE85912A71
:101ACC0001ED8317C40013F7072079FBF19B93E713
:101ADC0027002316F4007DBF97070000938747D695
:101AEC009CD48357C40008C008C893E70708231682
:101AFC00F400B247232A340189CF8315E4002685EC
:101B0C00792D01C98357C400F19B93E71700231665
:101B1C00F4008357C40033E527012316A40049B70A
:101B2C00D1CD83A7C5FF011122CC06CE1384C5FFEE
:101B3C0063D307003E942AC6C12D138741841C43EE
:101B4C00324581EB2322040000C36244F24005615C
:101B5C00C1A5637DF4001040B306C4006396D700A2
:101B6C009443DC43B29614C05CC0F9BF3E87DC439F
:101B7C0099C3E37DF4FE14433306D700631F86003C
:101B8C001040B29614C33306D700E390C7FC9043C1
:101B9C00DC43B29614C35CC34DBF6375C400B1473C
:101BAC001CC165B71040B306C4006396D7009443BC
:101BBC00DC43B29614C05CC040C341BF828041116B
:101BCC004AC0138901848327090022C426C206C691
:101BDC00AA842E8489E7814585292320A900A28522
:101BEC0026859D217D59631A25017D54B24022859D
:101BFC0022449244024941018280130435007198B9
:101C0C00E30685FEB305A44026853D29E31025FF98
:101C1C00E9BF011126CA93843500F1984AC8A10482
:101C2C00B14706CE22CC4EC62A89B3F4F40A63C45B
:101C3C00040063FDB400B1472320F9000145F240D4
:101C4C006244D2444249B24905618280752B938922
:101C5C00418483A709003E8431E4A6854A858537F3
:101C6C00FD572A846316F50A03A40900A287C1EB69
:101C7C008329040081454A85A299F9266394A90811
:101C8C001C408D044A859D8CF198B147A104B3F496
:101C9C00F40AA6852D37FD576306F5061C40A6975A
:101CAC001CC015A01440858E63C806042D47637DA7
:101CBC00D70204C0330794006396870223A0E9007F
:101CCC005C4014C35CC34A85A1231305B40093077D
:101CDC00440061993307F540E303F5F63A94898F94
:101CEC001CC0B1BFD8C3E9BF58406395870023A07F
:101CFC00E900D1BFD8C3C1BFA2874040B1BF3E8469
:101D0C00DC43B5B7B1472320F9004A8511233DB711
:101D1C0004C155BF1C46FD171CC663DA0700184EDC
:101D2C0063C5E700A9476394F5006FF0AFF21C425E
:101D3C002E851387170018C22380B70082800111EB
:101D4C0022CC26CA4AC84EC652C406CE2A89AE89AF
:101D5C003284B304D6007D5A63149400014509A85B
:101D6C00834504004E864A8575370504E31645FF06
:101D7C00F2406244D2444249B249224A056182800F
:101D8C00357122CD26CB4AC94EC706CF52C556C394
:101D9C005AC1DEDEE2DCAA892E843289B68401C502
:101DAC001C4D91E30136971700009387279E63190A
:101DBC00F40403A449007C50858B81EB8357C40049
:101DCC0093F7072099E3284C99398357C400A18BCA
:101DDC0099C31C48A5E3A2854E85EFF0AFF339C932
:101DEC007C50858BA1C37D55FA406A44DA444A493C
:101DFC00BA492A4A9A4A0A4BF65B665C0D618280A4
:101E0C0097170000938787966315F40003A4890045
:101E1C005DB79717000093876793E31EF4F803A44C
:101E2C00C90051BF8357C40093F70720CDFF284C3E
:101E3C00C53E55BF93070002A304F10293070003AC
:101E4C0002D22305F10226C6930B5002971A00000A
:101E5C00938ACA95294BCA8483C7040099C3639B90
:101E6C007709338C2441638D2401E2864A86A2854E
:101E7C004E85F135FD57630DF5189257E2973ED21A
:101E8C0083C7040063860718FD571389140002C822
:101E9C0002CE3ECA02CCA309010482D483450900B8
:101EAC0015465685A926C2479304190031E513F748
:101EBC00070109C713070002A309E10413F7870000
:101ECC0009C71307B002A309E104834609001307ED
:101EDC00A002638AE602F247CA848146254603C7FC
:101EEC00040093851400130707FD6374E60685C68A
:101EFC003ECE15A085048DB733055541B397A72861
:101F0C0026893EC861BF324793064700184336C640
:101F1C00634A07023ACE03C704009307E002631E2C
:101F2C00F70403C714009307A002631AF702B24721
:101F3C008904138747009C433AC67D57B3E7E70AE9
:101F4C003ECA25A83307E04093E727003ACE3EC8A7
:101F5C00D9B7B3876703AE848546BA9749B785046A
:101F6C0002CA81468147254603C7040093851400A5
:101F7C00130707FD6374E606E1F683C504000D46FE
:101F8C0017150000130505839D2411CD971700002C
:101F9C00938747821D8DC247130700043317A70090
:101FAC00D98F85043EC883C5040019461715000057
:101FBC0013058580138914002304B1020D2C3DC92F
:101FCC009307000095E74247B2471377071009CFF4
:101FDC0091073EC69257D2973ED2B5BDB3876703E1
:101FEC00AE848546BA9749B79D07E19BA107D5B743
:101FFC007800970600009386C6D422860C084E857E
:10200C0097000000E7000000FD572A8AE314F5FC56
:10201C007C50858B81EB8357C40093F7072099E3A1
:10202C00284CFD3A8357C40093F70704E39D07DA65
:10203C0012555DBB780097060000938686D02286E9
:10204C000C084E85F92CC9B7411122C42A842E855F
:10205C0023A4018406C6EFF00F99FD576316F50013
:10206C0083A7818491C31CC0B24022444101828069
:10207C00411122C42E848395E50006C625236349AD
:10208C0005007C48AA977CC8B2402244410182805A
:10209C008357C4009397C7482316F400F5B783D72A
:1020AC00C500011122CC26CA4AC84EC606CE93F7EB
:1020BC000710AA842E843289B68991C78395E500CE
:1020CC008946014601228357C4008315E400F2407F
:1020DC009397C7482316F4006244CE864A86B249C9
:1020EC0042492685D244056135A8411122C42E846B
:1020FC008395E50006C6F9207D578357C400631A03
:10210C00E5009397C7482316F400B24022444101DE
:10211C0082809397C72868C82316F400FDB783956F
:10212C00E5003DA0411122C42A842E85B285368655
:10213C0023A4018406C6EFF08F88FD576316F500C3
:10214C0083A7818491C31CC0B24022444101828088
:10215C00411122C42A842E8523A4018406C6852914
:10216C00FD576316F50083A7818491C31CC0B24050
:10217C00224441018280411122C42A842E85B285D9
:10218C0023A4018406C69129FD576316F50083A785
:10219C00818491C31CC0B240224441018280411110
:1021AC0022C42A842E8523A4018406C62D29FD571A
:1021BC006316F50083A7818491C31CC0B2402244EE
:1021CC0041018280411122C42A842E85B285368633
:1021DC0023A4018406C63129FD576316F50083A795
:1021EC00818491C31CC0B24022444101828093F58A
:1021FC00F50F2A966314C5000145828083470500BC
:10220C00E38DB7FE0505FDB7138541836FF03F8164
:10221C00138541836FF0DF80797156CA9C49BA8A65
:10222C00984522D44AD04ECE52CC06D626D25AC885
:10223C005EC6B3E7E70A1CC203C73504AA892E841D
:10224C003289368A19C385071CC21C4093F70702D2
:10225C0091C78327090089072320F9000440998836
:10226C0091E8130B9401FD5B5C4403270900998FE3
:10227C0063CCF40483473404B336F0001C4093F76A
:10228C000702A5EB13063404D2854E85829AFD57BE
:10229C006303F5041C4011478144998B6399E70053
:1022AC008327090044449D8C8147B3E4F40A1C4401
:1022BC0018486354F700998FBE94014969047D5BFB
:1022CC0063982405014509A885465A86D2854E8512
:1022DC00829A631E75017D55B25022549254025954
:1022EC00F249624AD24A424BB24B45618280850424
:1022FC00A5BF3307D40013060003A301C70403478B
:10230C00540493871600A2978906A381E7049DBF06
:10231C0085462286D2854E85829AE30E65FB050999
:10232C0045B7797122D44AD04ECE52CC06D626D29D
:10233C0056CA5AC803C88501930780072A892E8478
:10234C00B289368A63E20703930720069386350425
:10235C0063E107036300081E93078005170600005E
:10236C0013060646630AF814930424042301040597
:10237C0015A89307D8F993F7F70F5546E366F6FEC1
:10238C001706000013064646B3C7C7209C43B297F6
:10239C0082871C4393842504938647009C4314C373
:1023AC002381F50485474DAA90411C4313750608FB
:1023BC009385470039C19C430CC3584063D2071422
:1023CC009305D002A301B40418C463500704B307E7
:1023DC00F040170600001306A63E2948B68433F7D2
:1023EC000703FD143297034707002380E4003E8760
:1023FC00B3D70703E37507FF8DA09C431375060441
:10240C000CC345DD939757604DBF6D9A10C0C1B793
:10241C0090411C43137506089385470001C50CC3F6
:10242C009C4339A0137606040CC37DDA83D70700CE
:10243C001307F00617060000130686386310E80C25
:10244C002148A3010404584018C4E34907F80C4080
:10245C00ED990CC0C1F7B68451F3A147631EF80087
:10246C001C40858B91CB58401C4863C7E7009307F1
:10247C000003A38FF4FEFD14858E14C85287CE86FC
:10248C007000A2854A85493BFD5A631B550D7D554D
:10249C00B250225492540259F249624AD24A424BE7
:1024AC00456182809C4193E707029CC11308800719
:1024BC001706000013060632A30204050C401C4349
:1024CC0013F80508138547006305080008C39C43EF
:1024DC0001A813F8050408C3E30B08FE83D7070013
:1024EC0013F7150001C793E505020CC099C34148C9
:1024FC0089BF18401377F7FD18C0D5BF294891B78D
:10250C00170600001306C62B294835BF90411C4303
:10251C00CC4913780608138547006306080008C3E6
:10252C009C438CC301A808C3137606049C4375DA3C
:10253C002390B70023280400B68489B71C43D041EC
:10254C0081459386470014C3844326854D3101C5CC
:10255C00B30795405CC05C401CC8A301040439BFA0
:10256C0014482686CE854A85029AE30255F31C4010
:10257C00898B85E74844B2473365F50A11BF854618
:10258C005686CE854A85029AE30365F185045C4440
:10259C003247998FE3C5F4FEF1BF8144930A94014D
:1025AC007D5BF5B7411122C42A842E85B28536860F
:1025BC0023A4018406C6A120FD576316F50083A74A
:1025CC00818491C31CC0B240224441018280930794
:1025DC00800523A4F1847D5582809307800523A474
:1025EC00F1847D5582809307800523A4F1840145F5
:1025FC0082809307800523A4F1847D558280930704
:10260C00800523A4F1847D5582800000737461726F
:10261C007400000052656164795F53544154555302
:10262C00203D2025640A000052656164795F494EA3
:10263C005F455031203D2025640A000052656164DD
:10264C00795F5374616C6C203D2025640A00000096
:10265C0052656164795F536C656570203D2025641B
:10266C000A00000052656164795F5765616B5570B3
:10267C00203D2025640A0000CAE6FFFFD4E6FFFFD8
:10268C0044E7FFFF44E7FFFF44E7FFFF44E7FFFF9A
:10269C0044E7FFFF8EE6FFFF86E6FFFFC0E6FFFF85
:1026AC00B4E8FFFFDCE7FFFF1CE7FFFF42E8FFFF9A
:1026BC001CE7FFFFB2E7FFFFCAE6FFFF1CE7FFFFC7
:1026CC00BCE7FFFFD2E7FFFFAEE8FFFF66E6FFFFC8
:1026DC000600FF0901A101090215002600FF75087B
:1026EC0095408106090215002600FF75089540915A
:1026FC0006C0000009022900010104A023090400FE
:10270C00000203000005092100010001222200073C
:10271C000581034000010705010340000100000092
:10272C0012011001000000403D4107210000000093
:10273C000001000084E9FFFF9CE9FFFFC0E9FFFFF7
:10274C00CAE9FFFFE0E9FFFF000000000000000005
:10275C00000000000000000000000000000000006D
:10276C00000000000000000000000000000000005D
:10277C00000000000000000000000000000000004D
:10278C00000000000000000000000000000000003D
:10279C00000000000000000000000000000000002D
:1027AC000000000000000000232D302B2000000052
:1027BC00686C4C0065666745464700003031323323
:1027CC003435363738394142434445460000000021
:1027DC00303132333435363738396162636465668B
:1027EC0000000000AEFBFFFFC4FBFFFF84FBFFFFFC
:1027FC0084FBFFFF84FBFFFF84FBFFFFC4FBFFFF99
:10280C0084FBFFFF84FBFFFF84FBFFFF84FBFFFFC8
:10281C0028FDFFFF2CFCFFFFC0FCFFFF84FBFFFF2C
:10282C0084FBFFFF58FDFFFF84FBFFFF2CFCFFFF29
:0C283C0084FBFFFF84FBFFFFC8FCFFFFD4
:1028480000000000942700007427000054270000AF
:102858000000000000000000000000000000000070
:102868000000000000000000000000000000000060
:102878000000000000000000000000000000000050
:102888000000000000000000000000000000000040
:102898000000000000000000000000000000000030
:0C28A800A40B0020780900207809002013
:00000001FF
