:040000006F00103746
:100004000000000000000000A0000020D80600202E
:10001400A9BDF9F3A00000200000000000000000CA
:10002400A0000020A000002000000000000000004C
:10003400A000002000000000A0000020000000003C
:10004400A0000020A0000020A0000020A0000020AC
:10005400A0000020A00000200402002000000000F6
:10006400A0000020A0000020A0000020A00000208C
:10007400A0000020A0000020A0000020A00000207C
:10008400A0000020A0000020A0000020A00000206C
:10009400A0000020A0000020A0000020A00000205C
:1000A40001A0B7170040984B41111367070198CB83
:1000B40003C707011377E70F2388E70013078008B6
:1000C40073370780137787083AC60F1000001307A9
:1000D40070052380E704130780FA2380E7040F10D8
:1000E4000000B847B70600069506558FB8C703C782
:1000F400B7041377F70DA385E70403C7A7001367B5
:1001040027012385E700130750142394E7003727BA
:1001140000408346578093F6F60EA302D7808946A3
:10012400A303D78003C7E7041377C70F1367170028
:100134002387E70403C7F70213672700A387E702AF
:1001440003C70701136717002388E7002380070408
:10015400B247F3A707800F10000041018280EFF03F
:100164005FF413058020970500009385E5091716B1
:1001740000001306E69F63FAC5008322050023A04E
:10018400550011059105E3EAC5FE173500E0130596
:10019400A554971500009385A59D1386018263FAE3
:1001A400C5008322050023A0550011059105E3EA4B
:1001B400C5FE13850182938581BD6377B500232035
:1001C40005001105E36DB5FE93025002739002BC65
:1001D4008D42739042808542739012BC93028008D2
:1001E40073900230970200009382C2E193E23200DE
:1001F40073905230972200E0938282AF739012344E
:040204007300203033
:10020800B787004003C76700098B6309071E4111C0
:1002180022C626C403C77700930600031377070393
:100228006303D7089384918303C504001384C182B0
:100238000548B306A4002380060103C67700138788
:1002480001832A971376F60F2300C70083C587001A
:10025800138641832A9693F5F50F2300B6000347CA
:100268000700130600021377F703630FC716636EC0
:10027800E6086301071109466300C70C6305071404
:1002880083C704003E940347040009CB850793F70E
:10029800F70F0D476361F7162380F400B787004016
:1002A80009472383E700B787004083C77700939700
:1002B800476063D707049386918383C70600138733
:1002C800C18205463E972300C700138701833E97E6
:1002D800130600032300C700138741833E97214676
:1002E80085072300C70093F7F70F0D476373F700DF
:1002F80081472380F6000947B78700402383E7003A
:100308003244A24441017300203093061002630D69
:10031800D70893062002E315D7F603C7A7021347A9
:1003280007042385E70203C7A7021377C70F1367DC
:1003380027002385E702A9B703C7670013770704D7
:100348004DC303C7A70213060004938581A9134769
:1003580007082385E70203C7A702138501981377C7
:10036800370F136787002385E702971000E0E780BF
:10037800408439B703C76700137707043DC303C731
:10038800670213060004938581B113470708238386
:10039800E70203C767021385019C1377370F1367BA
:1003A80087002383E702D1B703C76702134707040F
:1003B8002383E70203C767021377C70F1367270072
:1003C8002383E70275BD03C767001377070411CBC2
:1003D80003C727021377370F136787002381E702C4
:1003E80045B52380060069BD03C727021377C70FE9
:1003F80013672700E5B7A38C01824DB57300203041
:1004080093874186984309C79C43829723A2018614
:1004180073002030B7F70700DC53411123A0F186A1
:10042800B7170040984B1367070198CB03C707011C
:100438001377E70F2388E7001307800873370780CF
:10044800137787083AC60F1000001307700523803A
:10045800E704130780FA2380E7040F10000013074E
:10046800000C6319E50203D787001367070C239470
:10047800E700B717004003C7070113671700238871
:10048800E70023800704B247F3A707800F10000096
:100498004101828003C7A70093760520C9C2118B4A
:1004A80039E703C7E70403C6E7041377F70F1366B2
:1004B80036002387C70403C6A700136646002385B2
:1004C800C70003D6870083D587003346060893E51F
:1004D800050C2394B700A5470100FD1793F7F70F04
:1004E800E5FFB71700402394C7002387E7049377F5
:1004F8000510DDCB371700408347A70093E70701B6
:100508002305F7009377F50185E3B727004003C774
:10051800578013670701A382E7801D4715A013675B
:1005280027002385E700E1B72547636BF704B72762
:10053800004003C757801377F70EA382E78005476B
:10054800A383E78033450508B71700401367050CF8
:100558002394E7002394A700C9C203C7570483C69E
:100568005704418B858A558F09F703C72701418BAB
:1005780009D303C7A7001377D70F2385E700D5BD95
:100588009377050199EBB727004003C75780137786
:10059800F70EA382E780094765B7B727004003C76E
:1005A80057801377F70E85BF9377850181EFB727BB
:1005B800004003C757801377F70EA382E78013071D
:1005C8001005BDBFB727004003C757801377F70E44
:1005D800A382E78013077005A5B703C7A7001377A1
:1005E800B70F61BF37E700E01C4354437D56A18332
:1005F800E206D58F9306071890C2D0C217060000EE
:10060800130646E0970600009386869F8C5E90DE70
:1006180023A2A18611661305071010C1130707202E
:100628001388418610C30327080075FF37E700E0E9
:1006380011662320C7180F1000008CDE93968700E0
:100648002320D710E1832322F710828001118146ED
:1006580001468145114506CEDD2A93078008F3B788
:10066800078093F787083EC60F100000B7170040B1
:10067800130770052380E704130780FA2380E70433
:100688000F10000003C76704136717002383E704EC
:1006980023800704B247F3A707800F100000F24039
:1006A8000561828037E700E01C435443A183E206DA
:1006B800D58F1CC1FD572320F7182322F7188280F5
:1006C80013178500B7E700E023A0E710618123A294
:1006D800A710828041118146014681451145852A2E
:1006E80013078008F337078093F787083EC40F1075
:1006F8000000B7170040130670052380C70493064F
:1007080080FA2380D7040F100000FD552396B70206
:1007180023800704A245F3A505800F100000733756
:100728000780137787083AC60F1000002380C70494
:100738002380D7040F10000003C76704136717004E
:100748002383E70423800704B247F3A707800F1029
:10075800000001A09307E0043305F50295473355DF
:10076800F50201007D1575FD8280411122C406C67F
:100778002A841305803E7D14F13F3344040875F83C
:10078800B2402244410182802E96AA870F70B67823
:1007980082802303048015472303E4800100230299
:1007A800A480828083076480E3CE07FE230304804D
:1007B800828083076480E3CE07FE034544808280FD
:1007C80083076480E3CE07FE2302A4808280411160
:1007D80026C44AC24EC006C61377F50BAD47AA8990
:1007E8002E8995446306F70019456537653F8D44A2
:1007F8004E854537FD59FD1463983401B240A24433
:100808001249824941018280135509011375F50F78
:10081800453F2209CDB7011126CC06CEB704080002
:1008280051371545BD37713769372AC6A53F324557
:100838009377150089EB136515001375F50FF240D2
:10084800E24405618280FD14E9FC0145CDBF3971A0
:10085800B7F7070006DE26DC4ADA4ED852D656D459
:100868005AD25ED062CE03AB47027D57B7E700E0AD
:1008780083AA070022C603AA470023A0E71823A2D9
:10088800E718B71B0040930770052380FB04930704
:1008980080FA2380FB0483C74B041147AA8993E796
:1008A800070E2382FB04372400401305F00F2303AF
:1008B800E4802E8C3289B684E93DED35938779FF43
:1008C80093F7F70F0947137BFB006362F712A14701
:1008D800370708006307FB00B70707003E9C378708
:1008E80007007955637EEC02B3878401636AF702D7
:1008F800A9476398F90689E481446D3526850DA0DA
:10090800E2850945E93505090345F9FFFD14050C9C
:10091800453D81C49377FC0FFDF7F53D69FD7D5595
:10092800B7170040130770052380E704130780FA00
:100938002380E70403C74704418B2382E704F2506E
:10094800B7E700E023A0571123A24711E25432442D
:100958005259C259325AA25A125B825B724C2161B7
:100968008280A547639AF906A1478569631DFB0242
:100978009387F9FFB3869700B374FC00B69493C7C6
:10098800F7FFFD8C33FC8701416B856B9387F9FF7B
:10099800B3F7870199E363FF340193D94900C1474D
:1009A800E3E637FF91BF9307F00FE9B78567C169A1
:1009B800FD17C9B71305800D638869011305000287
:1009C8006384790113051008E2851135A93521D909
:1009D8004E9CB3843441C1B7E2852D45CD3BCA94C2
:1009E800E30C99F00509F133A30FA9FED5BF93874E
:1009F800F9FF93F7F70F636FF70AA1476319FB062F
:100A0800B70708003E9C83C75B043707070093F7C6
:100A1800070299E337870700B70708003E9779551B
:100A2800E370ECF0B3079C00E36CF7EE8947639A38
:100A3800F9048980D549E38104ECE2850945413B05
:100A480011090327C9FF91472320E4800307648025
:100A5800E34E07FE23033481FD17EDFBFD14110C53
:100A680081C49377FC0FE9FF7D3371F54DBD83C7D2
:100A78005B043707070093F70702D5F337870700AA
:100A880079BF8547E384F9F2E2852D458933938957
:100A9800F4FFE38304E6313B93F7390091EB8326B7
:100AA80004800327090093074900E398E6E43E8998
:100AB800CE84F1BFB5476396F9001305900BD13981
:100AC80025BDB1471305B00AE38BF9FE9947639436
:100AD800F904A1476315FB00B70708003E9CE285AF
:100AE8002D45F53181440D4BA149E13163966401EF
:100AF800832704802320F9008504E39834FF8327A3
:100B0800048013172C01635507002312F900EDB375
:100B18002322F900D5B39D476399F902814513054E
:100B2800B0047531BD442320090023220900FD5972
:100B3800493193F77400CA9703C70700FD14398D2C
:100B48002380A700E39634FF45BB91476399F900DA
:100B5800130560063D39B931130590098DB7E38D4A
:080B680009D8F15459BB00004B
:100B7000971100209381018617F10120130181480C
:100B80001305400097F5FF1F9385C54717F6FF1F14
:100B90001306866763FAC5008322050023A055006B
:100BA00011059105E3EAC5FE17F5FF1F1305655B07
:100BB00002852A8309CA83830500230073007D16FA
:100BC000050385056DFA82802A8311C62300B300D0
:100BD0007D16050365FE828081471387C1A09308B7
:100BE000F00F29483386E7000346060093F6F70F17
:100BF000630BA600630616018507E39507FFA94668
:100C000036972300A700938701A0B6972380B700EB
:100C1000E1476307F500930770026306F5088280D9
:100C2000411113C7050406C693F6350095471357BF
:100C3000674891CA054699476387C60009469D479C
:100C40006383C600A14793F6850313D6254805069E
:100C500085C2A1456383B604E1456382B60493056A
:100C600080026380B604930580036393B6009146C7
:100C70009385C1842383F5002382C500A382D50018
:100C80001725000013050568BE85EF10C026B24089
:100C900085472385F184410182808546D1BF8946FD
:100CA000C1BF8D46F1B717250000130525686F10E9
:100CB0008024AA872380050001471385C1A013085B
:100CC000F00F2946B306A70083C606006391F6021B
:100CD000938601A036970347070005452380E5006A
:100CE0001D47636DF7001547636EF70082806385CB
:100CF00006010507E318C7FC0145DDB761476386B8
:100D0000E700828023800500828003C70500B73793
:100D1000004083C7370013770704D98F2380F5007D
:100D2000828039714AD806DE22DC26DA4ED652D4C9
:100D300056D25AD05ECE62CC13878183834407009B
:100D40001389C182B307990083C70700A5C393879E
:100D5000140093F7F70F8D4663F3F60081472300E5
:100D6000F70093870183A69783C7070093060003C4
:100D700013F7F70F93F7F70363EDF6001377070206
:100D800059E305446388871209476385E70AE38FBF
:100D90000746B7E700E03707400023A0E7180F1029
:100DA000000026992300090023A0E710B787004020
:100DB00003C76700058BE30F074E83C6E185054730
:100DC000E39CE64C29472381E70209472383E70296
:100DD0002385E702A384018223840182B787004030
:100DE000A3810700A38C018405472383E700F25009
:100DF0006254D2544259B259225A925A025BF24B6F
:100E0000624C21618280811793F7F70F4147E362BB
:100E1000F7F81727000013072765B3C7E7209C439F
:100E2000BA978287FD57A383F182A5B7FD57238325
:100E3000F18285B71725000013058550EF10C02EED
:100E400093874183A69703C407008149138A0198B9
:100E50001374F40F972A0000938A0A4F63CF890214
:100E60002945EF10200D8547A38DF182238D8182C6
:100E7000A384F18437E700E0B70640002320D718A9
:100E80000F100000378600408347A60293F7370F04
:100E90002305F6022320D710EDBDB387490183C592
:100EA000070056858509EF1000054DBF8547238E45
:100EB000F182C5B51725000013058548EF10C0263F
:100EC00093874183A69703C407008149138A019C35
:100ED0001374F40F972A0000938A0A4763CD89029E
:100EE0002945EF1020058547238FF182A38E81824B
:100EF000A384F18437E700E0B70640002320D71829
:100F00000F100000378600408347660293F7370FC3
:100F10002303F60241B7B387490183C5070056850D
:100F20008509EF00507D5DBF8547A38FF18295B5A0
:100F300093874183A69783C70700214793894185FB
:100F400093F6F70F639EE776138A81B983476A00A9
:100F5000938A31852380FA0083477A0081C7FD5741
:100F60002380FA0083451A0083470A002380B900D2
:100F700013F407069397476063DD070493070004A3
:100F80006300F4086303043C93070002631AF472DD
:100F9000E382850A93071002639DF50483454A00A6
:100FA000172500001305454713040008EF00B0742F
:100FB00023A041839387C18403C76700944383D7E9
:100FC00047002303EA002320DA002312FA001D4A17
:100FD000CDA693070004630BF404630A0436930759
:100FE0000002631FF46C6381857E93072002E3880F
:100FF000F5021725000013052541EF00D06FC9A5A4
:10100000130400089307100A6380F51A63E2B7021D
:1010100093075009638BF5149307A0096386F502C3
:101020009307F0056388F530014A61A60144D9BFF2
:101030009307400A6385F52E9307200BE396F5FE90
:1010400085472385F184CDB703452A00C947834AE4
:101050003A0083454A00034A5A006313F510CD470E
:101060006390FA10930770086392F5029307300FAC
:10107000B7150E00630AFA029307900DB7B5040086
:101080006304FA02F1659385052039A89307800867
:101090006395F502330A4041B7754600137AFA0F9B
:1010A000938585CDB3D5450323A6B18417250000CC
:1010B0001305052AEF00306485BF93079008639AF3
:1010C000F500330A40419165137AFA0F9385C5669E
:1010D000D1BF9307A008639BF500330A4041B715C1
:1010E0003D00137AFA0F938505906DBF9307B00802
:1010F000639AF500330A40419165137AFA0F93859C
:1011000095D04DB793F5F5078D47639BF500330AEE
:101110004041B7955B00137AFA0F938505D859B70C
:101120008947639BF500330A4041B7750B00137A7A
:10113000FA0F9385051BBDB78547639AF500330AFF
:101140004041DD65137AFA0F938565E3A1BF9DF9F0
:10115000330A40418D65137AFA0F938575DC99B790
:10116000A53CD28556858D3CC1B503452A00034B6D
:101170003A0093056100353E930571005A85153E8E
:101180003C0023A0F182834761002304F1008347E0
:101190007100A304F10089472380FA00835781007E
:1011A0002310FA00094A31A483072A00E3DE07E688
:1011B00083473A0013F7370009CB05466302C70897
:1011C00009466315C7009D4611A0954613D62748CA
:1011D00093F78703050685C321476385E7066147C3
:1011E0006384E706130780026382E7061307800320
:1011F0006393E70091471387C1842303D700834695
:101200004A002302C700A302F70013F6060483472F
:101210005A001DEE93F6760C130670086393C60A07
:101220009306300FB7150E006386D7049306900D12
:10123000B7B504006380D704F165938505201DA828
:10124000994669B7854745BF894775B78D4765B7E3
:1012500013067008E386C6FC1306800C639EC60066
:10126000B307F040B775460093F7F70F938585CD28
:10127000B3D5F5020CC31DBD1306900C639AC600CE
:10128000B307F040916593F7F70F9385C566CDB727
:101290001306A00C639BC600B307F040B7153D00D2
:1012A00093F7F70F93850590E1B71306B00C639A97
:1012B000C600B307F040916593F7F70F938595D07B
:1012C00045BF93F6F6070D46639BC600B307F04093
:1012D000B7955B0093F7F70F938505D851BF094683
:1012E000639BC600B307F040B7750B0093F7F70F89
:1012F0009385051BB5BF0546639AC600B307F0404A
:10130000DD6593F7F70F938565E39DB795F6B30712
:10131000F0408D6593F7F70F938575DC91BF834798
:101320002A00C18B89C785472383F184F5B92383BC
:101330000184DDB93C0023A0F18209479307000333
:101340002314F1002380EA00A1BD13040008A9477B
:1013500063E8B7361727000013074715B3C5E52024
:101360009C41BA97828783473A000D476385E7100F
:10137000138A01826361F70605476389E706894698
:101380006387D70A138C018283CB0A00032B0C00DE
:10139000130A000433DA4B0BDA855286138581B9C0
:1013A000B38B4B41529BEFF0DF8023807A012320E7
:1013B0006C0183C709001547639DE748B7E700E064
:1013C0003707400023A0E7180F100000B786004041
:1013D00023804603E1A11947E396E7FA9727000027
:1013E0009387C7182320FA00A9471DA803C7E185E2
:1013F0004946972500009385651C6316F7009725DD
:10140000000093856515170500201305A584EFF0EE
:101410004FFA970700209387E7832320FA00C947F4
:1014200003C70A00E3F0E7F62380FA00A1BF83C6F2
:10143000E185970700209387E7816390E6023E8568
:1014400013067002972500009385850EEFF06FF666
:101450002320AA0093077002E1B73E8513063004EB
:101460009725000093854511EFF0AFF42320AA00E3
:101470009307300475B783452A001725000013052C
:1014800065EE054BEF00302783CBE18583452A00CD
:1014900017250000130505ED639A6B09EF00B025D1
:1014A00083472A00B5CF1387F7FF1377F70F8946D5
:1014B000E3EAE6EC17FAFF1F130A4A72638C77011E
:1014C000172A0000130A4A036396D700172A000060
:1014D000130A0A015285EF00F0451375F50F130743
:1014E000150097F7FF1F9387E77606072380E7002D
:1014F0000D47A380E700BE8601473306EA00034696
:1015000006000507A38107002381C7001376F70FA4
:101510008907E364A6FE23A0D18283C7060009B72A
:101520009387818123A0F1829147DDBDEF00B01C3C
:1015300083472A00F5D71387F7FF1377F70F8946FC
:10154000E3E2E6E4138A0181638C6701172A000055
:10155000130A0AFD6396D700172A0000130ACAFA75
:101560005285EF00303D1375F50F1307150097F7FF
:10157000FF1F9387276E06072380E7000D47A38090
:10158000E700BE8601473306EA000346060005076A
:10159000A38107002381C7001376F70F8907E3644F
:1015A000A6FE95BF83452A0017250000130545DCDC
:1015B000EF0070149387818503C7570013674700B6
:1015C000A382E70003472A00A380E700B1BC1725E8
:1015D0000000130525DBEF00303583C7818523002C
:1015E000FA0003CA0A00333A4001E1B317250000AC
:1015F000130585DAEF0050339387818503C75700C1
:1016000013670701A382E70003472A002380E7004E
:1016100021BC17250000130565D9EF00F030034702
:101620000A007D8B2DEBB787004003C76702137755
:10163000C70B136727002383E70203C7A7021377AB
:10164000C70B136727002385E70203C7E702137759
:10165000C70B136727002387E70203C72703137706
:10166000C70B136727002389E7028547A38FF18201
:10167000238EF1822383F182A383F182238F01825F
:10168000A38D0182A382018223820182A38401822D
:101690002384018251BA89476314F70283474A00C1
:1016A000930610086388D70C63EBF6048D466385B8
:1016B000D70A63ECF6028546638AD70C6385E70A8E
:1016C000FD572380F90037074000B7E700E023A06B
:1016D000E7180F100000B78600401306F0FC2381C6
:1016E000C60223A0E7106FF0CFEA1147E39AE7FCA8
:1016F000378700408347270393F7370781A01307F5
:1017000030086380E704130740086381E70213078A
:101710002008E397E7FA378700408347A70293F74B
:10172000C70B93E727002305F702FDB83787004072
:101730008347270393F7C70B93E727002309F70293
:10174000E5B0378700408347E70293F7C70B93E77D
:1017500027002307F702C9B8378700408347E7020D
:1017600093F73707FDB7378700408347A70293F702
:10177000370755BF378700408347670293F7C70B8A
:1017800093E727002303F7026FF01F8A3787004093
:101790008347670293F73707F5B71725000013054E
:1017A000E5C1EF007018238C01B825BD1725000096
:1017B0001305C5C1EF00501703CA0A00239C01B8E6
:1017C0008947335AFA0AF5B6172500001305C5C034
:1017D000EF0090150144172B0000130B2BC1A14AF9
:1017E000B3078A0083C507005A850504EF00A0707F
:1017F000E31854FF172500001305C5BFEF00D012F2
:1018000083474A0091E7A380018401446FF0DF81A0
:101810000947E397E7EA8547A380F184FDB70346CC
:101820003A0083452A00172500001305E5BCEF00A8
:10183000806CE1BF83454A0017250000130545BFB2
:1018400013040008EF00206BA3800184239C01B8DF
:1018500091BA2547E384E7B619476391E702B78653
:10186000004023804603B7E700E03707400023A08D
:10187000E7180F100000130600FC95B51307100AB7
:101880006391E702B786004023804603B7E700E094
:101890003707400023A0E7180F100000130680FC54
:1018A0003DBD1307A009E38FE7FC1307400AE38B54
:1018B000E7FC13072002E383E7B00547E380E7B0C6
:1018C00093070008E30CF4AEB7E700E037074000E9
:1018D00023A0E7180F100000B786004023804603BE
:1018E000130620FCEDBB83C7418513070002638A02
:1018F000E7186367F7021547638FE70C194763889A
:10190000E704B786004023800602B7E700E0370708
:10191000400023A0E7180F1000001306A0FCC1B37D
:101920001307F005638AE700130750096386E70091
:1019300013071002E397E7FCB7E700E03707400022
:1019400023A0E7180F100000B786004051BF138B8B
:101950003185938A0182034A0B0083A90A0013048C
:10196000000433548A0ACE852286138581B9EFF0AC
:101970004FA4B3078A40A2992300FB0023A03A0199
:10198000630E0A02B787004023808702B7E600E0B3
:101990003706400023A0C6180F10000003C7270217
:1019A000134707042381E70203C727021377C70FF2
:1019B0002381E70223A0C6106FF0AFBDB7860040B9
:1019C00023800602B7E700E03707400023A0E718AE
:1019D0000F10000031B7378700408347370083C6B8
:1019E000918593F70708D58FA301F700B70640004C
:1019F000B7E700E023A0D7180F1000001306A0FCE3
:101A00002301C70223A0D7106FF0AFB8938741839B
:101A1000A69783C70700B5C783C7E185BDE303C7A2
:101A2000418593070002631EF704938681B903ABD7
:101A3000060083CA460003CA560083C9660056875B
:101A4000D287CE865A8683C51184172500001305D8
:101A5000A59F55219385C1842380818423A065019E
:101A600023825501A382450123833501B7E700E0B6
:101A70003707400023A0E7180F100000B78600408A
:101A800031BDB7E700E03707400023A0E7180F108B
:101A90000000B786004051B529472381E702094776
:101AA0002383E7022385E7022387E7022389E702EE
:101AB0006FF04FB283C66700918A638A06B283C70C
:101AC0005700918BA1C783C6E1858547639DF602C8
:101AD0002385D184A38FE182238EE1822383E18257
:101AE000A383E182238F0182A38D0182A3820182DD
:101AF00023820182A384018223840182B78700406C
:101B000011476FF08FAE2380F184E9B70547D9B74D
:101B10008547A38FF182238EF1822383F182A383F1
:101B2000F182238F0182A38D0182A382018223820D
:101B300001828280411106C6E13FB78700402380C1
:101B40000700130740FC2386E7001307C004A386A1
:101B5000E700138781B998CB138781B1D8CB13875E
:101B600081A998CF138781A1D8CF29472381E70284
:101B700009472383E7022385E7022387E7022389B6
:101B8000E702A3810700930600F8A380D70093061D
:101B900090022380D700FD562383D7002381E700DE
:101BA000B706400037E700E02320D71003C717002F
:101BB00013671700A380E700B240239C0184410112
:101BC0008280411106C6A937B787004023800700ED
:101BD000130700FC2386E7003147A386E70013873D
:101BE00081B998CB138781B1D8CB138781A998CFBE
:101BF00029472381E70209472383E7022385E70278
:101C0000A3810700930600F8A380D70093069002F3
:101C10002380D700FD562383D7002381E700B70632
:101C2000400037E700E02320D71003C717001367F1
:101C30001700A380E700B240239C01844101828009
:101C400071679387C1841307072098C305472392C0
:101C5000E70021472383E70023850184A3840184CF
:101C6000A3800184238001849387C1A07D5798C3FA
:101C7000D8C32394E700938701A023A0070023A2E1
:101C8000070023940700A382018423820184A38197
:101C900001842381018423840184A3830184238319
:101CA00001849387C18223800700A38007002381DA
:101CB0000700A3810700828003C7E185854763137E
:101CC000F70001B785BD411106C6B717004011677F
:101CD00023ACE70AC1450545E12085452165812002
:101CE0008D4511652D28B2404101E9AA4111130526
:101CF000503406C697E0FF1FE7804072E93717159A
:101D000000001305657D0D21253F7D37B7E700E015
:101D10003707400023A0E710EFF0AF80F5BF9147F1
:101D200063ECB704972700009387878AB3C5F52033
:101D300098413E97B71700409387470B028794431B
:101D400037170040B3F6A64094C39306070B9C4296
:101D5000B3F7A74019A8944337170040B3F6A6403D
:101D600094C39306070B9C42C98F9CC29307070A32
:101D700098433377A74098C3828094433717004035
:101D8000C98ED9B798433377A74098C3B717004097
:101D90009387070A9843498FF9BF9843498FF5B74E
:101DA00009C93717004083578701CD8F231CF700DF
:101DB0008280B717004003D78701B375B740239CD3
:101DC000B7008280B717004003D787009306000C46
:101DD0001377070C630FD70403D787001377071017
:101DE0001DC703D7870083D787007D8B09EB93F747
:101DF0000720A1C73755E80113050580828037C544
:101E00009812FD8B130505E03345F502828003D758
:101E1000870083D7870013770720FD8B11C73755BD
:101E2000E80113050580CDB73725F40013050540FB
:101E3000E1BF2165130505D082803725F400130525
:101E4000054082803285814737370040A14663C311
:101E5000A70082800346B700E30ED6FE3386F50066
:101E60000346060085072304C700D5B797F6FF1F72
:101E7000938646D6AA878842138781BDAA9763E9CD
:101E8000E7000A87130707FC6364F7009CC282809F
:101E90007D558280411122C406C62A8425372947F0
:101EA000B307E502B2408D83B3D78702224495077A
:101EB000B3D7E70237370040B3C707082316F70048
:101EC00041018280716541111305052006C6D9378D
:101ED000B7370040130770F82381E7000D47A3814F
:101EE000E70013070004A380E70005472387E70006
:101EF000B240410182805D7122D406D62A842EDA56
:101F000032DC36DEBAC0BEC2C2C4C6C617F5FF1F79
:101F1000032585CC11C51C4D81E72AC6AD2D324560
:101F20000C455418228636CEEF00B034B2502254FD
:101F300061618280AA8517F5FF1F0325E5C911CDD0
:101F40001C4D81EF011106CE2EC62AC4A9252245BB
:101F5000B245F2401045056119A01045F5BF411189
:101F600022C426C24AC006C62A89AE84328401C56C
:101F70001C4D91E30D25971700009387A76A631600
:101F8000F406032449007C50858B89EB8357C400F9
:101F900093F7072081E7284CEF0080771C44FD175A
:101FA0001CC463DA0700184C63C3E70693F7F40F09
:101FB0002947638EE7041C401387170018C023804D
:101FC000970093F4F40F7C50858B89EB8357C40002
:101FD00093F7072081E7284CEF00A073B24022441A
:101FE0000249268592444101828097170000938719
:101FF00067616315F4000324890071B79717000027
:102000009387475EE311F4F80324C900ADBFA685AA
:1020100022864A850D2AAA847DB7011126CA06CEDA
:1020200022CC4AC84EC652C4AA8419E11C4502906B
:102030001C4D2E89A5E785239C4C8044B5C397177A
:1020400000009387275E6310F406C0407C50858BA8
:1020500081EB8357C40093F7072099E3284C4D2D5B
:102060008357C400A18B99C31C48C5E7A285268568
:10207000592A45C1FD547C50858B81EB8357C400A0
:1020800093F7072099E3284C6925F24062444249BE
:10209000B249224A2685D24405618280004545B76F
:1020A0002685D52969BF971700009387A755631424
:1020B000F400804461BF971700009387A752E3178D
:1020C000F4F8C04461B71CC4050963C907021C4089
:1020D0001387170018C02380B7001C4483450900EC
:1020E000FD17F5F11CC463D907022286A945268590
:1020F0009928FD57E300F5F8A944B5BF184C63C40F
:10210000E700E39645FD228626853528E31735FD51
:1021100095B7FD59294AD1B71C401387170018C03D
:1021200029472380E700C9BFAA8517F5FF1F0325AC
:10213000A5AAE5B5AA8703C7070085076DFF338504
:10214000A7407D158280011122CC26CA4AC806CE3E
:102150004EC6AA842E89328401C51C4D91E32529DF
:10216000971700009387074C6318F402C0401C4C7B
:102170001CC48357C400A18B99C31C4895EFA2854A
:102180002685512015C97D59F2406244D244B24996
:102190004A854249056182809717000093878746E8
:1021A0006314F4008044E1B79717000093878743D6
:1021B000E31FF4FAC04465BF1C4808409379F90F47
:1021C0001379F90F1D8D5C486346F500A2852685BD
:1021D000B52455F91C440505FD171CC41C40138784
:1021E000170018C0238037015C486389A700835714
:1021F000C400858BD1DBA947E318F9F8A2852685B1
:10220000352C59D149B7411122C426C24AC006C64D
:1022100097F4FF1F83A4449C2A892E8489C49C4C74
:1022200099E326858D2E971700009387A73F6314A7
:10223000F402C0408317C40013F787002DEB13F797
:10224000070115EB25472320E90093E70704231630
:10225000F4007D5559A8971700009387A73A631497
:10226000F4008044C1BF971700009387A737E3139A
:10227000F4FCC044C1B7918B8DC74C5889C99307F2
:1022800044046384F5004A856923232A04028357A2
:10229000C4002322040093F7B7FD2316F4001C4862
:1022A0001CC08357C40093E787002316F4001C4822
:1022B00081EF8357C4001307002093F70728638535
:1022C000E700A2854A856D218317C40013F7170024
:1022D0001DC35848232404003307E04018CC184895
:1022E000014501E713F707082DF3B2402244924459
:1022F00002494101828013F72700814611E35448C7
:1023000014C4F1BF8397C500011122CC26CA06CEA2
:102310004AC84EC613F78700AA842E8469E7D841BD
:102320006345E000B8416358E008585449C703A921
:10233000040023A004000C5093D7C748B9CB7048C1
:102340008357C400918B99C75C401D8E5C5899C31C
:102350003C401D8E5C540C50814626858297FD576B
:10236000630DF5041C480567232204001CC0835735
:10237000C400F98F91C368C84C5823A0240185CDAF
:10238000930744046384F50026856121232A04020F
:102390001DA00146854626850297FD572A86E31132
:1023A000F5FA9C40D1DF75476385E700594763958F
:1023B000E70623A024010145BDA098408317C4006F
:1023C00001CFF5466305D700D9466319D7041C48E9
:1023D000232204001CC04DB718482322040093D7C1
:1023E000C74818C041BF83A90501E38609FC03A9BA
:1023F00005008D8B23A0350133093941014791E355
:10240000D84918C4E35920FB1C540C50CA864E8688
:10241000268582976340A0028317C40093E70704D0
:102420002316F4007D55F2406244D2444249B24939
:1024300005618280AA993309A940E9B79C494111F5
:1024400006C622C426C281EB8144B24022442685BE
:10245000924441018280AA842E8401C51C4D91E3DF
:102460001D2A971700009387E71B631DF402C040E5
:102470008317C400F1DB7850058B11E793F7072031
:1024800099E3284C71242685A285AD3D7C50AA8411
:10249000858BC5FF8357C40093F70720DDF7284CD1
:1024A0008D2C65B7971700009387C7156314F40048
:1024B00080447DBF971700009387C712E31AF4FA90
:1024C000C0447DB7411122C406C62A842316B50034
:1024D0002317C5002320050023220500232405001F
:1024E0002322050623280500232A0500232C0500A6
:1024F000214681451305C505EFE00FED9717000054
:10250000938787865CD0971700009387C7881CD471
:10251000971700009387E78C5CD497170000938788
:10252000878FB24000D01CD8224441018280970599
:1025300000009385E5F0BDA2411126C293078006F5
:102540009384F5FFB384F4024AC02E8922C406C6E0
:1025500093854407452E2A8401CD2320050023229C
:102560002501310508C4138684068145EFE0CFE5D7
:10257000B24022852244924402494101828013855F
:10258000C18679A21385C18669A21385018749A2F4
:1025900013850187BDAA411122C406C62A84F537D6
:1025A0001C4C89C72244B2404101DDB797070000A7
:1025B000938727F81CD42324040423260404232807
:1025C000040483A7C1816394870085471CCC2285BE
:1025D0003D2048C02285252008C422850D2048C4FE
:1025E000484001469145F93D08440546A545D93D79
:1025F00048440946C945F93585471CCC65B74111A2
:1026000026C24AC006C622C42A89953F83A4C18136
:102610009C4C99E326854137938484048044DC40B4
:10262000FD1763D607009C40BDC38440C5BF031798
:10263000C40039EBC17785075CC4130584052322E8
:102640000406F120813721462320040023240400BE
:102650002322040023280400232A0400232C04003E
:1026600081451305C405EFE02FD6232A0402232C4D
:1026700004022324040423260404B24022852244B5
:1026800092440249410182801304840651BF91455E
:102690004A855D3588C02A8449F9ED35B147232044
:1026A000F900E1BF797122D44AD04ECE52CC5AC83B
:1026B0005EC606D626D256CA2A892E8A13048504F7
:1026C0008149054BFD5B0444832A4400FD1A63D015
:1026D0000A0200406DF8B250225492540259624AE4
:1026E000D24A424BB24B4E85F2494561828083D734
:1026F000C400637BFB008397E40063877701A685B2
:102700004A85029AB3E9A90093848406C1B78280FE
:10271000828082805971A2D42E848395E500A6D24E
:10272000CAD086D6B284368963D305028357C400E3
:1027300093F7070895EB13070040B6502654232063
:10274000F90098C0065996540145656182803000B1
:10275000EF00A071E34C05FC3247BD67F98F797734
:10276000BA9793B71700C1BF814713070004F1B7A9
:1027700083D7C500797122D406D626D24AD04ECE50
:10278000898B2E8491CF930774041CC01CC8854785
:102790005CC8B250225492540259F2494561828079
:1027A00074003000AA84BD37A2492A892685CE85C7
:1027B000912A01ED8317C40013F7072079FBF19BE1
:1027C00093E727002316F4007DBF97070000938747
:1027D00047D69CD48357C40008C008C893E70708AD
:1027E0002316F400B247232A340189CF8315E4006D
:1027F0002685452501C98357C400F19B93E717003F
:102800002316F4008357C40033E527012316A400E0
:1028100049B7D1CD83A7C5FF011122CC06CE1384C1
:10282000C5FF63D307003E942AC6C92D138781874D
:102830001C43324581EB2322040000C36244F24072
:102840000561C9A5637DF4001040B306C40063961A
:10285000D7009443DC43B29614C05CC0F9BF3E87F6
:10286000DC4399C3E37DF4FE14433306D700631FB2
:1028700086001040B29614C33306D700E390C7FC1D
:102880009043DC43B29614C35CC34DBF6375C40070
:10289000B1471CC165B71040B306C4006396D700AA
:1028A0009443DC43B29614C05CC040C341BF8280F5
:1028B00041114AC0138941878327090022C426C2D7
:1028C00006C6AA842E8489E781458D292320A90084
:1028D000A2852685A5217D59631A25017D54B24024
:1028E000228522449244024941018280130435002A
:1028F0007198E30685FEB305A44026858121E31087
:1029000025FFE9BF011126CA93843500F1984AC812
:10291000A104B14706CE22CC4EC62A89B3F4F40AEC
:1029200063C4040063FDB400B1472320F9000145EE
:10293000F2406244D2444249B249056182807D2B13
:102940009389818783A709003E8431E4A6854A855F
:102950008537FD572A846316F50A03A40900A28768
:10296000C1EB8329040081454A85A299C12E639455
:10297000A9081C408D044A859D8CF198B147A1049B
:10298000B3F4F40AA6852D37FD576306F5061C40FF
:10299000A6971CC015A01440858E63C806042D4759
:1029A000637DD70204C0330794006396870223A097
:1029B000E9005C4014C35CC34A85A9231305B40035
:1029C0009307440061993307F540E303F5F63A9421
:1029D000898F1CC0B1BFD8C3E9BF58406395870039
:1029E00023A0E900D1BFD8C3C1BFA2874040B1BF77
:1029F0003E84DC43B5B7B1472320F9004A8519234B
:102A00003DB704C155BF1C46FD171CC663DA07005D
:102A1000184E63C5E700A9476394F5006FF0AFF265
:102A20001C422E851387170018C22380B7008280AE
:102A3000011122CC26CA4AC84EC652C406CE2A89E3
:102A4000AE893284B304D6007D5A631494000145E4
:102A500009A8834504004E864A8575370504E316A8
:102A600045FFF2406244D2444249B249224A0561DC
:102A70008280357122CD26CB4AC94EC706CF52C5BA
:102A800056C35AC1DEDEE2DCAA892E843289B684BE
:102A900001C51C4D91E3013697170000938787B855
:102AA0006319F40403A449007C50858B81EB8357A0
:102AB000C40093F7072099E3284C99398357C40041
:102AC000A18B99C31C48A5E3A2854E85EFF0AFF317
:102AD00039C97C50858BA1C37D55FA406A44DA44DC
:102AE0004A49BA492A4A9A4A0A4BF65B665C0D6122
:102AF0008280971700009387E7B06315F40003A462
:102B000089005DB7971700009387C7ADE31EF4F8FF
:102B100003A4C90051BF8357C40093F70720CDFF1A
:102B2000284CC53E55BF93070002A304F10293074A
:102B3000000302D22305F10226C6930B5002971A16
:102B40000000938A2AB0294BCA8483C7040099C322
:102B5000639B7709338C2441638D2401E2864A8686
:102B6000A2854E85F135FD57630DF5189257E29712
:102B70003ED283C7040063860718FD5713891400EB
:102B800002C802CE3ECA02CCA309010482D4834506
:102B9000090015465685B126C2479304190031E550
:102BA00013F7070109C713070002A309E10413F78C
:102BB000870009C71307B002A309E104834609008F
:102BC0001307A002638AE602F247CA8481462546BB
:102BD00003C7040093851400130707FD6374E6061A
:102BE00085C63ECE15A085048DB733055541B397F4
:102BF000A72826893EC861BF32479306470018437D
:102C000036C6634A07023ACE03C704009307E002C0
:102C1000631EF70403C714009307A002631AF702A8
:102C2000B2478904138747009C433AC67D57B3E7F0
:102C3000E70A3ECA25A83307E04093E727003ACECB
:102C40003EC8D9B7B3876703AE848546BA9749B7FC
:102C5000850402CA81468147254603C7040093853F
:102C60001400130707FD6374E606E1F683C504004C
:102C70000D46171500001305659DA52411CD971766
:102C800000009387A79C1D8DC247130700043317CC
:102C9000A700D98F85043EC883C5040019461715BF
:102CA00000001305E59A138914002304B102152CC2
:102CB00025CD9307000095E74247B24713770710E9
:102CC00009CF91073EC69257D2973ED2B5BDB38782
:102CD0006703AE848546BA9749B79D07E19BA10774
:102CE000D5B77800970600009386C6D422860C08D4
:102CF0004E8597000000E7000000FD572A8AE31484
:102D0000F5FC7C50858B89EB8357C40093F7072033
:102D100081E7284CEFF0FF9F8357C40093F7070427
:102D2000E39C07DA125555BB78009706000093869E
:102D300066D022860C084E85F92CC1B7411122C4F9
:102D40002A842E8523AE018606C6EFF02F92FD570A
:102D50006316F50083A7C18791C31CC0B24022440B
:102D600041018280411122C42E848395E50006C66C
:102D70002523634905007C48AA977CC8B2402244B9
:102D8000410182808357C4009397C7482316F400FB
:102D9000F5B783D7C500011122CC26CA4AC84EC652
:102DA00006CE93F70710AA842E843289B68991C77C
:102DB0008395E5008946014601228357C4008315A7
:102DC000E400F2409397C7482316F4006244CE868D
:102DD0004A86B24942492685D244056135A8411147
:102DE00022C42E848395E50006C6F9207D578357BB
:102DF000C400631AE5009397C7482316F400B24055
:102E00002244410182809397C72868C82316F400A2
:102E1000FDB78395E5003DA0411122C42A842E858B
:102E2000B285368623AE018606C6EFF0AF81FD5728
:102E30006316F50083A7C18791C31CC0B24022442A
:102E400041018280411122C42A842E8523AE01864D
:102E500006C68529FD576316F50083A7C18791C370
:102E60001CC0B240224441018280411122C42A8404
:102E70002E85B28523AE018606C69129FD576316BD
:102E8000F50083A7C18791C31CC0B2402244410111
:102E90008280411122C42A842E8523AE018606C673
:102EA0002D29FD576316F50083A7C18791C31CC068
:102EB000B240224441018280411122C42A842E85DD
:102EC000B285368623AE018606C63129FD576316C4
:102ED000F50083A7C18791C31CC0B24022444101C1
:102EE000828093F5F50F2A966314C5000145828010
:102EF00083470500E38DB7FE0505FDB71385818681
:102F00006FF01F81138581866FF0BF80797156CA7B
:102F10009C49BA8A984522D44AD04ECE52CC06D685
:102F200026D25AC85EC6B3E7E70A1CC203C73504F7
:102F3000AA892E843289368A19C385071CC21C408F
:102F400093F7070291C78327090089072320F90017
:102F50000440998891E8130B9401FD5B5C440327BE
:102F60000900998F63CCF40483473404B336F0002E
:102F70001C4093F70702A5EB13063404D2854E8557
:102F8000829AFD576303F5041C4011478144998BD5
:102F90006399E7008327090044449D8C8147B3E48B
:102FA000F40A1C4418486354F700998FBE940149F1
:102FB00069047D5B63982405014509A885465A8606
:102FC000D2854E85829A631E75017D55B25022547A
:102FD00092540259F249624AD24A424BB24B45617D
:102FE00082808504A5BF3307D40013060003A30124
:102FF000C7040347540493871600A2978906A38148
:10300000E7049DBF85462286D2854E85829AE30ECF
:1030100065FB050945B7797122D44AD04ECE52CC12
:1030200006D626D256CA5AC803C885019307800718
:103030002A892E84B289368A63E207039307200621
:103040009386350463E107036300081E9307800538
:103050001706000013064660630AF814930424045C
:103060002301040515A89307D8F993F7F70F5546E0
:10307000E366F6FE1706000013068660B3C7C72096
:103080009C43B29782871C43938425049386470010
:103090009C4314C32381F50485474DAA90411C43EA
:1030A000137506089385470039C19C430CC35840EB
:1030B00063D207149305D002A301B40418C463506B
:1030C0000704B307F040170600001306E658294826
:1030D000B68433F70703FD143297034707002380B4
:1030E000E4003E87B3D70703E37507FF8DA09C4339
:1030F000137506040CC345DD939757604DBF6D9A59
:1031000010C0C1B790411C43137506089385470052
:1031100001C50CC39C4339A0137606040CC37DDAA9
:1031200083D707001307F006170600001306C652E0
:103130006310E80C2148A3010404584018C4E34973
:1031400007F80C40ED990CC0C1F7B68451F3A147C4
:10315000631EF8001C40858B91CB58401C4863C708
:10316000E70093070003A38FF4FEFD14858E14C8B7
:103170005287CE867000A2854A85493BFD5A631B63
:10318000550D7D55B250225492540259F249624A6B
:10319000D24A424B456182809C4193E707029CC121
:1031A00013088007170600001306464CA302040507
:1031B0000C401C4313F805081385470063050800FD
:1031C00008C39C4301A813F8050408C3E30B08FED9
:1031D00083D7070013F7150001C793E505020CC05C
:1031E00099C3414889BF18401377F7FD18C0D5BF70
:1031F000294891B71706000013060646294835BF2F
:1032000090411C43CC491378060813854700630698
:10321000080008C39C438CC301A808C313760604A6
:103220009C4375DA2390B70023280400B68489B73D
:103230001C43D04181459386470014C384432685AF
:103240004D3101C5B30795405CC05C401CC8A3016B
:10325000040439BF14482686CE854A85029AE302C3
:1032600055F31C40898B85E74844B2473365F50A1E
:1032700011BF85465686CE854A85029AE30365F1DD
:1032800085045C443247998FE3C5F4FEF1BF814465
:10329000930A94017D5BF5B7411122C42A842E85DF
:1032A000B285368623AE018606C6A120FD57631679
:1032B000F50083A7C18791C31CC0B24022444101DD
:1032C00082809307800523AEF1867D558280930727
:1032D000800523AEF1867D5582809307800523AE5D
:1032E000F186014582809307800523AEF1867D55E6
:1032F00082809307800523AEF1867D558280000091
:1033000043483334312073657420706172613A250B
:103310006420256420256420627265616B3A253043
:1033200032780D0A000000006D6F64656D207365D2
:10333000743A253032780D0A000000007573625F20
:103340007265630025303278202000004348333412
:103350003120736574206270733A25640D0A000091
:103360007374722025640D0A000000005345545FF9
:10337000414444524553533A25640D0A000000006D
:103380004745545F434F4E46494755524154494F74
:103390004E0D00005345545F434F4E46494755522A
:1033A0004154494F4E0D0000434C4541525F464544
:1033B00041545552450D00004745545F494E544510
:1033C00052464143450D00004745545F5354415414
:1033D00055530D005345545F4C494E455F434F4490
:1033E000494E470D000000002530327820000000D3
:1033F0000D00000063746C202530327820253032B7
:10340000780D0A0043444320526571436F6465257B
:10341000780D0A004745545F4C494E455F434F4481
:10342000494E473A25640D0A000000004745545FA5
:1034300053455249414C5F53544154453A25640D1C
:103440000A0000004C494E455F434F44494E472017
:1034500025642025642025642025642025640D0A28
:103460000000000082E4FFFFC4DAFFFF48DAFFFF3C
:10347000C8D9FFFFC0D9FFFF2ED9FFFF2ED9FFFF0C
:103480002ED9FFFF2ED9FFFF2ED9FFFF2ED9FFFF28
:103490002ED9FFFF2ED9FFFF2ED9FFFF2ED9FFFF18
:1034A0002ED9FFFFCCDAFFFF04E3FFFF6AE1FFFF45
:1034B00018E2FFFF18E2FFFF18E2FFFFFCE0FFFF4A
:1034C000BEDEFFFF18E2FFFF26E1FFFF44E1FFFF42
:1034D000F2E2FFFF737461727400000055534232D0
:1034E0002E3020546F2053657269616C20506F72CA
:1034F0007400000057434834353435343554533262
:1035000000000000555342322E3020546F20536586
:103510007269616C20506F7274000000574348312B
:103520003231323132545331000000000902270099
:1035300001010080300904000003FF0102000705BB
:103540008202200000070502022000000705810317
:103550000800010012011001FF000240861A2375C5
:1035600000310102030100000A060002FF00FF40D3
:10357000010000000902430002010080300904003C
:1035800000010202010005240010010424020205CA
:103590002406000105240101000705840308000139
:1035A00009040100020A00000007050102400000B2
:1035B00007058102400000001201100102000040D6
:1035C000861A4080003001020301000072E7FFFF0D
:1035D0008AE7FFFFAEE7FFFFB8E7FFFFCEE7FFFF99
:1035E00000000000000000000000000000000000DB
:1035F00000000000000000000000000000000000CB
:1036000000000000000000000000000000000000BA
:1036100000000000000000000000000000000000AA
:10362000000000000000000000000000000000009A
:10363000000000000000000000000000000000008A
:10364000232D302B20000000686C4C006566674518
:10365000464700003031323334353637383941424D
:1036600043444546000000003031323334353637AC
:103670003839616263646566000000000AFAFFFF82
:1036800020FAFFFFE0F9FFFFE0F9FFFFE0F9FFFF9D
:10369000E0F9FFFF20FAFFFFE0F9FFFFE0F9FFFF8D
:1036A000E0F9FFFFE0F9FFFF84FBFFFF88FAFFFF6F
:1036B0001CFBFFFFE0F9FFFFE0F9FFFFB4FBFFFF9A
:1036C000E0F9FFFF88FAFFFFE0F9FFFFE0F9FFFFF5
:0436D00024FBFFFFD9
:1036D400000000002036000000360000E035000045
:1036E40000000000000000000000000000000000D6
:1036F40000000000000000000000000000000000C6
:1037040000000000000000000000000000000000B5
:1037140000000000000000000000000000000000A5
:103724000000000000000000000000000000000095
:1037340000000000A80F00206C0B00207763682EA7
:10374400636E00007763682E636E0000040309044F
:043754006C0B0020DA
:00000001FF
