:040000006F00101766
:100004000000000000000000A0000020D804002030
:10001400A9BDF9F3A00000200000000000000000CA
:10002400A0000020A000002000000000000000004C
:10003400A000002000000000A0000020000000003C
:10004400A0000020A0000020A0000020A0000020AC
:10005400A0000020A0000020A0000020000000005C
:10006400A0000020A0000020A0000020A00000208C
:10007400A0000020A0000020A0000020A00000207C
:10008400A0000020A0000020A0000020A00000206C
:10009400A0000020A0000020A0000020A00000205C
:1000A40001A0B7170040984B41111367070198CB83
:1000B40003C707011377E70F2388E70013078008B6
:1000C40073370780137787083AC60F1000001307A9
:1000D40070052380E704130780FA2380E7040F10D8
:1000E4000000B847B70600069506558FB8C703C782
:1000F400B7041377F70DA385E70403C7A7001367B5
:1001040027012385E700130750142394E7003727BA
:1001140000408346578093F6F60EA302D7808946A3
:10012400A303D78003C7E7041377C70F1367170028
:100134002387E70403C7F70213672700A387E702AF
:1001440003C70701136717002388E7002380070408
:10015400B247F3A707800F10000041018280EFF03F
:100164005FF413058020970500009385E5091706C1
:1001740000001306E67F63FAC5008322050023A06E
:10018400550011059105E3EAC5FE174500E0130586
:10019400656A970500009385A57D1386418363FAFC
:1001A400C5008322050023A0550011059105E3EA4B
:1001B400C5FE13854183938501C46377B50023206D
:1001C40005001105E36DB5FE93025002739002BC65
:1001D4008D42739042808542739012BC93028008D2
:1001E40073900230970200009382C2E193E23200DE
:1001F40073905230970200E09382C27F739012345E
:040204007300203033
:1002080093878183984309C79C43829723AC0182D3
:1002180073002030B7F70700DC53411123AAF1829D
:10022800B7170040984B1367070198CB03C707011E
:100238001377E70F2388E7001307800873370780D1
:10024800137787083AC60F1000001307700523803C
:10025800E704130780FA2380E7040F100000130750
:10026800000C6319E50203D787001367070C239472
:10027800E700B717004003C7070113671700238873
:10028800E70023800704B247F3A707800F10000098
:100298004101828003C7A70093760520C9C2118B4C
:1002A80039E703C7E70403C6E7041377F70F1366B4
:1002B80036002387C70403C6A700136646002385B4
:1002C800C70003D6870083D587003346060893E521
:1002D800050C2394B700A5470100FD1793F7F70F06
:1002E800E5FFB71700402394C7002387E7049377F7
:1002F8000510DDCB371700408347A70093E70701B8
:100308002305F7009377F50185E3B727004003C776
:10031800578013670701A382E7801D4715A013675D
:1003280027002385E700E1B72547636BF704B72764
:10033800004003C757801377F70EA382E78005476D
:10034800A383E78033450508B71700401367050CFA
:100358002394E7002394A700C9C203C7570483C6A0
:100368005704418B858A558F09F703C72701418BAD
:1003780009D303C7A7001377D70F2385E700D5BD97
:100388009377050199EBB727004003C75780137788
:10039800F70EA382E780094765B7B727004003C770
:1003A80057801377F70E85BF9377850181EFB727BD
:1003B800004003C757801377F70EA382E78013071F
:1003C8001005BDBFB727004003C757801377F70E46
:1003D800A382E78013077005A5B703C7A7001377A3
:1003E800B70F61BF37E700E01C4354437D56A18334
:1003F800E206D58F9306071890C2D0C217060000F0
:10040800130646E097060000938686BF8C5E90DE52
:1004180023ACA18211661305071010C1130707202A
:100428001388818310C30327080075FF37E700E0AE
:1004380011662320C7180F1000008CDE93968700E2
:100448002320D710E1832322F710828001118146EF
:1004580001468145114506CEDD2A93078008F3B78A
:10046800078093F787083EC60F100000B7170040B3
:10047800130770052380E704130780FA2380E70435
:100488000F10000003C76704136717002383E704EE
:1004980023800704B247F3A707800F100000F2403B
:1004A8000561828037E700E01C435443A183E206DC
:1004B800D58F1CC1FD572320F7182322F7188280F7
:1004C80013178500B7E700E023A0E710618123A296
:1004D800A710828041118146014681451145852A30
:1004E80013078008F337078093F787083EC40F1077
:1004F8000000B7170040130670052380C704930651
:1005080080FA2380D7040F100000FD552396B70208
:1005180023800704A245F3A505800F100000733758
:100528000780137787083AC60F1000002380C70496
:100538002380D7040F10000003C767041367170050
:100548002383E70423800704B247F3A707800F102B
:10055800000001A09307E0043305F50295473355E1
:10056800F50201007D1575FD8280411122C406C681
:100578002A841305803E7D14F13F3344040875F83E
:10058800B2402244410182802E96AA870F70B67825
:1005980082802303048015472303E480010023029B
:1005A800A480828083076480E3CE07FE230304804F
:1005B800828083076480E3CE07FE034544808280FF
:1005C80083076480E3CE07FE2302A4808280411162
:1005D80026C44AC24EC006C61377F50BAD47AA8992
:1005E8002E8995446306F70019456537653F8D44A4
:1005F8004E854537FD59FD1463983401B240A24435
:100608001249824941018280135509011375F50F7A
:10061800453F2209CDB7011126CC06CEB704080004
:1006280051371545BD37713769372AC6A53F324559
:100638009377150089EB136515001375F50FF240D4
:10064800E24405618280FD14E9FC0145CDBF3971A2
:10065800B7F7070006DE26DC4ADA4ED852D656D45B
:100668005AD25ED062CE03AB47027D57B7E700E0AF
:1006780083AA070022C603AA470023A0E71823A2DB
:10068800E718B71B0040930770052380FB04930706
:1006980080FA2380FB0483C74B041147AA8993E798
:1006A800070E2382FB04372400401305F00F2303B1
:1006B800E4802E8C3289B684E93DED35938779FF45
:1006C80093F7F70F0947137BFB006362F712A14703
:1006D800370708006307FB00B70707003E9C37870A
:1006E80007007955637EEC02B3878401636AF702D9
:1006F800A9476398F90689E481446D3526850DA0DC
:10070800E2850945E93505090345F9FFFD14050C9E
:10071800453D81C49377FC0FFDF7F53D69FD7D5597
:10072800B7170040130770052380E704130780FA02
:100738002380E70403C74704418B2382E704F25070
:10074800B7E700E023A0571123A24711E25432442F
:100758005259C259325AA25A125B825B724C2161B9
:100768008280A547639AF906A1478569631DFB0244
:100778009387F9FFB3869700B374FC00B69493C7C8
:10078800F7FFFD8C33FC8701416B856B9387F9FF7D
:10079800B3F7870199E363FF340193D94900C1474F
:1007A800E3E637FF91BF9307F00FE9B78567C169A3
:1007B800FD17C9B71305800D638869011305000289
:1007C8006384790113051008E2851135A93521D90B
:1007D8004E9CB3843441C1B7E2852D45CD3BCA94C4
:1007E800E30C99F00509F133A30FA9FED5BF938750
:1007F800F9FF93F7F70F636FF70AA1476319FB0631
:10080800B70708003E9C83C75B043707070093F7C8
:10081800070299E337870700B70708003E9779551D
:10082800E370ECF0B3079C00E36CF7EE8947639A3A
:10083800F9048980D549E38104ECE2850945413B07
:1008480011090327C9FF91472320E4800307648027
:10085800E34E07FE23033481FD17EDFBFD14110C55
:1008680081C49377FC0FE9FF7D3371F54DBD83C7D4
:100878005B043707070093F70702D5F337870700AC
:1008880079BF8547E384F9F2E2852D458933938959
:10089800F4FFE38304E6313B93F7390091EB8326B9
:1008A80004800327090093074900E398E6E43E899A
:1008B800CE84F1BFB5476396F9001305900BD13983
:1008C80025BDB1471305B00AE38BF9FE9947639438
:1008D800F904A1476315FB00B70708003E9CE285B1
:1008E8002D45F53181440D4BA149E13163966401F1
:1008F800832704802320F9008504E39834FF8327A5
:10090800048013172C01635507002312F900EDB377
:100918002322F900D5B39D476399F9028145130550
:10092800B0047531BD442320090023220900FD5974
:10093800493193F77400CA9703C70700FD14398D2E
:100948002380A700E39634FF45BB91476399F900DC
:10095800130560063D39B931130590098DB7E38D4C
:0809680009D8F15459BB00004D
:10097000971100209381018617F1012013018168EE
:100980001305400097F5FF1F9385C56717060020E4
:100990001306868763FAC5008322050023A055004D
:1009A00011059105E3EAC5FE17F5FF1F1305657BE9
:1009B00002852A8309CA83830500230073007D16FC
:1009C000050385056DFA82802A8311C62300B300D2
:1009D0007D16050365FE828019C94111AA85174558
:1009E00000001305A5B606C6EF20007201A08280A4
:1009F0005D71114586C6A2C4A6C252DC56DA5AD829
:100A00005ED662D4CAC04EDE66D26AD06ECE4521B2
:100A10001305503497000020E780408037140040D1
:100A200011679307840B98C3C1450545912B8545F4
:100A30002165F1218D451165D921AD25834514042A
:100A400017450000130505B28964EF20E06B93871A
:100A5000018A23A0F1849387018623AEF182EF00FF
:100A60001047C52617450000130545B123820184B0
:100A7000054BEF20900C138A4184938AC1BE974B9B
:100A80000000938BABAD138CC1BF93840471378787
:100A9000004083476700858B8DE783470A00638B9F
:100AA00007121305800C2382018497000020E78041
:100AB00040ACEF00104809CD17450000130505B9FB
:100AC000FDA823036701212DD547E318F5FCD1BF0D
:100AD00017450000130585ABEF20300691472380B2
:100AE000FA00294417450000130585ACEF20F004F7
:100AF000EF101004AA8509CD2AC67D141305200322
:100B000097000020E780E0A61374F40FB24579F84F
:100B100003C70A00914763F9E70A17450000130568
:100B200025AAEF209001974500009385E5A913853C
:100B300001AEEF205001EF20A0009307300B5E893B
:100B4000631CF50017450000130505A9EF20E07EA2
:100B5000174900001309C9A0CA85174500001305ED
:100B6000E5A9EF20605A0144938901AEFD5C130DA5
:100B70002004930D3004CA854E85EF20C07C4E853D
:100B8000EF20807D4E952300950123208C00EF10EF
:100B9000307B6300A5036317B503A285138601AEFE
:100BA00017450000130585A60504EF20E055E31462
:100BB00094FCEF20004B174500001305A5A6EF207D
:100BC000C07709A8113DF5B717450000130545A6E4
:100BD000EF2080531305400697000020E7806099BE
:100BE0000545AD2B6DB56F00301D797122D426D22D
:100BF0004AD04ECE52CC56CA5AC85EC662C466C2ED
:100C00006AC006D6AA842E89814C138401869389F2
:100C100011C3130C00F8138AC1C1A94A130B800237
:100C2000938B81BE138D41BF83C709004A8523067C
:100C30008401B397F40013D787002304F400A304BE
:100C4000E40013D70701E183A305F40083470A00FA
:100C50002305E40023075401A306F400238801863A
:100C600083A70B00A3076401A30B940013D787018C
:100C7000A308E40013D707012309E40013D7870072
:100C8000230AF400A309E400A38A0186238B0186CA
:100C9000238C0186EF00906083470D0013F5F70F5A
:100CA00089CF6685EF10802B2300AD0083470D00B0
:100CB0009DC303450D001375F50FB2502254925495
:100CC0000259F249624AD24A424BB24B224C924CF0
:100CD000024D45618280850C93FCFC0F8D47E395A6
:100CE000FCF4FD472300FD007D45C1BF397122DCC6
:100CF00026DA4AD84ED652D456D25AD05ECE62CCDC
:100D000066CA6EC606DE6AC8AA842E89814C138420
:100D10000186138A11C3938AC1C1294C130BA00207
:100D2000938B81BE938D41BF8D4983470A004A85CD
:100D300023078401B397F40013D787002304F4003A
:100D4000A304E40013D70701E183A305F40023867D
:100D5000018683C70A002305E400A3076401A306F4
:100D6000F4002388018683A70B00A30B940013D7FC
:100D70008701A308E40013D707012309E40013D770
:100D80008700230AF400A309E400A38A0186238BC9
:100D90000186238C0186EF00705083C70D0013FD80
:100DA000F70F9DE71305800C97F0FF1FE780007B8E
:100DB000F2506254D2544259B259225A925A025BAA
:100DC000F24B624CD24CB24D6A85424D2161828019
:100DD0006685EF10A0182380AD0083C70D0091C772
:100DE00003CD0D00137DFD0FE1B7850C93FCFC0FC7
:100DF000E39D3CF3FD472380FD007D4D55BF3787C4
:100E0000004083473700094693F7F707A301F7002F
:100E1000834757000347370093F7F70F9376F70F91
:100E2000631BC70013F7170019C7918B99C323865B
:100E3000D1BE0145828085472386F1BE5945828017
:100E40008280411106C6EF0030453D479307F00F01
:100E5000637BA704970700209387C7C523AAF1BC2B
:100E600023AEF1BA238601BEA547A388F1C293073A
:100E700000202390F1C023A801C093070004239B06
:100E8000F1C0B78700401387C70123A8E1BC1387CF
:100E9000870123ACE1C21387C702A10723A8E1BAE7
:100EA00023AEF1BC8147B2403E85410182803717B5
:100EB00000408347E70412054111BD8BC98F93F7AA
:100EC000F70F93068008F3B6068093F6860836C6B9
:100ED0000F100000930670052300D704930680FAD4
:100EE0002300D7040F1000002307F7042300070492
:100EF000B247F3A707800F1000004101828091479D
:100F000063ECB7049737000093874776B3C5F520A5
:100F100098413E97B71700409387470B0287944349
:100F200037170040B3F6A64094C39306070B9C42C4
:100F3000B3F7A74019A8944337170040B3F6A6406B
:100F400094C39306070B9C42C98F9CC29307070A60
:100F500098433377A74098C3828094433717004063
:100F6000C98ED9B798433377A74098C3B7170040C5
:100F70009387070A9843498FF9BF9843498FF5B77C
:100F800009C93717004083578701CD8F231CF7000D
:100F90008280B717004003D78701B375B740239C01
:100FA000B7008280B717004003D787009306000C74
:100FB0001377070C630FD70403D787001377071045
:100FC0001DC703D7870083D787007D8B09EB93F775
:100FD0000720A1C73755E80113050580828037C572
:100FE0009812FD8B130505E03345F502828003D787
:100FF000870083D7870013770720FD8B11C73755EC
:10100000E80113050580CDB73725F4001305054029
:10101000E1BF2165130505D082803725F400130553
:10102000054082803285814737370040A14663C33F
:10103000A70082800346B700E30ED6FE3386F50094
:101040000346060085072304C700D5B7970600208E
:1010500093864698AA878842138701C4AA9763E9B2
:10106000E7000A87130707FC6364F7009CC28280CD
:101070007D558280411122C406C62A84253729471E
:10108000B307E502B2408D83B3D7870222449507A8
:10109000B3D7E70237370040B3C707082316F70076
:1010A00041018280716541111305052006C6D937BB
:1010B000B7370040130770F82381E7000D47A3817D
:1010C000E70013070004A380E70005472387E70034
:1010D000B2404101828085472386F1BE8280411162
:1010E00006C637870040034557009387C1BE058970
:1010F0001DC903C6070085466307D60003471700CE
:101100000145058B11EF05472380E70017350000E7
:101110001305055709472380E700EF2000225545B6
:10112000B2404101828083C607000547E37AD7FEBB
:1011300017350000130585552380E700EF20E01FD9
:101140005945F9BF37870040834737001375F507C6
:1011500093F70708C98FA301F700828082804111AD
:10116000A147014506C622C4A382F184378400400A
:10117000D13F834714003D4593F7E70FA300F400E8
:101180008347140093F7970F93E72700A300F40019
:1011900097F0FF1FE780E03D834714001305A00F81
:1011A00093F7D70FA300F40097F0FF1FE780003BF1
:1011B00085472303F400B24022444101828003C7E3
:1011C000C1BE854763E5E70089472386F1BEB7873F
:1011D000004003C757005945058B01CB03C71700D3
:1011E000014513671700A380E7008280397122DC74
:1011F00026DA4AD84ED652D456D25AD05ECE62CCD7
:1012000066CA6AC86EC606DEB78700402387B70283
:1012100037890040AA8932842385B702935A450052
:101220008144930B6900094C894C054A554D138B39
:10123000C1BEFD5D2304390323809B0113070032E7
:1012400083C60B00898A89E67D17334707086DFB43
:101250002304090203C70B00098B3DCF03C70B0012
:10126000058B15C723804B019D3D6314A501238287
:10127000418503470B00630E470B03470B00630CCC
:10128000870B1305800C97F0FF1FE780202D03C705
:101290000B00098B41CF034779001377070451EF07
:1012A0000345790039473D89630BE5082947631DEC
:1012B000E50049C87D576303E4007D143D4597F080
:1012C000FF1FE780A029BDB72547638CEA02354799
:1012D0006385EA0263834A031305E00FF250625408
:1012E000D2544259B259225A925A025BF24B624C82
:1012F000D24C424DB24D2161828019C9136505025D
:10130000F1BF0567130797803357A700058B7DD77B
:101310003D4597F0FF1FE7806024850493F4F40FA8
:101320008D47E399F4F0130500024DBF2380BB0104
:10133000C5B7594565B7554555B7014545B7130577
:10134000E00269BF1305A00251BF011126CA4AC8B5
:10135000AE842A891305800C06CE22CC4EC652C418
:1013600056C25AC097F0FF1FE780401F99C02380E4
:10137000040037840040A147096A2306F4021306DB
:101380000A7181451305000D9535631E05169307F7
:1013900000FD2307F4022305F40285472306F40227
:1013A000938AC18383A70A00173500001305C52E51
:1013B00003C4770003C767002204598CA285EF108D
:1013C000B05463000410630E090E83A70A0017359A
:1013D00000001305652D83C50700EF10F05283A7A9
:1013E0000A008387070063C90706138B5184B789F6
:1013F0000040130A0A711305800C97F0FF1FE78065
:10140000E01583470B006374F4009377F40F238691
:10141000F902814703C7C9026395E71283C5E90250
:1014200052864145E13365E183C7C902B307F44001
:1014300033C4070881C883C7C90203C70400BA9729
:101440002380F4004DF883C5040017350000130510
:10145000E526EF10704BB5A0B7890040130A0A715A
:10146000938A0184138B51841305800C97F0FF1F1E
:10147000E780C00E83C5A902528613050009BD335B
:1014800059E103C789009377F40F6376870083C718
:10149000890093F7F70F1D8C3344040891C403C7E8
:1014A00004003E972380E40001479376F70F63968C
:1014B000D7063E9983C78900A5EFB78700402386EA
:1014C00007021305800C97F0FF1FE7802009B787FC
:1014D000004083C7C702414599C313050009096647
:1014E000130606719305000C113311EDB787004008
:1014F00003C7C7021375F70F19C783C7870013F512
:10150000F70F91C35D45F2406244D2444249B2496B
:10151000224A924A024B0561828083A60A00BA964B
:1015200003C60600B306E90005072380C600B5BF61
:1015300083470B0003C78900FD17F98FBDFF0DF42A
:10154000ADBF03A70A008346090005093E9785073A
:101550002300D70093F7F70F75BD81479385C183AB
:10156000A1463307F5000346070098413E97230044
:10157000C7008507E397D7FE8280011122CC06CEF3
:10158000A14713858182138451842300F400F1372D
:101590009305F100138501B34D3B19E90347F100B1
:1015A00083C771B32300F400C54763E3E7005D45DB
:1015B000F24062440561828001111385018206CEEA
:1015C00022CC26CA593F9305F100138501B3B53BE0
:1015D0002A8425E10347F1008D475D4463FBE7045E
:1015E000938401B303C4340083C7240013850182AC
:1015F00022045D8CA30781008D3783A7C1832383D9
:101600008700A38307009305F10026853D3B2A84CC
:101610000DE10347F1009307000463F4E700A3071B
:10162000F1000346F100938501B313850186EFF0C5
:101630004FB8F24022856244D24405618280411154
:1016400026C2AA841385818106C622C4393783A79E
:10165000C18323819700A381070081450145F531AE
:101660002A8401E92685F93C294597F0FF1FE78088
:1016700040F0B240228522449244410182804111CF
:1016800022C42A841385018106C6C13D83A7C18374
:10169000238187002244B240A38107008145014590
:1016A000410165B1411122C42A8417F5FF1F1305BA
:1016B000E53206C65D3583A7C183238287002244B5
:1016C000B240A3820700814501454101BDB9B787FA
:1016D0000040130700F82380E70003C70700131733
:1016E0004760E35C07FEA3800700A38107001307A0
:1016F0008004A386E70003A7018498CF03A7C183D2
:10170000D8CF2385070223870702130790F8238089
:10171000E700130700042383E7027D572383E700D4
:1017200005472386E1BE0D472381E700238201841C
:101730008280011117350000130505F906CE22CC71
:1017400026CA4AC84EC652C4EF10303F093C8144F5
:10175000014413094006054597F0FF1FE78060E14B
:10176000B93C01E9850493F4F40F6366990E0544CE
:10177000DDB705041374F40FE31F24FDEFF0BF95EC
:1017800017350000130545F8EF10303B59445DA8AC
:10179000B387840083C5070052850504EF10D01677
:1017A0001374F40FE36624FF2945EF10D01983D793
:1017B000840003C9A1814A852392F90083D7A4003C
:1017C00003CA44002393F9009D3D2A8405E117359F
:1017D00000001305E5F0A3802901EF10F012E93BAA
:1017E0002A8417390000130929EF0DC9A28517357E
:1017F00000001305E5EFEF103011894705452386FA
:10180000F1BEEFF0BF953DA8B387840083C5070004
:101810004A850504EF10500F1374F40F83D724008A
:10182000E364F4FE2945EF1010121304B00F631B9C
:101830000A0003C7E400A1476316F7009147238617
:10184000F1BE0144F24022856244D2444249B24989
:10185000224A05618280938901B203C52900EFF015
:10186000FF8F173500001305A5ECEF10F009313399
:101870002A842DFD9387818203C9770003C76700FF
:10188000938401B322093369E900173A0000130A6F
:10189000AAE409BF4111094506C622C426C297F031
:1018A000FF1FE78000CD83C741BFA38FF1C2EFF0D8
:1018B0000FD5AA873DE503C7C1BE8D469307300803
:1018C00063F1E60683C6C1C3130610022380C186F6
:1018D0007D5693870186A380C18623810700A3815B
:1018E00007002382D700A382070023830700A38376
:1018F00007008145993C238AA1BE5947AA87630204
:10190000E50203C501BE3D89713B03C501C33D89A5
:1019100013650508413B83C7F1C3A38F01C2238A26
:10192000F1BEB240224492443E8541018280411181
:10193000054706C62386E1BEEFF06FCC19E113051B
:101940003008B24041018280411122C483A781BE88
:1019500003A741C206C601456384E70283A5C1BB54
:1019600003A741BD23A2F1C26308B7020545EFF00A
:10197000CFA7238AA1BE09E903C541BF1375F50F9F
:10198000B2402244410182807D5723AAE1C223A2B2
:10199000E1C2238001BCCDB7054523AAF1C2EFF017
:1019A000CFA4238AA1BE69D9C5B7411122C483A798
:1019B00081BE03A741C306C601456384E70283A530
:1019C00041BD03A7C1BB23AAF1C26308B702054505
:1019D000EFF0AFA1238AA1BE09E903C541BF13758A
:1019E000F50FB2402244410182807D5723AAE1C213
:1019F00023A2E1C2238001BCCDB7054523A2F1C2D9
:101A0000EFF0AF9E238AA1BE69D9C5B783A781BE77
:101A100083A5C1BB411103A741BD22C406C623A2B1
:101A2000F1C26305B7020545EFF04FAC238AA1BEB2
:101A300001C97D5723AAE1C223A2E1C2238001BCD0
:101A4000B240224403C541BF4101828023AAF1C2B2
:101A5000D9BF83A781BE83A541BD411103A7C1BBE7
:101A600022C406C623AAF1C26305B7020545EFF0FA
:101A7000EFA7238AA1BE01C97D5723AAE1C223A2F1
:101A8000E1C2238001BCB240224403C541BF4101F1
:101A9000828023A2F1C2D9BF41458280797126D2CA
:101AA0001307500556CA2380E18613073005A3802B
:101AB000E18683A701BB130720042381E186130776
:101AC000300422D44AD04ECE52CCA381E18606D631
:101AD0007D475AC85EC662C42390E7002A8483C546
:101AE000F1C303C501BE37060200EFF02FF0238AD1
:101AF000A1BE5947630FE514938B018615CD9387DB
:101B000001869384018898439107D8CFE39D97FE7F
:101B10005133DE879853910723AEE7FEE39C97FE8F
:101B200083C5F1C303C501BE37060200EFF00FEC19
:101B3000238AA1BE631B051683C49B0003C68B00CA
:101B400083C7AB0003C7F1C383C6BB00A204D18C1B
:101B5000C207C58F1347070493948601A38FE1C280
:101B6000DD8C638404108386CB0083D761C163D48A
:101B70000608138B018A91A000C383C5F1C303C576
:101B800001C337060200EFF06FE6238AA1BE631E91
:101B9000051403C7F1C383A6C1BD83D761C1134731
:101BA0000708A38FE1C283D6060063E1F4189D8C79
:101BB000639ED7143E94638B041403A781C3E3FD93
:101BC000F4FA2320670155BF23A088002390F60074
:101BD00083D761C19D8C3E94EFF04FE1238AA1BE73
:101BE0002DE103C7F1C313470704A38FE1C2638646
:101BF000040E83D761C103C801BEBA85370602004F
:101C000083A801BD83A601BB4285E3FFF4FA23A0AC
:101C1000780123909600814703460400B38677013C
:101C20008507C2072380C600C1830504E39697FE9B
:101C300037060200BA854285EFF04FDB238AA1BE4A
:101C400079C903A701BD9307E00223207701630F41
:101C5000F506B250225492540259F249624AD24ACD
:101C6000424BB24B224C4561828003C501C337060B
:101C70000200BA85EFF08FD7238AA1BE79F983C716
:101C8000F1C303A7C1BD93C707F8A38FF1C2FD47F6
:101C9000238AF1BE03570700B5476314F70203C553
:101CA000C18A29C1854763FEA7002254B2509254CD
:101CB0000259F249624AD24A424BB24B224C456128
:101CC000D1BE03C541BF1375F50F61B703C501BE92
:101CD0003D89EFF03F9D03C7F1C383A701BD23A05A
:101CE000770161B7238A01BEADB783A681C313070D
:101CF000E00223A06601E31EE5F403C501C33D89AC
:101D000013650508EFF01F9A03C7F1C383A781C3CA
:101D100023A0670199BF03C7F1C383A701BD134780
:101D20000704A38FE1C223A0770181B763E5D40242
:101D3000F1DE9387F6FFC207C1838507A2975A8712
:101D40008346070005040507A30FD4FEE39A87FE28
:101D500003C7F1C365BF93960401C182D9BF411186
:101D6000294506C697F0FF1FE780A08003C7C1C1C1
:101D700093870186A386E700C94619472384D700C5
:101D80002387E700930600F80D47A387E700A384A5
:101D90000700494723850700A38507002386D7004E
:101DA00013850188A389E70023880700A38807001B
:101DB00023890700238A0700A38A0700238B0700D3
:101DC000A38B0700238C0700D139154597E0FF1F2F
:101DD000E780207A83C741BF014593F7F70F81CF92
:101DE00003C541BFD9471375F50F6309F500D54702
:101DF000630CF5000145B24041018280054723860E
:101E0000E1BE23A801C0C5BF09472386E1BEE5B7EF
:101E10003971A54722DCA388F1C2BD472386F1BCF6
:101E200026DA4AD84ED652D456D25AD05ECE62CC9A
:101E300066CA6AC86EC606DE938D01869384C1BCED
:101E4000214B930A00F8130A5002A949854C4D4DC5
:101E500081A063FADC0A6308A70BA380E4000137C2
:101E600003C5C1BC03C7140072057D85137585F7D2
:101E70001305850C238AE1BE97E0FF1FE780606FA2
:101E800003C7C1BC7D171377F70F2386E1BC25CFAD
:101E900003C7C1C11385018823846D01A386ED00AA
:101EA000A3840D0023850D00A3850D0023865D010D
:101EB000A3874D0123880D00A3880D0023890D0001
:101EC000238A0D00A38A0D00238B0D00A38B0D0028
:101ED000238C0D0023873D01A3890D00C13603C764
:101EE00041BF1377F70F9306B7FE93F6F60F35F35E
:101EF00083C76D0211476382E70421476384E704C7
:101F000041476388E70403C711C38547B397E700D8
:101F1000C207C183F25062542390F1C003C514007C
:101F20004259D254B259225A925A025BF24B624C35
:101F3000D24C424DB24D21618280A38831C39307B8
:101F40000040C9BFAD47A388F1C28567938707806A
:101F5000D1B7B147A388F1C285676DBF411126C2D1
:101F6000AA84054506C622C497E0FF1FE78060608B
:101F7000854763F3970683C7C1BEC94693F7F70F3A
:101F80006388D700C14663F8F6002386D1BE21A03E
:101F900095472386F1BE83C741BF93F7F70FAD176F
:101FA00093F7F70F05476374F700553B05C10945E3
:101FB00097E0FF1FE780E05B03C541BFD94713757A
:101FC000F50F630CF502D5476303F504B2402244D4
:101FD000924401454101828083C741BF93F7F70FC7
:101FE000DDFC094597E0FF1FE780A05803C541BF0E
:101FF000D9471375F50FE318F5FCB24022440547A5
:102000002386E1BE23A801C0924441018280B240F0
:10201000224409472386E1BE9244410182803971FE
:102020006EC606DE22DC26DA4AD84ED652D456D206
:102030005AD05ECE62CC66CA6AC8EFE05FDCAA8D79
:1020400071E983C7C1BE0D476376F70E91472386BA
:10205000F1BEEFE05FB9238AA1BEAA8D45ED938C56
:10206000018683C6EC002147639DE60C03C6FC0095
:10207000238201C099466315D60085462382D1C0CC
:1020800003C77C0183C5BC0003C66C0183C6EC0199
:1020900003C8DC0103D361C12207A206238EB1C2AB
:1020A000518F238601BCB3E6060103C64C0183C5EC
:1020B000BC0103C801BE03CE01C3631067086206FA
:1020C00061861373F6006346060813680301014630
:1020D00005436390E6201397850161879376F700A7
:1020E000138BC1BC6346070809472386E1BCA300E4
:1020F000BB0013E806016311061A238001BF61A02B
:1021000083C641BF1306E0026300D62203C741BF66
:10211000937DF70FF25062546E85D2544259B259F2
:10212000225A925A025BF24B624CD24C424DB24D53
:1021300021618280930D3008F1BF1389C1BCA300D7
:10214000C900FD47238AF1BE03C741BF937DF70F46
:10215000D1B7136E030905460143E38EE6F6938774
:10216000C1BC2386C1BCA380B7002388C1C3D1BF33
:1021700093E606F909472386E1BCA300BB00238848
:10218000D1C2E31C03F603C55C00EFF04FCF238AF6
:10219000A1BEAA8D41F183C6C1C3130610FA03A5DF
:1021A00041BD2380C1867956A380C186854A938527
:1021B000D1BC238601BC23810C00A3810C002382A7
:1021C000DC00A3820C0023835C01A3830C00EFF0EE
:1021D000CF97238AA1BE0DF583461B006398560155
:1021E00083A641BD83C606002386D1BC154597E072
:1021F000FF1FE7800038FD5623AAD1C223A2D1C217
:1022000003A541BD238001BCA38F01C2238E01C061
:102210000146130C4002930B00F8194BC94A130AEC
:102220004002A386CC0023848C01A3840C00238568
:102230000C00A3850C0023867C0123876C01A387F7
:102240005C0123880C00A3880C0023890C00A3895F
:102250004C01238A0C00A38A0C00238B0C00A38B57
:102260000C00238C0C00EFF07F8383C641BF054632
:1022700093F6F60F8DE683C6C1BCB9C283C6C1C151
:10228000A1E203A541BD954783460500639AF60286
:102290008547238EF1C071B72388C1C3B9BD83C6FA
:1022A000C1BCA9C283C6C1C1894713861600137673
:1022B000F60F63E9D702238EC1C003A541BD95B7D0
:1022C00083C7C1BE8D4663F1F60495472386F1BEF0
:1022D00091B59387C1BC238661BCA380B7002380DE
:1022E00001BF85B56254238E01C0F250D2544259C9
:1022F000B259225A925A025BF24B624CD24C424D76
:10230000B24D0545216199B96254F250D2544259F7
:10231000B259225A925A025BF24B624CD24C424D55
:10232000B24D21616FF0AFE00145EFF0AFB77DBD79
:10233000411126C222C406C623A001AEEFE03FAC85
:102340002A8441E183C7C1BE11476372F7089387AE
:10235000018603C7C1C123840700A386E70019478C
:10236000A384070023850700A385070023860700B1
:102370002387E70013850188A387070023880700C8
:10238000A388070023890700A3890700238A070081
:10239000A38A0700238B0700A38B0700238C070069
:1023A000EFF0CFEF83C741BF93F7F70F99CB83C708
:1023B00041BF2386F1BCEFF09F9A03C4C1BC238ABE
:1023C00081BE2285B24022449244410182808139FB
:1023D00019C91305000497E0FF1FE78080198131B8
:1023E00019C12A84F9BFEFF0BFA205E593870186E2
:1023F00003C6170283C5070283C6270203C7370235
:1024000022064D8EC206D18E6207558F23A0E1AE03
:1024100089B703C441BF1374F40F65B783C7C1BE46
:10242000397106DE22DC26DA4AD84ED652D456D28C
:102430005AD05ECE62CC66CA6AC86EC61147637453
:10244000F73803A701C1FD5723AAF1C223A2F1C2A5
:10245000238001BCB7573412937607FF9387076731
:10246000638AF636938401BFA3800400238A01C0E7
:10247000A38E01C223AE01BE2D6A130A5AA5138D85
:10248000C1BC23A401BE930B900E930D0004EFF08A
:10249000CFD16314051283C6140003A641BD99E68B
:1024A0008347060093F7D70F638B77178357E61F91
:1024B0006398473183CE41C12388D1BF638FBE2F3C
:1024C0009387EE1BB29783C5A70003C7B70003C865
:1024D000870003C59700A301ED00238601BDA3007B
:1024E000AD002301BD0083A5C1BC83C747001547CC
:1024F00023A4B1BE2386F1BC6387E72A3D476384EA
:10250000E72A7687014F01433545054E1548BD48FA
:102510009DA083C7C1BCFD1793F7F70F930F070169
:102520009382F6FF6367F500637EDE0E93F6F20F8B
:10253000054F13F7FF0F9307E71BB2976306B70B1F
:1025400003C3A70083C5B70083CF970023016D00A5
:10255000A301BD00A300FD0183C5870083C7470019
:1025600005432386B1BC83A5C1BC2386F1BC638F20
:102570000701638D1701939F870193DF8F4193F7C5
:10258000F703E3D80FF82386F1BC71B723A4B1BEDB
:1025900063040F00A380D4002388E1BE83A7C1BFDA
:1025A00083C6D1C3BE9523A4B1BEE39206EE410714
:1025B000A38EE1C223AEB1BEF9B5EFF0AFADEFF03F
:1025C0003F85EFF08FBEE30805ECF2506254D25421
:1025D0004259B259225A925A025BF24B624CD24C87
:1025E000424DB24D216182806304030023A4B1BE39
:1025F00063040F00A380D40083C7D1C31307000472
:102600002388E1BE638B071A63990E1A03C714006F
:10261000238AF1C023AE01BEBD47E314F7E683A5CC
:1026200081BE05A06302031E23A4B1BE63040F0094
:10263000A380D4002388E1BE83A741C3BE9523A411
:10264000B1BE23A8B1C0EFF04FB641F183A541BDA3
:102650001307900E83C7050093F7D70F6390E71A0F
:1026600083C7D50013978701238AF1C0618763422E
:10267000071819478607238CE1BA93F7F70F01452E
:10268000194793968701E1861306F7FF860763C70C
:1026900006101377F60F93F7F70F05457DF385477F
:1026A000238C01BA238AF1C003D5650123ACA1BEF6
:1026B00001E5C85123ACA1BE83C7450103C635015E
:1026C000A207D18F23ACF1BC81E79C5123ACF1BCB4
:1026D00003C6250183C8150183D601C003C311C3F6
:1026E000220633661601958283D8E500B296FD1660
:1026F0001306B3FFB3D6C6403386160103CF0501D8
:102700002A9623A2D1BC23A211BF23A6C1BC89460D
:10271000630DDF0823AC01BE83A681BE918F33D742
:10272000E700369623A4C1C223A0E1C2C167D11736
:1027300063EBE704239D01C08567D11763EBE706D0
:102740000547A380E1BC6383080283A741BC99CFFE
:1027500085476305FF0083A781BF89CB03C5B5000B
:1027600011E503C7C500854763E5E70A83C7140081
:10277000C9EB8547A380F400238A01C0A38E01C260
:1027800023AE01BED5B9DC5503D6050323A2F1BCA7
:10279000239DC1C00D47A380E1BC75B7E30605F0DA
:1027A000238CE1BA11B77687D5BB2A9623A6C1BC84
:1027B000A5B70947A380E1BC79B71305200931B556
:1027C0001305100919B5EFF09F85E31005E0EFF050
:1027D0002FE485B93D8B938401BFA380E400238A55
:1027E00001C0A38E01C223AE01BEBD47E316F7C8E8
:1027F0003DB51D47238CE1BA1D477DB51305100A71
:10280000E9B31305300AD1B3E3080FE2A380D40083
:1028100025B583C7C1BEB69823A211BF1147637601
:10282000F700C1472386F1BE4DB36254F250D25433
:102830004259B259225A925A025BF24B624CD24C24
:10284000424DB24D21616FF08F8E01114AC883A7AE
:1028500041C226CA22CC06CE4EC623A4F1BEEFF05A
:10286000EF9A2A8411E583A781BF99EB238001BCED
:102870002285F2406244D2444249B24905618280D5
:1028800003A781BE83A5C1BBBA97054523A4F1BEAA
:10289000EFE0CFC503A781BE238AA1BE03A681BFF7
:1028A00083C741BF118F23A4E1BE93F7F70FDDDF8C
:1028B00003C441BFFD5723AAF1C223A2F1C2238062
:1028C00001BC1374F40F6DB7797152CC03C811BCFD
:1028D00022D426D24AD006D64ECE56CA5AC85EC692
:1028E00089472A89014403A741BB6300F8128D4739
:1028F000630BF81093571700137417003E9783D695
:1029000001C083C711C383A5C1BB03A641BEFD1689
:10291000F98EB357F70003A741C2AE96B29723A82A
:10292000D1BE23AAF1BA6382E70203C701BC09C77B
:10293000293F5DED83A741BB23A4F1BEEFF0CF801B
:1029400045E903C811BC83A601BF630F0900914785
:102950006308F9168547630FF90E83A781C023AA80
:10296000F1BA05472380E1BC238C01C0894763008D
:10297000F80A0D4783A741BB6301E80E03C50600B3
:1029800013F8F70F83D501C01377F50093184800AB
:1029900003A6C1BB336717019384C1BC918313772E
:1029A000F70FFD15A380F4002381A4002386E1BC6A
:1029B000B307B600638AF61083C71600A381F4003C
:1029C000631009086309040E83D724009183056707
:1029D0002391F4005917636CF70A03C781C123A63A
:1029E000F1BC3369E900631B090423A4F1C001456C
:1029F000B250225492540259F249624AD24A424B8E
:102A0000B24B456182800A07DDBD0607CDBD03D705
:102A1000060023A6E1BCC167D91763FDE70085471F
:102A2000238CF1C0630C090083A741BB01452390AF
:102A3000F6007DBFE31A09FE23A4E1C001454DBFA6
:102A400031CC2380E60083A701BF03C71400A38015
:102A5000E7009DBF23AA01BA29B7984237060010A4
:102A60001305F6FFB70500F0F98DE98FCD8F698F5B
:102A700023AAF1BA23A6E1BC5916637CE6060547F2
:102A8000238CE1C0E30C09FA9CC2014595B70547C8
:102A9000238CE1C023A6F1BC014599BF2380060128
:102AA00083C7340003C7140083A601BFC19B1183F1
:102AB000D98FA380F60083D72400D207D18301BF2A
:102AC000FD5723AAF1BA71BD6318090283C701BC7F
:102AD00085EB83A741C2850723A4F1BEEFE0DFE6C3
:102AE000E31805F083A7C1BB83C70700A381F400E7
:102AF000D1BDE31B09F889B711E042872380E600C6
:102B0000A933E31705EE83A741C2850723A4F1BECD
:102B1000EFE09FE3E31E05EC83A6C1BB03C70600FD
:102B2000A381E400E30009EA83C7140001E4419BA8
:102B30009183D98F2380F60005472380E1BC59B5E6
:102B40005D7156DA83C7C1BE86C6A2C4A6C2CAC01A
:102B50004EDE52DC5AD85ED662D466D26AD06ECED1
:102B60003D47637CF72C83C7C1BE3D47637DF710AB
:102B7000C1472386F1BE83C601AE238F01C263869F
:102B800006301307C0056387E6301307F00263833E
:102B9000E630138701AE034617009307A0036306D0
:102BA000F62A3EC483A681BC83A781C232C623A66F
:102BB000E1C21384C1BC638D061C83C581BB03C6FF
:102BC00041C11387E6FF3317B700BA97A38EC1C27E
:102BD00023A6F1C06302062423A4F1BEEFE0FFDCCC
:102BE0005DE583D701C0239101C06384072083A5DD
:102BF00041BD23A8B1BE83C70500B9CB930D500ECC
:102C00002D45930BC0056381B70315476394E70017
:102C10009307500E03A8C1C2834608006388F608D4
:102C20001307A0026384E60883D721C003D701C03D
:102C300093870702C207C1832391F1C063FBE71AA0
:102C400083A541BDBE9523A8B1BE83C70500C5FFBE
:102C500083A6C1C281471306A0029305C0051305D0
:102C6000F00239A0630EC7006303B7226301A722F5
:102C70003387F60003470700850793F7F70F7DF3C7
:102C80001305200429A0EFE09FCAE30605EEB64035
:102C9000264496440649F259625AD25A425BB25BC4
:102CA000225C925C025DF24D616182809D8E93B6E2
:102CB000160036872301D4003386D500B307E80019
:102CC00083C70700034606009308F0021303E002DF
:102CD000214E930E0002130F1700638EC702F9C72F
:102CE0006386770D6384170D639D670C6304C701CA
:102CF000631AD6152301E401A14603472400338655
:102D0000D50003460600B307E80083C70700130F8A
:102D10001700E396C7FC050785061377F70F230115
:102D2000E40093F6F60FE39AA6FC42978347070068
:102D3000A301F40083C7B500A18BE39707EE238CB2
:102D400001C083A701BFA24583D6A70103C611BC5A
:102D50000D4723A4D1BC6318E60003D747014207FF
:102D6000D98E23A4D1BC03473400630B072403C7C7
:102D700081C1631707240347240083A7C1C2050745
:102D8000BA9723A6F1C2B24783A781C2E39706E2AE
:102D900003A741BC9376F70F958F1377F70FA38E98
:102DA000E1C223A6F1C0E31907E25DB513070002F3
:102DB000631EE6021D47E36DD7F603C78500E309EE
:102DC000C7F6A301F4001307A002E39FE7E483C75B
:102DD000B500A18BE39A07E483A7C1BF63890714F9
:102DE00063C10712FD1723AEF1BE3DBDA301F40080
:102DF00025BD03C7D1C383A7C1C07D17850713773E
:102E0000F70F23A6F1C0A38EE1C2E31707DCA247A8
:102E100083A681BCE38E06E2014523AAD1BAEFF076
:102E2000BFAAE31605E683C781C1E39307E283A641
:102E3000C1BCA24723A4D1BCB9B7EFF02FDEE30495
:102E400005D2B1B5A3016400C5B393072004E3FA2A
:102E5000D7D4138731AE23A6E1C2938731AE89A0C0
:102E6000D84F23AEE1BE91E67D57A38EE1C223AEDB
:102E700001BE83C7C1BE3D476378F718D14723869B
:102E8000F1BE83C781C163990716014509B51305D2
:102E9000300BF5BB138711AE23A6E1C2938711AEA9
:102EA00083C611BC0D476384E60603C707003EC412
:102EB00036C623A401BC83A781C28146E31B07CE8B
:102EC00083A641BC03C611C3A24513F7F60F998F21
:102ED0003317C700094623A4C1BC238AD1C0B24618
:102EE00023A4F1C223AEE1BE894623A4D1C023AC02
:102EF00001BCA38E01C2C9472386F1BE130510048D
:102F000079B3EFD0FFF383A7C1BF2D45E1BD83A601
:102F100041BC83C707003AC423A4D1BC89C73EC6BD
:102F200083A781C279B17D5723AEE1BE7DBF2386E1
:102F300001BC83A7C1C20147130500022148154EF9
:102F400015539308E002AD451DA82300D60083C7A2
:102F5000C1BC83A6C1C299EB03C606006318C601B3
:102F60002380660083C7C1BC83A6C1C2850793F7CF
:102F7000F70F2386F1BCB6970507630DB70283A64A
:102F800001BF3E86BA9683C60600E387A6FEE31E0F
:102F900007FB2380170183C7C1BC83A601BF03A61B
:102FA000C1C2850793F7F70F2386F1BC83C686005D
:102FB0003E9661BF238007008547238CF1C051B343
:102FC00003C7B70023A4D1C023AC01BCA38E01C2A8
:102FD000418BE30707E883C7C1BEFD5623AED1BED0
:102FE0003D47637EF700CD472386F1BE83C781C18D
:102FF00013051004E38D07C81305300449B9EFE049
:103000001F93E31605C8DDB7EFE07F92E31105C813
:103010008DBD83C7C1BE238F01C24D476364F700D6
:103020000145828003A7C1C0411106C623A4E1BEA9
:10303000EFE0BF9709ED03D721C083A741BD01454C
:10304000BA9703C7B70023A8F1BE418B01C7B240AE
:103050004101828003A7C1BFB240D8CF41016FE0D8
:103060005F9F411122C483C7C1BE06C6454793F77F
:10307000F70F6371F7084947638AE70483C7C1BE46
:103080004D4793F7F70F6361F702238F01C283C7A0
:10309000C1BE3D476377F702C1472386F1BE0145B4
:1030A000B2402244410182805147638BE70483C7C9
:1030B000E1C3F1DFB93F6DF583C7C1BE3D47E36DA5
:1030C000F7FC2244B24041016FE07F8603C711BC88
:1030D0008D47E305F7FA83C581BB03A681C283C789
:1030E00041BC05473317B700B297238AE1C023A438
:1030F000F1C269B7B24022441305400B41018280FE
:1031000083C701AECDF751B75D7122D406D62A84AC
:103110002EDA32DC36DEBAC0BEC2C2C4C6C617E57D
:10312000FF1F0325658B11C51C4D81E72AC6792534
:1031300032450C455418228636CEEF005037B25037
:10314000225461618280AA8517E5FF1F0325C58887
:1031500011CD1C4D81EF011106CE2EC62AC4B92D0A
:103160002245B245F2401045056119A01045F5BF52
:10317000411122C426C24AC006C62A89AE843284BE
:1031800001C51C4D91E31D2D971700009387475FE4
:103190006316F406032449007C50858B89EB835722
:1031A000C40093F7072081E7284CEF00A0791C4466
:1031B000FD171CC463DA0700184C63C3E70693F7D6
:1031C000F40F2947638EE7041C401387170018C0CB
:1031D0002380970093F4F40F7C50858B89EB835701
:1031E000C40093F7072081E7284CEF00C075B24078
:1031F00022440249268592444101828097170000AB
:10320000938707566315F4000324890071B7971755
:1032100000009387E752E311F4F80324C900ADBF1F
:10322000A68522864A859122AA847DB7011126CAE5
:1032300006CE22CC4AC84EC652C4AA8419E11C4507
:1032400002901C4D2E89A5E7952B9C4C8044B5C35C
:10325000971700009387C7526310F406C0407C5054
:10326000858B81EB8357C40093F7072099E3284CA3
:10327000D12D8357C400A18B99C31C48C5E7A285F3
:103280002685652245C1FD547C50858B81EB835793
:10329000C40093F7072099E3284C7525F240624457
:1032A0004249B249224A2685D244056182800045BE
:1032B00045B72685212369BF971700009387474AA2
:1032C0006314F400804461BF971700009387474759
:1032D000E317F4F8C04461B71CC4050963C90702C9
:1032E0001C401387170018C02380B7001C44834577
:1032F0000900FD17F5F11CC463D907022286A94510
:103300002685A520FD57E300F5F8A944B5BF184C64
:1033100063C4E700E39645FD22862685B920E317BE
:1033200035FD95B7FD59294AD1B71C4013871700C1
:1033300018C029472380E700C9BFAA8517D5FF1FFA
:1033400003258569E5B5AA8703C7050085078505B7
:10335000A38FE7FE75FB8280AA8703C70700850756
:103360006DFF3385A7407D158280011122CC26CACE
:103370004AC806CE4EC6AA842E89328401C51C4D89
:1033800091E32D29971700009387873F6318F40274
:10339000C0401C4C1CC48357C400A18B99C31C485B
:1033A00095EFA2852685512015C97D59F2406244CA
:1033B000D244B2494A85424905618280971700008C
:1033C0009387073A6314F4008044E1B7971700002D
:1033D00093870737E31FF4FAC04465BF1C480840D1
:1033E0009379F90F1379F90F1D8D5C486346F50049
:1033F000A2852685B52455F91C440505FD171CC476
:103400001C401387170018C0238037015C4863896C
:10341000A7008357C400858BD1DBA947E318F9F8CF
:10342000A2852685352C59D149B7411122C426C21F
:103430004AC006C697D4FF1F83A4045A2A892E8443
:1034400089C49C4C99E32685952E97170000938795
:1034500027336314F402C0408317C40013F78700B6
:103460002DEB13F7070115EB25472320E90093E720
:1034700007042316F4007D5559A897170000938779
:10348000272E6314F4008044C1BF97170000938770
:10349000272BE313F4FCC044C1B7918B8DC74C5864
:1034A00089C9930744046384F5004A85712B232A54
:1034B00004028357C4002322040093F7B7FD2316A8
:1034C000F4001C481CC08357C40093E787002316F0
:1034D000F4001C4881EF8357C4001307002093F7C2
:1034E00007286385E700A2854A856D298317C400F4
:1034F00013F717001DC35848232404003307E04086
:1035000018CC1848014501E713F707082DF3B2401E
:103510002244924402494101828013F727008146E8
:1035200011E3544814C4F1BF8397C500011122CCA4
:1035300026CA06CE4AC84EC613F78700AA842E8430
:1035400069E7D8416345E000B8416358E008585442
:1035500049C703A9040023A004000C5093D7C7480F
:10356000B9CB70488357C400918B99C75C401D8EBE
:103570005C5899C33C401D8E5C540C508146268596
:103580008297FD57630DF5041C480567232204004C
:103590001CC08357C400F98F91C368C84C5823A03E
:1035A000240185CD930744046384F50026856929A9
:1035B000232A04021DA00146854626850297FD5751
:1035C0002A86E311F5FA9C40D1DF75476385E70051
:1035D00059476395E70623A024010145BDA0984003
:1035E0008317C40001CFF5466305D700D946631998
:1035F000D7041C48232204001CC04DB718482322BE
:10360000040093D7C74818C041BF83A90501E386CA
:1036100009FC03A905008D8B23A03501330939412D
:10362000014791E3D84918C4E35920FB1C540C50BE
:10363000CA864E86268582976340A0028317C400FF
:1036400093E707042316F4007D55F2406244D24408
:103650004249B24905618280AA993309A940E9B774
:103660009C49411106C622C426C281EB8144B24066
:1036700022442685924441018280AA842E8401C579
:103680001C4D91E3252A971700009387670F631E4F
:10369000F402C0408317C400F1DB7850058B11E7BA
:1036A00093F7072099E3284C712C2685A285EFF02B
:1036B000BFE77C50AA84858BDDFB8357C40093F75A
:1036C0000720D5F7284C41245DB797170000938752
:1036D00027096314F400804475BF9717000093878F
:1036E0002706E319F4FAC04475B7411122C406C68F
:1036F0002A842316B5002317C500232005002322A2
:103700000500232405002322050623280500232A7B
:103710000500232C0500214681451305C505EFD082
:10372000AFAA97170000938767885CD097170000AF
:103730009387A78A1CD4971700009387C78E5CD401
:103740009717000093876791B24000D01CD822449D
:1037500041018280970500009385C5F0B5AA41110B
:1037600026C2930780069384F5FFB384F4024AC00F
:103770002E8922C406C693854407C1262A8401CD1A
:103780002320050023222501310508C41386840661
:103790008145EFD06FA3B240228522449244024972
:1037A000410182801385C18471AA1385C18461AAF5
:1037B0001385018541AA1385018571A2411122C497
:1037C00006C62A84F5371C4C89C72244B240410101
:1037D000DDB797070000938727F81CD4232404043F
:1037E000232604042328040483A701836394870009
:1037F00085471CCC2285152848C022853D2008C459
:103800002285252048C4484001469145EFF0FFED50
:1038100008440546A545EFF05FED48440946C94513
:10382000EFF0BFEC85471CCC4DB7411126C24AC012
:1038300006C622C42A89EFF0FFF683A401839C4CBC
:1038400099E32685A53F938484048044DC40FD17DA
:1038500063D607009C40A5C78440C5BF0317C400BA
:1038600021EFC17785075CC4130584052322040674
:10387000C928EFF09FF321462320040023240400ED
:103880002322040023280400232A0400232C0400FC
:1038900081451305C405EFD02F93232A0402232C5E
:1038A00004022324040423260404B2402285224473
:1038B00092440249410182801304840649BF914524
:1038C0004A85EFF0DFE988C02A8459F5EFF0FFED73
:1038D000B1472320F900D1BF797122D44AD04ECE0E
:1038E00052CC5AC85EC606D626D256CA2A892E8A15
:1038F000130485048149054BFD5B0444832A44007D
:10390000FD1A63D00A0200406DF8B250225492545E
:103910000259624AD24A424BB24B4E85F249456146
:10392000828083D7C400637BFB008397E4006387B6
:103930007701A6854A85029AB3E9A9009384840693
:10394000C1B78280828082805971A2D42E848395EF
:10395000E500A6D2CAD086D6B284368963D30502E2
:103960008357C40093F7070895EB13070040B65040
:1039700026542320F90098C00659965401456561E4
:1039800082803000EF00A072E34C05FC3247BD6737
:10399000F98F7977BA9793B71700C1BF814713079B
:1039A0000004F1B783D7C500797122D406D626D298
:1039B0004AD04ECE898B2E8491CF930774041CC0BD
:1039C0001CC885475CC8B250225492540259F2492F
:1039D0004561828074003000AA84EFF0FFF6A249AE
:1039E0002A892685CE85912A01ED8317C40013F715
:1039F000072071FBF19B93E727002316F40075BFA6
:103A000097070000938747D59CD48357C40008C00C
:103A100008C893E707082316F400B247232A3401A5
:103A200089CF8315E40026857D2501C98357C4000D
:103A3000F19B93E717002316F4008357C40033E586
:103A400027012316A40041B7D1CD83A7C5FF0111DB
:103A500022CC06CE1384C5FF63D307003E942AC64A
:103A6000C525138781851C43324581EB2322040041
:103A700000C36244F2400561C1AD637DF4001040B3
:103A8000B306C4006396D7009443DC43B29614C0D7
:103A90005CC0F9BF3E87DC4399C3E37DF4FE144369
:103AA0003306D700631F86001040B29614C3330656
:103AB000D700E390C7FC9043DC43B29614C35CC3C9
:103AC0004DBF6375C400B1471CC165B71040B30654
:103AD000C4006396D7009443DC43B29614C05CC024
:103AE00040C341BF828041114AC013894185832769
:103AF000090022C426C206C6AA842E8489E781450D
:103B000041212320A900A28526859D297D59631A7C
:103B100025017D54B240228522449244024941014C
:103B20008280130435007198E30685FEB305A44036
:103B30002685B921E31025FFE9BF011126CA938428
:103B40003500F1984AC8A104B14706CE22CC4EC632
:103B50002A89B3F4F40A63C4040063FDB400B147D6
:103B60002320F9000145F2406244D2444249B2495F
:103B700005618280F1239389818583A709003E84B2
:103B800021E8A6854A85EFF01FF6FD572A846317C2
:103B9000F50A03A40900A287C9EB83290400814523
:103BA0004A85A299F12E6395A9081C408D044A8587
:103BB0009D8CF198B147A104B3F4F40AA685EFF007
:103BC0009FF2FD576306F5061C40A6971CC015A082
:103BD0001440858E63C806042D47637DD70204C058
:103BE000330794006396870223A0E9005C4014C366
:103BF0005CC34A85912B1305B40093074400619977
:103C00003307F540E301F5F63A94898F1CC0A1BF54
:103C1000D8C3E9BF58406395870023A0E900D1BF0E
:103C2000D8C3C1BFA2874040A1BF3E84DC43ADB72B
:103C3000B1472320F9004A85012B2DB704C155BF98
:103C40001C46FD171CC663DA0700184E63C5E70063
:103C5000A9476394F5006FF04FF11C422E8513873E
:103C6000170018C22380B7008280011122CC26CA17
:103C70004AC84EC652C406CE2A89AE893284B304DD
:103C8000D6007D5A63149400014511A883450400B1
:103C90004E864A85EFF0DFFA0504E31545FFF24052
:103CA0006244D2444249B249224A05618280357158
:103CB00022CD26CB4AC94EC706CF52C556C35AC1DC
:103CC000DEDEE2DCAA892E843289B68409C51C4D69
:103CD00099E3EFF0BFAE97170000938767AA631AC6
:103CE000F40403A449007C50858B89EB8357C400FE
:103CF00093F7072081E7284CEFF0DFC48357C40017
:103D0000A18B99C31C48ADE3A2854E85EFF0EFF17E
:103D100021CD7C50858BA1C37D55FA406A44DA449D
:103D20004A49BA492A4A9A4A0A4BF65B665C0D61CF
:103D30008280971700009387A7A26315F40003A45D
:103D4000890055B7971700009387879FE31DF4F804
:103D500003A4C90049BF8357C40093F70720CDFFD0
:103D6000284CEFF05FBE4DBF93070002A304F102A1
:103D70009307000302D22305F10226C6930B5002DB
:103D8000971A0000938ACAA1294BCA8483C70400EA
:103D900099C3639C7709338C2441638E2401E286A6
:103DA0004A86A2854E85EFF05FECFD57630DF5184E
:103DB0009257E2973ED283C7040063860718FD57E7
:103DC0001389140002C802CE3ECA02CCA309010422
:103DD00082D48345090015465685B126C24793040F
:103DE000190031E513F7070109C713070002A309FA
:103DF000E10413F7870009C71307B002A309E10420
:103E0000834609001307A002638AE602F247CA84C8
:103E10008146254603C7040093851400130707FD58
:103E20006374E60685C63ECE15A0850485B73305C6
:103E30005541B397A72826893EC861BF32479306EC
:103E40004700184336C6634A07023ACE03C7040048
:103E50009307E002631EF70403C714009307A00250
:103E6000631AF702B2478904138747009C433AC696
:103E70007D57B3E7E70A3ECA25A83307E04093E73A
:103E800027003ACE3EC8D9B7B3876703AE848546CC
:103E9000BA9749B7850402CA81468147254603C7B8
:103EA000040093851400130707FD6374E606E1F62A
:103EB00083C504000D46171500001305E58EA524E3
:103EC00011CD971700009387278E1D8DC2471307CA
:103ED00000043317A700D98F85043EC883C50400AA
:103EE0001946171500001305658C13891400230467
:103EF000B102152C25CD9307000095E74247B24744
:103F00001377071009CF91073EC69257D2973ED23A
:103F1000ADBDB3876703AE848546BA9749B79D07A1
:103F2000E19BA107D5B7780097060000938626D4B9
:103F300022860C084E8597000000E7000000FD5720
:103F40002A8AE314F5FC7C50858B89EB8357C400E7
:103F500093F7072081E7284CEFF0FF9E8357C400BA
:103F600093F70704E39A07DA125545BB78009706E2
:103F700000009386C6CF22860C084E85F92CC1B767
:103F8000411122C42A842E8523AE018406C6EFD0B7
:103F9000EF8BFD576316F50083A7C18591C31CC045
:103FA000B240224441018280411122C42E84839573
:103FB000E50006C63523634905007C48AA977CC8FE
:103FC000B2402244410182808357C4009397C7487E
:103FD0002316F400F5B783D7C500011122CC26CAF9
:103FE0004AC84EC606CE93F70710AA842E8432899B
:103FF000B68991C78395E50089460146012283571A
:10400000C4008315E400F2409397C7482316F400D8
:104010006244CE864A86B24942492685D244056129
:1040200035A8411122C42E848395E50006C6F920E7
:104030007D578357C400631AE5009397C74823163A
:10404000F400B2402244410182809397C72868C897
:104050002316F400FDB78395E5003DA0411122C46D
:104060002A842E85B285368623AE018406C6EFC02B
:104070007FFBFD576316F50083A7C18591C31CC064
:10408000B240224441018280411122C42A842E85FB
:1040900023AE018406C69529FD576316F50083A754
:1040A000C18591C31CC0B2402244410182804111AC
:1040B00022C42A842E85B28523AE018406C6A12996
:1040C000FD576316F50083A7C18591C31CC0B2409C
:1040D000224441018280411122C42A842E8523AECC
:1040E000018406C63D29FD576316F50083A7C185E7
:1040F00091C31CC0B240224441018280411122C4BC
:104100002A842E85B285368623AE018406C6052113
:10411000FD576316F50083A7C18591C31CC0B2404B
:1041200022444101828093F5F50F2A966314C5005D
:104130000145828083470500E38DB7FE0505FDB785
:10414000138581846FF01F80138581846FF0AFFF2A
:10415000797156CA9C49BA8A984522D44AD04ECE23
:1041600052CC06D626D25AC85EC6B3E7E70A1CC2AE
:1041700003C73504AA892E843289368A19C3850774
:104180001CC21C4093F7070291C7832709008907C7
:104190002320F9000440998891E8130B9401FD5BFA
:1041A0005C4403270900998F63CCF40483473404EB
:1041B000B336F0001C4093F70702A5EB1306340456
:1041C000D2854E85829AFD576303F5041C40114742
:1041D0008144998B6399E7008327090044449D8CAF
:1041E0008147B3E4F40A1C4418486354F700998FDC
:1041F000BE94014969047D5B63982405014509A8C3
:1042000085465A86D2854E85829A631E75017D55F4
:10421000B250225492540259F249624AD24A424B55
:10422000B24B456182808504A5BF3307D4001306D5
:104230000003A301C7040347540493871600A29701
:104240008906A381E7049DBF85462286D2854E85D7
:10425000829AE30E65FB050945B7797122D44AD0ED
:104260004ECE52CC06D626D256CA5AC803C88501AD
:10427000930780072A892E84B289368A63E207036E
:10428000930720069386350463E107036301081E44
:1042900093078005170600001306C651630BF81438
:1042A000930424042301040515A89307D8F993F770
:1042B000F70F5546E366F6FE170600001306065292
:1042C000B3C7C7209C43B29782871C4393842504BD
:1042D000938647009C4314C32381F50485475DAA58
:1042E00090411C43137506089385470039C19C43D0
:1042F0000CC3584063D307149305D002A301B40440
:1043000018C463500704B307F040170600001306F3
:10431000664A2948B68433F70703FD1432970347EA
:1043200007002380E4003E87B3D70703E37507FF48
:104330008DA09C43137506040CC345DD939757600D
:104340004DBF6D9A10C0C1B790411C43137506084C
:104350009385470001C50CC39C4339A0137606041E
:104360000CC37DDA83D707001307F0061706000099
:10437000130646446311E80C2148A3010404584085
:1043800018C4E34907F80C40ED990CC0C1F7B68496
:1043900051F3A147631EF8001C40858B91CB584018
:1043A0001C4863C7E70093070003A38FF4FEFD14C6
:1043B000858E14C85287CE867000A2854A85EFF09C
:1043C0003FD9FD5A631C550D7D55B250225492546D
:1043D0000259F249624AD24A424B456182809C416D
:1043E00093E707029CC11308800717060000130615
:1043F000A63DA30204050C401C4313F805081385D1
:1044000047006305080008C39C4301A813F805048E
:1044100008C3E30B08FE83D7070013F7150001C795
:1044200093E505020CC099C3414881BF184013773A
:10443000F7FD18C0D5BF294889B717060000130635
:10444000663729482DBF90411C43CC491378060894
:10445000138547006306080008C39C438CC301A86A
:1044600008C3137606049C4375DA2390B70023280B
:104470000400B68481B71C43D04181459386470030
:1044800014C384432685EFF01FCA01C5B3079540C6
:104490005CC05C401CC8A301040429BF14482686E4
:1044A000CE854A85029AE30155F31C40898B85E746
:1044B0004844B2473365F50A09BF85465686CE851E
:1044C0004A85029AE30265F185045C443247998F7C
:1044D000E3C5F4FEF1BF8144930A94017D5BF5B717
:1044E000411122C42A842E85B285368623AE0184EA
:1044F00006C6A120FD576316F50083A7C18591C3A9
:104500001CC0B2402244410182809307800523AE43
:10451000F1847D5582809307800523AEF1847D551B
:1045200082809307800523AEF18401458280930742
:10453000800523AEF1847D5582809307800523AEEC
:10454000F1847D55828000004572726F723A202599
:104550003032580A000000002F4335312F2A000066
:10456000537461727420404368697049443D25303A
:104570003258200A000000005761697420446576B3
:1045800069636520496E000053746172742055445C
:1045900049534B5F64656D6F204043485256335515
:1045A0004649206C696272617279000057616974D2
:1045B000204469736B526561647900004F70656EC9
:1045C000000000002F4335312F43485256334846F0
:1045D000542E4300B2BBB4E6D4DAB8C3CEC4BCFE9A
:1045E000BCD0D4F2C1D0B3F6B8F9C4BFC2BCCBF9C9
:1045F000D3D0CEC4BCFE00004C6973742066696CD5
:10460000652025730A00000020206D617463682016
:1046100066696C652025303464233A2025730A00CE
:1046200055C5CCD1DDCABECDEAB3C90055C5CCC392
:10463000BBD3D0D7BCB1B8BAC320455252203D2518
:104640003032580A00000000B3F5CABCBBAF55C5F4
:10465000CCCAA7B0DCA3ACC7EBB0CECFC255C5CC9B
:10466000D6D8CAD400000000B6C8FFFFCEC8FFFFEE
:10467000F2C8FFFFFCC8FFFF12C9FFFF55534220DD
:1046800064657620696E000055534220646576208B
:104690006F757400774C656E6774683A2025780AE8
:1046A000000000006252657175657374547970651D
:1046B0003A2025780A00000053656E643A2025648C
:1046C0000A000000526573657420686F737420706F
:1046D0006F727400782530325820000047657443AB
:1046E000666744657363723A20000000496E69741E
:1046F000526F6F7444657620457272203D202530DC
:1047000032580A0044697361626C6520686F737483
:1047100020706F72742062656361757365206F66C7
:1047200020646973636F6E6E6563740047657444DB
:10473000657644657363723A200000000000000053
:104740000000000000000000000000000000000069
:104750000000000000000000000000000000000059
:104760000000000000000000000000000000000049
:104770000000000000000000000000000000000039
:104780000000000000000000000000000000000029
:10479000000000000000000000000000232D302B6E
:1047A00020000000686C4C006566674546470000C5
:1047B0003031323334353637383941424344454657
:1047C0000000000030313233343536373839616219
:1047D0006364656600000000F2FAFFFF08FBFFFF5C
:1047E000C8FAFFFFC8FAFFFFC8FAFFFFC8FAFFFFC9
:1047F00008FBFFFFC8FAFFFFC8FAFFFFC8FAFFFF78
:10480000C8FAFFFF6EFCFFFF70FBFFFF06FCFFFF17
:10481000C8FAFFFFC8FAFFFF9EFCFFFFC8FAFFFFC0
:1048200070FBFFFFC8FAFFFFC8FAFFFF0EFCFFFF97
:10483000000000007C4700005C4700003C4700008F
:104840000000000000000000000000000000000068
:104850000000000000000000000000000000000058
:104860000000000000000000000000000000000048
:104870000000000000000000000000000000000038
:104880000000000000000000000000000000000028
:1048900000000000100E00206C0900200201000042
:1048A00000000000000900000000000000050200F8
:1048B00000000000800600020000040080060001E5
:0848C000000012006C09002049
:00000001FF
