:047000006F00D01934
:107004000000000000000000A00000200205002095
:10701400A9BDF9F3A000002000000000000000005A
:10702400A0000020A00000200000000000000000DC
:10703400A000002000000000A000002000000000CC
:10704400A0000020A0000020A0000020A00000203C
:10705400A0000020A0000020A000002000000000EC
:10706400A0000020A0000020A0000020A00000201C
:10707400A0000020A0000020A0000020A00000200C
:10708400A0000020A0000020A0000020A0000020FC
:10709400A0000020A0000020A0000020A0000020EC
:1070A40001A0B7170040984B41111367070198CB13
:1070B40003C707011377E70F2388E7001307800846
:1070C40073370780137787083AC60F100000130739
:1070D40070052380E704130780FA2380E7040F1068
:1070E4000000B847B70600069506558FB8C703C712
:1070F400B7041377F70DA385E70403C7A700136745
:1071040027012385E700130750142394E70037274A
:1071140000408346578093F6F60EA302D780894633
:10712400A303D78003C7E7041377C70F13671700B8
:107134002387E70403C7F70213672700A387E7023F
:1071440003C70701136717002388E7002380070498
:10715400B247F3A707800F10000041018280EFF0CF
:107164005FF4177500E01305650B97050000938520
:10717400A50A171600001306668263FAC500832267
:10718400050023A0550011059105E3EAC5FE178506
:1071940000E0130565C79715000093852580170641
:1071A40000001306A67F63FAC5008322050023A00E
:1071B400550011059105E3EAC5FE17050000130506
:1071C400E57D938501816377B500232005001105D2
:1071D400E36DB5FE93025002739002BC8D4273902E
:1071E40042808542739012BC896293828288739034
:1071F4000230970200009382E2E093E2320073903F
:107204005230978200E09382A293739012347300F9
:047214002030000026
:10721800411122C683A7C18091C783A7C1808297E5
:1072280023A601803244410173002030B7F70700DC
:10723800D853B7170020411123A0E79AB717004089
:10724800984B1367070198CB03C707011377E70F1C
:107258002388E700130780087337078013778708A8
:107268003AC60F100000130770052380E7041307C0
:1072780080FA2380E7040F1000001307000C63193D
:10728800E50203D787001367070C2394E700B717B5
:10729800004003C70701136717002388E70023800E
:1072A8000704B247F3A707800F100000410182804E
:1072B80003C7A70093760520C9C2118B39E703C716
:1072C800E70403C6E7041377F70F1366360023872E
:1072D800C70403C6A700136646002385C70003D664
:1072E800870083D587003346060893E5050C239469
:1072F800B700A5470100FD1793F7F70FE5FFB7178C
:1073080000402394C7002387E70493770510DDCB5B
:10731800371700408347A70093E707012305F700C5
:107328009377F50185E3B727004003C757801367B4
:107338000701A382E7801D4715A01367270023854F
:10734800E700E1B72547636BF704B727004003C799
:1073580057801377F70EA382E7800547A383E7805A
:1073680033450508B71700401367050C2394E70059
:107378002394A700C9C203C7570483C65704418B87
:10738800858A558F09F703C72701418B09D303C79E
:10739800A7001377D70F2385E700D5BD937705019D
:1073A80099EBB727004003C757801377F70EA382DE
:1073B800E780094765B7B727004003C757801377A9
:1073C800F70E85BF9377850181EFB727004003C784
:1073D80057801377F70EA382E78013071005BDBF08
:1073E800B727004003C757801377F70EA382E780BB
:1073F80013077005A5B703C7A7001377B70F61BFB9
:1074080037E700E01C4354437D56A183E206D58F3D
:107418009306071890C2D0C2B7060020370600208E
:10742800938506001306462103A8850390DD23A64D
:10743800A1809165130507100CC1130707200CC321
:107448009386060003A7C18075FF37E700E0116641
:107458002320C7180F10000023AC0603939687005B
:107468002320D710E1832322F7108280177300E0CE
:10747800E702235A41118146014681451145F52A03
:1074880093078008F3B7078093F787083EC60F1065
:107498000000B7170040130770052380E70413079F
:1074A80080FA2380E7040F10000003C767041367FE
:1074B80017002383E70423800704B247F3A7078054
:1074C8000F1000004101177300E06700C35637E74B
:1074D80000E01C435443A183E206D58F1CC1FD572D
:1074E8002320F7182322F718828013178500B7E79F
:1074F80000E023A0E710618123A2A7108280411138
:1075080081460146814511458D2A13078008F337C6
:10751800078093F787083EC40F100000B717004094
:10752800130670052380C704930680FA2380D704C6
:107538000F100000FD552396B70223800704A245CB
:10754800F3A505800F1000007337078013778708AD
:107558003AC60F1000002380C7042380D7040F10F9
:10756800000003C76704136717002383E704238019
:107578000704B247F3A707800F10000001A0930784
:10758800E0043305F50295473355F50201007D15F2
:1075980075FD8280177300E0E702A3472A8413056C
:1075A800803E7D14E93F3344040875F8177300E002
:1075B800670063482E96AA870F70B67882802303E7
:1075C800048015472303E48001002302A4808280FD
:1075D80083076480E3CE07FE230304808280830749
:1075E8006480E3CE07FE034544808280830764807D
:1075F800E3CE07FE2302A4808280411126C44AC23A
:107608004EC006C61377F50BAD47AA892E89954457
:107618006306F70019456537653F8D444E85453744
:10762800FD59FD1463983401B240A24412498249BD
:1076380041018280135509011375F50F453F220951
:10764800CDB7011126CC06CEB70408005137154531
:10765800BD37713769372AC6A53F3245937715007C
:1076680089EB136515001375F50FF240E2440561C7
:107678008280FD14E9FC0145CDBF3971B7F70700D9
:1076880006DE26DC4ADA4ED852D656D45AD25ED016
:1076980062CE03AB47027D57B7E700E083AA070035
:1076A80022C603AA470023A0E71823A2E718B71B9E
:1076B8000040930770052380FB04930780FA23801A
:1076C800FB0483C74B041147AA8993E7070E23825B
:1076D800FB04372400401305F00F2303E4802E8CAD
:1076E8003289B684E93DED35938779FF93F7F70F33
:1076F8000947137BFB006362F712A14737070800AD
:107708006307FB00B70707003E9C378707007955DA
:10771800637EEC02B3878401636AF702A947639822
:10772800F90689E481446D3526850DA0E285094571
:10773800E93505090345F9FFFD14050C453D81C4EC
:107748009377FC0FFDF7F53D69FD7D55B7170040B0
:10775800130770052380E704130780FA2380E704E2
:1077680003C74704418B2382E704F250B7E700E0E0
:1077780023A0571123A24711E25432445259C25947
:10778800325AA25A125B825B724C21618280A547F1
:10779800639AF906A1478569631DFB029387F9FF80
:1077A800B3869700B374FC00B69493C7F7FFFD8CBB
:1077B80033FC8701416B856B9387F9FFB3F787012A
:1077C80099E363FF340193D94900C147E3E637FFE2
:1077D80091BF9307F00FE9B78567C169FD17C9B76E
:1077E8001305800D6388690113050002638479011C
:1077F80013051008E2851135A93521D94E9CB384AB
:107808003441C1B7E2852D45CD3BCA94E30C99F0CC
:107818000509F133A30FA9FED5BF9387F9FF93F7A5
:10782800F70F636FF70AA1476319FB06B70708004C
:107838003E9C83C75B043707070093F7070299E369
:1078480037870700B70708003E977955E370ECF0D3
:10785800B3079C00E36CF7EE8947639AF9048980C3
:10786800D549E38104ECE2850945413B1109032729
:10787800C9FF91472320E48003076480E34E07FE95
:1078880023033481FD17EDFBFD14110C81C493779C
:10789800FC0FE9FF7D3371F54DBD83C75B043707E6
:1078A800070093F70702D5F33787070079BF8547A5
:1078B800E384F9F2E2852D4589339389F4FFE38364
:1078C80004E6313B93F7390091EB832604800327C4
:1078D800090093074900E398E6E43E89CE84F1BFA6
:1078E800B5476396F9001305900BD13925BDB1470B
:1078F8001305B00AE38BF9FE99476394F904A1478D
:107908006315FB00B70708003E9CE2852D45F5315D
:1079180081440D4BA149E1316396640183270480BA
:107928002320F9008504E39834FF83270480131784
:107938002C01635507002312F900EDB32322F90047
:10794800D5B39D476399F90281451305B004753194
:10795800BD442320090023220900FD59493193F72A
:107968007400CA9703C70700FD14398D2380A70048
:10797800E39634FF45BB91476399F9001305600608
:107988003D39B931130590098DB7E38D09D8F15404
:0479980059BB0000D7
:10799C009791FF1F9381C17F178101201301C1654E
:1079AC0017F5FFFF130585659785FF1F9385C56444
:1079BC001796FF1F1306868563FAC5008322050000
:1079CC0023A0550011059105E3EAC5FE1785FF1F9D
:1079DC00130565780285397101436EC619A039719A
:1079EC0041536AC866CA62CC5ECE19A03971015384
:1079FC005AD056D252D44ED64AD826DA22DC06DEDB
:107A0C0033016140828241114AC026C222C406C69B
:107A1C008282B24D4101024D924C224CB24B41013B
:107A2C00024B924A224AB2494101024992442244F1
:107A3C00B24041018280EFF21FFDB7170040116781
:107A4C0023ACE70AC1450545C922854521653D2A78
:107A5C008D451165252A6524C9BFEFF2DFFA411166
:107A6C0093D7C5002AC6D20585E13EC4371900203C
:107A7C008327C9993707871A130707F06388E7002C
:107A8C001305F00F410155B78507C5B7371700200F
:107A9C00832687993757AA551307A75AE392E6FE10
:107AAC0069773A9531676379A7020145E1BF83276E
:107ABC00C999E39787FCB2458566014605459790C1
:107ACC00FF1FE78040BBB24705678504BA973EC6E7
:107ADC00A247E3EEF4FCD1BF81443E84D5BFEFF264
:107AEC009FF2B757AA55371400209387A75A85657C
:107AFC001965232CF4989537232C04983DB78545AC
:107B0C00054569A0EFF23FF037140040CD3F130458
:107B1C00440A1C400145858B99EB1305800C97900A
:107B2C00FF1FE780E0A608401345F5FF0589F5BD6A
:107B3C00EFF2DFEB130550349780FF1FE780C06E28
:107B4C00DD3D2165130505D8D522553FB707871AAA
:107B5C0037170020938707F0232EF798A16421692B
:107B6C0081492164453709C91385C4DAC12213053B
:107B7C0009DD6D2AAD3782991305800C9790FF1F94
:107B8C00E78000A1130544DE5522E9BF914763EA63
:107B9C00B704A167938707DFB3C5F5209841B717E2
:107BAC0000409387470B0287944337170040B3F686
:107BBC00A64094C39306070B9C42B3F7A74019A8A1
:107BCC00944337170040B3F6A64094C39306070BB3
:107BDC009C42C98F9CC29307070A98433377A740EE
:107BEC0098C38280944337170040C98ED9B7984305
:107BFC003377A74098C3B71700409387070A984379
:107C0C00498FF9BF9843498FF5B709C93717004019
:107C1C0083578701CD8F231CF7008280B717004054
:107C2C0003D78701B375B740239CB7008280B71781
:107C3C00004003D787009306000C1377070C630FE3
:107C4C00D70403D78700137707101DC703D7870006
:107C5C0083D787007D8B09EB93F70720A1C7375596
:107C6C00E80113050580828037C59812FD8B13053A
:107C7C0005E03345F502828003D7870083D7870060
:107C8C0013770720FD8B11C73755E80113050580C5
:107C9C00CDB73725F40013050540E1BF2165130569
:107CAC0005D082803725F40013050540828032858B
:107CBC00814737370040A14663C3A7008280034643
:107CCC00B700E30ED6FE3386F500034606008507A3
:107CDC002304C700D5B7EFF21FD32A84893F294765
:107CEC00B307E5028D83B3D787029507B3D7E702B5
:107CFC0037370040B3C707082316F7003DB3EFF240
:107D0C009FD0716513050520F937B737004013076D
:107D1C0070F82381E7000D47A381E70013070004E7
:107D2C00A380E70005472387E70001B3011122CCAC
:107D3C0026CA06CE83070500AA840144A307F100D6
:107D4C00050499EFA9479305F10005460145A307E2
:107D5C00F100B13FF24022856244D2440561828039
:107D6C0005469305F10001459937B3878400838755
:107D7C000700E9B75468697320697320612041508A
:107D8C005020636F646520666F72206120494150FA
:107D9C00206170706C69636174696F6E0000000023
:107DAC00526573657420436869702C20707265701D
:107DBC0061726520746F204A756D7020546F204974
:107DCC0041500D0045726173652056657269667984
:107DDC002D436F64650D00005553455220436F646D
:107DEC00650D0000B47B0000CC7B0000F07B000034
:087DFC00FA7B0000107C00007E
:040000030000700089
:00000001FF
